:10000000002000101B010000E9000000EB000000D0
:1000100000000000000000000000000011DDFFEF04
:10002000000000000000000000000000ED000000E3
:100030000000000000000000EF0000008911000037
:10004000F3000000F3000000F3000000F3000000E4
:10005000F3000000F3000000F3000000F3000000D4
:10006000F3000000F30000000000000000000000AA
:100070000000000000000000F3000000F30000009A
:10008000F3000000F3000000F3000000F3000000A4
:10009000F30000009D0E0000F1090000F3000000D5
:1000A000F3000000F3000000F3000000F300000084
:1000B0000000000000000000F3000000000000004D
:1000C0001062000000000010F8080000106200003C
:1000D0000040002000000000F80800108C03000021
:1000E0000040002000000000FEE7FEE7FEE7FEE71C
:1000F000FEE7FEE710B5002A05D00023C458CC5017
:1001000004339A42FAD810BD002905D000230022FA
:10011000C25004339942FBD8704770B5184A116831
:10012000C0231B050B431360164A174B9A4224D277
:10013000144C154E23000C3425009A685968186831
:10014000FFF7D8FFB442F5D3104B9D420ED22C00DE
:100150000E4E013E761BF608002561682068FFF709
:10016000D3FF2B0001350834B342F6D100F038FC40
:1001700004F0D4FD00F05AFCFEE71500E4E7C046A9
:1001800080800440C0000000D8000000E8000000AB
:10019000032A01D0002070470B8A023A93430B8256
:1001A000F8E7FFFF70B50C00022A03D0042A24D020
:1001B000002070BD1A4B1B681B685B6C8A680321AA
:1001C000984780B2E081638A5B070AD5638A04227C
:1001D000934363820028EBD0638A023A134363821D
:1001E000E6E7638A1B07E3D5638A082293436382A9
:1001F000638A073A13436382DAE74A8A06231A427C
:10020000D6D17A33064A12681268956C9B008A68C8
:100210000321A847638A042213436382C8E7C046C8
:1002200098000010024B802252001A820020704772
:10023000F8080010C943C9B2014B19750020704776
:10024000F8080010F0B595B006000F001400264D18
:100250002860FF232B754822002102A804F08BFDA3
:1002600063680293A36803930221F86800F0F0F832
:100270000490F8680A2100F0EBF805901B4B1193ED
:100280001B4B0F932A1D1B4B1B685B695B6802A904
:1002900030009847002824D1029A134B9A6080219D
:1002A00089008C4662440292039A019212498C465C
:1002B000624403920F4A1268526855680F4A072138
:1002C0003000A847002808D10A4B1B685B685D68AE
:1002D000054B0B4A06213000A847029B6360039B35
:1002E000A36015B0F0BDC046F8080010250200005C
:1002F000350200009800001000FEFFFF9101000091
:10030000A501000070B5164BDC89002C01D120003E
:1003100070BD9B89E21A8A4200D90A0094B2120485
:10032000120C0F4DA968C91804F01CFDAB89E31825
:100330009BB2AB810B4980228020C0038850EA89A0
:100340009A4207D8064B5A8A02218A435A820022CF
:10035000DA819A81034B8022D2031A60D7E7C04624
:10036000F808001000E100E0014BD8897047C04652
:10037000F808001010B502000B4C248A0020E30599
:1003800010D5094B1B8ADB070CD4074B188A0124B4
:10039000204318821868054B1B681B681C6D0B00F6
:1003A0008321A04710BDC046F80800109800001037
:1003B000054B188A01231840434258414042032309
:1003C000184003387047C046F808001010B582B0D6
:1003D000202002F075FA00230193019BFF2B05DC1E
:1003E000019B01330193019BFF2BF9DD012002F0FA
:1003F00017F9802002F042FA134B23229A608020E2
:1004000002F05EFA10490122CB681A42FCD00E4C71
:100410000123A3670D4A136903218B4301390B4361
:100420001361032002F028F9012002F00FF92323C1
:1004300023618020400002F043FA210001224B6931
:100440001A42FCD002B010BD0080044000C003403E
:100450000378002B05D100200BE0C0180378002B97
:1004600006D04278042AF8D142798A42F5D100E0D8
:1004700000207047F0B5C64600B590B080460D002C
:1004800017001E00002933D04B79032B33D102AC67
:1004900038220021200004F06EFC012323723B6807
:1004A0000293336803930595144B0793144B0893F9
:1004B00014490C910D91144B1B886A46138000233C
:1004C0009370124B01930692114B1B681B695B687A
:1004D0002100404698470500029B3B60039B336028
:1004E000404601F05DF8280010B080BCB846F0BD71
:1004F00001256D42F7E701256D42F4E7651500001F
:100500006D15000091150000EC570000F057000039
:1005100098000010F0B597B005000E0005AC44221D
:100520000021200004F027FC2D4B059305232373A5
:100530002C4B069380231B0107932B4B0D932B4BC6
:1005400000932B4B0193002E11D02A4B039302935F
:1005500000230493284B1B681B685B6805AA694647
:1005600028009847041E06D0200017B0F0BD234B8A
:1005700003930293ECE703210398FFF769FF01005F
:1005800007AB06AA2868FFF775FF041EECD11A4BCB
:100590001B681B689F6D01230F2200212868B84744
:1005A000002E0DD0002818D1154B8022D2031A60DE
:1005B0002868114B1B681B689B6801219847D3E78B
:1005C00005AA69462868FFF73DFE002801D004000F
:1005D000CAE7286800F0ECFDE6E70400C4E7C0467F
:1005E00000000840004000201D0A000010580000D4
:1005F0002458000000000010980000102C0000108B
:1006000000E100E00023882292008354074A8354CB
:10061000074A8354074A835401328354064A835459
:10062000064A8354064A83547047C046210200009C
:100630002202000023020000250200002602000022
:100640002702000010B50400FFF7DCFF200010BDFA
:100650000100002088239B00CA18135C002B04D0E3
:1006600001300828F9D109387047091888239B0000
:100670009C46614401230B70F6E707290DD8431807
:1006800088229200944663441B78002B08D04018BF
:100690006044002303700020704701204042FBE7C4
:1006A00001204042F8E7072904D80B0159188900B6
:1006B000401870470020FCE710B50248FFF7C2FF62
:1006C00010BDC0461009001000238361C36170474C
:1006D00003008069DB69C01A43425841404203234A
:1006E00018407047481C0522C30FD11782424B4166
:1006F0005B421840704770B504000D00FFF7E8FF3B
:10070000032809D0A3699B001B592B60A169200015
:10071000FFF7E8FFA061002070BD10B50400C169BB
:10072000FFF7E0FFA369C01A43425841400010BDE3
:1007300070B504000D00FFF7F0FF022807D0E16953
:100740008B001D512000FFF7CDFFE061002070BD40
:1007500010B50648FFF7B8FF0548FFF7B5FF054895
:10076000FFF7B2FF0448FFF7AFFF10BD980B001072
:10077000380B0010780B0010580B00100648C90009
:10078000435C40180179012042405B01A020C00574
:10079000844663445A547047B4580000F8B5CE46B6
:1007A000474680B5060001235B428360C360123375
:1007B00019220121144802F03AF8144D0024FF23B5
:1007C00098468027BF01FE3B99462B68424613405E
:1007D0009B00A022D20594466344D85969684246DA
:1007E00011404A468A400243DA510022210030007B
:1007F000FFF7C4FF01340835042CE6D13000C0BC3B
:10080000B946B046F8BDC04600400440B4580000A8
:1008100070B505000024AB681A1B53425A41D2B28E
:1008200021002800FFF7AAFF0134042CF3D170BD8A
:10083000C068022808D0032807D00138431E984119
:10084000404201239843033070470520FCE7FFFF37
:1008500010B58CB0040000238360C3600361436162
:10086000A021C90539228A5C51424A410270436085
:100870003E22079208936B460733099301230A939C
:10088000114B1868FA21890004F0BCF90B9002A9F9
:1008900007A804F04DF8029B002B0CD06B460022F9
:1008A000DA716B4607331B78A360E3602000FFF723
:1008B000AFFF0CB010BD6B4607331B78032BF0D98C
:1008C0006B460022DA71ECE7500C00100300A02107
:1008D000C90539228A5CD2B20078002810D0002ADB
:1008E00002D15A60002070475A68042A04D90022B5
:1008F0001A705A600020F6E701325A600020F2E7D1
:10090000002A0BD15A68042A05D901221A70002244
:100910005A600120E7E701325A60E4E700225A609A
:10092000E1E7FFFF30B58BB00400FFF7CFFF051EF6
:1009300012D0A3680133032B0BDCA36007232361D0
:10094000123363612000FFF763FF002528000BB01E
:1009500030BD0023A360F1E72269002AF6D0636965
:10096000002B01DD013B63616369002BEED1013A8D
:100970002261002A20DCA168E3688B42E6D0E160B6
:1009800001222000FFF7FAFE6B46E268DA700333BB
:100990003D220592002206920793012308930B4BF8
:1009A0001868FA21890004F02DF9099001A905A819
:1009B00003F0BEFF0125C9E719336361183B1A40F4
:1009C000A1682000FFF7DAFEC0E7C046500C001017
:1009D00010B50248FFF7E2FE10BDC046B80B00108C
:1009E00010B5024800F03CFB10BDC046000C0010E2
:1009F00070B5084D084C23681B689E6D01230F22BB
:100A000000212868B047286823681B68DB6898477E
:100A100070BDC046D00B001098000010024A136849
:100A20000133136000207047D40B0010F0B5D64698
:100A30004F464646C0B50023514A1370514A1360D1
:100A400001F09AFD504C200000F018FB200000F04F
:100A500093FB00281FD04B4B04221A604B48FFF732
:100A6000D7FE484B1B68042B1FD0E121002249020E
:100A7000474800F0A3F8434B196801394B425941EC
:100A8000C9B24448FFF746FD04000026424D434BDF
:100A900098463C4F18E03D4C2000FFF7D9FE20005F
:100AA000FFF7C6FE374B1860DBE701223C493848A8
:100AB00000F084F8DFE73B4800F096FB13E03A4B88
:100AC0001B689B1B092B1BD8002CFDD1280000F0B4
:100AD00095FF0100404600F09DFC280000F096FFC5
:100AE0003B68012BE7D12A4800F030FA0028E6D015
:100AF000244B1B68042BE2D12A4800F065FBDEE79B
:100B0000294B1E68294B19684A1E9141C9B21C4ADB
:100B1000117000221A601C4B9946180000F066FA0A
:100B2000484600F08FFA0028CED01848FFF7FAFEAA
:100B30000028C9D0134B99461B689A461348FFF703
:100B400077FE4B461860012802D05346012BBBD1DB
:100B5000104B1868164B1B681B689B680021984750
:100B60001149FA2252000B689B1B9342FBD9BFF339
:100B70004F8F104B104ADA60BFF34F8FFEE7C0462D
:100B8000D80B0010FC0B0010000C0010B80B00106C
:100B9000DC0B0010D00B0010340C0010200C0010E7
:100BA000F0230000140C00100C0C0010D40B0010EB
:100BB0009800001000ED00E00400FA05F0B5C6460C
:100BC00000B588468024274B8021890319510123D1
:100BD0005B4243618361C3610026C66086724272D4
:100BE000214D04330E220121280001F020FE0323B1
:100BF0000D220121280001F01AFE1C4B19598022F8
:100C000052010A431A51982201259D50184C832104
:100C1000E1609F6F9958174B1868784303F0F2FF13
:100C20000009414603F0EEFF030A6360FF2318400A
:100C30002060FC3BE3608433A360266163682B4340
:100C4000636063691D4205D0230001211A685A6957
:100C50001142FBD1034B802292031A6080BCB8463C
:100C6000F0BDC04600E100E00040044000800440C8
:100C700000800040500C001070B50400824B5B688F
:100C80009B070ED5804B5B699B060AD5C268002A7C
:100C900042D101235B4243617B4A536802218B436B
:100CA0005360794B9A685B69DB074FD5637A002BF9
:100CB00052D0E169002939DB7448FFF7F4FC606029
:100CC00000232361704B5B690330DB070CD56E4A50
:100CD00001251368037023690133236151690D42B3
:100CE00002D001303F2BF4DD237C6268511C61602F
:100CF0000333137063685A1C626000221A70022367
:100D000062681370E1696248FFF712FD00281ED186
:100D100001235B42E36119E00F2A00DDA6E0002316
:100D2000C360531E002A00DDA3E0BAE75748FFF76F
:100D30008FFC011EE061BFDA534B5B69DB0705D511
:100D4000514B01211A685A691142FBD170BDE1690A
:100D50004E48FFF792FCDBE7A37A002B19D00E2355
:100D60001A400C2A0CD1484B5B69DB0705D5464B72
:100D700001211A685A691142FBD10023A372E5E7E9
:100D8000414B1A681A681A681A681A681A681B6848
:100D9000DCE7E369002B26DB3B4D01216B6919423F
:100DA000D4D0E369002BD1DB2B68626813706268D2
:100DB000531C6360237A12789B18DBB2237222697A
:100DC000013A2261002AE9D1FF2B2DD0E1692F4899
:100DD000FFF753FC6B69DB0701D50123A3720123E5
:100DE0005B42E361D9E7284B1D68EDB2AB1E412B96
:100DF00002D90123A372A9E72448FFF729FC011EA9
:100E0000E06102DA0123A372A0E72048FFF74BFC60
:100E10002572431C63600570013DEDB22561A37A24
:100E2000002B00D092E7B7E7E1691848FFF73BFCD9
:100E300060608378012B08D0022B0DD0032B10D0DB
:100E4000E1691248FFF719FCC9E7E1691148FFF7AA
:100E50006FFC0028C3D0F3E7E1690D48FFF768FC99
:100E6000F7E7E1690C48FFF763FCF2E7103AC2606C
:100E70000F2305482268511C2160127802601A0075
:100E8000013B002AF6DC0CE700800040100900104E
:100E9000380B0010780B0010580B001010B50248EA
:100EA000FFF7EAFE10BDC046DC0B001070B5040071
:100EB0000D004369002B3EDA2148FFF7F4FB06786A
:100EC000B11EC9B2412938D8637A002B0ED1821CD9
:100ED000F31EDBB200292AD011787618F6B2013B56
:100EE000DBB20132FF2BF7D1F643F6B2154A80236D
:100EF00080218903D15029001148FFF7D4FB2060DD
:100F00000378E360627A002A13D003302060033B49
:100F1000E36065610C4A536802210B435360094B3F
:100F2000802292031A60FE315A50002070BD0226C2
:100F3000DAE74670EDE70220F8E70120F6E7C04661
:100F40001009001000E100E00080004070B50400CE
:100F500000254369002B08DA8169002907DA154862
:100F6000FFF7B6FB0025032808D1280070BD124802
:100F7000FFF783FB01235B42A361F0E721001831F7
:100F80000C48FFF7B8FBA1690B48FFF78CFB85788D
:100F9000023D6B425D41EDB2A1692000FFF786FF83
:100FA0000028E2D0A1690448FFF767FB01235B42F8
:100FB000A361DAE7980B00101009001001230370F9
:100FC00070470378002B02D04368012B00DD704787
:100FD000002B05D04368023343600A238360F6E7A1
:100FE000A022D2053C330121D154F3E703788B4290
:100FF0001BD10378002B20D04368002B20D08268BF
:10100000002A01DD013A82608268002A18D1013B82
:101010004360002B14DD0A328260093A53401340CA
:10102000A021C9053B328B540AE0017001235940CD
:10103000A022D2053B33D154DBE700234360836019
:101040007047FFFF054B1868431E022B04D9053873
:1010500043425841C0B270470120FCE7FC0B00102E
:1010600010B5FFF7B3F904498022885880235B024A
:1010700003438B5010BDC0460080044070B5A025CE
:10108000ED05280001F0C8FB344C012303220021A8
:10109000200001F0CCFB11230B220021200001F0E5
:1010A000C6FB11230C220021200001F0C0FB1123FC
:1010B0000D220021200001F0BAFB11230E22002195
:1010C000200001F0B4FB012306220021200001F0E2
:1010D000AEFB102303220021200001F0A8FB102307
:1010E00013220121200001F0A2FB1023192201216B
:1010F000200001F09CFB1A4AA95880235B050B4392
:10110000AB500121002001F0CDFA164A8023D058BF
:101110008021C9010143D150D058802109050143E4
:10112000D1508020C00001F0CBFB0F4B1868FA2192
:10113000890003F067FD01380C4A50600C48036ACF
:101140001B021B0AC02109060B43036200239360A4
:1011500007211160074A136070BDC046004004407B
:101160000420000000800440500C001010E000E05B
:1011700000ED00E00C0C0010A022D2053323D05C5F
:1011800043425841C0B27047024A136801331360AA
:101190007047C0460C0C001010B50248FFF70EFF58
:1011A00010BDC046000C0010002343717047FFFFC4
:1011B000044B186001221A7100225A71FF329A7191
:1011C0007047C046140C001001230371704700B52E
:1011D00091B003E040216846FFF794F8FFF7C4F8A8
:1011E0000028F7D111B000BDF0B5CE46474680B516
:1011F00083B00400ED230268D35C002B00D1BAE079
:10120000744B1B68043B012B38D80379002B00D1A9
:10121000D9E0714B9846714FB94609E029006F48F3
:10122000FFF72BFA2CE0002323716D4B1B68A360A2
:10123000FFF79AF8002823D04046FFF7C2FE380097
:10124000FFF706FA051E36DB01004846FFF72BFACA
:10125000060003304021FFF755F80028DED0C31CFC
:1012600033700223B37029005E48FFF761FA00284B
:10127000D9D029005948FFF700FAD4E7FFF7A7FFB4
:101280002379002B00D081E0554B1B68A2689B1A84
:10129000642B00D978E079E0FFF78AF800280FD0B6
:1012A000ED232268D35C002B03D04A4B1B68052B2F
:1012B0003BD0FF23A37103B0C0BCB946B046F0BD1C
:1012C0004948FFF705FA032809D16379002BE7D0D5
:1012D00000236371002101A8FFF74CF8E0E701A9A2
:1012E0004148FFF708FA3D4D01992800FFF7DBF967
:1012F0000378433B5A425341637101780339033009
:10130000FFF738F801992800FFF7B7F9374B1B684A
:101310005A1C012B05D0354B1A602F48FFF751FEA0
:10132000BEE7324B00221A60F7E7314B1B7DDBB280
:10133000A2799A42BFD0A3712848FFF789F9051E08
:1013400003DA2548FFF73DFEB5E701002348FFF724
:10135000AAF905230370023B8370C370A37903715C
:1013600029002048FFF7E4F90028EAD029001B48AB
:10137000FFF783F9E5E70379002B12D1184B1B68BF
:1013800082689B1A642B0CD901232371ED232268F8
:10139000D35C002B05D00F4B1B68023B032B00D8FE
:1013A0007AE7114D2F000D4E2800FFF791F9032821
:1013B00000D175E701A93800FFF79DF901993000C8
:1013C000FFF75BF9F0E7064B1B6882689B1A642BFA
:1013D000E1D9D9E7FC0B0010000C00101009001037
:1013E0000C0C0010980B0010380B0010100C0010A3
:1013F000F808001010B50248FFF7D6FE10BDC04631
:10140000140C001000230360436083600373704773
:10141000007B704770B582B004000D00464B1B681E
:10142000042B30D04548FFF753F9032842D1444BF1
:101430001B6862689B1A002B01DD002323730026C2
:10144000002D01D03C4B1E683D4B1B6822689B1A47
:10145000002B02DCA368B34221D03A48FFF7F8F82A
:10146000051E1CDB01003748FFF71DF9052303703B
:10147000023B8370013BC370A660052E53D8B600B3
:10148000314B9B599F462D48FFF722F9032808D17D
:101490000423A3602A4B1A6862601B68236002B0B1
:1014A00070BD01A92548FFF726F901992548FFF7E6
:1014B000E4F8EDE701A92148FFF71DF9019921485A
:1014C000FFF7F1F88378032B04D001991D48FFF74B
:1014D000D4F8ACE70378052BF7D1194B1B68C3335D
:1014E000FF33636001232373C378032BEDD11748C7
:1014F000FFF76AFEE9E70123037100232373290044
:101500001348FFF715F9002810D10D4B1B68C8339D
:101510002360C4E702230371F1E703230371EEE7BD
:1015200004230371EBE700230371E8E72900054872
:10153000FFF7A3F8E9E7C046FC0B0010580B0010BA
:101540000C0C001010090010D8580000140C0010EA
:10155000980B001010B50248FFF754FF10BDC046AD
:10156000200C00100048704703000400004870473A
:1015700003000400022905D0032901D100230371CF
:10158000002070478368FE2BFAD801338360F7E7A9
:1015900010B511000148FFF7EDFF10BD340C00102D
:1015A000014B18607047C046340C0010F0B5CE46B1
:1015B000474680B583B007000D1E33D01C4B9946BB
:1015C00098461DE04846FFF743F8041E2ADB010059
:1015D0001748FFF768F8F31C0370002343700333C8
:1015E000837003303200390003F0BCFBBF19AD1B20
:1015F00021001048FFF79CF8002806D1002D11D0DB
:101600002E00402DDED94026DCE70A4C03E001998C
:101610004046FFF732F801A92000FFF76CF80028D8
:10162000F5D0EBE703B0C0BCB946B046F0BDC0464C
:1016300010090010380B0010F0B5C64600B5B6B062
:101640000E002F4B1B68022B03D036B080BCB8466F
:10165000F0BD002818D02B4A1388591C11802A4A43
:10166000D22101A803F084FC284B264A12889A4212
:1016700002D9244B00221A80B478082C0ED90334E6
:10168000402C15D93F240AE01E4A1388591C1180AA
:101690001F4AD22101A803F06BFCE5E73F24335D2C
:1016A000002B03D1013C012CF9D101E0002C24D006
:1016B00000250D276F44174B9846725D4146380050
:1016C00003F08AFC03370135AC42F6D80323002C23
:1016D00001D063001B190D226A44944663440D2215
:1016E0001A70033A5A7000229A7001A803F094FC11
:1016F000010001A8FFF75AFFA7E70D236B44EEE7AF
:10170000FC0B0010300C0010F05800000F270000F8
:10171000FC5800000859000070B50E00114B1A6803
:1017200004791D000A32002C05D02B689A42FAD2A7
:101730000220404270BD0123037100680A4B1B6800
:101740001B681C6D402332008121A047402805D131
:1017500031003F38FFF770FF0020EBE701204042E7
:10176000E8E7C0460C0C00109800001070B50400AB
:101770000E008368002B2AD01848FEF769FF011E6F
:10178000306027DB1548FEF78EFF851C144A802148
:10179000C9038023D150A368013BA3601160206876
:1017A000104B1B681B685B6C2A000121984740287E
:1017B00005D129000020FFF73FFF002070BD3168F0
:1017C0000648FEF75AFF012040423060F6E701204C
:1017D0004042F3E701204042F0E7C0461009001004
:1017E00000E100E09800001030B591B004001A78D4
:1017F000052A05D89300544AD3589F46012901D0A1
:1018000011B030BD01226B461A70132369464B702C
:10181000083B8B700023CB7008216846017143712F
:10182000032181710C31C1710D3901726946437216
:101830008372C272037342732000FFF76DFFDFE70C
:101840000129DDD101236A46137012335370083B1E
:1018500093700023D370082269460A714B710322EA
:101860008A710C32CA710D3A0A724B728B72CA724B
:101870000B7310334B73FFF74FFFC1E70129BFD143
:1018800001236A46137012335370093B937000238F
:10189000D370082269460A714B7102228A710F21A6
:1018A0006846C1710272437283720333C372274860
:1018B000FFF7AEFD6B46187369462000FFF72CFF5B
:1018C0009EE701299CD101236A461370123353709D
:1018D000083B93700023D370082269460A714B714C
:1018E0000321684681710C31C1710D39017269465D
:1018F000437283720433C37202731523437320004F
:10190000FFF70AFF7CE7012900D079E701226B4647
:101910001A70132369464B70093B8B700023CB7000
:101920000821684601714371022181710F206D46C3
:10193000E871297269466B72AB720533EB722A73D8
:101940002000FFF7E9FE5BE710590000200C0010B3
:1019500070B505000C002448FEF7A5FE8378012B26
:1019600002D1C378132B04D021001F48FEF785FE57
:1019700070BD03791900082BF6D9DA1C402AF3D878
:10198000053303704379002BEED18379082BEBD11B
:10199000C2791202037AD218130008338B42E3D1C2
:1019A000002AE1D0C37A002BDED1037B002BDBD1F0
:1019B000437A012B08D00F2BD6D103000D33817A47
:1019C0002800FFF711FFCFE70848FFF73BFB00288F
:1019D000CAD021000648FEF7ABFE0028C8D021007F
:1019E0000148FEF74AFEC3E710090010000C001082
:1019F000980B001000230371836070470268ED2389
:101A0000D05C431E9841C0B27047FFFF70B584B0F0
:101A100004000368ED229A5C002A0AD100220271B8
:101A20008260ED329B5C002B10D1324C2600324D8F
:101A300059E003A9FFF79AFE00282CD0ED23226875
:101A4000D35C002BF1D02379002B51D12948FEF72C
:101A50003FFE03284CD002A92648FEF74CFE02990F
:101A60002548FEF720FE0500427B0D23C356002BC0
:101A700001DAA02A06D1A91C2000FFF74DFE1F485D
:101A8000FFF79FFA1E4B1B68032B0CD002991A48D4
:101A9000FEF7F3FD2CE003992000FFF759FF1748EC
:101AA000FFF78FFACAE76B7B7F221A40492A01D0E1
:101AB0004E2AEBD12B78D91E3E29E7D81149096867
:101AC0000E3B4E3A50424241D2B20E3500950E487E
:101AD00000F0EEFCDAE702A93000FEF70CFE0299F6
:101AE0002800FEF7CAFD2000FEF7F2FD0328F2D120
:101AF00004B070BD780B001010090010000C00102D
:101B0000FC0B00100C0C0010400C001010B502482B
:101B1000FFF770FF10BDC046340C00100EB410B5B6
:101B200083B004008368002B04D103B010BC08BC50
:101B300003B0184706AB0193059A8168C06803F0AB
:101B40009DFAA3681B1AA360E3689C466044E060AA
:101B5000EBE7FFFF00B583B00F230B4009090092AC
:101B60000A000249FFF7DAFF03B000BD2859000060
:101B700010B50A000149FFF7D1FF10BD345900002C
:101B8000F8B50600002B0AD08C181D19044F2278D6
:101B900039003000FFF7C2FF0134AC42F7D1F8BD85
:101BA00008590000F0B5C64600B507000E00904683
:101BB0001D00069C221E02D0CB181A7A120464194A
:101BC0003419237A1B02617A0B439B18424607495A
:101BD0003800FFF7A3FF2A000A32434631003800DD
:101BE000FFF7CEFF80BCB846F0BDC0463C590000B0
:101BF00070B582B005008A18547A917A137AD27A35
:101C00000E01FF20304012180192090900912200B4
:101C100011492800FFF782FF104B1B88A4B2A34292
:101C20000BD00F490022FF2B09D0013222310B00CB
:101C3000223B1B88A342F6D102E0002200E00022F2
:101C400013019A1852000232044BD2180549280099
:101C5000FFF764FF02B070BD605900009C000010E7
:101C6000BE000010A059000070B504000D0024490A
:101C7000FFF754FF2A781209022A21D0032A24D020
:101C8000012A04D01F492000FFF748FF03E01E4946
:101C90002000FFF743FF1D492000FFF73FFF2B788F
:101CA0000F221A40032A21D00C21194212D1012AF5
:101CB00017D0022A1FD116492000FFF72FFF14E08A
:101CC00014492000FFF72AFFE5E713492000FFF73A
:101CD00025FFE0E7042A0ED110492000FFF71EFF80
:101CE00003E00F492000FFF719FF70BD0D492000E8
:101CF000FFF714FFF9E703492000FFF70FFFF4E7B0
:101D0000A8590000F8590000C8590000045A000002
:101D10001C5A0000D8590000EC590000305A00004D
:101D2000145A0000245A0000F0B583B004000D00DE
:101D3000062A00D867E30A782C23110099439029DA
:101D400049D0F02A4BD0CF49FFF7E8FE2A78530953
:101D50000121594001230B401207920FCA4920006C
:101D6000FFF7DCFEAA7869782000FFF7F3FEC74989
:101D70002000FFF7D3FE6B797F2B34D82A79E978DE
:101D80002000FFF7E7FE6A795206520FC049200093
:101D9000FFF7C4FE6B790F271F403A00BD492000B2
:101DA000FFF7BCFEAA79910903261640022900D14B
:101DB000EEE000D903E1002920D0012900D01BE189
:101DC000B5492000FFF7AAFEA9798906090F20006E
:101DD000FFF7CEFE16E0B149FFF7A0FEB6E7B04927
:101DE000FFF79CFEB2E7EA7807231340D20829796F
:101DF0000091AC492000FFF791FEC4E7AA492000FA
:101E0000FFF78CFE3202EE79164300D1F9E0F023A1
:101E10009B003340402B00D1F8E0802B00D109E13A
:101E2000C02E00D11AE180225200964200D11FE15B
:101E3000A0225200964200D11FE1F7229200964262
:101E400000D17BE1994A964200D182E1984A9642BC
:101E500000D189E1F8229200964200D18FE1954AA3
:101E6000964200D190E1944A964200D191E1FC2241
:101E700092003240802189008A4200D18EE1902177
:101E800089008A4200D194E1A02189008A4200D1D0
:101E9000AAE1C0225200934200D1C0E1E0225200E8
:101EA000934200D1C4E1C0239B009E4200D1CDE10A
:101EB000D0239B009E4200D1CDE1E0239B009E42B7
:101EC00000D1D1E17D4B9E4200D1D8E17C4B9E42B6
:101ED00000D1DFE17B4B9E4200D1E6E17A4B9E428E
:101EE00000D1ECE1794B9E4200D1F8E1F6239B0052
:101EF0009E4200D103E2764B9E4200D104E2B02321
:101F00009B009E4200D104E2724B9E4200D10AE245
:101F1000714B9E4200D113E2704B9E4200D11CE2F5
:101F20006F4B9E4200D11DE2FE239B003340BE2238
:101F30009200934200D11AE26A4B9E4200D11DE208
:101F4000694B9E4200D124E2684B9E4200D12BE2B5
:101F5000F5239B009E4200D12BE2654B9E4200D1AF
:101F60002CE2B2239B009E4200D12CE2614B9E42A8
:101F700000D12DE2604B9E4200D12EE25F4B9E428B
:101F800000D135E232005E492000FFF7C7FD3DE297
:101F90005C492000FFF7C2FD002E06D0012E09D0BB
:101FA00059492000FFF7BAFD30E258492000FFF7F9
:101FB000B5FD2BE256492000FFF7B0FD26E255495A
:101FC0002000FFF7ABFDA9798906090F2000FFF774
:101FD000CFFD022E06D0032E09D04B492000FFF77B
:101FE0009DFD13E24C492000FFF798FD0EE24B499E
:101FF0002000FFF793FD09E202230B4200D101E725
:1020000004E247492000FFF789FDFFE14549200030
:10201000FFF784FD012F06D97B1E0822290020002E
:10202000FFF7AEFDF2E13F2232403F492000FFF7CB
:1020300075FDEBE13D492000FFF770FD012F06D94A
:102040007B1E082229002000FFF79AFDDEE13F22D7
:10205000324035492000FFF761FDD7E134492000C7
:10206000FFF75CFD6A7A297A2000FFF773FDCDE166
:1020700030492000FFF752FDC8E12F492000FFF74B
:102080004DFDC3E14C5A0000585A0000745A00003C
:10209000885A0000945A0000A85A00003C5A0000D8
:1020A000445A00007C5A0000A05A0000DD030000E2
:1020B000DE030000E1030000E203000081030000F2
:1020C000A1030000D5030000D6030000D7030000E1
:1020D000D9030000C1020000C2020000C5020000D6
:1020E000C6020000D1030000D2030000D3030000A9
:1020F000C7020000C9020000DA030000DB03000091
:10210000285F0000B05A0000D05A0000B85A000002
:10211000C45A0000D85A0000E05A0000E85A0000F3
:10212000F05A0000045B0000205B00002C5B000004
:10213000485B00005C5B00006C5B0000B64920005F
:10214000FFF7ECFC7B1E082229002000FFF718FD9A
:102150005CE1B2492000FFF7E1FC7B1E0822290068
:102160002000FFF70DFD51E1AD492000FFF7D6FC3F
:102170007B1E082229002000FFF702FD46E1A94945
:102180002000FFF7CBFC41E1A7492000FFF7C6FC88
:102190003CE1A6492000FFF7C1FC37E12B7A1B0286
:1021A0006A7A13430F223240A1492000FFF7B6FCA0
:1021B0002CE1A0492000FFF7B1FC033F002300936E
:1021C0003A0029002000FFF7EDFC2B7A012B00D00C
:1021D0001CE16B7A042B00D018E129000A313A0087
:1021E0002000FFF741FD11E193492000FFF796FC25
:1021F000033F002300933A0029002000FFF7D2FCA0
:102200002B7A012B00D001E16B7A042B00D0FDE08A
:1022100029000A313A002000FFF726FDF6E02B7A6C
:10222000423AFF3A324085492000FFF777FCEDE063
:102230002B7A823AFF3A3240697A0902A87A01433E
:1022400000917F492000FFF769FCDFE07D49200015
:10225000FFF764FCDAE02A7A12026B7A1A437A49B1
:102260002000FFF75BFCD1E078492000FFF756FC27
:102270007B1E082229002000FFF782FCC6E074497B
:102280002000FFF74BFC7B1E082229002000FFF7EF
:1022900077FCBBE06F492000FFF740FC7B1E082263
:1022A00029002000FFF76CFCB0E06B492000FFF72D
:1022B00035FC002229002000FFF79AFCA6E06749C0
:1022C0002000FFF72BFC002229002000FFF790FCE4
:1022D0007B1F0C2229002000FFF752FC96E060498A
:1022E0002000FFF71BFC002229002000FFF780FCE4
:1022F0007B1F0C2229002000FFF742FC86E0594991
:102300002000FFF70BFC81E057492000FFF706FC97
:102310007CE02B7A1B026A7A134300225349200087
:10232000FFF7FCFB72E052492000FFF7F7FBFA1EB3
:1023300001230093002329002000FFF733FC65E010
:102340004C492000FFF7EAFBFA1E0123009300230B
:1023500029002000FFF726FC58E047492000FFF73E
:10236000DDFB53E045492000FFF7D8FB4EE0072294
:10237000324043492000FFF7D1FB47E041492000AC
:10238000FFF7CCFB7B1E082229002000FFF7F8FB9B
:102390003CE03D492000FFF7C1FB7B1E08222900DD
:1023A0002000FFF7EDFB31E038492000FFF7B6FBD6
:1023B0002CE037492000FFF7B1FB27E0354920002A
:1023C000FFF7ACFB22E034492000FFF7A7FB1DE03C
:1023D00032492000FFF7A2FB18E031492000FFF747
:1023E0009DFB7B1E082229002000FFF7C9FB0DE0A2
:1023F0002C492000FFF792FB7B1E082229002000B9
:10240000FFF7BEFB02E02849FFF788FB27492000C1
:10241000FFF784FB03B0F0BD805B0000A45B00000D
:10242000CC5B0000F05B0000005C0000105C000072
:10243000205C0000485C00005C5C00006C5C0000FC
:10244000845C0000B05C0000C45C0000E45C000040
:10245000F45C0000045D0000205D0000345D0000BD
:102460004C5D0000605D0000705D0000845D000058
:10247000A85D0000B85D0000CC5D0000E05D0000DC
:10248000F85D00000C5E00002C5E0000505E000055
:10249000685E0000845E0000A05E0000C45E000074
:1024A000EC5E0000085F0000405F0000585F000025
:1024B000F0B5CE4600B5D0B0050014001F00569E02
:1024C0006B46C3604023FF3383600A001C49FFF75B
:1024D00025FB3A0031002800FFF726FC002C17D01E
:1024E00018492800FFF71AFB002F16D00024164BBE
:1024F0009946325D49462800FFF710FB0134A74298
:102500000BD0002CF5D011492800FFF707FBF0E7AE
:102510000F492800FFF702FBE6E70E492800FFF706
:10252000FDFA2B681C68684602F076FD02006946D9
:102530002800A047012050B080BCB946F0BDC0467D
:102540005C5F0000645F0000745F00000C5C0000D2
:102550006C5F0000585F000010B508001100FFF725
:1025600025F810BD024B034A083313607047C0467C
:102570007C5F0000400C001080B500AF00F022F935
:102580000200024B1A60C046BD4680BD500C0010D0
:1025900080B500AF024B1B681800BD4680BDC04629
:1025A000D458000080B500AF014B1800BD4680BD77
:1025B000001BB70080B584B000AF78607B685B0912
:1025C000DAB20F203B180F210A401A707B681F22D5
:1025D0001340BB603B181A78074B9200D258BB6877
:1025E00001335B001900100002F00CFB030018001F
:1025F000BD4604B080BDC046885F000080B584B091
:1026000000AF786039607B681F2213400133FB60A4
:102610003B68FA6853431800BD4604B080BDFFFF15
:1026200080B582B000AF0200FB1D1A70064BFA1D88
:1026300012781A64044B00225A64034B01225A6434
:10264000C046BD4602B080BD0080044080B582B067
:1026500000AF0200FB1D1A70064BFA1D12789A6437
:10266000044B0022DA64034B0122DA64C046BD4603
:1026700002B080BD0080044080B582B000AF02008F
:10268000FB1D1A70064BFA1D12781A67044B0022C4
:102690005A67034B01225A67C046BD4602B080BD4F
:1026A0000080044080B582B000AF02003960FB1D9D
:1026B0001A700A49FB1D1B78C0228B50074AC4239D
:1026C0000021D150054AC4230121D1500349C82219
:1026D0003B688B50C046BD4602B080BD00800440C0
:1026E00080B500AF044B5B6A1800FFF763FF03007F
:1026F0001800BD4680BDC0460080044080B582B051
:1027000000AF0D4B1B6CDBB21A000323134002D049
:10271000012B05D009E0FFF745FF03007B6006E0D1
:10272000FFF736FF03007B6001E000237B607B68DE
:102730001800BD4602B080BD00800440B0B500AFB7
:10274000064B9C68FFF7DAFF030019002000FFF733
:1027500055FF03001800BD46B0BDC04600800440D0
:1027600080B582B000AF00237B60154B1B6FDBB2DE
:102770001A0003231340032B17D01BDC022B0FD0AE
:1027800018DC002B02D0012B05D013E0FFF70AFF65
:1027900003007B600EE0FFF7B1FF03007B6009E000
:1027A000FFF79EFF03007B6004E0FFF7C7FF030015
:1027B0007B60C0467B681800BD4602B080BDC04645
:1027C0000080044080B500AFFFF7CAFF0200054B50
:1027D0009B6F1900100002F015FA03001800BD46A7
:1027E00080BDC0460080044080B582B000AF0200CA
:1027F000FB1D1A70074A8023D358FA1D1278012155
:1028000091400A000349134380228B50C046BD46C5
:1028100002B080BD0080044080B582B000AF786017
:102820000620FFF7E1FFC046BD4602B080BD90B56F
:1028300085B000AFF860080011007B600B243B19E5
:10284000021C1A700A203B180A1C1A703B191B78CC
:10285000002B06D13B181A78FB6892007968D1509A
:1028600007E00A23FB181A78FB681832920079688F
:10287000D150C046BD4605B090BDFFFF80B584B0C5
:1028800000AF78600C4A8E239B00D3580B4A13404C
:10289000FB607B68094A1340FA681343FB600649F2
:1028A000FB68E82212021A438E239B00CA50C046DE
:1028B000BD4604B080BDC04600800440FF05000056
:1028C00080B584B000AF78600C4A8E239B00D3584B
:1028D0000B4A1340FB607B68094A1340DA43FB68EC
:1028E0001340FB600549FB68E82212021A438E235D
:1028F0009B00CA50C046BD4604B080BD0080044065
:10290000FF0500007047C0467047C046027B3F236A
:10291000510088180001D430FF3098438030704750
:1029200000B58C235A0083581B6A002904D119680A
:1029300004480840186000BD19688022500208430E
:102940001860F8E7FFFFFEFF00B58C23EE215A0068
:10295000435A8258990704D5126A02481168084000
:10296000106000BDFFFFFDFF00B58C235A008358A7
:102970001B6A002905D1186880218A0002431A6069
:1029800000BD1968014808401860F9E7FFFDFFFF26
:102990008C235A0083587F201B6A1A6882431A606E
:1029A000186880220243114319607047004870473D
:1029B0000100040000B58C235A0083581B6A0029CB
:1029C00002D10349596200BD02485862FBE7C04684
:1029D00003000080FF030080F0B557464E46454691
:1029E000E0B48C268A787300C3580F2515406F0019
:1029F000D40958684A793E190C7981461202186840
:102A00002243F5004519101C77003F303F26B043A4
:102A1000CC788246032016042040012832D01C695D
:102A2000A402200C80468024E00544462043304325
:102A30002860FC001869A446CC44041C604604606D
:102A40004260186901378046D04444461C61C97809
:102A500003200140012920D019698C02210C802417
:102A6000E40521430E436E601869FE004E44306059
:102A700072601A695546AF181F611CBC9046994692
:102A8000A246F0BD18698002040CA0468820C40547
:102A90004046044334432C60CBE718698824810204
:102AA000090CDDE77047C04630B58C246300C2587E
:102AB000802510680F220A4029400B1C5D1EAB4187
:102AC0005400E418E300C3181C680A4804401C6062
:102AD000002A09D0002908D15A6880210D0610402B
:102AE0002C4305431C605D6030BD59680840586048
:102AF000FAE7C046FFFFFFBF00B58C225300C25863
:102B00000F20084010D0D368400013610B06D90F86
:102B100012684318D800131819688022D0050143A1
:102B2000196059680843586000BDC04630B58C2212
:102B30005300C4580F220A40256850000B0616D5D2
:102B40000130C300EB185D681A680A49246A0A401C
:102B500029401A6059600125A46985402C4201D0A2
:102B600004330A1C802041050A431A6030BD13015A
:102B7000E8E7C046FFFFFFDF70B58C2254008023DA
:102B80000F220A40194000590D1C6B1E9D41540034
:102B900006686519EB00F318002A07D11A68002AA5
:102BA0001CDB8024A5052A431A6070BD1E68002E18
:102BB00021DB026A802085052E431E604D1EA9413F
:102BC000D0696418E04001210142EED05868002825
:102BD0001EDB8022940520435860E6E70121A940CE
:102BE0000D1C016A4869284348614E692E42FCD198
:102BF0000D621A68D5E70122AA40151C026A5069C5
:102C00002843506156692E42FCD115621E68D1E7F7
:102C1000A1400C1C51692143516156692642FCD1E7
:102C200014625868D5E7C046F0B55F4656464D4633
:102C30004446F0B48C246200825880230F245568E7
:102C40000C401940081C431E9841AB4665002818EB
:102C500016684700C300BC46F318002C3BD0204E3A
:102C60005F681C68374034405F60BA46176A1C6072
:102C7000BE690127B0463E1C86404746374201D018
:102C8000043354468027780504431C60002913D080
:102C900056690135EE400121314207D080273806C0
:102CA00004431C605369A9408B4353613CBC90466C
:102CB0009946A246AB46F0BD0A4A61461440CF0091
:102CC0005D461C60E81946688022310415060D43F4
:102CD0002C431C60EAE71968014E0E401E60E5E7D0
:102CE000FFFFFFDFFFFF00FCF0B58C256C000059F3
:102CF000151F066A341C24340D2D09D901204242C7
:102D000037480025002B0DD125682A402260F0BDF0
:102D1000344FAD007F59BF468021334A0D06002055
:102D2000002BF1D027683D432560F0E78020C505E2
:102D30002E4A0020E6E70122524200250020E1E76A
:102D40000F250D400906341CCF0F6E00F119012626
:102D50008E40311C002D0ED1042A3CD08026244AFE
:102D60003502002B12D0C2691143C16100202768CF
:102D70003D432560CBE7002B0DD0C3698025194367
:102D8000C161042A24D0AD010020F0E7C3698B4360
:102D9000C3610020B8E7C569F1430D40C561042A4D
:102DA0000CD0C569134B2940C161C169124E19404D
:102DB0004B1E99414A4232430020A5E7C2690F4F9A
:102DC00017407A1E97410E4A7842024300209BE743
:102DD0006D010020CBE780270A4AFD01C1E7C0460C
:102DE0000100040058600000FFFFFF7FFFFFFFBFEE
:102DF000FF7FFFFFA8AAAAAAFFDFFFFF5455555582
:102E0000FFEFFFFFFFBFFFFF38B58C25031C0F242A
:102E100068001B580C400D066400E90F651818681F
:102E2000EC0004195D682368991C1943880005D5D6
:102E30000A490B402360A3681940A160A968101CCF
:102E4000082201F08FFF6068830E98066060A96811
:102E50008D022A0C10436060082038BDFFFFFFDFA1
:102E600000207047F0B55F4656464D464446F0B4E4
:102E70000F270F408C247B0066009B4680238659D9
:102E80000B409A46591E8B415B443468716883B08D
:102E90005D00D800A94624180191002F04D0012517
:102EA000B1699D4029423ED1658801984946AB05EC
:102EB000CD00451969689B0DC81A80462968101C09
:102EC000424601F04FFF21688A0E93062360002FCF
:102ED00016D0306A51464A1E9141C7695944CF40C5
:102EE00001223A420CD08369B361B069C840024202
:102EF0001DD04D460135019AE90063685518043428
:102F00006A682F6880201604BD0202063243290C2D
:102F10000A4313434046236003B03CBC90469946A5
:102F2000A246AB46F0BD012304349944BCE74846B1
:102F30000138019E043CC7002368F519E0E7C0464C
:102F4000F0B55F4656464D464446F0B485B08C27F2
:102F50007E0001920F2780220A400F408659111CE3
:102F60001D1C7B0099464B1E994149443468736887
:102F7000C800904624184A000293002F30D1211C2B
:102F800008390868802382461806534618430860AB
:102F90002068029B810E8906D20021609B18AD0536
:102FA0001868AD0D2A0494468202120C6046024352
:102FB00011432160186801992A1C01F0D3FE23688F
:102FC0009A0001D5002F1ED180210E0633432360C5
:102FD000281C05B03CBC90469946A246AB46F0BDC5
:102FE000336AD8699A46031CCB40012084461842B4
:102FF000CED053469869031CCB4060461842C7D0D8
:1030000004340132C4E74346591E8B414B4401222C
:1030100077699A40141C3C437461D9E7F8B58C2257
:1030200054000459051CEA230020E854266AA061D4
:1030300060612068B060A768F760E927E95D6668AD
:103040000A01002101F097FEEA5D0021120160688B
:1030500001F091FEF023EB58A168D879890222682B
:103060000004090C01431160A1683160D8797060D7
:10307000A16840318802D979000C090401435160EC
:10308000A06808214030B060F160A068DB79800260
:103090001904030C0B439360A0683061EB5D012BB6
:1030A0000AD980210C320423CE05E92040C2295CD4
:1030B00001338F009F42F9D8E168266A2161074AEF
:1030C000074C084B0027B7617761F2613462736285
:1030D0003068802505433560F8BDC046FF03000019
:1030E000FF0300C0FF030080F0B55F4656464D4623
:1030F0004446F0B45668137985B002908946141C92
:103100000196002B07D0744805B03CBC9046994608
:10311000A246AB46F0BD117B08014A013618904625
:10312000B246D044121847462837151C6760283528
:10313000BB0707D04746BA1A013203235719013596
:103140003B42FBD1B6214E00BA196260381C494699
:10315000221C01F061F900212822404601F00BFEFB
:103160008C2042462168430001985762FA5053462A
:103170005360116210606268AE190391131C9106CE
:1031800007D06C3AFF3A551B3F22AB1901361A4261
:10319000FBD14046836080336360C3604B469D68CB
:1031A0002A78A846002A76D000230F253F21B4466E
:1031B0009B464646A946B8468A46271C331C002033
:1031C0000096002A15D0191C1A784C789B18052CEB
:1031D000F7D18C783D7B4E463440A54259DD4E797F
:1031E0000C7935022C433F3451468C430019002A98
:1031F000E9D1009E834500D28346F378B278180265
:10320000104336183278002AD8D159463C1C6646FD
:1032100047464B008036F618A3689E4200D972E7F5
:10322000019A9D1BB0186060A560BC6D002C4FD04A
:10323000FB6D002B49D03C6E002C43D0786E0028EB
:103240003DD0BE6E002E37D0F96E002931D03D6FD3
:10325000002D2BD07A6F002A25D0BB6F002B1FD0FA
:10326000FC6F002C19D0039E00233360381CFFF73D
:10327000D5FE8C2250003D587F212E6A029834687A
:1032800080228C43346033681A4332600760002028
:103290003AE7124838E70023BCE7114DFD67E2E743
:1032A0000F49B967DCE70E4E7E67D6E70C483867F2
:1032B000D0E70B4CFC66CAE7094BBB66C4E7084A7B
:1032C0007A66BEE7064D3D66B8E70549F965B2E79F
:1032D000034EBE65ACE7C0460A00040009000400C6
:1032E00005290000F8B55F4656464D464446F0B401
:1032F000061C8C204300F7583B6A1A6A1A62596A06
:103300005C680A40904600D578E06304180F444694
:103310008246A5053FD0E922B25C002A3BD0351C8D
:103320000120E9215835002481468B4618E0386A8F
:10333000802102684800024249D15046092803D141
:10334000F969194200D094E00222A96A2B68301C66
:1033500098475A46B25C013404355100A1421AD94B
:103360004B46A34041461942F5D04A462242DED0A0
:103370005046092803D1F969194200D071E0A96AC1
:103380002B680322301C98475846325C01340435C0
:103390005100A142E4D847467A0004D5736B002B54
:1033A00001D0301C9847F36B002B0AD055460A2DEC
:1033B00004D80124354AAC40144202D1301C514695
:1033C00098473CBC90469946A246AB46F8BD3B6840
:1033D0002F481A68996802401A6008408022986055
:1033E000B158B36D0122301C9847386A80230268B7
:1033F00059000A4302605B46F25CACE780221D681C
:10340000D20415421ED180214A04154208D0186802
:1034100002431A60B36B002B02D0301C0021984786
:1034200080239B041D4200D16FE73A6A11680B4369
:103430001360A90325D4336B002B00D165E7301C42
:10344000984762E71C68301C22431A60FFF7E6FDCC
:10345000301C00F053FFB36A002BB2D0301C9847E9
:10346000AFE70522A96A2B68301C98475A46B25C20
:1034700071E72B680422A96A301C98475B46F25C0E
:1034800069E7F36A002BDAD13FE7C0460106000086
:10349000FFFFFFDF38B5051C4878232801D92148F4
:1034A00038BD214C8000205887460020002BF7D0E3
:1034B0002C6A002CF4D01168281C1A1CA047EFE7D6
:1034C0000020002BECD0AC6A002CE9D08878C978B9
:1034D000126809020143281CA047E1E72B6B00207A
:1034E000002BDDD0CC788A7821021143281C984724
:1034F000D6E7002B12D0EB6B0020002BD0D0291C7C
:103500001031281C9847CBE76B6B0020002BE9D1CA
:10351000C6E7AB6B0020002BE4D1C1E71035156086
:103520000020BDE7020004009060000070B5051C9B
:10353000012A2CD0022A02D0344C201C70BDB226A5
:103540007400035D7F221340212BF5D1B422530078
:10355000C35C087E984202D04C7E9C42ECD1B520E0
:103560008E2672004300AC58EB5AB226E01AA850DF
:1035700074008E222E1950004C6C2A18081C311C25
:10358000A047041ED9D1281C00F02CFFD5E7B2209B
:103590004300EB5C7F221A40212ACDD1B422560091
:1035A000AA5D0C7E944202D0487E9042C4D19224FF
:1035B00060008E222C185600AC51DB0912D1B226C5
:1035C00074008E202B1942004E6C081CAA18191C7E
:1035D0000023B047041EB0D1B5225300E95A002998
:1035E000ABD1D0E7B22046008E2490236200580071
:1035F000AE190C6C2B18AA18081C311CA047041E0D
:103600009BD1281C00F0C2FE97E7C04602000400D0
:1036100038B54C78032C0CD0212C13D0012C01D0C0
:103620000F4838BD446A002C03D0111C1A1CA04757
:10363000F7E7C46A002C0BD08D78C97809022943BA
:10364000A047EEE71030106007221A800020E8E75C
:1036500010680021402201F08EFB0020E1E7C04607
:103660000200040008B5A123037100234171837196
:10367000C371037243728372C372012909D0002996
:1036800003D020290ED00B480BE0002A01D00121E5
:1036900081710368017F021D181C0823FFF750FC8D
:1036A000002008BD02730223120A8372427301488C
:1036B000F7E7C046030001004C207047F8B54F46BD
:1036C0004646C0B40D68071C0C1C90468E684B68BB
:1036D000A90703D0472B01D8474825E0281C03221F
:1036E0004B30483B93439043206063600021482265
:1036F000281C01F040FB41494148236A626A296461
:103700006864A16AE06A2B626A62236B626BA962D9
:10371000E862A16BE06B2F602B636A63A963E863C7
:103720007378042B04D037480CBC90469946F8BDFA
:103730007379022BF7D131790129F4D8B078287642
:103740003279012A1AD0E36859780429EBD15A79E1
:103750000A2AE8D198790028E5D19A786A7619780A
:103760001E795A18B146484529D21178161C8C4644
:1037700071786244052916D00130F4E73378F618E1
:10378000331C31785A787618052A06D0042AF7D1E6
:10379000287F0028D7D11C48C6E7DA78032AEFD162
:1037A0009E782E77F4E7F1780229E5D1B1784EB210
:1037B000002E16DBE9761E790130B146D3E7AB7EE9
:1037C000002BE8D0E87E0028E5D0616C381C002989
:1037D0000CD02A1C00F094FE0C4F67644446256010
:1037E000A2E7A976197901308946BCE707492A1C66
:1037F00000F086FEF2E7C0460A0004001136000021
:103800009534000008000400090004002D35000074
:1038100000B5B2225100435CDA0601D0044800BD75
:10382000011C8E22ED315300C1500020F7E7C04645
:10383000010004007047C0467047C04600B5B2237F
:103840005A00815CCB06DB0E012B30D0022B0AD054
:10385000002B01D0214800BD011C8E23EE315A00FF
:1038600081500020F7E7B4214B00C35C8F22134046
:1038700080221A422BD101219940ED22825C002A3C
:1038800001D11A07E6D182235A0083580B42E1D0B6
:1038900084235A008358922219404B1E99415300A9
:1038A000C152C1188E235A0081500020D3E7ED2267
:1038B000815C0029CED0B4235900EB22415C835CAB
:1038C0009942C7D2922100224B00C252E9E70F2150
:1038D000194052028A40111CCFE7C0460100040083
:1038E00030B5B2246100031C405CC20607D1414DD3
:1038F0005A5D022A05D0032A38D0012A60D03E48FA
:1039000030BDB320FC2245009A585C5D1178002C34
:1039100022D0601E01250540002963D10120A0426C
:103920001AD0002D04D000290DD10130A04213D0AF
:10393000002905D0D17895780902294352181178C9
:1039400001300029F1D0D178957809022943521825
:1039500001301178A042EBD10029D0D08E2568002B
:103960001A509478D278110221432FE0B3225400E8
:10397000F42159581C5D0A78002C1AD0601E0125CC
:103980000540002A2BD10120A04212D0002D04D0E6
:10399000002A09D10130A0420BD0002A01D0891899
:1039A0000A780130002AF5D0891801300A78A0423F
:1039B000F3D1002AA3D08E2465005951097805E07F
:1039C000F0248E2118594A0098501221902252005A
:1039D0009D5A00208D4200D892E7995290E78918AD
:1039E0000A78D0E7D178907809020143521811780B
:1039F00094E7C046670100000100040000B5B2234F
:103A00005900435C1F221340012B01D00A4800BD1E
:103A1000ED21425C002AF9D0B4225300EB21C35CB3
:103A2000425C9A42F2D91133FF338E22C3185100FF
:103A300043500020EBE7C04601000400F0B55F46AC
:103A400056464D464446F0B4B2246200815C051CE3
:103A5000C80685B0C30E012B08D0534E301C05B0EC
:103A60003CBC90469946A246AB46F0BDED27EE5DC4
:103A7000002EF2D0EA202B5C012B73D0F8242C59B5
:103A80000022B421B3230027924648005A00464E34
:103A90000297B9468046002793462278002ADDD057
:103AA0006378042B3FD0052B0ED0022B01D0A41835
:103AB000F3E7ED2160796B5C9842F8D0E378A27867
:103AC000180210432418E8E74346E95CB942EED1F6
:103AD000A3788F2119408020019108423BD1012019
:103AE000884003905B46E95C49453ED00298814599
:103AF000DDD103994846534602900B42D7D1CA43C1
:103B000082214B00E85884211040E85048002B588F
:103B100001991A402A50281CFEF7EEFF22784946E8
:103B20000291A418B9E7E07843468146A778E85C9B
:103B300000218A468742BAD15B46E95C8945B6D105
:103B4000E8191130FF3002784E4606700292227852
:103B50000026A418A1E70F208023084059028140C5
:103B60000391BFE7FC216C588AE782214B00EA5899
:103B7000039984200A43EA504300EA58281C8A43E8
:103B8000EA50211CFEF728FF281C0199FEF78CFF44
:103B9000281C0199FEF7CAFF039852460243924639
:103BA0002278A41879E7C04601000400F8B55F4602
:103BB00056464D464446F0B4B2225100041C405CC7
:103BC000C30628D1B3267500635D002B2AD0EA23F3
:103BD000E75C012F00D105E1F82565590026802218
:103BE0008221B24693464F002A78002A0BD06B7888
:103BF000042B00D18AE0052B67D0022B59D0AD18D9
:103C00002A78002AF3D1B3204600ED21655CA45D3B
:103C10000020A54200D075483CBC90469946A2467B
:103C2000AB46F8BDED26A355E925675D012F28D9E0
:103C3000802382225902012556000127884608E088
:103C40004146A940194212D1E922A35C01359D42A7
:103C500017D2381CA359A8400342F1D0291C201CBC
:103C6000FEF74AFF4146A359A9401942ECD08021F2
:103C70002943201CFEF740FFE922A35C01359D4249
:103C8000E7D35B4A8227842186267B0000254800F3
:103C900077002550E551201CE2500021FEF78AFEF6
:103CA000B3204600ED21655CA45D0020A542B2D1A1
:103CB000B2E7B3214B006879E35C83422AD0EE7807
:103CC000A87833020343ED188EE75346002B96D1B4
:103CD000AE788F2006405A46324278D00F23802299
:103CE0003340510299400B1CE059291C0343E35116
:103CF000201CFEF771FE201C311CFEF7D5FE201C97
:103D0000311CFEF713FF2A78AD1879E7E978AD1872
:103D10008A4675E7ED2163542879EB2388263549D7
:103D2000E05472000023A35489206354324A8A214C
:103D300046004800A355A354304E23548B223048EC
:103D40005100A3556354E9262354A25D012A26D9C4
:103D5000802001264202B046914608E04A46B24021
:103D60001A4212D1E920235C01369E4217D2414605
:103D7000E359B1400B42F1D0201C311CFEF7BCFED0
:103D80004A46E359B2401A42ECD059463143201C0E
:103D9000FEF7B2FEE920235C01369E42E7D31449C8
:103DA0008426862200237000E15151002350635085
:103DB000201C0121FEF7FEFDEE7972060AD5EE23E6
:103DC000E05A01220243E2522A78AD1818E7012393
:103DD000B34089E7EE22A65A01218E43A6522A78E3
:103DE000AD180DE7FC202558F8E6C0460100040098
:103DF0000100010011010000130100001501000085
:103E00001701000070B5B2220D1C5100041C405C6B
:103E1000C306DB0E08D1B3235E00A35B012B37D0B2
:103E2000022B4AD02D4870BD022BFBD1B42250008A
:103E3000235C8F21194080230B4223D101268E4021
:103E4000ED22A05C0028EDD00B07EBD082225000C1
:103E500023583342E6D0B3225000235A002BE1D13D
:103E6000002D30D186235800225800203242DAD16A
:103E7000201CFEF7D9FE84204200A158281CB14323
:103E8000A150D0E70F260E405B02B3401E1CD7E7BF
:103E9000236C002B02D0201C291C9847EE23002DF8
:103EA00005D0E05A02250543E5520020BBE7E25A5F
:103EB00002218A43E2520020B5E7094E201CA15D91
:103EC000FEF774FDAFE7201CFEF756FE84235D006D
:103ED000615900200E436651A5E7C0460100040069
:103EE00069010000F0B5474680B4B221041C4800C7
:103EF000265C7F239E4349D190277F00E25B00250B
:103F0000002A03D1281C04BC9046F0BD8E20450039
:103F100062590021201CFEF7A5FF63591A1862514F
:103F2000E15B0D1AABB2E353351C002BEAD1E82359
:103F3000E25C002A11D0271C224DA837984608CFF2
:103F4000002B07D0F969201C02229847A84226D1ED
:103F50004146625C01369642F1D3B2235D00675D53
:103F600060221740402F07D1A368002B04D0201CEB
:103F70000121984700281DD0201C8021FEF7FCFD60
:103F8000902000254300E5520025BBE792267100F2
:103F90006218201C0021FEF765FF0025B2E7051E10
:103FA000B0D0201C8021FEF7E7FD902200265700AC
:103FB000E653A7E7201C802100220023FEF7C0FF64
:103FC00000259FE702000400F0B5474680B4041CBA
:103FD000072A31D84A48920083589F46E823E25C7A
:103FE000002A13D0261C474FA8360025984608CE35
:103FF000002B08D0F169201C03229847B84200D05A
:1040000069E04146625C01359542F0D3902046005C
:10401000A25B4023402A00D8131C8E204500625921
:104020008021201CFEF78CFF6659902133184F0029
:104030006351E25B101AE053002004BC9046F0BDCF
:10404000201C8021FEF7F0FDF6E72568201CA8471C
:10405000F2E76668201CB047EEE7B2225700E05D49
:104060007F239843BAD1EC22A15C4FB2002FE3DA50
:104070001940A154201CFEF78BFCDDE7E821625CAF
:10408000002A13D0261CE8231E4FA8360025984688
:1040900008CE002B07D0F169201C04229847B842B3
:1040A00019D14046225C01359542F1D3B2256B000F
:1040B000E15CCA091AD18E2190274A007E00A258DD
:1040C000A35B201C0021FEF7CBFEB5E7201C0021DE
:1040D000FEF7AAFDB0E70028AED0201C8021902674
:1040E000FEF74AFD00257300E552A5E78E235D002B
:1040F0006259201C00210023FEF7B2FE9CE7C04657
:104100002061000002000400F0B5474680B4061CA0
:10411000B2204300F2180021301CFEF775FEB222D7
:104120005700F55D301CE909B524FEF7BBFC6100C2
:10413000725A90204300F252E823F25C002A12D017
:10414000351C6B4FA8350024984608CD002B07D0AE
:10415000E969301C01229847B84219D14146725C86
:1041600001349442F1D3B2277D00735D5C06A30F46
:1041700019D0022B1FD0301C8021FEF7FDFC9021AE
:1041800000224D0072530024201C04BC9046F0BD58
:10419000041EF9D0301C8021FEF7EEFC9022002591
:1041A0005700F553F0E7534C335D0B2BE3D85249DE
:1041B00098000B589F46B368002BDCD0301C0121BF
:1041C0009847041ED7D1B5214B00F05A002800D1E2
:1041D00087E0775DFD09D7D090204200B25A402396
:1041E000402A00D8131C8E20450072598021301CB3
:1041F000FEF7A6FE715990270A187B007251F55AF6
:10420000291AF152C0E7346A301CA047041EB2D10B
:104210000023301C80210022FEF792FEB36C002B9D
:10422000B2D0301C9847AFE7F269301C9047041EAB
:10423000A1D1D1E7B769301CB847041E00D09AE776
:104240000023301C80210022FEF77AFE736C002BC5
:10425000E7D199E77569301CA847041E00D08AE7AA
:10426000BAE7301C002188E73169301C8847041EFA
:1042700000D080E7B0E7B2204300F45CE20600D053
:1042800079E7B3235C00375D802251423943EC2546
:104290007155301C802100220023FEF751FE0024BE
:1042A00072E7726A301C01219047041E00D062E759
:1042B0000023301C80210022FEF742FEF36C002B0D
:1042C000AFD161E7776A301C0021B847041E00D0E7
:1042D00051E7EDE7F568301CA847041E00D04AE717
:1042E0007AE7301C802100220023FEF729FE4BE7ED
:1042F000020004006501000040610000F0B547467F
:1043000080B40124EE23C452EC210023061C435444
:10431000ED2033548222174D8424862057006100FB
:1043200042007350B350F551E823F25C002A12D0DA
:10433000351C114FA8350024984608CD002B07D016
:10434000E969301C0E229847B84207D14246B25C58
:1043500001349442F1D304BC9046F0BD0028FAD059
:10436000301C8021FEF708FC902000254700F55303
:10437000F1E7C046010001000200040008B5B221C7
:104380004B00C2180021FEF73FFD08BD38B5041CE4
:1043900090204300E25A4023402A00D8131C8E206C
:1043A00045006259201C8021FEF7CAFD6259902306
:1043B000111861515D00625B111A615338BDC0462E
:1043C00038B5041C8E2045006259201C0021FEF7E0
:1043D00049FD62599021131863514B00E25A101A9B
:1043E000E05238BD08B5802100220023FEF7A8FD69
:1043F00008BDC04608B592214B00C2180021FEF747
:1044000031FD08BD10B58021041CFEF7B5FB9020DE
:1044100000224300E25210BD70B5B623151C0E1CDD
:104420005A000021041C00F0A6FC2B7BE922A354B7
:10443000274A8021A2656450002B02D08420E265C7
:1044400024502449244B2548254A2160E36025490E
:10445000254B6060626221612448A361244A25499A
:10446000EB6B6061E2612162002B29D023652B6C2C
:10447000002B2AD06A6A29696365AB6A2264A1624B
:10448000AA69E96A6869A3632B6A2263E1636A6BBC
:104490003168E0626363286BF023AD6BA264E15086
:1044A0007268B1686064E564F420F82522506151B7
:1044B000F068356980225600FC23A551E05070BD9C
:1044C0000D4B23652B6C002BD4D10C4BD2E7C0468F
:1044D000C93F0000094100003D380000E53E0000F2
:1044E000053E0000E1380000AD3B0000113800003F
:1044F000FD3900003D3A0000353800003938000031
:1045000030B5E824035D072B01D9074830BD1D1CD9
:104510002A35AD0029501D1C3235A90001330A503F
:1045200003550020F2E7C0460B00040010B5E92453
:10453000045D64008C4201D2054810BD0C1C163489
:104540002031A400890022500B500020F5E7C0461E
:104550000300010030B58C788568E4002C1965688B
:1045600015608C788068E1000A5A00201A8030BDFE
:1045700010B50168B3235C000B5D084A84688A5C4F
:10458000DB00E3189A70C3690024002B03D0653167
:10459000FF319847041C201C10BDC0466701000075
:1045A00070B582B0041C00236846B4268380750071
:1045B000605D4B7B984203D06E4D281C02B070BDED
:1045C000012A24D0022AF7D1B2256B00E05C7F26B5
:1045D00030402128F0D16848225C092AECD1B52569
:1045E0008E266B007600E35AA059B225C21A6800E5
:1045F000009222184D69081C111C6A46A847051E26
:10460000DBD10099A151201CFFF7ECFED5E7B222C7
:104610005200A35C1F251D40012DCDD160263340E3
:10462000202B24D0A55AC0239F229543DE00B542FB
:10463000C2D15248235C222B00D191E0232B00D120
:104640007DE0212BB8D14E688E225300E65035789C
:1046500069468D8090256A466B009288E15A9142A6
:1046600000D9E252201CFFF791FE0025A5E7424841
:10467000235C0B2BA0D8424A9D0053599F460D68DE
:10468000B3204200AA5C0B6A0A73002B07D0653581
:10469000FF35081C291C9847051E00D08DE7201CFB
:1046A000FFF7A0FE002588E7081CFFF761FF051E45
:1046B00000D082E7A7E7922255008E23B222661926
:1046C000580055008E2326506619580022180023E2
:1046D0004C69081C311CA047051C6EE70868922530
:1046E000097B6B00C154E2188E235E00A251B9E72A
:1046F0000B68B32672009D5C8868EE00811988788B
:10470000922292265500710058556218ECE79222C9
:1047100055008E23B226601972005D00902360510F
:10472000A6185800621923180D69081C311CA847E7
:10473000051E00D041E7201CFFF728FE3DE78D69EC
:10474000002D15D0B2238E205E004200A319A218BE
:10475000081C191C01ABA847051E00D02DE779E7FE
:10476000B2238E2568005E00A31922184D6AEFE778
:10477000044D22E70200040065010000670100000B
:104780007061000003000400007AC0003030704700
:10479000F0B557464E464546E0B4071C0E68C8685B
:1047A0000C1C8046B1070BD0217A63680531CA0022
:1047B000934206D257481CBC90469946A246F0BD8B
:1047C0006368311C283B2831216063600021282266
:1047D000301C00F0D0FA22683760B260207A656839
:1047E000131C9446C200D318A91A2360616098076D
:1047F00009D00139032000E0291C01334D1E184265
:10480000FAD1236061606046002100F0B4FA257A95
:10481000002D0CD000252269B068E900401851181D
:10482000082200F09FFA237A0135AB42F3D863697E
:10483000002B14D0A269002A11D03361236A72615F
:10484000656AE269F361236BB2613562002B16D0B1
:10485000736241464878042803D02F48ABE72F48BD
:10486000A9E74D79032DF8D188787073CA7932732E
:104870000A7842445378212B03D029489BE7294BDF
:10488000E6E772600B791578002B28D000200F2105
:10489000551981468A4603E0012291444B451AD9B5
:1048A00029782A1C6D1851780529F5D1D17803296A
:1048B000F2D191784BB2002B1EDBF173E26A002A31
:1048C00017D0534619404900331C381CFFF72EFE01
:1048D00041460B79E0E7002801D013486BE7616B94
:1048E000381C002911D0321CFFF70AFE0F4E6663F8
:1048F00061E742461379CFE7B173A26A002AF8D084
:104900005046014049000131DEE70849321CFFF7FB
:10491000F7FD50E70A00040008000400030001004E
:10492000060004005545000009000400A1450000F0
:1049300000B587B001900091019B1B683D2B0AD008
:10494000019B1B683E2B06D00199009A2F4B081C37
:10495000111C984758E0019B1B690593FC231B0120
:104960000493059B0020191C00F052F8031C0393CC
:10497000019B1B683D2B1ED1019B04331A68019BD0
:104980000C331B68D218049B9A4203D9009B052262
:104990001A6010E0019B04331968019B08331A6800
:1049A000019B0C331B68081C111C1A1C00F052F8E8
:1049B000009B00221A60019B1B683E2B1ED1019BAD
:1049C00004331A68019B0C331B68D218049B9A426B
:1049D00003D9009B04221A6010E0019B043319687C
:1049E000019B08331A68019B0C331B68081C111CBF
:1049F0001A1C00F089F8009B00221A60039A059B9C
:104A0000101C191C00F004F807B000BDF11FFF1FB7
:104A100084B0019000910D4A9823D35803930B4919
:104A20009822019B8B50019B002B0AD10749009BC8
:104A3000162253435B0B94228B50044A9023044963
:104A4000D150039B181C04B07047C04600C00340FF
:104A50000104020000B587B0039002910192019B0E
:104A6000002B00D149E026498422039B8B50244A25
:104A700080230321D150039B059337E0204A029BFA
:104A80001B78191C8823D150029B01330293039B8E
:104A900001330393019B013B0193039B3F2213408E
:104AA00002D0019B002B21D11549164AA0235B059A
:104AB0008B5013498422059B8B50114A8023062179
:104AC000D15001E000F09CF80D4AFE231B01D258A2
:104AD00080235B051340F5D0039B0593084984228E
:104AE000039B8B50064A80230321D150019B002B4E
:104AF000C4D1034A80230021D15007B000BDC04675
:104B000000C00340E80F000000B587B00390029199
:104B10000192019B002B00D16CE0039A029B1A4387
:104B2000019B13431A1C0323134005933249334A54
:104B3000A0235B058B5030498422039B8B50059B3F
:104B40000122134004D02C4A80230821D1500CE0CC
:104B5000059B0222134004D0274A80230921D1500B
:104B600003E0254A80230A21D1503CE001E000F017
:104B700047F8214AFE231B01D2588023DB0413404F
:104B8000F5D01D491D4A8023DB048B50059B012273
:104B900013400CD0029B18498C228A58D2B21A704A
:104BA000029B01330293019B013B01931BE0059B98
:104BB000022213400CD0029B0F498C228A5892B2D9
:104BC0001A80029B02330293019B023B01930AE08D
:104BD000029B09498C228A581A60029B0433029373
:104BE000019B043B0193019B002BBFD1024A802310
:104BF0000021D15007B000BD00C00340E80F000005
:104C00007047C046002243088B4274D303098B428D
:104C10005FD3030A8B4244D3030B8B4228D3030C8C
:104C20008B420DD3FF22090212BA030C8B4202D32E
:104C30001212090265D0030B8B4219D300E0090A56
:104C4000C30B8B4201D3CB03C01A5241830B8B425F
:104C500001D38B03C01A5241430B8B4201D34B0348
:104C6000C01A5241030B8B4201D30B03C01A5241AD
:104C7000C30A8B4201D3CB02C01A5241830A8B4232
:104C800001D38B02C01A5241430A8B4201D34B021B
:104C9000C01A5241030A8B4201D30B02C01A52417F
:104CA000CDD2C3098B4201D3CB01C01A5241830933
:104CB0008B4201D38B01C01A524143098B4201D36D
:104CC0004B01C01A524103098B4201D30B01C01A98
:104CD0005241C3088B4201D3CB00C01A5241830812
:104CE0008B4201D38B00C01A524143088B4201D33F
:104CF0004B00C01A5241411A00D20146524110469F
:104D00007047FFE701B5002000F006F802BDC0467D
:104D10000029F7D076E770477047C04670B5002687
:104D20000C4D0D4C641BA410A64209D1002601F0C5
:104D300051FA0A4D0A4C641BA410A64205D170BD5D
:104D4000B300EB5898470136EEE7B300EB589847AD
:104D50000136F2E7E0610000E0610000E061000080
:104D600004620000002310B59A4200D110BDCC5C53
:104D7000C4540133F8E703008218934200D170470E
:104D800019700133F9E7FFFF70B50500002910D055
:104D90000C1F2368002B00DAE418280000F07AF9D1
:104DA0001D4A1368002B05D163601460280000F0D1
:104DB00079F970BDA34208D9216860188342F3D104
:104DC00018685B6841182160EEE71A005B68002BE9
:104DD00001D0A342F9D911685018A0420BD1206824
:104DE0000918501811608342E0D118685B684118B7
:104DF00011605360DAE7A04202D90C232B60D5E79B
:104E000021686018834203D118685B6841182160EB
:104E100063605460CAE7C046540C001070B50F4E72
:104E20000D0031680400002902D100F08FF83060D5
:104E30002900200000F08AF8431C0AD00323C51C77
:104E40009D43A84207D0291A200000F07FF8431C98
:104E500001D101256D42280070BDC046580C0010DC
:104E6000F7B50322CB1C9343083306001F000C2B1D
:104E700032D20C27B94231D8300000F00BF9324D54
:104E80002B681C00002C2ED139003000FFF7C6FF24
:104E90000400431C1ED12C682500002D4AD1236834
:104EA0002900E3183000019300F050F8019B834281
:104EB00043D123680337FF1A03239F4308370C2F7E
:104EC00000D20C2739003000FFF7A8FF431C34D074
:104ED0002368DF19276013E0002BCBDA0C230025B1
:104EE00033602800FEBD2268D11B20D40B2917D9BE
:104EF000E2192760A34211D12A60636811605360F0
:104F00003000250000F0CEF807220B35231D954315
:104F1000EA1A9D42E5D05B1BA350E2E75A60ECE73A
:104F20006268A34201D12A60EAE75A60E8E72300F9
:104F30006468A7E72C006D68AFE70C23300033608E
:104F400000F0B0F8CDE7C046540C0010002370B557
:104F5000064D040008002B6000F0E8FB431C03D161
:104F60002B68002B00D0236070BDC0465C0C001085
:104F70000CB430B5174B0C001D689DB0002908DA41
:104F80008B2301202B6040421DB030BC08BC02B016
:104F9000184782236A469B00938200230290069062
:104FA000994200D04B1E0493079301236A465B424B
:104FB000D382280021AB209A02A9019300F0DCF8EB
:104FC000431C01DA8B232B60002CDDD00023029AD6
:104FD0001370D9E7940800100EB400B50B499CB0CB
:104FE0001DAB02900690079104910948094904CB32
:104FF0000591006802A9019300F0BEF80023029A0F
:1050000013701CB008BC03B01847C046FFFFFF7FF9
:10501000940800100802FFFF0023C25C0133002A3D
:10502000FBD1581E704730B5140005001A009BB024
:10503000002C05DA8B230360012040421BB030BDF9
:10504000822368469B0083810023009104919C4247
:1050500000D0631E02930593012369465B42CB8116
:1050600028001E9B00F088F8431C01DA8B232B607C
:10507000002CE3D00023009A1370DFE707B50093FC
:1050800013000A00010002480068FFF7CCFF0EBDC4
:105090009408001010B5024800F0F0FA10BDC046A8
:1050A000600C001010B5024800F0E9FA10BDC046CF
:1050B000600C0010F0B58E6885B007000C000392FC
:1050C00001939E423CD890238A89DB001A4234D057
:1050D0000969236860695B1A029303234343DD0F68
:1050E000ED18019B029801331B186D10AB4200D9DB
:1050F0001D00530532D529003800FFF7B1FE061E0A
:1051000009D10C233B6040230120A2894042134374
:10511000A38105B0F0BD029A2169FFF723FEA389A0
:10512000144A1A4080231343A381029B2661F61878
:1051300026606561019EED1AA560019B9E4200D923
:10514000019E32000399206800F0A5FAA3680020B0
:105150009B1BA36023689E192660DAE72A003800AB
:1051600000F0ACFA061EE0D138002169FFF70CFE12
:10517000C7E7C0467FFBFFFFF0B5A1B003901D005D
:105180008B890F0016001B0611D50B69002B0ED161
:105190004021FFF765FE38603861002805D10C23F7
:1051A000039A0138136021B0F0BD40237B610023D6
:1051B00008AC6361203363761033A376079535001E
:1051C0002B78002B01D0252B47D1AB1B0593B54283
:1051D0000CD0320039000398FFF76CFF431C00D15C
:1051E000AEE06269059B9446634463612B78002BB3
:1051F00000D1A5E0012200235242626004A954328A
:1052000052186E1C2360E360A3601370A36505222F
:105210003178544800F034FA751C00281FD12268F8
:10522000D30604D5532304A95B1820211970130752
:1052300004D5532304A95B182B21197033782A2B2A
:1052400016D0350000210A20E3682A786E1C303A17
:10525000092A4ED9002911D117E00135B0E7414B99
:105260002268C01A0123834013432E002360CEE737
:10527000079B191D1B680791002B01DB0B9304E0B2
:105280005B42E3600223134323602B782E2B0AD169
:105290006B782A2B35D1079B02351A1D1B680792A4
:1052A000002B2BDB0993304E03223000297800F0CD
:1052B000E7F9002806D04023801B8340226801358F
:1052C000134323602978062228486E1C217600F0BB
:1052D000D7F900283CD0264B002B25D10722079B6D
:1052E00007339343083307936369049A9B186361F8
:1052F00065E74343350001219B18A6E701235B4284
:10530000D0E700230A201A000135636029786E1C5B
:105310003039092903D9002BC5D00992C3E742438C
:10532000350001235218F1E707AB00933A00210042
:10533000104B039800E000BF0490049B0133D3D1CD
:10534000BB890D985B0600D42DE7012040422AE777
:1053500007AB00933A002100064B039800F07CF85D
:10536000EAE7C046A0610000A6610000AA61000053
:1053700000000000B5500000F7B5150001938A68E1
:105380000B690C000090934200DA130022002B609E
:1053900043321278002A01D001332B6023689B0628
:1053A00002D52B6802332B602268062317001F40AA
:1053B0001A4227D0230043331B785A1E9341226898
:1053C000920630D4220001990098089E4332B047DB
:1053D000431C25D0062320682A68E1680025034085
:1053E000042B03D18D1AEB43DB171D40A368226900
:1053F000934201DD9B1AED180027BD4220D1002009
:1054000010E00137E3682A689B1ABB42D2DD220014
:10541000012301990098089E1932B047431CF0D12E
:1054200001204042FEBD3020E118433108702100C8
:105430005A1C45310978A218433202331170C1E772
:105440002200012301990098089E1A32B047431C9C
:10545000E6D00137D1E7FFFFF0B58BB006920A0026
:1054600043320793059004920A7E0C00109B782A21
:1054700007D8622A09D8002A00D1C1E0582A00D1F1
:105480008CE026004236327022E010006338152886
:10549000F7D800F09BF916001F00F6FFF6FFF6FFA5
:1054A000F6FF1F00F6FFF6FFF6FFF6FFA800360036
:1054B0009A00F6FFF6FFB900F6FF3600F6FFF6FF9A
:1054C0009E0026001A684236111D19601368337059
:1054D0000123A7E0086819680A1D05060BD50D68A9
:1054E0001A60002D03DA2D23049A6D421370614B6C
:1054F0000A2703931BE00D681A604106F1D52DB20F
:10550000EFE70D681968081D18602E0601D50D68B3
:1055100003E06D06FBD50D68ADB2564B082703932B
:105520006F2A00D002372300002243331A706368C9
:10553000A360002B03DB0422216891432160002D2E
:1055400002D1049E002B0CD0049E28003900FFF7E6
:10555000DFFB039B013E5B5C33702B0005009F4229
:10556000F3D9082F09D12368DB0706D563682269C0
:10557000934202DC3023013E3370049B9B1B23616A
:10558000079B210000930598069B09AAFFF7F4FEEC
:10559000431C4CD1012040420BB0F0BD45310A7094
:1055A000344A03921A68216820CA1A60080616D580
:1055B000CB0702D52023194321601027002DB2D13B
:1055C000202322689A432260ADE7202209680A431B
:1055D00022602200782145321170274AE1E748060F
:1055E000E6D5ADB2E4E71A680D68101D4969186088
:1055F00013682E0601D5196002E06D06FBD51980EF
:105600000023049E2361BBE71A68111D1960166808
:1056100000213000626800F033F8002801D0801BC0
:105620006060636823610023049A1370A8E723690C
:10563000320006990598079DA847431CAAD0236805
:105640009B0715D4099BE0689842A5DA1800A3E7E8
:105650002200012306990598079E1932B047431C82
:1056600098D00135E368099A9B1AAB42F0DCE9E770
:105670000025F7E7B1610000C26100007047704784
:10568000C9B28218904201D10020704703788B4242
:10569000FBD00130F6E710B5884202D98B1898424A
:1056A00003D3002307E08B5C8354013AFBD210BD87
:1056B000CC5CC45401339A42FAD1F8E7F7B507003D
:1056C0000E001400002905D11100FFF7C9FB0500E9
:1056D0002800FEBD002A03D1FFF756FB2500F7E79F
:1056E00000F01BF80190844203D835004308A34220
:1056F000EED321003800FFF7B3FB051EE8D0019B75
:1057000022009C4200D91A0031002800FFF72AFB32
:1057100031003800FFF738FBDAE70B1F1B68181F52
:10572000002B01DA0B58C0187047FFFF70B50D4D04
:1057300004002B68002B01D10B4B2B6003232E6838
:1057400003349C433419200000F010F8002802D1E3
:105750002C60300070BD00F043F801260C23764227
:105760000360F6E7640C0010840C0010030004488A
:10577000002803D000228342524110007047C046E7
:105780000000000010B5064C2378002B07D1054B14
:10579000002B02D0044800E000BF0123237010BD9D
:1057A000680C00100000000010620000044B10B5EF
:1057B000002B03D00349044800E000BF10BDC046E1
:1057C000000000006C0C00101062000003B4714671
:1057D000490840004900095E49008E4403BC7047F7
:1057E000014B18687047C046940800102000FFFF66
:1057F0000600FF0901A101150026FF00350046FF44
:105800000075088501953F0901810009019100C0DB
:1058100012010002EF0201407B142051000101023D
:105820000301FFFF040309041003530065006C002B
:1058300066006200750073001C034B004E005800A8
:105840002D0049006E007400650072006600610062
:10585000630065000A0341003000300030001C0383
:105860004B004E0058002D0049006E00740065008A
:105870007200660061006300650018034200750055
:1058800073002D004D006F006E00690074006F0002
:105890007200FFFFC85F00002460000000000000ED
:1058A00000000000446000004C60000000000000A8
:1058B00001112202010000001000000001000000A0
:1058C00016000000010000000F00000000000000B2
:1058D00011000000001BB700F614000014150000B2
:1058E000141500001A150000F61400002015000021
:1058F0002530347520494E202000000025303475B5
:10590000204F555420000000253032582000FFFF62
:1059100000180000FC170000401800007C18000070
:10592000C2180000061900002568752E2568752E1E
:10593000256875002325752000FFFFFF4C656E204C
:105940003078253032582041646472203078253018
:10595000345820446174612028686578292000FF4C
:105960002050726F70496420307825303258204FB3
:10597000626A4964782030782530326858204E6F4A
:10598000456C656D2030782530326858205374613D
:105990007274496478203078253033582022000012
:1059A0002573222000FFFFFF0D0A4C6F6164206306
:1059B0006F6E74726F6C202D204F626A6563742065
:1059C000496E6465783A200041646472657373209F
:1059D0005461626C650000004173736F63696174A8
:1059E000696F6E205461626C650000004170706CDC
:1059F00069636174696F6E0025692D756E6B6E6FDA
:105A0000776E0000202D204C6F6164205374617408
:105A1000653A20006C6F6164696E67006C6F616449
:105A2000656400006C6F6164204461746100000073
:105A3000756E6C6F6164656400FFFFFF44617461A3
:105A400052657100506F6C6C445271003F3F2030C2
:105A50007825303258000000205072696F20256888
:105A600075205265706561742025687520537263D6
:105A70002000000020547267200000002568752F68
:105A80002568752F2568750020526F757443202591
:105A900068750000204C656E2025687500000000C8
:105AA0002055445020000000204E445020000000AB
:105AB0002055434420000000436F6E6E65637420E0
:105AC00000000000446973636F6E6E6563742000AC
:105AD0003F3F3F3F20000000204E43442000000095
