:1000000000200010ED000000D5000000D900000025
:1000100000000000000000000000000065DDFFEFB0
:10002000000000000000000000000000DD000000F3
:100030000000000000000000E1000000097A00005C
:10004000E9000000E9000000E9000000E90000000C
:10005000E9000000E9000000E9000000E9000000FC
:10006000E9000000E9000000E9000000E9000000EC
:10007000E9000000E9000000E9000000E9000000DC
:10008000E9000000D1520000E9000000E900000092
:10009000E90000000D7900000000000000000000F1
:1000A00071020000E9000000E9000000000000000B
:1000B000E9000000E9000000E9000000E90000009C
:1000C000E083000000000010BC000000BC00001035
:1000D000A4150000FEE7C046FEE7C046FEE7C046A6
:1000E000FEE7C046FEE7C046FEE7C04670B5184AC8
:1000F000184DAA420ED2146850680C32131F1968AA
:1001000000230029F5D01E591E5004339942FAD815
:10011000AA42F0D3104B9A4212D2D1430024C918FC
:10012000C9080131C900511850681568002300281A
:1001300003D05C5104339842FBD808328A42F3D191
:1001400004F0FCFA07F024FF06F054FEFEE7C04678
:10015000C0000000CC000000D400000010B5002357
:10016000002A04D01C585C5004339A42FAD810BDBF
:1001700000230022002903D01A5004339942FBD8EF
:100180007047C04670B5C024A40121002A4804F07D
:100190001FFB2100294804F01BFB2100284804F024
:1001A00017FB21002748C02404F012FB8C20E40137
:1001B0002100C00104F00CFB2100234804F008FBDF
:1001C0002100224804F004FB2100214804F000FB38
:1001D0008E2110201F4B204C1D680423E65E1F4B10
:1001E000EE6189005A58824380205A50B939FF394C
:1001F0005A58800102435A50996F194B186807F0FA
:1002000037FD184907F034FD174B0138000298609C
:10021000C0209968154AC00411609968014399602B
:100220005168EE6199680020205E411811609A22A1
:1002300000215200995470BD224110062041100740
:10024000214110062B8338000102320002C23A001D
:1002500049C20100488200005C0000100080044098
:10026000B0000010009F2400BC00001000C001403E
:10027000F0B5474680B4724A82B093688021180076
:100280000193802389001B01C1506E4B198809B26C
:100290000131092900DD85E008B284466A4CCF00AF
:1002A000E61910680425725FC2619A683C5FA21863
:1002B000664C22600220325E0432920012591C8881
:1002C000120424B2920D072C3FDC614CA24200D8EC
:1002D000A3E01C8824B22C3464001C19A6880136C3
:1002E00036B2A6801C8824B2243464001C19A48869
:1002F00024B2121B1C8824B20234A4001C196668A4
:10030000961966601C88524324B20A34A4001C1952
:100310006668921962605A8812B2002A45D0002994
:1003200008D15A8812B2511E09B25980002A01D14F
:10033000484A5A8062461A808023002201991B0194
:10034000CA5002B004BC9046F0BD1C8824B22600FE
:10035000083E012EE3DC27008C377F00DF19B888C8
:10036000821892B2BA809A88013292B210B2988002
:100370000620024055D1B8889034800885B26400C8
:10038000E552BA80002E4CD10209112A54D9123AF2
:100390002E2A00D92E22304C5200145B2F4A1268AC
:1003A0009461BCE700218C4678E71C881E8824B243
:1003B00036B20236B6009E191A347668A4001C19AB
:1003C00066601C8824B20234A4001C1962601C8878
:1003D0001E8824B236B20A36B6009E1922347668D8
:1003E000A4001C1966601C8824B20A34A4001C19DD
:1003F00062601C881E8824B236B22C3676009E19A4
:10040000B688543464001C1936B2A6801C8824B205
:100410002C3464001C19A28081E7042A00D858E714
:1004200060E7012E00D07AE75A88002A00D076E7EC
:100430003532FF329E5472E79624E400AEE7C046A0
:1004400048820000BC0000105C00001000C00140A9
:10045000FA030000E1040000000000102416001060
:1004600070B50125124C200007F08AFA1F222900DE
:100470002379200010331340994080230D4AD15036
:10048000002223680021DA60323207F08BFA0A4B2F
:10049000996F0A4B186807F0EBFB094907F0E8FB76
:1004A0002368013898615A6815435D6070BDC04685
:1004B0003416001000E100E000800440B00000109D
:1004C000A08601009823024A5B00D05A80B2704790
:1004D000BC0000109923024A5B00D05A80B27047DA
:1004E000BC000010174B40215A6880235B0070B598
:1004F000D150C0210124C901134804F069F9134DFA
:10050000280007F03DFA1F2221002B792800103324
:100510001340994080230E4AD15000222B680121BC
:10052000DA60023207F03EFA2B680A4ADA61962254
:1005300092009A615A6F22435A675A6814435C606A
:1005400070BDC0464882000026C233002416001049
:1005500000E100E0AF04000000B583B000280DD139
:100560008023402208495B00496808480191CA502D
:10057000C021C90104F02CF903B000BDE0210348FB
:10058000C90104F025F9F7E74882000026C23300CC
:10059000254B264A30B54C205A800022CE252449CE
:1005A0001A80244C195270301A5210301C527E3866
:1005B000195270301A52204858537E3D59537035A5
:1005C0005A5310355C537E3D595370355A5310358C
:1005D00058537E3D595370355A5310355C537E3D08
:1005E000595370355A53103558537E3D5953703511
:1005F0005A5310355C535A2419533639FF395A521D
:1006000010315852C62052315A5202315A520B4BB5
:1006100080001A582F398A43BF390A431A50802262
:1006200052041A6030BDC046BC000010E204000055
:10063000FF0100009981FFFF8583FFFF00E100E0DB
:100640009A23044A5B00D05CC0B2002801D000218C
:10065000D1547047BC000010F0B54D465F46564679
:1006600044464B4BF0B400224A494B484B4D9C4604
:1006700053E04C46A4887F6824B2A1464F44B84654
:10068000474FB84563DD474F5E008E19B780B78886
:100690003FB2AF421EDDB488A046434CA146C844D9
:1006A000444624B2B480160024367400A046884420
:1006B0004446A48824B2644562DC4446A488A0462B
:1006C0000124A146C844444624B2A04644467600CC
:1006D0008E19B4805B00CB189E88334C36B2A6428C
:1006E00018DA2E4C9E88A046464436B29E801600EC
:1006F00024367300CB189C8824B2A046FE24FF3415
:10070000A04541DD9B88013B1BB2984644467300DF
:10071000CB189C800132082A2CD0130054335B0084
:10072000CB189B881BB2042BF4DC13005C335E00F7
:10073000B14689444E46B68836B2B34616001A36DC
:10074000B700CF197C68A246DA44824591DA5F008F
:10075000CF19BC88B60024B28E19A1467468A2468F
:10076000D144814504DBBF887668BE1937B28BE778
:100770000E4F89E73CBC90469946A246AB46F0BD79
:100780008124A400A046A1E7FE235B009846BDE7B4
:1007900002020000BC000010F1D8FFFF8813000027
:1007A0000F2700001027000078ECFFFFF0D8FFFFB4
:1007B000962110B5C901024806F0A8FF10BDC04639
:1007C000AC030010902210B51C4B12011B68995C01
:1007D00001290BD002240022002194200001185C82
:1007E000012810D0164803F087F810BD154A985C10
:1007F00000281CD00128EDD1134A03249A5C120969
:100800004A400240E9E71148185C002809D0012855
:10081000E8D10F495B5C2100DB06E3D402231A43D5
:10082000E0E70B495B5C2100DB06DBD5F6E7064A17
:1008300003249A5C12090A400121CEE7708300006C
:1008400078020010020900000109000042090000BE
:100850004109000010B50249024806F057FF10BDDB
:10086000124B0000AC030010224BF0B50C001B68CB
:1008700021349C4683B0FF34A40101931E4B644491
:10088000E3181E7807000D00012E01D003B0F0BD63
:100890001A4BA800E3181978194B0902E3181B78C2
:1008A0004019591880001530082289B205F004FC5F
:1008B0000023E800401B800038184371114B0422CC
:1008C000E3181B789B0701D5467101320E4BE318E4
:1008D0001B789B0700D542710C4940228C46037857
:1008E00064449343037021780A42CFD013430370CA
:1008F000CCE7C0467083000000C1FFFF37C1FFFF97
:1009000036C1FFFF27C1FFFF29C1FFFF16C1FFFF4F
:10091000F0B556464D4644465F468C4BF0B40C004D
:100920001B6821349C4683B0FF34A4010193884B9B
:100930006444E3181B7881460E00012B06D003B0F7
:100940003CBC90469946A246AB46F0BDCB005D1A32
:1009500001930323AD004D442B707E4B7E4AE31878
:100960001B78A21812781B0113436B7016239A464A
:100970007A4B8F00E3187F181978794BBF00E31882
:100980001B7809025918BA4489B20822504605F06A
:1009900093FB15239B46734BBB44E3181978724BAA
:1009A0000902E3181B785846591889B2082205F045
:1009B00083FB6E4B6E4AE3181B78A21812781B0259
:1009C000D3189BB25846984605F05CFA83B250465D
:1009D0009B4605F057FA80B2804502D2030040469C
:1009E00098460123C34503D88345804143425B00B9
:1009F0002B7100236B715F4BE3181A780423920765
:100A000002D5033B6B7104335B4AA218127892073C
:100A100000D56B71594BE3181B785B0603D5402357
:100A20002A7813432B703800554B564AE3181B782D
:100A3000A21811781B02CB18534A9BB21901A218B5
:100A4000CB1A11789B00591808220D3005F034FBA1
:100A5000019B10229E1B0023B6004E443373AB71E2
:100A6000EB714A4BE3181B781A4220D0484BE3182D
:100A70001B78022B00D8AA71464BE3181B78022B77
:100A800003D82023AA791343AB71434BE3181B7897
:100A9000022B03D84023AA791343AB713F4BE318D1
:100AA0001B78022B42D9072B49D0022B45D00023BB
:100AB000EB703B4BE3181B785A0601D4DB0932D1AB
:100AC000384BE3181B785A0601D4DB0926D1364B84
:100AD000E3181B785A0601D4DB091AD1334BE3180B
:100AE0001B785A0601D4DB090ED1314B9C46644475
:100AF00023785A0600D522E7DB0900D11FE710232F
:100B0000EA781343EB701AE70823EA781343EB7093
:100B1000EBE70423EA781343EB70DFE70223EA787C
:100B20001343EB70D3E70123EB70C9E78021AA7967
:100B300049420A43AA71012BB7D1EB71B7E7802272
:100B4000AB7952421343AB71B1E7C04670830000EA
:100B500000C1FFFF21C1FFFF20C1FFFF33C1FFFF25
:100B600032C1FFFF37C1FFFF36C1FFFF35C1FFFFB5
:100B700034C1FFFF27C1FFFF29C1FFFF16C1FFFFDF
:100B800018C1FFFF17C1FFFF19C1FFFF14C1FFFF0D
:100B90002FC1FFFF2DC1FFFF2CC1FFFF2EC1FFFFA3
:100BA00022C1FFFF23C1FFFF24C1FFFF25C1FFFFBB
:100BB00026C1FFFFF8B55F4656464D464446984667
:100BC000CB00F0B482465E1A9B46032314000D004E
:100BD0001278B6005644134333706378AF007370D5
:100BE000A3787F19B370E378BF00F370617923793C
:100BF00009021943384B1A682B0091462133FF3301
:100C00009B019944FF2942D9344B4B441B78032B59
:100C10003DD0E179A37909021943FF2931D92F4B3E
:100C20004B441B78032B2CD0237A022B00D8337132
:100C30002B4B627A4B441B78022B49D0032B43D0B9
:100C4000012B2AD05B4600225B1B9B0053441A7386
:100C50005B4638005D1BE37AA27A1B021343AD00AA
:100C600055444344AB60E17BA37B090219430D303B
:100C7000082205F021FA3CBC90469946A246AB46B4
:100C8000F8BD38000322163005F016FACCE738001C
:100C90000322153005F010FABBE7531E032BD1D801
:100CA0005B465B1B9B0053441A730E4B4B441B78F3
:100CB0001B07CDD5023A012ACAD8380003220121E8
:100CC0000E3005F0F9F9C3E7D31F012BBAD8E7E7D7
:100CD000531F012BB6D8E3E77083000031C1FFFF3B
:100CE00015C1FFFF16C1FFFFF0B5474680B4414B69
:100CF00082B01B6806000F00002200213E48984683
:100D000006F09EFC03780400013BDBB2FD2B12D9F8
:100D10003A4B1C6890231B01E35C012B23D09423E6
:100D20001B01E35C012B1AD101213000FFF7F0FD1C
:100D3000002F14D12AE0314B451C1B681A00019387
:100D400090231B01D35C012B25D09423019A1B0116
:100D5000D35C012B2FD02900294803F0B5F802B04D
:100D600004BC9046F0BD00213000FFF7D1FD002FFC
:100D7000D5D100213000FFF777FD94231B01E35C00
:100D8000012BECD101213000FFF7C2FD0121300021
:100D9000FFF76AFDE3E700213000FFF7B9FD637854
:100DA0005A2B1FD013342500002FCED10021300044
:100DB000FFF75AFDC9E701213000FFF7A9FD2B78A5
:100DC0005A2B07D01235002FC5D101213000FFF773
:100DD0004BFDC0E7AA1C434601213000FFF7EAFEA5
:100DE0001235F0E7E21C434600213000FFF7E2FE37
:100DF000D8E7C04620160010AC0300107083000036
:100E000078020010F0B55F4656464D464446F0B4B1
:100E1000A94BAA4F1B6883B0894600220021060017
:100E200038009A4606F042FB00220021380006F006
:100E300007FC431C9B464B460370A14B04001B68F8
:100E40001A00019390231B01D35C012B00D181E098
:100E50005B4603225B42134000D174E00022811CF8
:100E60004270012B00D100E1C11C8270022B00D125
:100E7000F9E0011DC2700F201225EA1A90460E22D9
:100E8000D21A920801329500AC4600255B441D60E1
:100E90005D609D60032A00D0DD6063466144C01A36
:100EA000E04507D000230B70012803D04B700228C7
:100EB00000D08B7094232500019A1B01D35C13355D
:100EC000012B00D188E003226B42134000D1BFE028
:100ED0000022691C2A70012B00D1C2E0A91C6A7093
:100EE000022B00D1BBE00F20E91CAA701226F21AD7
:100EF00090460E22D21A920801329600B446ED189E
:100F000000232B606B60AB60032A00D0EB6063466C
:100F10006144C01AE04507D000230B70012803D0BC
:100F20004B70022800D08B7021006648253102F0FA
:100F30008FFF380006F068F903B03CBC9046994634
:100F4000A246AB46F0BD10221220944659460C3AF8
:100F500080469AE75A238578437040215A4803F027
:100F60005FFB4B468346802B00D188E04B46012B2C
:100F700000D196E0A57033781520E37073782500D2
:100F80002371B37813356371F378A37104F07AFF9A
:100F9000E07100122072162004F074FF5246607255
:100FA0000012A07233790D20E372337B2373B36890
:100FB0009B1A1A0A6373A2731A0C1B0EE273237432
:100FC00004F060FF94236074019A0012A0741B0166
:100FD000D35C012B00D076E759332B706B7840211E
:100FE0003A48984603F01CFB4B468346802B3ED084
:100FF0004B46012B5AD043466B70337F2920AB7090
:10100000737FEB70B37F2B71F37F6B7104F03AFF4A
:10101000A8710012E8712A2004F034FF20232872FE
:1010200000126872F35C5246AB722823F35C2120F5
:10103000EB72736A9B1A1A0A2B736A731A0C1B0ED3
:10104000AA73EB7304F01EFF2874001268746BE738
:1010500010221220944629000C3A80464FE71020B7
:1010600044E7112042E7102006E7112004E78045FD
:1010700012D001213000FFF74BFCD846BBE7854278
:1010800005D000213000FFF743FC5D4672E70123E5
:10109000728F134373876DE70223728F1343738735
:1010A000A9E700213000FFF733FC63E7012130009E
:1010B000FFF72EFC9FE7C04620160010AC0300107F
:1010C0007083000078020010F80E0010380F001036
:1010D000264B70B51C6890231B01E55C012D05D0E3
:1010E00094231B01E35C012B16D070BD204802F055
:1010F00089FB204B2900E35CDA0634D58143DA070B
:1011000002D501256940C9B20E221A421DD1063A04
:101110001D2004F0D1FFE3E7154802F073FB022124
:10112000154B0840E35CDA0619D541424141C9B28A
:10113000DA0702D501225140C9B20E221A4209D162
:10114000063A312004F0B8FFCFE703221D2004F057
:10115000B3FFC5E70322312004F0AEFFC5E7411E0F
:101160008841C1B2E4E70140C9E7C046708300008E
:101170007802001001090000410900002A4BF0B577
:101180000C001B6821349C4683B0FF34A4010193FA
:10119000264B6444E3181D780E001700012D01D082
:1011A00003B0F0BD224802F02DFB224BB5409C4617
:1011B000644422780540D30624D569426941C9B206
:1011C00013075B0F032B12D038780028E8D078780B
:1011D0008842E5D00100D20711D4002B16D1B0000F
:1011E000801980001D30082204F066FFD8E7B87827
:1011F000002813D03878002813D1D20706D5012251
:101200005140EAE7691E8D41E9B2D9E7B000801983
:1012100080001D30032204F04FFFC1E73978002918
:10122000BED07978D7E7C0467083000000C1FFFFC9
:101230007802001001C1FFFFF0B55F4656464D46EB
:101240004446424BF0B40C001B688E009C46761856
:10125000B60082463000213483B0FF340193A401EC
:101260003B4B6444E3181B7815309846394B0F000C
:10127000E3181D78384B2D02E3181B7891465D1951
:1012800004F000FE83B2300016309B4604F0FAFDF5
:10129000ADB280B2A84202D82B0005001800434628
:1012A000012B1BD04346022B06D003B03CBC90461A
:1012B0009946A246AB46F0BD58451FD35D4536D88A
:1012C000264B9C4664442378002B36D0012BECD16E
:1012D00001234A46137053709370E6E7584516D2BF
:1012E00003221100FB00DF1BBF0057443B7919406C
:1012F0000129DAD09343012213433B71184B9C46DA
:1013000064442378002B18D0012BCED1E0E75D4553
:10131000CBD903221100FB00DF1BBF0057443B79F0
:1013200019400229C1D09343022213433B710D4B54
:101330009C4664442378002BC8D101234A46494681
:10134000137000228B704A70AFE7C04670830000B4
:1013500030C1FFFF35C1FFFF34C1FFFF39C1FFFFBF
:101360003AC1FFFF38C1FFFFF0B546464F460023A4
:10137000C0B40600900080188000401885B00A3084
:101380000D001400029304F07DFD0C2D13D8D04BFA
:10139000AD005B599F46CF4A230012682133944623
:1013A000FF330192CC4A9B016344944663441B780B
:1013B0009B0600D548E102AD2B78002B0DD0E30051
:1013C0001A1B9200925D687804218A43002820D07D
:1013D0001C1B0423A4001A43A255029BFF241800DF
:1013E000190A1A0C21402040090222401204084325
:1013F0001B0E1B061043184305B00CBC90469946C3
:10140000F0BD012202AD2A70AA700A78042168702A
:101410008A431C1BA400A255DFE7012302AA137014
:10142000421E904102AA9370C0B2E30050701A1B92
:101430009200925DC8E7A74B27001B6821379C46A6
:10144000FF37BF010193A44B6744FB181B789B0730
:10145000B1D5E300002800D1FDE01B1B9B0098469E
:10146000B04443465B7802AD1B1100D196E1012BDD
:1014700002D12B706B70AB70434603221B789748E8
:1014800093434246137002F0BDF90123944AA340EE
:10149000944667443A780340D20600D47AE1584231
:1014A0004341DBB2002B00D186E743461A78012383
:1014B0001343424613707FE7864B27001B68213792
:1014C0009C46FF37BF010193834B6744FB181B7891
:1014D00002AD9B0700D46FE7002800D0DAE0E300FC
:1014E0001B1B9B0098460F22B044434611005B78BB
:1014F0001940012900D95FE7934378485DB202F0B3
:1015000081F90123A3401840754B9C4667443B7802
:10151000DB0600D464E143424341DBB21D43434652
:101520005D7002AD48E76B4B27001B6821379C4676
:10153000FF37BF010193684B6744FB181B7802AD6E
:101540005B0700D438E73F231A0001210240904690
:101550000A00A2409146020600D5CFE0614ABA18BF
:10156000127850060BD41340984508D1E3001B1B9A
:101570009B00F318DB7829700B406B70A9705A4BF5
:10158000FB181B785A060ED43F22134098450AD107
:10159000E3001B1B9B00F318DB783E3A5B10134003
:1015A0002A706B70AA70514BFB181B785A060ED428
:1015B0003F22134098450AD1E3001B1B9B00F31800
:1015C000DB783E3A9B1013402A706B70AA70484B30
:1015D000FB181B785A060ED43F22134098450AD1B7
:1015E000E3001B1B9B00F318DB783E3ADB10134033
:1015F0002A706B70AA703F4B9C4667443B785A0632
:1016000000D5D9E63F221340984500D0D4E6E30048
:101610001B1B9B00F318DB783E3A1B1113402A700A
:101620006B70AA70C8E62B4A2300126821339446D7
:10163000FF330192284A9B016344944663441B781C
:1016400002AD9B0600D4B7E602AD2A0021003000AF
:10165000FFF7F2FDB0E60F25191B890071184A78D3
:10166000AC462A40D5B2012D00D1A0E0002D00D11A
:10167000C7E6042D00D1A2E0062D00D09BE61E4B4C
:101680006046984647443B7802AD184003011A4330
:101690004A7091E60F22E5002D1BAD0075196B789D
:1016A0000E481A40904602F0ADF80123A3401840BE
:1016B0000B4B9C4667443B78DB0674D54342434161
:1016C000DBB242461B0113436B7002AD74E6C046A9
:1016D000408100007083000014C1FFFF78020010F9
:1016E00001C1FFFF22C1FFFF23C1FFFF24C1FFFF94
:1016F00025C1FFFF26C1FFFF21C1FFFF884ABA189D
:101700001278510603D41340984500D1B3E0854BBD
:10171000FB181B785A0603D43F221340984564D027
:10172000814BFB181B785A0603D43F22134098457F
:1017300073D07E4BFB181B785A0604D43F2213400B
:10174000984500D180E07A4B02ADFB181B785A0611
:1017500000D531E63F221340984500D02CE675486D
:1017600002F050F8744A4B46944667443A78034076
:10177000D20600D4C7E058424341DBB2002B00D16F
:1017800098E01C2310216343F318DA7802AD0A4372
:10179000DA7011E6581E8341DBB283E601226B70DA
:1017A0002A70AA7068E6431E9841C3B289E702AA6C
:1017B0001570557095700A7804218A4308E6032055
:1017C0000F7802AD3840012800D9F5E5012210401C
:1017D0002A70AA7003223A43D2B268700A70F3E505
:1017E0000300581E8341DBB298E6524802F00AF823
:1017F0004B46514A0340BA181278D20600D48AE008
:1018000058424341DBB2002B65D102211C336343B4
:10181000F318DA788A43DA7082E7464801F0F2FF7B
:101820004B46454A0340BA181278D2066FD5584243
:101830004341DBB2002B46D104211C336343F31830
:10184000DA788A43DA7074E73A4801F0DBFF4B46F6
:10185000394A0340BA181278D20650D5584243414B
:10186000DBB2002B1ED108211C336343F318DA7856
:101870008A43DA7067E72F4801F0C4FF4B462E4ACF
:101880000340BA181278D20635D558424341DBB22C
:10189000002B28D101211C336343F318DA788A43E3
:1018A000DA7034E71C2308216343F318DA780A431B
:1018B000DA7048E71C2310216343F318DA7802AD8D
:1018C0008A43DA7078E51C2304216343F318DA783D
:1018D0000A43DA702DE71C2302216343F318DA78F8
:1018E0000A43DA701CE71C2301216343F318DA78FA
:1018F0000A43DA700BE7581E8341DBB2C8E7581E73
:101900008341DBB2ADE7581E8341DBB236E7581E98
:101910008341DBB28EE7581E8341DBB273E7C046DA
:1019200022C1FFFF23C1FFFF24C1FFFF25C1FFFF2D
:1019300026C1FFFF7802001001C1FFFFF0B5454648
:1019400057464E46E0B40E0090491D000968904C81
:10195000884682B00F00019121002135FF35AD018D
:10196000A844414409780C0776D5D900CC1AA400C4
:10197000041901202178814689080140F1706179BC
:10198000093081436171082A6CD0092A00D187E0AF
:10199000BC46804BEB1863440120197808422ED0D6
:1019A0007D4A42441278022A00D1B4E000D88EE089
:1019B000032A00D1B5E0042A13D1C9088A460100E0
:1019C00062791140894601218C4649466746794033
:1019D0008C465146674601403840814202D0002281
:1019E0003270627902218A4362711B785B0706D5E7
:1019F000012372785A407270F2785340F370674B4B
:101A000001229C46019B65449C46654429780A4214
:101A100022D0634B43441B78022B00D18EE069D95E
:101A2000032B00D196E0042B08D16379C9089810E4
:101A300011408243914202D000233370637908221F
:101A4000934363712B785B0706D5012372785A4064
:101A50007270F2785340F37002B01CBC9046994605
:101A6000A246F0BDBA464B4A4946AA18924452468D
:101A700012781142C3D09800C0188000123004F0D0
:101A800001FA4A4663799343002802D001221343A6
:101A9000DBB20222134363710123B37053467BE729
:101AA0009800C0188000133004F0ECF90422637928
:101AB0009343002800D0134308221343637101238A
:101AC000019AB3709446334BEB18634464E7012AE0
:101AD00000D086E7F178002954D13278F170002ADD
:101AE00003D16279900700D47CE7012271703270D3
:101AF000627977E7012BA1D1F278002A3ED13378C1
:101B0000F270002B02D16379190798D50123727006
:101B10003370637993E7F1780029DED16179014070
:101B2000DBE762791040F27850403278F070002A9A
:101B30001FD0012270703270627953E7F17800296A
:101B400013D03378F170002B0AD0012371703370F9
:101B5000637974E763799B101A40F3785A40CEE7B3
:101B600063791A0700D46AE7EFE7617989101140B9
:101B7000E7E76279910700D434E7DAE762799210F7
:101B80001A40BCE761791140A7E7C04670830000A6
:101B900014C1FFFF27C1FFFF28C1FFFF29C1FFFFBD
:101BA0002AC1FFFFF0B544465F4656464D4698466B
:101BB0000023F0B4D4000B70A31A9B00C3180E00CE
:101BC000197B070083B015000020002948D0424649
:101BD0009B68D31A002B43DD974B98481B681A006B
:101BE0002B0094462133FF339B0118186044019267
:101BF00002788346D206900F81469148634484461A
:101C00009C44604600788F4A8446FA209A181278DD
:101C100080001202624492B250438246082900D9E1
:101C2000CCE0894A8900525897464B46002B00D198
:101C3000C6E04B46DB0700D5E2E002234A461342EA
:101C400000D18FE001220021641BA4003F193270F3
:101C50007170B2703B73AF2301209B004344BB60A3
:101C600003B03CBC90469946A246AB46F0BD621B11
:101C70009200BA189178002900D183E00139C9B2E5
:101C8000917000297ED1137B073B012B00D8A3E084
:101C900030780023641BA4003F193B73E0E708225F
:101CA000641BA4003F193A73684A69499A1812786C
:101CB0005918097812028A18664992B28C461001A6
:101CC0006344821A1878FA23920010189B00584334
:101CD000002201234044B86033707270B370012059
:101CE000BEE700220123641BA4003F193A730120C0
:101CF00033707270B370B3E70023641BA4003F1904
:101D00003B730123012033707370B370A8E7641B29
:101D1000A4003F190124A800401980003C730D3035
:101D200004F0B0F8FA239B0058434044B860347084
:101D30007470B470012093E70022641BA4003F1963
:101D40003A73012372704A463370B3700120134214
:101D500000D185E7A800401980000E300322002141
:101D600004F0AAF930787BE701230200641BA40089
:101D700033707370B3703F19023342443B73BA60DF
:101D800001206DE70722641BA4003F193A73324A11
:101D900032499A1812785918097812028A1892B2A0
:101DA00011018A1A2E4992008C4663441878FA234E
:101DB00010189B0058434044B860A2E700204FE74A
:101DC0004B46641BA4003F193B734A4601237270C3
:101DD0003370B370012043E75B461B781B079B0FF2
:101DE000012B24D0032B1CD0002B00D050E7012165
:101DF000317013780120DB080B407370B17048E735
:101E0000A8004019800003220E30012104F054F98B
:101E10000322631B9B00FB181A73524642449A60CC
:101E20000BE70123012033707370B37031E7337017
:101E30007170B37001202CE77083000016C1FFFFA2
:101E40001DC1FFFF1EC1FFFF748100001BC1FFFF0A
:101E50001AC1FFFF1CC1FFFF18C1FFFF17C1FFFF21
:101E600019C1FFFFF0B55F4656464D464446F0B4F3
:101E700016008F4A83B012680C9C94462134FF34BC
:101E8000A40101928B4A6444A218127807000D0045
:101E9000D20636D5002B03DDFF221A400A2A6DD068
:101EA0000C9BDB009B465A460C9BD31A00229B00DE
:101EB000FB1899790B1133402AD00726B1433E8F86
:101EC000B4460E11B04666464046064031435E4673
:101ED0000C98C9B2301A800038188171090700D0F7
:101EE000C5E0754B9C4664442378012B41D0002B00
:101EF00000D190E0032B04D10123EA782B706A70A3
:101F0000AB7003B03CBC90469946A246AB46F0BDD0
:101F10000907F6D058460C992B70401A80003818E3
:101F20008179CE07EDD4012608271E400F4210D03C
:101F30001F4203D1002E01D1002AE2D0C3799B07B2
:101F4000DFD401232B70C279AB701A406A70EB703A
:101F5000D7E70222F0B20A424BD01A4201D1002E3A
:101F6000CFD0564B9C4664442378002B53D0012B92
:101F7000C7D12B706B70AB70EB70C2E7093A8A70F7
:101F8000DA0500D489E01B0B98464D4AA218127856
:101F9000022A46D9434602221A40944660460C9AC9
:101FA000D300991A9B46431E9841824689007918AE
:101FB0008A791007C00F824501D008231E430820EC
:101FC0008243604600284BD18A710022C87984463A
:101FD0000120814660464B4698438446C8714B4673
:101FE0004046034203D0012360461843C8718979F3
:101FF00060E71A4200D0012004220A4200D180E7A3
:102000001A4202D1002800D17BE72E4B9C46644443
:102010002378002BABD101226B702A70AA70EB7071
:102020006FE7012342461A4090460C9A9946D30026
:102030009A1A9200BA1891799B46C8088446484675
:1020400063461840804501D008231E430823994366
:102050004346002B01D0082319439171002229E740
:1020600008239C4663461A438A710122AEE7002189
:102070000126297081790E4200D154E71E4200D119
:102080003FE7114B9C4664442378002B00D06EE759
:102090002E706B70AE70EB7033E70C9A0A33944677
:1020A000900060448000181803F0ECFE80466CE756
:1020B0007083000014C1FFFF2BC1FFFF2DC1FFFF84
:1020C0002EC1FFFF2CC1FFFF2FC1FFFF354B70B5A5
:1020D0001C6890231B01E35C84B00500012B08D031
:1020E00094231B01E15C01292ED000236B8704B0EF
:1020F00070BD10262C4AA25C1642F1D0418F1940C7
:10210000EED18522294B0391E35C52001B0313435C
:102110008279009103A9FFF7A5FE03AA00212800F8
:10212000FFF72CF86B461B7B002BD9D06B465A7BF4
:102130001F4BE35C1E4201D001235A4000230021C3
:102140001C4801F049FBCBE710261B4BE35C1E4209
:10215000CBD06B8F5B100B40C7D185220393174BFD
:102160005200E35C28001B031343E83AAA5C009189
:1021700003A9FFF777FE03AA01212800FEF7FEFF5F
:102180006B461B7B002BB0D06B465A7B0C4BE35C41
:102190001E4201D001235A4000230121054801F0CD
:1021A0001BFBA2E770830000140900003B0900003C
:1021B0000109000078020010540900007B090000AA
:1021C00041090000F0B55F464D4656464446F0B41E
:1021D00014001F000D00824689B00B003A00210058
:1021E000FFF7ACFB0122EB0007935B1B9B00534402
:1021F00099461B781B091340E370B44B1B68190008
:1022000003932B002133FF339B01180084468B4638
:102210000493AF4B63449B445B461B781A4200D146
:1022200088E0022F00D195E04B46A90022781B7868
:102230000291002A66D10498029984464E190399A6
:10224000B60061448846A3490B3641440596069181
:102250000126002A06D06278002A66D01022134395
:102260004A4613701B093340E3705B461B781E42DD
:1022700009D0012F1ED04B461B789B0603D50023A7
:1022800023700133E3703B0000222100504600958B
:10229000FFF7E8FD220029005046FEF76FFF237884
:1022A000002B00D068E109B03CBC90469946A2469C
:1022B000AB46F0BDA770059803F0E4FD002800D000
:1022C00094E04B4620221B781A42DCD01900484685
:1022D000914301705B0600D549E1069B1B78012BF9
:1022E00000D044E17C4B43441B781A4200D13EE1CC
:1022F0005B46277067701B781E4200D174E101278E
:1023000003787F42402119401AD1049E039AB446B3
:10231000624410006F4A82181278022A32D0032ACF
:1023200052D0012A3FD0012285E7102293434A462A
:10233000137097E74B46A90022781B7802917AE741
:102340000022079B5B1B9B0053441A734B460132D0
:102350001B7870E7AB00581980000C30029303F033
:1023600091FD4B46002806D01A78402313434A4675
:10237000137022785DE740221B7893434A4613701E
:10238000227856E762782170002A3CD0E278079BD9
:10239000002A00D10BE15B1B9B00534419734B4691
:1023A00000221B7847E74C4B0632C3181B781340BA
:1023B000032B4BD06278002A48D1012B00D127E1B2
:1023C00022704B461B7836E7434BC3181B781A40E4
:1023D000032A00D18DE0012A00D109E1022A00D1AF
:1023E00084E04B4621701B78002224E7012800D0AE
:1023F00049E74B4627706770E7701A78202313432C
:102400004A4613703FE7E378002B00D1C7E0079BF3
:10241000324E591B0623890051440B73304B8619E9
:10242000C3181B7836781B02F3189BB21E01F31AEF
:102430002C4E9B00B446604400781B18FA208000A4
:1024400043431298844663448B60BAE700232370A9
:10245000079B5E1BB6005644337B002B00D133E153
:10246000214A9446604402789046013A042A96D85C
:10247000042B94D0022B00D14DE1029B581983000C
:1024800018000D30059303F0FDFCFA239B00584320
:102490004346012B00D129E1337B032B00D142E1DC
:1024A0004246B368C3185043129A9A1A904200D316
:1024B0001AE1129B9C466044B06001232370637054
:1024C000A3704B4601221B78B5E6C046708300001E
:1024D00014C1FFFF15C1FFFF16C1FFFF1AC1FFFFA7
:1024E0001BC1FFFF1CC1FFFF1FC1FFFF6278002A55
:1024F00070D100232370079B5B1B9B0053441A7B06
:10250000002A00D04BE74E46894941180978B1703E
:10251000E178002900D09AE0082132788A433270AD
:10252000844A8549821812784118097812028A185B
:1025300092B211018A1A814992008C466044017856
:10254000511807221A7301236370FA229200514333
:10255000129A079B94465B1B9B005344614499600D
:1025600001232370A3704B4601221B7863E60123ED
:102570002370E378637086E60499039B8C46704968
:1025800063448C4663441B786278DB0601D50123E3
:102590005A40002329006B4801F01EF983E6079B8F
:1025A0005B1B9B0053441A734B461B7843E6591B35
:1025B0000523890051440B735E4B5F4EC3181B7893
:1025C000861936781B02F3189BB21E01F31A9B0082
:1025D0005A4E2FE7012323706370A370079B5B1B88
:1025E0009B0053441973ECE6012703787F4232E6DF
:1025F0006178002900D07CE7079B22705B1B9B0061
:102600005344A270617019734B4601221B7812E685
:1026100007992270491B89005144097B002906D182
:102620002370A3704B4662701B78012203E60229D7
:1026300036D026D9032933D0042931D00021079B75
:102640005B1B9B00534419734B461B78F3E5082131
:10265000367831434E4631703B493C4E411809783B
:10266000861936780902711889B20E01711A384E2E
:102670008900B44660440078091808201873627015
:1026800063E70129DAD10022079B5B1B9B005344BF
:102690001A734B4662702170A1701B780132CAE533
:1026A0000022079B5B1B9B0053441A73012323707A
:1026B000A370029B6270581980000E300332002113
:1026C00003F0FAFC22787CE6029B581980000D305A
:1026D00003F0D8FBFA23129A9B00944643436344C9
:1026E000B36001233373E9E6B360E6E6129A337B05
:1026F00094466044B060032B00D0DEE60122079BC5
:1027000005985B1B9B0053441A730E300232002164
:1027100003F0D2FCD1E602333373029B0322581933
:1027200080000E30CBE7129B9C466044B060E5E72A
:102730001FC1FFFF18C1FFFF17C1FFFF19C1FFFF36
:1027400001C1FFFF780200101BC1FFFF1AC1FFFF8C
:102750001CC1FFFF214B70B51C68002384B003939C
:1027600090231B01E35C05000E00012B08D0002321
:10277000039394231B01E35C012B18D004B070BDBC
:10278000428F1342F3D10321154AA25C0A40012A69
:10279000EDD86846134043730121012301735B4266
:1027A000009603AA00212800FFF70CFDDFE76A8FDF
:1027B00052101342E2D103210A4AA25C0A40012AC4
:1027C000DCD869460B7313404B73012300965B42C0
:1027D00003AA01212800FFF7F5FCCFE77083000072
:1027E0000309000043090000F0B55D4C85B0050009
:1027F0000F0020005B4904F089FF5B4906002000C0
:1028000004F084FF002E03D0584B1B78032B0FD00D
:1028100000230393564B1C6890231B01E35C012BA0
:1028200015D094231B01E35C012B21D005B0F0BD32
:10283000AB6CFB1A002BEBDD03220121002003F01F
:102840003BFCFA239B005E43F619AE64E0E73B00D5
:10285000002203A92800FFF7A5F9002847D06B46FE
:102860005B7B002B77D010232A7813432B703FE03B
:102870003B00012203A92800FFF794F900282DD17D
:102880002B7F012168461A090A40C273394AA25CAB
:10289000114204D09B0602D50023C17303730123A8
:1028A0000022009303A9023B2800FFF7DBFA03AAEA
:1028B00001212800FEF762FC6B461B7B002BB5D084
:1028C0006B465A7B2C4BE35CDB0601D501235A4057
:1028D00000230121294800F07FFFA7E76B465B7BBF
:1028E000002B33D010232A7F13432B77C9E72B7893
:1028F000012168461A090A40C273214AA25C1142AA
:1029000004D09B0602D50023C17303730023002269
:10291000009303A9013B2800FFF7A4FA03AA0021B2
:102920002800FEF72BFC6B461B7B002B00D178E7C1
:102930006B465A7B134BE35CDB0601D501235A40FF
:10294000002300210D4800F047FF6AE710222B7F8B
:1029500093432B7795E710222B7893432B70C7E78F
:10296000AC030010014B0000024B0000C402001039
:102970007083000054090000410900007802001033
:102980001409000001090000F0B5012483B00D0016
:102990000C4204D102242C421ED103B0F0BD594E8A
:1029A000300000F02FFF584B20401B681A000193A5
:1029B000564BD35CDB062CD50123444063401F00FB
:1029C00090231B01D35C012B2DD00023220000217A
:1029D000300000F001FFDDE74A4E300000F012FF4A
:1029E000494B04401D684A4BEB5CDB0631D5624223
:1029F00062419423601E84411B01EB5CD7B2E4B2B8
:102A0000012B34D000233A000121300000F0E4FE15
:102A1000C3E71100902212018A5CC3B25C40012A14
:102A2000D3D127001C00300000F0ECFE374B019999
:102A30000122C95C102310400B4033D050400A07DC
:102A4000520F032A57D0B8423ED1002BBDD13C00D3
:102A5000BBE723005A1E934162426241D7B29422DF
:102A60001201AA5CDBB2012ACCD13C001F0030006D
:102A700000F0C8FE02231840254BE95C10230B40F0
:102A80000CD042425041C0B20A07520F032A2CD048
:102A9000A04209D1002BB5D12700B3E7421E9041D7
:102AA000C0B2F1E7C0B2CAE73B00C90700D42300B7
:102AB000002A1ED108221900312003F0FDFA10224D
:102AC000134BEB5C1340E5E72300C90700D43B0040
:102AD000002A14D1083219001D2003F0EDFA019AE2
:102AE0000A4BD35C10221340AFE72300CA0700D57E
:102AF0003B000322DFE73B00CA0700D52300032287
:102B0000E9E7C04678020010708300000109000068
:102B100041090000F0B556464D4644465F465B4AC3
:102B2000F0B494465A4B85B01B6807000193634488
:102B30001C0000239846574B8946060000259A46FC
:102B40002300143B1B78012B0BD001351C3640347D
:102B5000022DF5D105B03CBC90469946A246AB4645
:102B6000F0BD424630780392010902AA1940D171A2
:102B70002278134205D0800603D5012102AAD37121
:102B80002278D3061FD54846B3791A11024032D0B5
:102B90000720834301933B8F9B46019B18115B46A3
:102BA00003401800019B0343B371180761D1E37D13
:102BB000012B5BD0002B45D0032B04D1012302AAAB
:102BC00013715171937103AA29003800FEF7D6FAE8
:102BD00002AB1B79002BB8D002AB5A792300133B10
:102BE0001B78DB0601D501235A40002329005046FB
:102BF00000F0F2FDA9E71907E5D0D907E3D40121D8
:102C000008201140184223D0104201D10029DAD007
:102C1000F3799A07D7D4012202A913400A714B71A4
:102C20008A71CA71CFE7104201D001218C4604217C
:102C30001942C8D0114202D16346002BC3D0237E73
:102C4000002B11D1012202A90A718A71CB71BAE756
:102C5000C8B2844602201842E5D0104201D10029B2
:102C6000B1D0637E002BEDD0012BACD10A4B039386
:102C7000A9E701211942C2D01142A4D0E37E002B62
:102C8000F2D102AA11719171D3719CE7140900006D
:102C9000708300007802001001010101F0B5474681
:102CA0004C4D80B404000E0028004B4904F02EFD6A
:102CB000012803D9238FDA0700D56BE000274749A5
:102CC000280004F023FD012802D9238F9A0766D437
:102CD0004349280004F01AFD238F012801D95A071F
:102CE0001ED4DA0722D59A0732D55B0742D53D4B71
:102CF00090229C463C4B66441B68A66412019A5C79
:102D0000012A5DD0942212019B5C012B4CD0002F34
:102D100003D001212000FFF7FDFE04BC9046F0BD6A
:102D20000322134023870127DA07DCD42F49280028
:102D300004F0ECFC80462E49280004F0E7FCFA2061
:102D4000434680005843238F8019E0639A07CCD410
:102D50002849280004F0DAFC80462749280004F0BE
:102D6000D5FCFA20434680005843238F8019206405
:102D70005B07BCD42149280004F0C8FC80462049E8
:102D8000280004F0C3FCFA20434680005843801911
:102D90006064ACE706221340238701278FE70522F2
:102DA00013402387012793E708220733E362238632
:102DB0002233E254134B002263632923E254A6E733
:102DC00007322261A282A2730E4AA26100226273BC
:102DD00098E7C046AC030010114B00000B4B0000FD
:102DE000084B0000000018FC708300000F4B00002F
:102DF000104B0000094B00000A4B0000064B00007E
:102E0000074B00000000C8C2F0B5454657464E4685
:102E1000444CE0B4884605004349200004F076FCA9
:102E200042490600200004F071FC414907002000DF
:102E300004F06CFC012E2AD90023022699463D4954
:102E4000200004F063FC3C490700200004F05EFC15
:102E50003A498246200004F059FC012F28D938490C
:102E6000200004F053FC37490600200004F04EFC1B
:102E700035490700200004F049FC012E4FD94B468C
:102E8000002B4AD11CBC90469946A246F0BD002FAB
:102E9000D2D04346EA6B9B1A002BCDDD2B8FDA078D
:102EA000CAD4012213432B87012303269946C6E780
:102EB0005346002BD3D043462A6C9B1A002BCEDD01
:102EC0002A8F9307CBD4022313432B871C4920005E
:102ED00004F01CFC1B498146200004F017FC1A4931
:102EE0000700200004F012FC4B46012B0ED8002FE7
:102EF00011D043466A6C9B1A002B0CDD0422298FEB
:102F00000A4208D104230B432B87164331002800C3
:102F1000FFF700FEB6E7B146B1E74E46F6E74E468C
:102F2000E5E7C046AC030010114B00000F4B00005A
:102F3000104B00000B4B0000094B00000A4B000037
:102F4000084B0000064B0000074B0000F0B5574649
:102F50004E464546E0B40C0086B006001700002936
:102F600009DB09290DDD0A3C1421200004F00AFFC9
:102F7000050001283BDD06B01CBC90469946A246E0
:102F8000F0BD022953D0032900D17EE00129F2D1FE
:102F9000012002F077FF5F4D5F498146280004F071
:102FA000B5FB5E498046280004F0B0FB5C498246D0
:102FB000280004F0ABFB4346012BDCD84B462340F2
:102FC000984500D19FE05346002B05D0FA23524686
:102FD0009B005343DF19F7630122338F1A42CAD093
:102FE0009343338701213000FFF794FDC3E74D4A37
:102FF0000300126821339446FF3303924A4A9B012F
:103000006344944663441B78012BB4D1153B43437E
:103010001C19020021003000FEF7A6F90097059068
:10302000230005AA29003000FFF7CCF8A3E702200F
:1030300002F028FF374D3D498146280004F066FB29
:103040003B498046280004F061FB3A49824628004B
:1030500004F05CFB4346012B00D98CE701234A4670
:103060001340984547D05346002B05D0FA235246CB
:103070009B005343DF1937640222338F1A4200D179
:1030800079E7934333870221ADE7032002F0FAFE8C
:10309000204C29498046200004F038FB27490500D0
:1030A000200004F033FB26498146200004F02EFB6B
:1030B000012D00D95FE70123424613409D4211D004
:1030C0004B46002B05D0FA234A469B005343DF1999
:1030D00077640422338F1A4200D14CE7934333873D
:1030E000042180E70422338F1A4200D043E71343C0
:1030F0003387042177E7338F1C4200D03BE71C4322
:10310000348702216FE7338F1C4200D033E71C4322
:10311000348767E7AC030010114B00000F4B000031
:10312000104B00007083000000C1FFFF0B4B00003C
:10313000094B00000A4B0000084B0000064B000042
:10314000074B00000022024B1A875A877047C0467F
:10315000F4010010F0B54F4680B41F270123390059
:103160000268040018000326114088400021521113
:10317000714D32409200AA588946944682006146B9
:10318000484650503A001800616882B00A409040AA
:1031900082004846491131408900695850503A0030
:1031A0001800A1680A409040820048464911314009
:1031B000890069585050E2681740BB4052113240B4
:1031C0009200AA589B009850023004F0B5FB1023DF
:1031D000994626002700A144802101CF490101F032
:1031E000F7FAB945F8D12B688022190001938023A2
:1031F00003275200DB00CA500A2004F09DFB22681E
:103200001F2053113B409B00EB5802409C4601237A
:10321000190091408A0061465258511E8A416168E6
:1032200049113940676889003840834069589B00DC
:1032300058580223134319001300002800D00B0034
:10324000A0684106890F89006A581F2108401B3970
:103250008140895804221A43002900D01300E168F4
:103260004A06920F9200A8581F2211401B3A8A402A
:103270000821125819430F00002A00D11F00802393
:1032800000220199DB00CA50C02101CEC90101F022
:103290009FFAB145F8D101211F2208002368266951
:1032A0001A4090405B069B0F9B000200E8580023E9
:1032B0000E4200D013000121920013501F2208007B
:1032C00063681A4090405B069B0F9B00EE58236991
:1032D00002005B100020194200D010000121920072
:1032E00090511F220800A3681A4090405B069B0F74
:1032F0009B00EE58236902009B100020194200D069
:1033000010000121920090511F220800E3681A402A
:1033100090405B069B0F9B00ED5823690200DB1079
:103320000020194200D0100092005051380002B025
:1033300004BC9146F0BDC04648820000C02170B573
:10334000C9010400094801F043FA094B00251A6835
:103350008023DB00D5502000FFF7FCFE2576657644
:10336000A576E5762561606170BDC0460802330030
:103370004882000070B50400FFF7ECFE0122110046
:103380006369194033D1150005404DD0257E042DC9
:103390004CD91343022221761100636101251940A3
:1033A0002FD01100014000D06CE0667E0E2E41D976
:1033B00093430422617611006361194040D01100EB
:1033C00001405CD1A67E0E2E45D9A17608210E00C3
:1033D000934363611E4044D102000A404DD0E27E17
:1033E000042A47D90B430D436361E6763DE01100A3
:1033F000014011D00022002522760222110019403E
:10340000CFD11600064016D0667E042E12D9134383
:103410001543636161760FE0257E0E2D06D9934337
:10342000636121760025E8E72576E6E70135257614
:103430000025E2E701366676042211001940BED16C
:103440001600064008D0A67E042E04D91343154367
:103450006361A17601E00136A67608210E001E40C8
:10346000BAD0084003D00023E376280070BDE27E86
:103470000E2A0AD80132E276F7E7E276F5E7002273
:10348000A276EAE700226276D6E78B436361E076B4
:10349000EBE7C046036970B58B4249D001251F2276
:1034A0002C00036801611A405B0694409B0F224A7E
:1034B0009B00D65800230D4200D02300A400A35146
:1034C00001241F212500436819408D405B069B0F96
:1034D0009B00D658036929005B1000251C4200D0D0
:1034E0000D00012489008D511F212500836819409A
:1034F0008D405B069B0F9B00D658036929009B10EB
:1035000000251C4200D00D00012489008D511F218F
:103510002500C36819408D405B069B0F9B00290066
:10352000D55803690022DB101C4202D189004A51A0
:1035300070BD0A00FAE7C04648820000044B054A05
:103540001A60054A5A60054A9A60054ADA6070476F
:10355000400200102A83300C0B41100664C279002F
:1035600045820100F8B50F4C0D190F4CA54211D83A
:10357000CB18521A1F268B420ADD34000B4F0C4029
:10358000BC46555C04196444013125708B42F4D16A
:103590000020F8BDFF2902DD03F09CFCF9E70120C3
:1035A0004042F6E7E0B4FFFFDF34000023020000F2
:1035B00070B582B006AC2678104C0D19104CA5429F
:1035C00012D8CB18521A1F258B420ADD2C000D4E43
:1035D0000C40B446041964442478545401318B429D
:1035E000F4D1002002B070BDFF2903DD009603F086
:1035F00053FDF7E701204042F4E7C046E0B4FFFF87
:10360000DF34000023020000074B084A10B5CC1835
:103610000123944202D90023FF2901DC180010BDC8
:1036200003F04AFC0300F9E7E0B4FFFFDF340000D9
:1036300000238022402170B5036043608360144BF7
:103640000400985802260143995001215868114DF1
:103650000143802059609958000101439950143268
:103660009E500D4B0D492B6010230D482B6101F02E
:10367000AFF80C490C4801F0ABF80C490C4801F0CC
:10368000A7F80C490C4801F0A3F86E60200070BD4B
:103690000080044000000440C70E000000602C00C1
:1036A00002C23A00006034000942330000103000CA
:1036B00008023300006038004B823B0010B502481E
:1036C000FFF7B6FF10BDC0465C020010F0B54746DC
:1036D00080B4FCF7FFFEFD235B0098420ADC262342
:1036E0003B4CE35C022B0ED0012B62D00023002068
:1036F000E38205E02623364CE35C022B64D00120F4
:1037000004BC9046F0BD0127FCF7E4FE00260F281C
:1037100004D0FCF7DFFE0F3806004643258B280057
:1037200004F01CFC636B58432A4B9C466044B04237
:1037300047D92623E35C022BD6D10423A28C134362
:10374000A384002DD2D0E069266AB042CED0731C8B
:103750009C46EB439846B700E35B2B421FD04246A2
:103760001340E3531BD16246022A00D90022824251
:103770002CD0310003E0110083420BD01A009300DB
:10378000E35889006350531C032BF4D1002311002C
:103790008342F3D1E261E35B10002B42DFD1664646
:1037A000022E00D90026B042A0D0731CB7009C4660
:1037B000D2E70223A28C00201343A3840023E382D8
:1037C0009EE7002F9BD0B4E700279DE7E6618DE7D9
:1037D00078020010A4F4010010B50C000121A140F2
:1037E000848989B20C438481002B02D0038A0B4365
:1037F0000382C389002A03D18B431900C18110BD04
:103800001943FBE7808A7047F0B5C38945465746A0
:103810004E4698460023E0B48589028A8381C3819D
:103820000382002D5FD04146838A046AAB430B4379
:103830008382C38A1A43C3699446C282A3423CD09E
:10384000A3009A4653462A00C7183B881A402DD039
:103850004646798871400E001640B34366463140B3
:103860008A433B809543002B3BD1621C022A00D93E
:103870000022C76997423BD0210003E011009F421C
:103880000BD01A0093001B5889000B50531C032BBC
:10389000F4D1002311009F42F3D1C261002D22D048
:1038A00053462A00C7183B881A40D1D10134022C54
:1038B00000D90024C369A342C2D14146428A4A408A
:1038C000614611430D400ED041469A00ADB28218B8
:1038D000158001330D405580022B00D90023C361B0
:1038E00001E0002DE2D11CBC90469946A246F0BDF5
:1038F000C4612300E1E7C04601234283828C018337
:10390000134383847047C0460223828C134383840D
:103910007047C0462623C05C023843425841C0B2BB
:103920007047C046F0B544465F4656464D46F0B433
:10393000040087B002910592FCF7C4FDE38C022BD2
:103940004DD000224823E254FA22D2009446029B32
:103950006064634423642722A35C012B55D00022BA
:103960000392032B00D1C3E0042B00D190E0262367
:10397000E55C012D00D176E0002D05D10622A38C57
:103980001A4200D18FE0A584E38C032B66D0022B72
:1039900016D0A56A039B002B09D1059B03981D60D7
:1039A00007B03CBC90469946A246AB46F0BD002D00
:1039B000F3D00120FCF7D0FD0123A56A0393ECE7C7
:1039C00004263200A58C2A405BD0228B002A00D02E
:1039D00080E12623A56AE2540023A384DAE7E369A1
:1039E000226A9342ADD14822A35C002BB3D1636C11
:1039F000C31A3B2BA5DC029B216C5B1AABD40123C1
:103A0000A3542722A35C012BA9D10299E06A0B1AC7
:103A100071D40023A3620333A3540B00263A03920C
:103A20000A000533E362D31AA1D40020FCF794FD09
:103A300027260423A355029B0533E3622623E55C76
:103A4000012D99D1256BFCF73DFD6D434043854227
:103A500000D86FE12D1A6563A35D85E7002223334B
:103A6000E254E38C93E7636B002B00D18CE7A38CCB
:103A700005351D4000D1F7E000232622A354A3847E
:103A800082E71D403AD02623A56AE254A28481E74A
:103A90002623E26AE55C029B9B1A00D569E70022B7
:103AA0002723E25465E701261E4200D16CE7FCF7AC
:103AB00009FDFC23FF332063984200D864E7638A42
:103AC000C54933401A00534253410222D31A029A85
:103AD000A3628C4613006344A3632623E6541300B9
:103AE0003233E3622723E654263BA58403934BE756
:103AF000E36A029A97E70023039338E7E369226AAF
:103B0000934200D1CFE0FCF7DDFC4043B34B626B46
:103B1000C318934200D285E09B1A934200D280E101
:103B20009B1A934200D27AE19B1A934200D274E12D
:103B3000208B04F013FA301A002800DC29E7A56274
:103B40000023A74A9A460123944600259846029BE3
:103B5000216A6344012602279B46A9460BE00131F6
:103B6000022900D90021E3692162994249D0012349
:103B70009A46002845D08A00A21813881E4220D0F9
:103B8000B3431380E58A0193B543E5825D46A5639F
:103B900055882E4251D04346658A01381D432B1C5F
:103BA0006D466B826B8A9C464B463B439946654605
:103BB0004B466582A36200284CD0019B002BCED0DF
:103BC00013881F4218D0BB431380E38ABB43E382B0
:103BD0005B46E36353881F423ED00225638A2B4332
:103BE0009BB29C464B4606352B43994663464D4651
:103BF0006382A56213880138002BB0D05346002B96
:103C0000B5D14D46002D00D1C4E627230122029EE6
:103C100001203236E662E254FCF79EFC0123A56ADD
:103C20000393BAE60025208B04F098F9281A00289F
:103C300000DCAEE60023A36282E74B46658A33438D
:103C4000B543AC46994665464B460138A36265824A
:103C50000028B2D11388CFE7638A0425BB439C4672
:103C60004B462B439946C1E7FCF72CFC03005B4A0B
:103C700043439446626B63449A4200D9DFE09B1A47
:103C80009A4200D9D9E09B1A9A4200D9D3E09B1AF4
:103C900093426D410335208B04F060F9A84212DD98
:103CA0002623E55C68E6FCF70DFCE38C022B49D08B
:103CB00000224823E254FA22D2009446029B606418
:103CC0006344236465E6029B0222A363E363262325
:103CD000E25459E60021A1620131012011422DD0A8
:103CE000658B294200D08DE0A38A01258B43A382F6
:103CF000638AA1628B436382092304310120920706
:103D00000CD5628B5210104272D102220D00A38A90
:103D1000A1629343A382638A934363820122272390
:103D2000029E3236E662E254013B0232E254253B07
:103D3000039351E62B4B6363A35D15E6082304212F
:103D40000025DBE7E369226A9342B1D14822A35CF4
:103D5000002B0AD1636CC31A3B2BA9DC029B216C9C
:103D60005B1A00D515E60123A354FCF7ABFB030057
:103D70001A4A43439446656B6344AB4265D35B1B6D
:103D8000AB4260D35B1BAB425BD35B1BAB42AD4131
:103D900004236D425D1B208B04F0E0F82D1A002DEA
:103DA00000DCF6E5029BA26B9A1A3CD4E16B5B1A2D
:103DB0001AD4934218DD022202210123064D0298F3
:103DC000AC460E339B0060441851638A19422ED0D2
:103DD00002239340A36218E700987F335C0BFEFF39
:103DE00010270000A0860100002201210023E5E742
:103DF0000222A18AA3621143A182618A1D000A43A3
:103E000062828BE7A18AA3620143A182618A0A23AD
:103E1000084360820621022570E7032503E7022597
:103E200001E70125FFE6E26B9B1AC4D5B1E501234A
:103E30009340A362E9E602252DE701252BE7002543
:103E400029E70225A7E70125A5E70025A3E7C04646
:103E500010B5428A036A0A7012124A70828A8A7006
:103E60001212CA70C269934226D09A0082185488EE
:103E700001330C7124124C7112888A711212CA71AA
:103E80000831022B0ED8C2699A420FD09B00C3188A
:103E90005A880A7012124A701B888B701B12CB70E2
:103EA0000C2010BD0023C2699A42EFD100230B7091
:103EB0004B708B70CB70F3E700220A714A718A71E4
:103EC000CA710831DFE7C046002370B5C3610362E1
:103ED0004B780A781B0213434382CA788C7812020B
:103EE0002243032516000124AE4303D1AB435C1EDD
:103EF000A341DCB282824A790B7912021A4315007F
:103F000003239D4300D001244280CA798B79120299
:103F10001A431500032308319D43028020D0012459
:103F20000123C3614B780A781B0213431D0003224F
:103F3000954300D00124C380CA788B7812021A43BB
:103F400011000323828099430DD001240223C36111
:103F5000002C03D00023C361438283820C2070BDF8
:103F6000002ADDD1F4E7002AF0D1F1E70021262074
:103F70000022064B195401305A829A82DA611A6281
:103F80009A81DA8119545A639A8470477802001032
:103F9000F0B557464E4645460B00E0B4013B84B0B1
:103FA0008A46022B05D904B01CBC90469946A2460D
:103FB000F0BD3D4C2000FFF7A7FC3C4B3C4D994623
:103FC0002000FFF7A7FC00282ED04B4619682B686D
:103FD000CB1A042BF4D9802703AA20002960FFF70D
:103FE000A1FC34483F018268B8461100039B464655
:103FF0009A07D20F92000A61026801920122019F82
:1040000094461A405202BA5180261A07D20FD202A1
:10401000B6018A516146C2689B080B40536020007C
:10402000FFF778FC0028D0D1234A1378991E012984
:104030001ED9053B012B14D9204B1B78002B0BD02C
:1040400030231F4AD35C002B06D01E4A1E4B126839
:104050000192D35C012B12D051461C48FCF7D2FED2
:10406000A1E707231370154B1B78002BF4D0E7E76B
:1040700004231370114B1B78002BEDD0E0E7144B99
:104080001B680193019A134BD35C012BE4D1124BB3
:10409000D25A5346022BDFD10223FF339A42DBD19F
:1040A000813B9A46D8E7C0467802001020160010DF
:1040B0003803001048820000C402001034030010CE
:1040C000400300106C83000005030000F4010010A1
:1040D000708300007103000072030000C02170B5FE
:1040E0000026384B384A89005350384A535004311F
:1040F0005350043153500431535004315350043160
:10410000535004315350FCF7ABF9FCF73BF8FCF784
:10411000E9F9FCF73DFA2E4B2E4A1B682E4C136032
:104120002E4A200013602E4A022113602D4B2E4A86
:104130001E702E4BE36101232362313301F0E6F858
:104140002B4B2C4D63655823E6542B4B25651C687F
:104150002A4B0622E0182A4903F03EFF9621013639
:10416000FF3632002800C90103F098F83200280019
:10417000002103F093F8234B234A00211A60882280
:10418000DF23D2019B00E252FF22C0241F4B92008A
:104190001F481A60E401FCF7A7FD1E48FFF7CEF8A0
:1041A00021001D4800F014FB21001C4800F010FB0A
:1041B00021001B4800F00CFB21001A4800F008FB0E
:1041C00070BDC0468080808000E100E004E100E036
:1041D00020160010A8030010400300103803001040
:1041E000A4030010C402001080A0000040825C0004
:1041F000AC000010AC030010708300008A030000C4
:10420000D0810000B4000010D2040000B8000010FB
:10421000F4010010400200104242650009423300E0
:104220004B823B0060823410F8B5594C050023786E
:104230000E00082B25D8574A9B00D3589F46564E50
:1042400029003000FEF72AFD3000FCF703FB534A3B
:10425000411E0023914205D80100FA20800003F09E
:1042600007FD03004E4A2900D3653000FEF772FABD
:10427000FCF79EFAFA239B005843022345193D6040
:104280002370F8BD4748FFF745FB0028F9D100230C
:104290002370F6E7002200214248FFF72DFB06239A
:1042A00001222370404B1A70EBE7002963D1FFF71E
:1042B0000DFA0028E5D108232370E2E73948FFF71B
:1042C00029FB051EDDD181213348FCF79BFD2570BC
:1042D000D7E73448FFF718FBFA239B009C46334B83
:1042E00065441D6001232370CBE7FCF7F3F8304BE6
:1042F000984239DD2D4F3B68EB1A002BC1DD002EB3
:104300009DD105232370BCE700293AD0274B1B68B9
:10431000C51A002DB5DD204D2800FDF7D7FE03237B
:1043200000222370204B28001A70FCF74BFA28005B
:10433000FCF7CEFE01215823194AD154A1E70029E8
:1043400009D0FFF7C3F900289BD10823144A237032
:104350005033D05495E71348FFF7D6FA0423104A98
:1043600023705433D6548CE7E033FF339C460F4B15
:1043700065441D6085E70B48FFF7C6FA07232370E5
:104380007FE70848FFF7C0FA0423237079E7C046A7
:10439000C4020010AC810000F4010010E70300002B
:1043A0004003001078020010340300103C0300109A
:1043B0000902000010B5234B82B01B6888220093CD
:1043C000DF2300999B00C95AD201914201D0009984
:1043D000CA521D4C23789A1E012A08D9053B012B8D
:1043E00005D900211948FFF755F802B010BD18484B
:1043F000FFF708FA30233F21164A0840D35C002B10
:1044000006D123780100032BECD180210143E9E799
:10441000114A124B12680192D35C012BF1D1104B5F
:10442000009AD35C012BECD1110002230D4AFF331B
:104430008A5A9A42E5D14023184323780100032B7E
:10444000D0D1E2E770830000C402001040020010E7
:1044500078020010400300106C8300000503000088
:104460007103000072030000F0B5474680B4434D6D
:1044700001002C6884B02000FFF7D6FE404E337850
:10448000023B012B58D901F0B3FD0028FBDA3D4B6C
:104490001A68944204D01C603378023B012B5AD92D
:1044A000FCF7CEF8002844D1374A1368E31A092BE9
:1044B0002CD8364A29681368CB1A042B1FD901243B
:1044C0001160334803AAFFF72DFA039B31489A077E
:1044D0008168D20F92000A61026880250192220051
:1044E000019E1A4052022D01725180251A07D20FE7
:1044F000D202AD014A519B08C26823405360FFF7C6
:1045000059FF30BF04B004BC9046F0BD224814608F
:10451000FEF730FF0028CCD03378032B01D0062BD8
:10452000C7D101001D48FEF72FFA1948FFF76CF9B3
:10453000BFE7FCF791F8B7E7184F04E0010022004D
:104540003800FEF703FD01F053FD0028F6DA1048AD
:10455000FFF75AF99BE7114B210098461800FEF728
:1045600043F90B4F3800FFF74FF940462100FEF7A3
:104570004BFC3800FFF748F992E7C04620160010C0
:10458000C4020010A4030010A80300103803001098
:10459000780200104882000040020010F401001070
:1045A00010B50020FFF760FF10BDC04610B5012018
:1045B000FFF75AFF10BDC04610B5114C82B06422FF
:1045C0000021200003F046FD200000F089FE0D4B85
:1045D0000D4A236000230D49019300930C480D4BB5
:1045E00000F026FF8022EA210B4C0023D2000902B2
:1045F000200002F0E3FD094B236002B010BDC0466D
:10460000400300106082000028C201003C16001028
:10461000C802001029826900AC030010A0810000CC
:1046200030B50500FF20002900D130BD69183EE0FB
:104630004000DBB2C0B243405AB20024002A45DB3E
:104640005B00DBB2E4B25C4063B20022002B46DBCD
:104650006400D2B2E4B2624050B20023002847DBCB
:104660005200D2B2DBB253405AB20024002A48DBD7
:104670005B00DBB2E4B25C4063B20022002B49DB9A
:104680006400D2B2E4B2624050B2002300284ADB98
:104690005200D2B2DBB253405AB20020002A4BDBA8
:1046A0005B00C0B2DBB201355840A942BDD02A78C8
:1046B0000023504042B2002ABADA07234000DBB29E
:1046C000C0B243405AB20024002AB9DA07245B0082
:1046D000DBB2E4B25C4063B20022002BB8DA0722FE
:1046E0006400D2B2E4B2624050B200230028B7DACC
:1046F00007235200D2B2DBB253405AB20024002A40
:10470000B6DA07245B00DBB2E4B25C4063B200229D
:10471000002BB5DA07226400D2B2E4B2624050B294
:1047200000230028B4DA07235200D2B2DBB2534090
:104730005AB20020002AB3DA0720B1E78E212020E8
:104740001D4B89005A5810B582435A5000227139C6
:104750001A62FF39C04601390029FBD101221A64CF
:104760005A6459645A64586C13491042FBD023228E
:104770008E20802480008A600A58A2430A500120BB
:10478000DC680D4901220442FAD0032008670020AA
:104790004A6748674A67586F01211042FBD0064BB1
:1047A000064A9967064BDA67064B1960064B196093
:1047B000064B196010BDC046008004405F00010038
:1047C0000480044094800440988004409C8004400D
:1047D000F8B54306804A9B0F9B00050098581F229E
:1047E000160001232E40B340F02636020E4037005B
:1047F0000E0589140A40360D141E00D10134C02262
:10480000D20197424BD0E0228021D2010902974287
:104810004DD042581B041B0C9A43802342509B01ED
:104820009F4262D0C0239B019F4200D19BE00F2C8E
:1048300000D17AE00C2C17D1684B9D4200D194E056
:10484000674B9D4200D184E0EB0501D580231E43D8
:104850002100280002F0AEFA002838DB06432800C9
:1048600000F0E2F80660F8BD0D2C33D00E2C4FD1CD
:104870005C4B9D4200D182E05B4B9D4200D189E0C0
:104880005A4B9D4200D19AE0594B9D4272D0594BF0
:104890009D42D9D10121C423574AD150D8E7802164
:1048A000090242581B041B0C13434350C2E7062461
:1048B00042581B041B0C13434350EB05C8D5022C74
:1048C000C4D12100280002F075FA0028C6DA03F0EE
:1048D000D7F8C4E7494B9D4240D0494B9D42B3D1E4
:1048E0000121CC23444AD150B2E7464B9D424BD0E4
:1048F000454B9D4257D0454B9D425AD0444B0724CF
:104900009D42DAD10121D0233B4A0724D1509FE7B1
:104910000B2CD2D1314B9D4241D03E4B9D4200D019
:1049200092E70122344B9A6192E73B4B9D424BD078
:104930003A4B9D424AD03A4B9D4249D0394B9D4219
:1049400048D003F09DF801235B42D4222A498B50C2
:10495000B3E70121C823284AD15077E70021CC23AF
:10496000254AD15074E70224A7E70021C823224A30
:10497000D1506DE70021C4231F4AD15068E70021C0
:10498000B0231D4AD15063E70021C0231A4A0724EF
:10499000D1505DE70121B023174AD15058E70022DA
:1049A000154B9A6154E70121C023134A0724D150C3
:1049B0004EE70021D023104A0724D15048E70221B6
:1049C000B0230D4AD15043E70023BEE70123BCE7E3
:1049D0000223BAE70323B8E7488200004242650099
:1049E0002A83300C0A4A70064B823B000602700094
:1049F00041C274006242350E0040044043826D00A3
:104A00002982690002C23A0063823D0025423C00CF
:104A100049C201004482590026C23300478279000E
:104A200061C2340F64C279001F234206920F034013
:104A3000500080188000C018034B4000C05A034B40
:104A400080009C4660447047E881000000400440BC
:104A500010B5040001F0FAFF01225823E254034B81
:104A60001B6823660023E36510BDC04620160010B6
:104A7000F0B54D4644465F465646F0B4B24D85B05B
:104A80006B78AA781B021343426B0400934206D052
:104A900005B03CBC90469946A246AB46F0BDA8790D
:104AA00000278346A94880260068A7726064F0202A
:104AB00080000840B600B0420ED022DDA027BF0023
:104AC000B84209D08037B8426ED1C320890600D1E0
:104AD0002EE11300002725E00F22EB792F891A40E1
:104AE000A0237FBA1600BFB29B00984200D1D3E04A
:104AF00080239B00984200D1F1E100203823E0544C
:104B0000C6E7803EB0424FD16422E879297A6272CA
:104B1000233AA272813A0243E27221736773A77348
:104B2000C22001273C215E460E40010031430C208B
:104B30002A78814602405C380243804688302254FD
:104B40003C263B221812A054A3553D232532E254A3
:104B50000133E1542100593A3831280001F04EF870
:104B6000002F95D04A462B781A40130042461A432C
:104B7000636B22711A12E27140222372A37A1A40E7
:104B80000FD0226CB3431343A37201224823E25493
:104B90000F22637A211D1A400732280001F02EF8F7
:104BA00076E74823E254F3E7694881426BD02ADD77
:104BB000684B994205D00133994252D0664B9942D5
:104BC00047D165236372223BA3729333E372287A41
:104BD00020736E7A6673AF7AA773EB7A3A119946AF
:104BE000E3733B01FF273B401F004B463B435A4FBB
:104BF000B94200D16FE1310001F036FE002840D10A
:104C0000A073636B8CE7554BCB18012B21D8CB07D6
:104C100009D52A7A6B7A002A05D1FF2B03D180238C
:104C20004F4A5B051A60606D002803D003680121BC
:104C30001B68984701F03CFF206D002801D002F06E
:104C4000E3FABFF34F8F474A474BDA60BFF34F8F0A
:104C5000FEE7C3200100430600D53AE71300002712
:104C600065E768236372013BA3727233E372287AAB
:104C70002073697A6173AA7AA27301F071FE636B83
:104C80004EE7636B4CE7622262721F3AA2728F3268
:104C9000E2720022227343E7206D00280ED00368E1
:104CA00039009B689847002808D02A00206D0A32F6
:104CB000036839001B6899463300C8472B4B2C4AC0
:104CC000FB18934200D8EFE02A4B99461B689F429D
:104CD0005EDB294A9A1897425ADCFB1A602B51D89E
:104CE000F2185F2A4ED9002E52D03100234A0A31E1
:104CF0001268884603922A0021480A32A844029288
:104D0000844609E011788A4661465046C85401320B
:104D10000292013342453BD0029A602BF2D11078C7
:104D2000C12282465146039892008154029AEEE7CE
:104D300063226272203AA272033AE272393A227313
:104D4000063A6273ECE6C046C80200102016001056
:104D5000D1030000D7030000D503000080FCFFFF53
:104D600055B01F5E0400FA0500ED00E000C1FFFF32
:104D7000FF0B0000B8000010030300006C8300006C
:104D8000FC1100105B48320018185B4903F024F94D
:104D900082235B009F426CD06223584A12680292C1
:104DA000D35C5B072AD54B461B689F4229DB544ADC
:104DB0009A18974225DC2000FB1A0E30602B52D83F
:104DC000F1185F294FD9002E2CD04C4A126802925C
:104DD000C21A9146474A9446C1229200904606E084
:104DE0006246D25C4846C254013399421AD0602BC5
:104DF000F6D14046029A125CD2B2F3E7C220626B4F
:104E000067E6404BFB18072B0CD8DC20800084465B
:104E10003D4A126802926244D118200032000E30DE
:104E200003F0DAF8206D002810D0036839009B6881
:104E3000984700280AD00022206D390003680092AC
:104E400022005B680E3299463300C8473300633353
:104E500063724223A37240233343E3723B122373F2
:104E60006773636B5CE623493200591803F0B4F8AA
:104E7000D8E72900AF7A32003F1138000A3101F03B
:104E80002BFC214B01221B689C460293DC239B00D8
:104E900067449C461D4B67441A7000221C4B3870B7
:104EA0001A60C220626BD5E699461A4932008944DD
:104EB0004846114903F090F80122144B1A70002261
:104EC000134B1A6062230D4A12680292D35C5B078F
:104ED00094D54946A1E7310001F080FC8EE60E4BE7
:104EE000F9180E4B994202D80A4BC91895E70C4B9A
:104EF000994658E7FC110010D20200106C830000A4
:104F0000030300001749FFFF708300000315001022
:104F1000F8110010F805001000C1FFFFFF0B0000A2
:104F2000B800001010B504002D48437882781B02A9
:104F30001A4340230B4009D0C3231940C22918D07B
:104F4000C32929D001224823E25403E0802902D05A
:104F500081293ED010BD636B002BFBD162634822D8
:104F60002049236409686164A354493AE2640363F5
:104F7000F0E77B3BE35C002BE4D0636B9A42E1D12A
:104F80008379E26C86390B409342DBD0226CE36478
:104F900004320A402264D5E7636B9A42D2D1037887
:104FA000B7390B405C390B43883163543B231112F2
:104FB000E1540133E254602221000133E254013311
:104FC0002132E25438317A3A00F018FE002363634C
:104FD000B8E7616B8A42BDD163630363BAE7C04639
:104FE000C802001020160010F0B52D4C83B0E578F3
:104FF00023792D021D43C023A2799B001102194081
:10500000E37919438BB2002D12D1C123254A9B00AD
:1050100012680192D25C0123134205D0C02938D016
:105020008022520091421DD00023A36103B0F0BD45
:105030003C261700B7433E0067797F2F08D8E36A04
:10504000AB42F1D176B2002E1FDBFFF711FDEBE78B
:10505000002EE9D1F021890019402200280001F03A
:10506000B1F9E1E70C21227883720A405C390A43E6
:1050700002714023E122C57105724272C372011DA3
:10508000D93A200000F0BAFDCEE71100FFF74AFF41
:10509000CAE7218949BA89B200F0A4F9C4E7C04639
:1050A000C80200106C83000010B50400406D002899
:1050B00003D0036803211B689847200000F092F892
:1050C00001F0F6FC206D002801D002F09DF810BD23
:1050D000302370B5C35C0400002B00D170BD00F01C
:1050E00087F85823E35C002B03D0384BDB6C002B94
:1050F0004CD0636B002B20D0354A616C1268521A79
:1051000034498A4219D90C21304802780A405C3966
:105110000A43883162543B221912A1540132A3542C
:105120003D2321002432E25401332132E25438314C
:105130007A3A00F063FD00236363274A1278002A5D
:10514000CCD03421214A515C0029C7D1D16C00292F
:10515000C4D19269002AC1D1002BBFD11F4B1A685C
:10516000002A2ED01A4B1B689A1A002AB6DD606DF1
:10517000002803D0036802211B68984701F098FCBF
:10518000206D0028AAD002F03FF8A7E7104D236E4B
:105190002A68E16DD21A8A420AD22A681049D21AC4
:1051A0008A42A6D9FA229200944663442366A0E775
:1051B00001F0D4F9002802D02B682366EDE7236EB6
:1051C000EBE7034A126832321A6087E7C802001020
:1051D000201600107017000003150010F8110010C1
:1051E000CF07000000223023C25470477047C046EA
:1051F000302370B5C35C82B00400002B09D02F4B64
:105200009A69002A02D0DB6C002B47D0E0690028A5
:1052100001D102B070BD2A49FFF7DAFAE269294DDF
:1052200053069B0F9B00E9581F231A401B3B9340DA
:105230002000595832224B1E99412430A66A01F0B1
:10524000B7FC00281DD0204B1E68C021E069C901B1
:10525000FFF7BEFAC12201209200B15C1F220600B6
:10526000E3691A405B069B0F9B00ED5803009640D4
:105270000B40216A32008B420ED033009200535112
:10528000C7E7002EDFD0C1220F4B92001E6881239A
:10529000B15C4B40B354D8E70023EFE7C1230A4A7F
:1052A0009B0012680192D35C5B07AFD50368074A85
:1052B0005B689342AAD020009847A7E7C802001075
:1052C00010100000488200006C830000ED510000C7
:1052D00010B5024800F0F0F910BDC046C802001039
:1052E00010B50400074B08330360243001F05CFC68
:1052F000054B0022E361012323622F332000E25497
:1053000010BDC0467082000040825C00F0B5564679
:105310005F464D46E0B49B4603689146DB68284AE9
:1053200084B006008A46934247D1264A0024126878
:1053300038231000C1222E213471F4541033346408
:105340009200F454493BF364746381546222012750
:1053500084541D4A019087541C4A15686B73534648
:105360001B12EB7053462B714B461B126B714B4655
:10537000AB715B46EB7103AB2C73180001F0DAFCE8
:10538000134B0422E81803A902F026FE114B0198E2
:10539000EC54114BEF546323C454104B6C751C60D8
:1053A00030230F48F75400F059F8B762746204B024
:1053B0001CBC91469A46A346F0BD9847B5E7C04647
:1053C000ED5100006C8300000503000070830000B5
:1053D0008A0300008E0300008F030000F811001004
:1053E000C802001070B50D4B0C121B68E4B2CEB2AF
:1053F0000B4ADC751E769B5C0D00022B08D0012247
:10540000084B1A700022084B1A60084BDD6270BD11
:1054100002F0A8FB44708670F1E7C046708300007C
:105420007103000003150010F8110010C8020010ED
:10543000436228230262002230B503AC257804AC15
:105440002478C161C5540133C454263B02341C4046
:105450002733C4540A33C25430BDC046F0B5474662
:1054600080B4364B04001B68DA7D197E12020A43B1
:10547000C262334A9B5C022B58D0002334220125A0
:10548000A361A354303A2363E2636432E364236587
:10549000E069A35402F074FA29212E008846615C69
:1054A000E0698E400268536F33435367282381229B
:1054B000E15C02F093FA1F22E76922493E687368B3
:1054C0002B4373603B79103313402A009A401E4BE4
:1054D0001A601E4B186802F0CBFB2A230138F060DB
:1054E000E15C18368B00F618194B02223360380045
:1054F00002F058FA4346E25CE3699540196893006C
:1055000008002A001830C318124818608860CB6B56
:105510001A42FCD1E021606AC901FFF759F9206AFB
:105520000D49FFF755F904BC9046F0BD02F01AFB97
:10553000437882781B021343E3629EE77083000086
:105540007103000040420F0000E100E0B0000010D5
:10555000FEFF0000FFFF000020200000282370B5A0
:1055600004002A25C15C8122C06902F037FA615D1E
:105570000222E06902F016FAE369625D1B6892009C
:10558000183319009A18064B13602923E35C054A67
:105590009B00CB181A6000233422A354236370BDF0
:1055A000FEFF0000FFFF0000002370B503636833B7
:1055B000C35C0400002B1BD1036C072B34DD0029D6
:1055C00034D0C07822790002104362797F2A51D802
:1055D000E26A904255D0C121344A89001268515C78
:1055E000490705D4A361C1239B00D35C9B0750D41A
:1055F0002A23E15C236BE069002B21D12C4D02684A
:105600008B001832D3181D60032202F0CBF9282337
:105610008122E15CE06902F0E1F900226823E254B2
:105620000332343BE25470BD012B0BD00023A36145
:105630000C3323632A23E15C236BE069002BDDD06C
:105640001C4DDCE7426CFE3313404364CC2B03D08B
:10565000826BC36B9A42CBDDE26C002AC8D0A36B8D
:10566000002BC5DD00231370226DA363E264236564
:10567000A364BDE7002804D002F02EFA00280BDB5B
:10568000236CC121094A89001268515C4907A9D5D8
:10569000A361CC232363ABE7044B1A68C1239B00AF
:1056A000D35C5B07A4D4236C9CE7C0466C830000EA
:1056B000E8130000310400000323F0B54446984687
:1056C0009323DB005F469B4629234D4656469C4666
:1056D000D14BF0B43422102599460400CF49C0695B
:1056E00083B0A35CDBB2092B00D9C6E09B00CB588A
:1056F0009F4653461B68236B002B00D1D4E1236BDC
:105700006364012262651A4202D0FF32534063642F
:105710009A0703D580225200534063645A0703D589
:1057200080225200534063641A0703D5802252003E
:1057300053406364DA0603D5802252005340636409
:105740009A0603D580225200534063645A0603D55B
:1057500080225200534063641A0603D5802252000F
:10576000534063640123626C6365134200D1D8E146
:10577000013380216825490002E08B4203DC5B0095
:1057800068351342F9D15900072234236165E25488
:1057900080239B0099420CDD236CA26C3935FF35C8
:1057A000934203DA236B002B00D168E109223423F2
:1057B000E2543423E35C072B00D16FE128238022DD
:1057C000E15C02F00BF93423E35C092B00D15AE1D0
:1057D0002922E369A15C1B682A001800890018309F
:1057E0004118233A0A602A22A25C920082181560AE
:1057F0007AE0656D626C6B001900154203D080265B
:105800007600B542B5DD0622342361656825E25491
:10581000BEE72822A55C183AAA40036819680A4224
:1058200062D0002168252164615521630131216620
:10583000196897356566114200D04EE100212000BD
:10584000FFF7B2FEE3691B684EE028232F00E35CFC
:1058500006689F40B24636683E4207D057469B00D6
:105860002C37FB181B685B4500D858E14346A3540E
:10587000A35CDBB2092B00D838E728232A25E15C9A
:10588000812202F0ABF8615D0222E06902F08AF841
:10589000E369615D1B68624A18008900183041188D
:1058A0000A602922A25C5C499200821811600022E1
:1058B00034216254226317E02A230268E35C183221
:1058C0009B00D318574A1A6028238122E15C02F01A
:1058D00085F8236B002B00D1F4E0002323633423ED
:1058E0000822E254E3691B68FF221A6003B03CBC43
:1058F00090469946A246AB46F0BD07682E003B682D
:1059000001909A462823E35C9E403300564633407C
:1059100000D10FE10023A354E3E603682E009A466A
:105920001F682823E35C9E40374200D1E1E65346DE
:105930009B6857461E006346E35C18379B00FB18C4
:105940001F680A3FB74200D8EFE04E461E600223B0
:10595000A354C6E62A23E35C01229A465546AA4090
:1059600003681968114089460A1E00D0AEE019008C
:105970002832A25C2C3192008A1812689446A26DDB
:10598000110044318C45AFDD11006831A16544310F
:105990008C4500DCC7E08027616D7F00B9421ADCCE
:1059A000B8461F00666C6346E56DD0328346BC4640
:1059B00003E06832414500DDA8E0170044370E439C
:1059C00068424541490010009F42F2DB6346584659
:1059D0006664E565A2654A4649006165002A00D112
:1059E00082E7216EE26D0A402266226C172A07DCEC
:1059F000531C2364636CA354626E53406366036854
:105A000002213422A15452461900920018318A18FA
:105A1000D0214900116067E7FFFF00008882000085
:105A2000FEFF000050140000036828221900A25C49
:105A30002C3192008A1810682922A25C1439920035
:105A40008A1811684539814238D9694911600122A3
:105A5000342162543431625446E72822A55C183A56
:105A6000AA4003681968114237D1236E002B00D178
:105A7000E4E6636E002B00D0E0E60121DFE60522BC
:105A80003423E25495E6E36929221B68A25C1800DE
:105A900092001830564982181160A4E62133E15C67
:105AA000812201F09BFF8EE6236C5A1C2264E26C7B
:105AB000944663441B78DBB2636422E606213422F9
:105AC000A15411E7A36B0133A36308E7A26D494911
:105AD0008A4286DC48498C4656E72A221D00A15C92
