:1000000000200010ED000000D5000000D900000025
:1000100000000000000000000000000065DDFFEFB0
:10002000000000000000000000000000DD000000F3
:100030000000000000000000E1000000FD8C000056
:10004000E9000000E9000000E9000000E90000000C
:10005000E9000000E9000000E9000000E9000000FC
:10006000E9000000E9000000E9000000E9000000EC
:10007000E9000000E9000000E9000000E9000000DC
:10008000E9000000FD610000E9000000E900000057
:10009000E9000000FD8B00000000000000000000EF
:1000A00075020000E9000000E90000000000000007
:1000B000E9000000E9000000E9000000E90000009C
:1000C00084C800000000001040050000400500103A
:1000D00070170000FEE7C046FEE7C046FEE7C046D8
:1000E000FEE7C046FEE7C046FEE7C04670B5184AC8
:1000F000184DAA420ED2146850680C32131F1968AA
:1001000000230029F5D01E591E5004339942FAD815
:10011000AA42F0D3104B9A4212D2D1430024C918FC
:10012000C9080131C900511850681568002300281A
:1001300003D05C5104339842FBD808328A42F3D191
:1001400005F082FA0BF0B2F807F098FEFEE7C04621
:10015000C0000000CC000000D400000010B5002357
:10016000002A04D01C585C5004339A42FAD810BDBF
:1001700000230022002903D01A5004339942FBD8EF
:100180007047C04670B5C024A401211C2A4805F060
:10019000A3FA211C294805F09FFA211C284805F0E4
:1001A0009BFA211CC0242748E40105F095FA211C84
:1001B000254805F091FA211C244805F08DFA211CF0
:1001C000234805F089FA211C224805F085FA8E2182
:1001D0001020214B214CDD680423E65E204BEE61AC
:1001E00089005A58824380205A50B939FF395A58E9
:1001F000800102435A50996F1A4B186808F0B4FEF8
:10020000194908F0B1FE194B013800029860C0206E
:100210009968174AC0041160996801439960516850
:10022000EE6198680021615E4118116095220021FD
:100230009200995470BDC04621411006204110071C
:10024000224110062B8338006082341061C2340FC3
:100250006242350E49C2010094C500005C000010E6
:100260000080044000010010009F240040050010A1
:1002700000C00140F0B5474680B4734A82B093682D
:100280008021181C0193802389001B01C1506F4BF2
:10029000198809B20131132900DD87E088B284464C
:1002A0006B4CCF00E619D0680425725FC261986874
:1002B0003A5F684C821822600220325E043292005B
:1002C00012591C88120424B2920D0F2C3FDC624C90
:1002D000A24200D8A5E01C8824B2543464001C1942
:1002E000A6880136B6B2A6801C8824B244346400C5
:1002F0001C19A48824B2121B1C8824B20234A40046
:100300001C196668B61866601C88524324B2123401
:10031000A4001C196668921962605A8892B2002A79
:1003200047D0002908D15A8892B2511E89B259800B
:10033000002A01D1494A5A8062461A80802300224D
:1003400001991B01CA5002B004BC9046F0BD1C8844
:1003500024B2261C103E012EE3DC271C1537FF3784
:100360007F00DF19B888821892B2BA809A88013269
:1003700092B290B298800620024056D1B8881934C3
:100380008008FF3485B26400E552BA80002E4CD15B
:100390000209112A54D9123A2E2A00D92E22304CA1
:1003A0005200145B2F4A12689461BAE700218C4610
:1003B00076E71C881E8824B236B20236B6009E1933
:1003C00032347668A4001C1966601C8824B202349A
:1003D000A4001C1962601C881E8824B236B2123632
:1003E000B6009E1942347668A4001C1966601C8809
:1003F00024B21234A4001C1962601C881E8824B226
:1004000036B2543676009E19B688A43464001C199E
:10041000B6B2A6801C8824B2543464001C19A28091
:100420007FE7042A00D856E75EE7012E00D078E780
:100430005A88002A00D074E7952292009E5470E7F3
:100440009624E400AEE7C04694C5000040050010C5
:100450005C00001000C00140FA030000E10400004D
:1004600000000010741C001038B5134C0125201C2E
:1004700008F0FCFB1F2223791049103313402A1C7B
:100480009A40131C80228B5000222368201CDA60C3
:100490000021323208F0FEFB094B996F094B1868B6
:1004A00008F062FD084908F05FFD23680138986193
:1004B0005A6815435D6038BD841C001000E100E0FF
:1004C0000080044000010010400D03009423024A04
:1004D0009B00D05A80B2704740050010024B034A7F
:1004E000D05A80B27047C04652020000400500104A
:1004F00038B5174B40215A6880235B00D150C0218A
:100500001448C90105F0E8F8134D0124281C08F02F
:10051000ADFB1F222B79114910331340221C9A4046
:10052000131C80228B5000222B68281CDA600121CA
:10053000023208F0AFFB2B68094ADA61962292007A
:100540009A615A6F22435A675A6814435C6038BDF7
:1005500094C5000026C23300741C001000E100E0C6
:10056000AF04000000B583B000280DD180234022E5
:1005700008495B00496808480191CA50C021C90177
:1005800005F0AAF803B000BDE0210348C90105F059
:10059000A3F8F7E794C5000026C233003D4B3E4A5E
:1005A00030B58C205A800022C7253C491A803C4C2B
:1005B0001952E0301A5220301C52FE381952E030E5
:1005C0001A5238486D005853FE3D5953E0355A537E
:1005D00020355C53FE3D5953E0355A53203558536E
:1005E000FE3D5953E0355A5320355C53FE3D595377
:1005F000E0355A5320355853FE3D5953E0355A5390
:1006000020355C53FE3D5953E0355A53203558533D
:10061000FE3D5953E0355A5320355C53FE3D595346
:10062000E0355A5320355853FE3D5953E0355A535F
:1006300020355C53FE3D5953E0355A53203558530D
:10064000FE3D5953E0355A5320355C53FE3D595316
:10065000E0355A5320355853FE3D5953E0355A532F
:1006600020355C53AA24195375395A5220315852F7
:10067000C620A2315A520C4980005A520B4B5039B5
:100680001A58FF398A43BF390A431A50802252044C
:100690001A6030BD40050010E2040000FF010000B8
:1006A0009981FFFF8583FFFF4E02000000E100E01B
:1006B0009523044A9B00D05CC0B2002801D00021E1
:1006C000D154704740050010F0B54E464546574698
:1006D000E0B40026444D36E01A1CC5334332920084
:1006E0005B00EB18AA185468988880B209F0F4FCF3
:1006F0008246201C09F0F0FC5146041C504609F0CB
:10070000D3F9011C201C09F0CFF9384909F0CCF9C4
:1007100043465860EF19A937FF377868494608F013
:1007200055FE0AF0C1FC324B324A09F037FE0AF09E
:1007300099FE0AF00DFD331C8A339B00EB1801363D
:100740005860082E4AD03701EB199A46D4235B0033
:10075000534498465868002108F038FE54464346F2
:10076000AD345B68FF346360616808F02FFE636836
:10077000341C1B3424012C196360616808F026FEC8
:1007800053466268B533FF335A6073001A1CA532B2
:100790005200AA189288814612B2042A9CDD1A1CC3
:1007A000C433423292005B00EB18AA185468988850
:1007B00080B209F091FC8246201C09F08DFC514664
:1007C000041C504609F070F9011C201C09F06CF95A
:1007D000094909F069F9434658609BE71CBC9046FB
:1007E0009946A246F0BDC046400500108F242B2834
:1007F000E2362A3F2D431CEB8F56712C024B8A3078
:10080000800018184068704740050010F0B55F463A
:1008100056464D464446F0B44A4B83B000224A49FE
:100820004A489C464FE0A488766824B2A046B0446B
:10083000474EB04561DD474F5E008E19B780B788DF
:10084000454C3FB2A7421BDD444CB788A046474405
:10085000BFB2B780161C44367700CF19BC8824B2CB
:1008600064455FDCBC886D46A0460124A146C844AF
:100870004446EC80EC88A046444676008E19B4804D
:100880005B00CB189E88354C36B2A64218DA324C43
:100890009E88A0464644B6B29E80161C443673001D
:1008A000CB189C8824B2A046FE24FF34A0453DDD31
:1008B0009B88013B9BB2984644467300CB189C80B2
:1008C0000132102A36D0131CA4335B00CB189B884E
:1008D0001BB2042BF4DC131C171CB4335C000C1982
:1008E000A6883237B246BE008E197568AB465546AB
:1008F0002DB2AA46DA44824595DA5E008E19B48894
:10090000BF00A246CF197C68A346544624B2A14634
:10091000D944814504DBB6887F68BE19B7B28BE73E
:100920000F4F89E78124A400A046A5E7FE235B00C2
:100930009846C1E703B03CBC90469946A246AB46F8
:10094000F0BDC0460202000040050010F1D8FFFFD4
:100950000F270000102700008813000078ECFFFF2D
:10096000F0D80000962108B50248C90107F00EFF33
:1009700008BDC046F809001090221201944670B5D7
:10098000164B82B01B6800200193002263440021B3
:10099000102603E001304033062812D01C78012CC9
:1009A000F8D19D78002D11D0012DF3D185405C78D0
:1009B000ADB229432642EDD101302A434033062807
:1009C000ECD1074803F064FD02B070BD84405D784F
:1009D000A4B221432E42DDD02243DBE7C0C6000093
:1009E000A808001008B50248024907F0CFFE08BD6C
:1009F000F8090010124B0000224BF0B50C1C1B68CC
:100A000021349C4683B0FF34A40101931E4B6444FF
:100A1000E3181E78012E01D003B0F0BD1B4B071C5C
:100A2000E31888000D1C40181978194B0902E318C7
:100A30001B7880005918153089B2082206F03AFE5A
:100A40000023E900481B810078184371114B0422F0
:100A5000E3181B789B0701D5467101320E4BE31852
:100A60001B789B0700D542710C4940228C460378C5
:100A700064449343037021780A42CDD0134303703A
:100A8000CAE7C046C0C6000000C1FFFF37C1FFFF74
:100A900036C1FFFF27C1FFFF29C1FFFF16C1FFFFBE
:100AA000F0B544465F4656464D468D4BF0B40C1C9F
:100AB0001B6821349C4683B0FF34A4010193894B09
:100AC0006444E3181B78012B06D003B03CBC90466D
:100AD0009946A246AB46F0BD84460323CF007D1A5B
:100AE000AD0065442B70804B804AE3181B78A21838
:100AF000127801901B018800134340186B7083002B
:100B00009846162343449A46794B0E1CE3181978ED
:100B1000784B0902E3181B785046591889B208220D
:100B200006F0C8FD152343449B46734B5846E31813
:100B30001978724B0902E3181B780822591889B2F8
:100B400006F0B8FD6E4B6F4AE3181B78A2181278B6
:100B50001B02D3189BB25846994606F031F983B26E
:100B600050469B4606F02CF980B2814502D34B4695
:100B70008146181C0123834503D8CB459B415B422A
:100B80005B002B7100236B715F4BE3181A78042311
:100B9000920702D5033B6B7104335C4AA2181278AA
:100BA000920700D56B715A4BE3181B785B0603D58F
:100BB00040232A7813432B704046564B564AE3187D
:100BC0001B78A21812781B02D318544A9BB2190141
:100BD000A218CB1A11789B000D305918082206F084
:100BE00069FD019BB81B9C46002380006044037391
:100BF000AB71EB714A4BE3181A781023134223D0E0
:100C0000484AA2181278022A00D8AB71464BE31862
:100C10001B78022B03D82023AA791343AB71434BD3
:100C2000E3181B78022B03D84023AA791343AB7136
:100C30003F4BE3181B78022B45D9072B04D18022A8
:100C4000AB7952421343AB710023EB70394BE3187D
:100C50001B785A0601D4DB0932D1374BE3181B78D5
:100C60005A0601D4DB0926D1344BE3181B785A0607
:100C700001D4DB091AD1324BE3181B785A0601D490
:100C8000DB090ED12F4B9C46644423785A0600D5CD
:100C90001BE7DB0900D118E71023EA781343EB7058
:100CA00013E70823EA781343EB70EBE70423EA78B1
:100CB0001343EB70DFE70223EA781343EB70D3E7CB
:100CC0000123EB70C9E78021AA7949420A43AA713E
:100CD000012B01D1EB71B7E7022BB5D1EB71B3E773
:100CE000C0C6000000C1FFFF21C1FFFF20C1FFFF00
:100CF00033C1FFFF32C1FFFF37C1FFFF36C1FFFF26
:100D000035C1FFFF34C1FFFF27C1FFFF29C1FFFF2E
:100D100016C1FFFF18C1FFFF17C1FFFF19C1FFFF79
:100D200014C1FFFF2FC1FFFF2DC1FFFF2CC1FFFF2B
:100D30002EC1FFFF22C1FFFF23C1FFFF24C1FFFF20
:100D400025C1FFFF26C1FFFFF8B55F4656464D4659
:100D50004446F0B40D1C9946CB005F1A82469B4670
:100D60000323141C2E1C1278BF00574413433B70FE
:100D7000637821367B70A378FF36BB70E378A800D8
:100D8000FB706179237909021943394BB6011B685D
:100D900040199E1983009846FF2942D9354BF31814
:100DA0001B78032B3DD0E179A37909021943FF2970
:100DB00031D9304BF3181B78032B2CD0237A022B1C
:100DC00000D83B712C4B627AF3181B78022B4AD067
:100DD000032B44D0012B2AD05B4600225B1B9B00D7
:100DE00053441A735B4640465D1BE37AA27A1B02AA
:100DF0001343AD0055444B44AB60E17BA37B090238
:100E00000D301943082206F055FC3CBC904699462B
:100E1000A246AB46F8BD40460322163006F04AFC17
:100E2000CCE740460322153006F044FCBBE7531ED6
:100E3000032BD1D85B465B1B9B0053441A730F4BAB
:100E40009C46664433781B07CCD5023A012AC9D8A0
:100E5000404601210E30032206F02CFCC2E7D31FCE
:100E6000012BB9D8E6E7531F012BB5D8E2E7C046FE
:100E7000C0C6000031C1FFFF15C1FFFF16C1FFFF53
:100E8000F8B546464F46D34BC0B41B68061C0F1C32
:100E9000D14800210022984607F012FC0378051C77
:100EA000013BDBB2FD2B2ED8431C9946CB4B1C6873
:100EB00090231B01E35C002F51D0012B00D1A8E04F
:100EC00094231B01E35C012B00D1B4E098231B01A8
:100ED000E35C012B00D1BBE09C231B01E35C012BF5
:100EE00000D1C2E0A0231B01E35C012B00D1CEE0C6
:100EF000A4231B01E35C012B00D1D5E04946B8488F
:100F000003F004FF27E0B54B1C6890231B01E35C52
:100F1000002F55D0012B00D1B4E094231B01E35CDA
:100F2000012B00D1CDE098231B01E35C012B00D104
:100F3000CCE09C231B01E35C012B00D1CBE0A02380
:100F40001B01E35C012B00D1CAE0A4231B01E35C7D
:100F5000012B00D1C9E00CBC90469946F8BD012B8D
:100F600000D1FAE094231B01E35C012B00D1E3E004
:100F700098231B01E35C012B00D1CCE09C231B01D7
:100F8000E35C012B00D1B5E0A0231B01E35C012B46
:100F900000D127E1A4231B01E35C012BAED1301C5F
:100FA0000521FFF77DFD4B461B785A2B00D15DE1F3
:100FB00012239C46E144301C0521FFF71DFD9DE7EF
:100FC000012B00D1FDE094231B01E35C012B00D138
:100FD000EEE098231B01E35C012B00D1DFE09C23B2
:100FE0001B01E35C012B00D1D0E0A0231B01E35CDB
:100FF000012B00D1C1E0A4231B01E35C012BAAD18A
:10100000301C0521FFF74CFD301C0521FFF7F4FCD7
:10101000A1E7301C0021FFF743FD132291466B78B6
:10102000A9445A2B00D04BE7EA1C301C0021434650
:10103000FFF78AFE44E7301C0121FFF731FD4B46E4
:101040001B785A2B00D1E8E012239C46E1443DE78F
:10105000301C0221FFF724FD4B461B785A2B00D190
:10106000E6E012239C46E14436E7301C0321FFF7FB
:1010700017FD4B461B785A2B00D1C3E012239C4628
:10108000E1442FE7301C0021FFF70AFD45E7301C43
:101090000421FFF705FD4B461B785A2B00D1DAE0FF
:1010A00012239C46E14423E7301C0521FFF7F8FC9E
:1010B0004B461B785A2B00D1C5E012239C46E144D5
:1010C0001CE7301C0121FFF7EBFC2CE7301C022150
:1010D000FFF7E6FC2DE7301C0321FFF7E1FC2EE7CC
:1010E000301C0421FFF7DCFC2FE7301C0521FFF743
:1010F000D7FC30E7301C0321FFF7D2FC4B461B78AE
:101100005A2B00D1C5E012239C46301C0321E14438
:10111000FFF772FC38E7301C0221FFF7C1FC4B4699
:101120001B785A2B00D1C3E012239C46301C0221AD
:10113000E144FFF761FC21E7301C0121FFF7B0FC1F
:101140004B461B785A2B00D1BAE012239C46301C28
:101150000121E144FFF750FC0AE7301C0021FFF7B2
:101160009FFC6B785A2B00D19BE013239946301CCF
:101170000021A944FFF740FCF4E6301C0421FFF7EE
:101180008FFC301C0421FFF737FC34E7301C0321AF
:10119000FFF786FC301C0321FFF72EFC25E7301CEF
:1011A0000221FFF77DFC301C0221FFF725FC16E72A
:1011B000301C0121FFF774FC301C0121FFF71CFCDF
:1011C00007E7301C0021FFF76BFC301C0021FFF704
:1011D00013FCF8E6701C0010F8090010C0C60000EF
:1011E000A8080010301C0421FFF75AFC4B461B785E
:1011F0005A2B46D012239C46301C0421E144FFF7B1
:10120000FBFBC7E64B46301C9A1C03214346FFF705
:101210009BFD12239C46E14464E64B46301C9A1C1D
:1012200001214346FFF790FD12239C46E1444DE621
:101230004B46301C9A1C02214346FFF785FD1223C2
:101240009C46E14448E64B46301C9A1C0521434627
:10125000FFF77AFD31E74B46301C9A1C04214346C8
:10126000FFF772FD12239C46E14441E64B46301CD9
:101270009A1C05214346FFF767FD12239C46E14473
:1012800099E64B46301C9A1C04214346FFF75CFD4F
:10129000B0E74B46301C9A1C03214346FFF754FD30
:1012A00031E7EA1C301C00214346FFF74DFD5CE7A7
:1012B0004B46301C9A1C02214346FFF745FD33E79D
:1012C0004B46301C9A1C01214346FFF73DFD3CE78D
:1012D000F0B55F46564644464D46F0B4724B89B071
:1012E0001B680C1C0790049100220021061C6F480B
:1012F000059307F019F9002100226C4807F0E0F986
:101300009021031C09018C461C70694B06901B68D8
:10131000041C63441F1CC3439A46664B3A1C01934A
:101320000023D34600251F1C9A46904642E0032323
:101330005A46134000D181E06246A11C1570012B72
:1013400000D195E0E11CA570032B00D08DE00F22A9
:10135000211DE57002921222D21A03920E22D21A95
:10136000920801329000814663441D605D609D607B
:10137000042A00D1DD604B46029A4944D01A039BEF
:101380004B4506D00D70012803D04D70022800D0C7
:101390008D7040239C462C3BE0449C46263BE24417
:1013A0009C46019B0137403312341C36E3440193C1
:1013B000062F4BD0631C9C4643461B789946012B55
:1013C000B5D159336370A37801984021029304F09A
:1013D000ABF8049B0390802B4DD0012B56D06B466D
:1013E00050461B7A1530A3703378E37073782371FD
:1013F000B3786371F378A37105F0E2FCE071000A41
:1014000020725046163005F0DBFC6072000AA072B4
:1014100050463379059AE372337B0D302373B368FA
:101420009B1A1A0A6373A2731A0C1B0EE2732374BD
:1014300005F0C6FC6074000AA074AAE7102212200E
:10144000914661460C3A039002908DE706991A483E
:101450006D3103F0A3FB154806F016FF09B03CBC44
:1014600090469946A246AB46F0BD1022029272E722
:10147000112202926FE7029B1A1E82420BD007983C
:10148000391CFFF70DFB039B0293A8E70798391C53
:10149000FFF706FBA3E74B46AA21BB400798425A39
:1014A000134343529BE7C046701C0010F80900101C
:1014B000C0C6000048150010A80800109022F0B522
:1014C000574645464E4612019446E0B41D4B82B045
:1014D0001B681D27019363441C1C1B4B00259A4667
:1014E00010239946012398462678012E0AD001350B
:1014F00040341437062DF7D102B01CBC90469946F3
:10150000A246F0BD504602F037FFAE400640711EC5
:101510008E414A466378F1B21A4202D042465140A7
:10152000C9B2DA0702D542465140C9B20E22381C70
:101530001A4203D00B3A06F0BDF8D8E7082206F0AD
:10154000B9F8D4E7C0C60000A8080010294BF0B5D0
:101550000C1C1B6821349C4683B0FF34A40101930A
:10156000254B6444E3181D78012D01D003B0F0BD74
:101570000E1C2248171CB54002F0FEFE204B054011
:101580009C46691E8D4164442278E9B2D30601D598
:101590000123594013075B0F032B12D03878002822
:1015A000E4D078788842E1D0011CD20711D4002B16
:1015B00012D0B000801980001D30032206F07AF8A6
:1015C000D4E7B87800280FD0387800280FD1D20798
:1015D000EFD501225140EAE7B000801980001D30AC
:1015E000082206F067F8C1E739780029BED079787B
:1015F000DBE7C046C0C6000000C1FFFFA80800101E
:1016000001C1FFFFF0B55F4656464D464446424B8A
:10161000F0B40C1C1B688E009C467618B6008246FF
:10162000301C213483B0FF340193A4013B4B64444C
:10163000E3181B7815309846394B0F1CE3181D78BA
:10164000384B2D02E3181B7891465D1905F0B8FB65
:1016500083B2301C16309B4605F0B2FBADB280B2AF
:10166000A84202D82B1C051C181C4346012B1BD07A
:101670004346022B06D003B03CBC90469946A24696
:10168000AB46F0BD58451FD35D4536D8264B9C462A
:1016900064442378002B36D0012BECD101234A4639
:1016A000137053709370E6E7584516D20322111C4D
:1016B000FB00DF1BBF0057443B7919400129DAD0FA
:1016C0009343012213433B71184B9C466444237897
:1016D000002B18D0012BCED1E0E75D45CBD90322FA
:1016E000111CFB00DF1BBF0057443B791940022946
:1016F000C1D09343022213433B710D4B9C4664447B
:101700002378002BC8D101234A4649461370002292
:101710008B704A70AFE7C046C0C6000030C1FFFF03
:1017200035C1FFFF34C1FFFF39C1FFFF3AC1FFFFE1
:1017300038C1FFFFF0B556464D4644465F4600238C
:10174000F0B4041C900080188000081885B00A309E
:101750000E1C151C029305F033FB0C2E19D8CF4B31
:10176000B6009B599F461A40CD48904602F004FEB1
:101770000122AA401040421E9041CA4BC2B2FB183F
:101780001B78DB0601D501235A40434612011A4358
:10179000727002AF3B78EA00002B0CD0521B920013
:1017A000A01804220378934303707A78002A02D0A9
:1017B000042213430370029BFF24181C190A1A0CFD
:1017C0002140204009022240120408431B0E1B0640
:1017D0001043184305B03CBC90469946A246AB4620
:1017E000F0BDB14A2B1C1268213394460192FF339D
:1017F000AE4A9B016344944663441B789B06C8D55C
:1018000002AF201C291C3A1CFFF7FCFE3B78C2E704
:10181000A54B2E1C1B6821369846FF360193B60156
:10182000A24BB04443441B785B07B2D53F22131C44
:101830000121034099460B1CAB409A46030600D594
:10184000F5E09B4B02AF43441B7858060BD4134082
:101850004B4508D1EA00521B92003970A318DB787F
:10186000B9700B407B70934B43441B785A060ED4DF
:101870003F2213404B450AD10121EA00521B92003E
:101880003970A318DB78B9705B100B407B708A4B02
:1018900043441B785A060ED43F2213404B450AD1CD
:1018A0000121EA00521B92003970A318DB78B9704D
:1018B0009B100B407B70814B43441B785A060ED41F
:1018C0003F2213404B450AD10121EA00521B9200EE
:1018D0003970A318DB78B970DB100B407B70784B44
:1018E00043441B785A0691D43F2213404B458DD177
:1018F0000121EA00521B92003970A318DB78B970FD
:101900001B110B407B703B7845E70123421E904141
:1019100002AF3B707870BB70EA003FE7624A2B1C55
:10192000126821339046FF339B0198445F4B01922C
:1019300043441B789B0700D42BE7EA0000285DD0C6
:10194000521B9200A618737802AF1B1100D185E0DC
:10195000012B02D13B707B70BB700322337850485F
:101960009343337002F008FD0123AB400340581E3F
:1019700083414C4ADBB242441278D20601D501229F
:101980005340002B00D141E70123327813433370D9
:101990003B7800E72B1C444A21331268FF339B013C
:1019A000D718424B0192FB181B789B0700D4F0E636
:1019B000EA00521B9200A61873780F22002800D06C
:1019C000D1E6111C1940012900D9E2E693433448BD
:1019D000984602F0D1FC0122AA400240501E8241EA
:1019E000304BD2B2FB181B78DB0601D501235A40DD
:1019F000434602AF134373703B78CCE60F26511B6E
:101A0000890061184B781E40F3B2012B41D0002BA6
:101A100039D0042B27D0062B00D0BAE6294B02AFD1
:101A200043441B781B011E434E703B78B3E6EB002A
:101A30005B1B9B0000279B461D4ABB199446019ADD
:101A40006344D35C5A0603D43F2213404B453BD03A
:101A50000137052FF0D102AF3B789CE601227B7065
:101A60003A70BA7079E7032308780340012B00D954
:101A70008FE6012602AF33407B70032318433E708C
:101A8000BE7008708AE6012302AF3B707870BB70AD
:101A900084E602AF3B707B70BB707FE66CC40000D5
:101AA000A808001001C1FFFFC0C6000014C1FFFF5D
:101AB00022C1FFFF23C1FFFF24C1FFFF25C1FFFF9C
:101AC00026C1FFFF21C1FFFF104802F055FC53461D
:101AD0000340581E83410E4ADBB242441278D206BC
:101AE00001D501225340002B08D00122BA405B46A9
:101AF000111CE318DA780A43DA70A9E701215B4682
:101B0000B940E318DA788A43DA70A1E7A808001030
:101B100001C1FFFFF0B54E4645465746E0B41D1CD7
:101B2000904C21352468FF3582B0AD0166190194CF
:101B30008D4C34192478240700D48CE0DC00E41A9E
:101B4000A400041901200F1C217881468908014056
:101B5000F9706179093081436171082A00D180E010
:101B6000092A10D19800C0188000133005F028F918
:101B7000042263799343002800D0B5E00822134380
:101B800063710123BB70019A784B9446EB18634450
:101B90000122197892460A4231D0754AB218127859
:101BA000022A00D1B6E000D88BE0032A00D1A3E0DE
:101BB000042A16D1C90888465146627911408946DF
:101BC00001218C464946604641408C46504641467C
:101BD00001408846604651460140884502D00022B7
:101BE0003A70627902218A4362711B785B0706D5DD
:101BF00001237A785A407A70FA785340FB705D4B33
:101C000001229C46019B65449C46654429780A4212
:101C100021D0594BF3181B78022B00D181E03FD91A
:101C2000032B63D0042B08D16379C90898101140A5
:101C30008243914202D000233B7063790822934390
:101C400063712B785B0706D501237A785A407A7046
:101C5000FA785340FB7002B01CBC90469946A246ED
:101C6000F0BD0199414A8A46AA1892445246494613
:101C700012781142C3D09800C0188000123005F0CD
:101C80009FF84A4663799343002802D00122134308
:101C9000DBB20222134363710123BB70534677E723
:101CA000012BCAD1FA78002A58D13B78FA70002B60
:101CB00002D163791907C1D501237A703B7063792A
:101CC000BCE7012A00D08CE7F978002943D13A78A3
:101CD000F970002A03D16279900700D482E70122CB
:101CE00079703A7062797DE7134347E763799B1017
:101CF0001A40FB785A40D8E7504662791040FA788B
:101D000050403A78F870002A20D0012278703A705A
:101D1000627967E7F9780029D9D152466179114093
:101D2000D5E7F97800290DD03B78F970002B04D065
:101D3000012379703B70637980E763791A0700D4D7
:101D40007CE7F5E7617989101140EDE76279910749
:101D500000D447E7D9E761791140B8E7627992107A
:101D60001A40A2E7C0C6000014C1FFFF27C1FFFF51
:101D700028C1FFFF29C1FFFF2AC1FFFFF0B556466A
:101D80004D4644465F469A460023F0B4D600B41A46
:101D9000A4000B700419237B83B00025002B4AD0CC
:101DA0005746A4683C1B002C45DDA14CA14D24687E
:101DB000271C141CB9462134BC46FF3401979E4FA2
:101DC000A40165194C44B946A1444F46AC4465464C
:101DD0003F782D78B946FA27ED06AD0FA846974D06
:101DE000BF0065192D782D024D44ADB27D43082BFF
:101DF00000D9DAE0171C924A9B00D358D14683469B
:101E00008A469F46F31B9B005B449A78002A00D1C8
:101E1000AEE0013AD2B29A70002A00D0A8E0197B55
:101E20000739012900D8E1E053461D780023F01B53
:101E3000800058440373281C03B03CBC904699466C
:101E4000A246AB46F0BDF51BAD00281C0823584444
:101E500003737C4B7C4AE3181B78A21812781B0290
:101E6000D3189BB21A01D31A784A9B009446644453
:101E7000227801259B18FA229200534300224B44FA
:101E8000836001234A7052460B709370D3E700229F
:101E9000F01B80005844027301234A7052460B70B5
:101EA00001259370C7E70023F01B8000584403739B
:101EB000012352460125137053709370BBE7012430
:101EC000F61BB800B600C0195E44800034730D30B4
:101ED00004F076FFFA239B00584353464844B06011
:101EE00001251C705C709C70A5E70022F01B80002F
:101EF0005844027301234A7052460B709370424655
:101F00000125134297D0B800C01980000E3000217F
:101F1000032205F0CFFB53461D788CE701230B709D
:101F20004B708B70F31B9B005B44181C03234D44C8
:101F30008560037301257EE74346002B37D0434677
:101F4000DB0742D4022342461342E4D00122514629
:101F500050460A700021F51BAD00AF27417082701A
:101F6000281CBF0058444F4403738760012562E773
:101F7000F51BAD00281C072358440373344B354A26
:101F8000E3181B78A21812781B02D3189BB21A010F
:101F9000D31A314A9B009446644422789B18FA2253
:101FA000920053434B44836082E7002543E7F51BCF
:101FB000AD00281C43465844037301230A1C0B70D0
:101FC000414693705170012535E7B800C019800073
:101FD00003220E30012105F06DFB0322F31B9B0051
:101FE0005B441A732A1C4A449A60ABE7614609783D
:101FF0000907890F01290ED0032912D0002900D02A
:1020000012E7012251460A701B780125DB081340B4
:102010004B708A700AE75346012519705A709970FF
:1020200004E7012352460125137053709370FDE6B7
:10203000C0C6000016C1FFFF1DC1FFFF1EC1FFFF8C
:10204000A0C400001BC1FFFF1AC1FFFF1CC1FFFF9E
:1020500018C1FFFF17C1FFFF19C1FFFFF0B55F46B1
:1020600056464D464446F0B4161C8F4A83B012685B
:102070000C9C94462134FF34A40101928B4A6444A1
:10208000A2181278071C0D1CD20637D5002B04DDD0
:10209000FF221A400A2A00D186E00C9BDB009B46F7
:1020A0005A460C9BD31A00229B00FB1899790B11FE
:1020B00033402AD00726B1430E11B446A826BE5B92
:1020C000B04666464046064031435E460C98C9B26B
:1020D000301A800038188171090752D1744B9C4620
:1020E00064442378012B47D0002B00D1A4E0032BBC
:1020F00004D10123EA782B706A70AB7003B03CBC4A
:1021000090469946A246AB46F0BD0907F6D0584620
:102110000C992B70401A800038188179CE07EDD4C5
:1021200001261E40F7B2BC4608270F4276D01F4258
:1021300003D1002E01D1002AE0D0C3799B07DDD462
:1021400001232B70C279AB701A406A70EB70D5E72F
:102150001A4201D00122944604220A42CED01A42E9
:1021600002D16346002BC9D0524B9C46644423786D
:10217000002B61D0012BC1D12B706B70AB70EB7059
:10218000BCE700210126297081790E42C8D01E4289
:10219000B4D0494B9C4664442378002BEAD12E707E
:1021A0006B70AE70EB70A9E7093A8A70DA056FD5EB
:1021B0001B0B9846414AA2181278022A42D943467C
:1021C00001215A088A4611400C9A8C46D300991A6C
:1021D000890079188A799B46D008814650464B463B
:1021E0001840844501D008231E4308239A436346C0
:1021F000002B46D18A710022CB799C460123604690
:10220000994698438446C8714B464046034203D0E2
:10221000012360461843C871897948E702220A42BF
:1022200096D01A4202D1002E00D167E7244B9C467B
:1022300064442378002B9DD101226B702A70AA7010
:10224000EB705BE7012342461A4090460C9A994690
:10225000D3009A1A9200BA1891799B46C80884460E
:10226000484663461840804501D008231E43082392
:1022700099434346002B01D0082319439171002252
:1022800015E708239C4663461A438A710122B3E787
:102290000C9A0A339446900060448000181804F0A9
:1022A0008FFD804686E7C046C0C6000014C1FFFF10
:1022B0002BC1FFFF2CC1FFFF2FC1FFFF2EC1FFFF6E
:1022C0002DC1FFFF9022F0B556464D4644465F466D
:1022D00012019446F0B42C4B87B01B6880460393E0
:1022E00063441C1C102399469A339A46274B861D3B
:1022F00000259B4604E0013540341C36062D37D0BE
:102300002378012BF7D14946227D1142F3D0424672
:102310005146525A2A411340EDD105AF3B707B70B4
:10232000BB70FB70231C85213B331B7849001B03CA
:102330000B4332784046391C0095FFF78FFE40462C
:10234000291C3A1CFFF702F93B78002BD3D04946F1
:1023500063787A78194201D001235A40291C5846E3
:102360000023013501F0F2FF40341C36062DC7D1A1
:102370000022AA234146CA5207B03CBC9046994667
:10238000A246AB46F0BDC046C0C60000A80800107B
:10239000F0B55F4656464D464446F0B40F1C8146A4
:1023A000141CFD00ED1BAD008BB0111C4D441A1C1C
:1023B00098463B1CFFF7AEFB2B780C21DB06DB0FAE
:1023C000E370CC4B03959B461B689A463B1C21331C
:1023D000FF339B011A1C94460493C74B63448C46FD
:1023E0001A1C0293BB00DB199B009C4461460591BB
:1023F0000E218C469C44614608910D218C469C44DC
:102400000B330693131C614653441E1C079133780B
:10241000DB0767D54346022B00D172E02B78227888
:10242000002A1DD040221A4066D104995144081C4C
:10243000B24941180978022900D1B9E0032900D135
:10244000A8E0012900D192E06278002A51D0102240
:1024500013432B705A4612689246029A5244161C35
:1024600001221B091340E37033781A4208D0434617
:10247000012B55D02B789B0602D50023E2702370E8
:1024800043464846211C00220097FFF7E7FD4846D7
:10249000391C221CFFF75AF82378002B00D03FE1AB
:1024A0000BB03CBC90469946A246AB46F0BD2270AC
:1024B000039A127B002A00D17CE1022A06D000D8C0
:1024C0009CE1032A02D0042A00D008E10022039BE9
:1024D00008981A73012362702370A37000210332DD
:1024E00005F0E8F822782B78002AB3D06278002A29
:1024F000ADD110229343ACE70022039B1A732B78D3
:10250000A2E7059804F05CFC002804D040232A7858
:1025100013432B7083E740222B7893432B707EE785
:1025200043460698A37004F04BFC002865D1202296
:102530002B781A42A4D0191C914329705B0600D550
:10254000D2E0049B6D49534459180978012900D001
:10255000CAE06B498C4663441B781A4200D1C3E041
:1025600043462370637001235B4298464FE7644BF8
:102570000732C3181B781340032B5ED06278002A01
:102580005BD1012B93D0039B22701B7B002B32D19C
:102590002B7865E75A4BC3181B781940032969D07B
:1025A000012900D1FDE0022960D022702B7857E785
:1025B00063782270002B2CD0E378002B00D08EE0C3
:1025C000052303994F4A0B734F4B8218C3181B788E
:1025D00012781B02D3189BB21A01D31A4B4A9B00E4
:1025E0009446604402789A18FA239B005343149A45
:1025F000944663448B602B782CE7012800D03FE79A
:10260000434623706370E37020232A7813432B70B2
:1026100036E7E378002B62D0062303993C4A0B731C
:102620003C4B8218C3181B7812781B02D3189BB23C
:102630001A01D31A9B00384AD2E70023039E237065
:1026400008363379002B7CD1079804F0B9FBFA23C4
:10265000149A9B0094464343039A63449360012376
:10266000337123706370A3702B78EDE66378002BD1
:1026700000D0BDE000232370039B08331A79002AA1
:1026800086D1264941180978A970E178002900D03F
:1026900095E008212A788A432A701B4A1949821832
:1026A00012784118097812028A1892B211018A1A16
:1026B000164992008C4660440178511807221A711D
:1026C00001236370FA23149A9B0094464B43039AA8
:1026D0006344936001232370A3702B78B4E6002237
:1026E000039B1A732B78B5E601232370E37863709C
:1026F000C6E6C046C0C6000014C1FFFF15C1FFFFFB
:1027000016C1FFFF17C1FFFF18C1FFFF19C1FFFF6F
:102710001AC1FFFF1BC1FFFF1CC1FFFF1FC1FFFF4D
:102720004E49049B8C46534463441B786278DB0615
:1027300001D501235A404A48391C002301F006FE06
:10274000AEE6484A9446604402789246013A042A2A
:1027500000D950E7042B00D14DE7022B6DD007982C
:1027600004F02EFBFA2352469B004343012A53D028
:102770003279032A6BD05146039A594392680992E1
:102780009A180B1C1499511A8B4242D2149A9446EF
:10279000039A63449360012323706370A3702B78C2
:1027A00052E66378002B00D064E7039AA17013739C
:1027B0002B7849E623706270A3702B7844E60821D9
:1027C0002E78314329702849284E411809788619F6
:1027D00036780902711889B20E01711A244E8900E7
:1027E000B44660440078091808201871627069E7DF
:1027F0000123A370039B1A732B7825E6012A00D0CE
:102800006DE70021039B197322706170A2702B7811
:102810001AE6039B9A60BEE7149932798C460399B5
:1028200063448B60032AB6D1039A0123089813737B
:102830000021032204F03EFFADE70233337103228F
:102840000898002104F036FF22782B784CE6149A81
:102850009446039A63449360E7E7C04601C1FFFFD3
:10286000A80800101FC1FFFF1BC1FFFF1AC1FFFF17
:102870001CC1FFFF9022F0B557464E464546120157
:102880009446E0B41C4B86B01B68804603936344B7
:102890001E1CAA238A46002705AC0025994603E0A2
:1028A00001374036062F21D025706570A570E57080
:1028B0003378012BF4D142464946525A3A411342E9
:1028C000EED10321F2780A40012AE9D8237013409F
:1028D0006370534600930123391C4046221C5B421F
:1028E0000137FFF755FD4036062FDDD106B01CBC81
:1028F00090469946A246F0BDC0C60000F0B54D46D0
:1029000044465F465646F0B40D1C594C2135FF3500
:1029100083B02468AD01002B07D1564F6619BC4621
:1029200066443678760600D594E0534EB1465E0094
:10293000B046F618A619514C77193C192478A246CE
:102940004F4CA44667443C78A446002C7BD00193AE
:102950006346171C0C1C0090032B00D17DE06046E1
:1029600008F066FB474A484B07F018FD08F0F0FBFB
:102970008346504607F068FB494607F095F85946EC
:10298000814606F023FD391C06F0C0FC002823D048
:10299000009BE0009C46001B80006044437B424655
:1029A000191C114103220830114001294BD0414626
:1029B0008A40934301228A4013434371334B751974
:1029C0009C4665442B78032B32D049D9072B2FD056
:1029D0000D2B38D100212CE05946484607F096F9D6
:1029E000011C381C06F092FC00282CD0009BE00053
:1029F0009C46001B80006044437B4246191C1141E9
:102A000003220830114002291DD041468A409343D9
:102A100002228A40134343711C4B75199C4665443E
:102A20002B78DAB2072AD5D01ED90C3B012B0AD855
:102A30000121019BA0009C460019800060441B30CE
:102A4000032204F037FE03B03CBC90469946A246F0
:102A5000AB46F0BD0E4EB14669E70E4B9B4688E78C
:102A6000012BF0D10021E4E7042AECD10021E0E7BA
:102A7000C0C6000011C1FFFFCDCCCC3D07C1FFFF98
:102A800008C1FFFF9A9999999999893F09C1FFFF58
:102A90000AD7233CA69BC43AF0B55F4656464D463E
:102AA0004446F0B4437B8BB05AB28346002A00DA26
:102AB00074E1D04A03921278033A50425041C2B2B4
:102AC000069201229B09534001221A400D235B44C8
:102AD00099461A239846C84B00271B684D469A46CC
:102AE000C64C079253461E19331C093B1B78994666
:102AF000012B19D014239C4601371C35E044403487
:102B0000062FEFD1039B1B78032B00D141E15B46DD
:102B10005B7B402213435A4653730BB03CBC904638
:102B20009946A246AB46F0BDB54801F027FC4B469E
:102B3000BB400340581E8341381CDBB20293FDF7B3
:102B40005DFEB37872781B02D3189BB20190089394
:102B5000002B00D09FE05346185D002800D124E1EF
:102B6000069B994608F064FAA64AA74B07F016FCA4
:102B700008F0EEFA2B1C0B3309901968019807F046
:102B8000C5F80021049006F0D5FB002800D162E1D1
:102B90000498099906F0CEFB002800D18BE001983B
:102BA00008F082FA994A9A4B0490059106F074FB5A
:102BB0000021002800D117E1039B1B78032B00D1D3
:102BC0008FE001239946F31F1B78052B06D0081CC4
:102BD000904906F069FF07F017FA011C40460822E9
:102BE00004F068FD4B46002B00D089E02B78029A58
:102BF0009B06DB0F9A4200D18FE0029B002B00D195
:102C000095E0F37805229B00042B00DDEAE0EB1D44
:102C100099461A80231C3233534408931B78261D8F
:102C20005644DB0700D4A6E031788A06920F032AC7
:102C300000D190E04B461B88002B00D1C4E04A46EF
:102C4000013B13803378099369782B788946029980
:102C50001A1C002900D095E0D606F60F930603D47F
:102C6000079B002B00D1D7E0092399464346311C2E
:102C7000581E082204F01EFD10222B789343002ECC
:102C800000D190E013432B704B4620226B702B78C1
:102C900093432B702EE7EA1C1368013B1360002B53
:102CA0004BD15346185D002800D178E7012399469F
:102CB00058E7069B9946019808F0F6F9534A544B99
:102CC0000490059106F0E8FA0021002800D101994E
:102CD0004B46002B00D176E7039B1B78032B00D0DB
:102CE0006FE7F31F1B78052B06D0081C494906F037
:102CF000DBFE07F089F9011C4046032204F0DAFCF0
:102D0000089AEB1C92001A60019A9A602B78029A3A
:102D10009B06DB0F9A4200D06FE7EB1D9946079B9D
:102D2000002B00D176E7029B002B00D069E7EB1D5A
:102D3000994605234A4613806CE75346185D0028E0
:102D4000B7D000239946069B002B00D10AE7ADE7D8
:102D5000029B002B15D100235846391C019AFFF71E
:102D6000CDFD089B1B789B0705D55846391C019A59
:102D70000123FFF7C3FD4B461B88002B00D161E701
:102D80005DE72B7800226A702032934313432B7047
:102D9000B0E65B465A7B80231343BAE600220692D4
:102DA000144A03928DE62B706EE7019808F07CF9C7
:102DB000164A174B0490059106F06EFA002815D0BC
:102DC000002300219946FEE6D3B2012AC0D0099122
:102DD000022B00D038E7029B002BBCD16B782A78FD
:102DE000994639E75A1C12E70199E5E60023019953
:102DF0009946E8E680090010C0C600000D090000F1
:102E0000A80800109A9999999999993F79E92631DA
:102E100008AC7C3F00007A44344B354A049805994D
:102E200006F04EFA431E9841099B0F221B075B0FC9
:102E300001934B46134015D04B46013BDBB29946FC
:102E40001340042B36D0002B0CD1019A033A514287
:102E50005141CAB207E0802212069446049B6344A3
:102E6000049395E60022864231D049460F239943C8
:102E70000DD1002A00D1F9E60021002E01D0012653
:102E8000012143460322581E04F014FCF4E61021ED
:102E900049428C46E14449466B461972197A0F2320
:102EA00089469943E5D1019B061C012BE4D0032BF5
:102EB000DFD1E1E744239946864200D0D6E6A42339
:102EC0009946002E00D0D1E6803B9946CEE6002EF2
:102ED00006D120210B4399460021002AD1D1C5E615
:102EE000A0210B439946002AC9D1BFE651B89E3FA5
:102EF000B81E85EBF0B5444656464D465F46F0B4E5
:102F0000414C85B080468A46201C404905F03EFC75
:102F10003F49051C201C05F039FC002D03D03D4B1A
:102F20001B78032B56D09022002312019446039362
:102F3000394B46461B680025019363441C1C012342
:102F40009946364B03AF9B462378012B0BD00135B6
:102F500040341C36062DF7D105B03CBC904699464E
:102F6000A246AB46F0BD4046391C2A1C5346FEF72C
:102F700005FF002826D13278494613090B40FB7023
:102F8000237D194205D0920603D50023F9703B70CA
:102F9000237DDB0602D5B3791B0732D14046291CBD
:102FA0003A1CFEF7D3FA3B78002BD0D063787A78BE
:102FB000DB0601D501235A405846291C002301F0A5
:102FC000C5F9C4E77B783278002B16D010231A435A
:102FD0003270D1E7B824434652461B59D31A002B0E
:102FE000A1DD00200121032204F064FBFA239B00F1
:102FF0005D43434655441D5195E710239A43327073
:10300000BAE700233B70C9E7F8090010014B000044
:10301000024B000080090010C0C60000A808001084
:10302000F0B55F464D46444656461D23F0B4902702
:103030009846414B83B08B463F01002401259946B9
:1030400007E014239C4601346D004037E044062C11
:103050002AD05B462B42F4D0384801F08DF9012389
:10306000A3401E1C01934B467A1C92461B680640E7
:103070009A445246701E86411278F6B2D2061AD58C
:103080000122DB5D72400092012B1ED0211C002327
:103090002A48009A01F05AF914239C4601346D0025
:1030A0004037E044062CD4D103B03CBC904699464E
:1030B000A246AB46F0BD0122DB5D7240D2B2009267
:1030C000012BE3D1331C009E00931C4801F054F9FE
:1030D0005346019A19780240501E82411023D2B201
:1030E0000B4001D0012042400807400F032815D0B3
:1030F000964203D1002BC9D10096C7E70122009B5D
:103100000A4214D000280ED14046191C082204F0AF
:10311000D1FA534610221B781340EBE70122009BA3
:103120000A4200D1331C4046191C0322EFE7331C2E
:103130000028E9D0F7E7C046C0C60000A808001084
:10314000F0B55F4656464D4644465A4AF0B494465A
:10315000594B85B01B688146009363441C1C0023B7
:103160009846564B8A46061C00259B4603AF231CF7
:10317000143B1B78012B0BD001351C364034062D37
:10318000F5D105B03CBC90469946A246AB46F0BD91
:10319000424630783A70010919407A70BA70F97075
:1031A0002278134204D0800602D50121FB702278D8
:1031B000D30620D55046B3791A11024031D00720EA
:1031C000834318110190A820844600934846634623
:1031D000C35A01981840009B0343B371180739D1B3
:1031E000E37D012B40D0002B50D0032B03D10123D2
:1031F00079703B70BB704846291C3A1CFEF7A6F953
:103200003B78002BB8D0231C133B1B787A78DB0665
:1032100001D501235A405846291C002301F096F895
:10322000AAE71907E7D0D907E5D401211140C8B2B0
:103230008446082018422ED0104201D10029DAD04D
:10324000F3799A07D7D4012213403A707B70BA7091
:10325000FA70D0E701211942E7D01142CBD0E37ECA
:10326000002B23D0012BC6D1154B0393C3E710428B
:1032700001D001218C4604211942BCD0114202D157
:103280006346002BB7D0237E002BEBD10122FB70CD
:103290003A70BA70AFE702201842E8D0104201D16C
:1032A0000029A8D0637E002BDCD1EFE73970B9701C
:1032B000FB70A0E714090000C0C60000A8080010B9
:1032C00001010101F0B547468B4D80B4041C0E1C72
:1032D000281C8A4905F05AFA012804D9A822A35AC1
:1032E000D90700D59DE00027281C854905F04EFA36
:1032F000012804D9A822A35A990700D583E0281CE5
:10330000804905F043FA012800D887E0A822A35A93
:10331000590739D4DA073DD59A074FD55B0761D5F0
:10332000794B90229C46B8236644E650774B1201B5
:103330001B689A5C012A00D178E0942212019A5C01
:10334000012A00D180E0982212019A5C012A00D162
:103350008BE09C2212019A5C012A00D197E0A02206
:1033600012019A5C012A00D1A3E0A42212019B5C05
:10337000012B00D1B1E0002F03D0201C0121FFF769
:10338000DFFE04BC9046F0BD03210B40A352012791
:10339000DA07C1D45E49281C05F0F8F980465D497A
:1033A000281C05F0F3F9FA20434680005843AC236B
:1033B0008019E050043BE35A9A07AFD45649281CC1
:1033C00005F0E4F980465549281C05F0DFF9FA209C
:1033D000434680005843B0238019E050083BE35A2D
:1033E0005B079DD44E49281C05F0D0F980464D4915
:1033F000281C05F0CBF9FA20434680005843B4233B
:103400008019E0508CE705210B40A352281C3D4950
:10341000012705F0BBF9012800D977E7A823E35A73
:1034200078E706210B40A35201275DE707322261AE
:10343000A282A2733C4AA26100226273942212010A
:103440009A5C012A00D07EE708210732E2622286D8
:103450002232A154344A002162632922A1549822C5
:1034600012019A5C012A00D073E74C210732A26452
:10347000625208213E32A1542B4A00212265452286
:10348000A1549C2212019A5C012A00D067E76821AE
:1034900007326266625208215A32A154224A002140
:1034A000E2666122A154A02212019A5C012A00D096
:1034B0005BE7802107326250043162520821763284
:1034C000A15419490A32A15000210B3AA154A42257
:1034D00012019B5C012B00D04DE79C220733A350C7
:1034E0000432A35208229233E2540F4A0A33E250C4
:1034F00000220B3BE2543EE7F8090010114B00009C
:103500000B4B0000084B0000000018FCC0C6000078
:103510000F4B0000104B0000094B00000A4B00004D
:10352000064B0000074B00000000C8C2F0B545463E
:1035300057464E46464CE0B4051C0F1C201C45491E
:1035400005F024F94449061C201C05F01FF94349E5
:103550008046201C05F01AF9012E2BD9022398462B
:10356000002399463E49201C05F010F93D49061CF0
:10357000201C05F00BF93C498246201C05F006F999
:10358000012E2BD93949201C05F000F93849061CB9
:10359000201C05F0FBF837498246201C05F0F6F8A0
:1035A000012E3BD94B46002B50D11CBC904699466E
:1035B000A246F0BD4346002BD0D0AC23EB58FB1AFB
:1035C000002BCBDDA823EA5AD107C7D401210A4337
:1035D000EA52A53B9846023B9946C3E75346002B67
:1035E000D0D0B023EB58FB1A002BCBDDA823EA5A2E
:1035F0009107C7D402210A43EA521C49201C05F056
:10360000C5F81B49061C201C05F0C0F81949824664
:10361000201C05F0BBF8012E13D8C1465346002BE1
:10362000C0D0B423EB58FF1A002FBBDDA82204231F
:10363000A95A0B42B6D104200143A9524A461A4363
:103640009046281C4146FFF77BFDAEE7C846F8E7E9
:10365000F8090010114B00000F4B0000104B000048
:103660000B4B0000094B00000A4B0000084B000008
:10367000064B0000074B0000F0B54E464546574646
:103680000C1CE0B4051C161C022965D0032933D09C
:10369000012904D01CBC90469946A246F0BD0120E9
:1036A00003F08EFB534F54498146381C05F06EF8E9
:1036B00052498046381C05F069F851498246381C49
:1036C00005F064F84346012BE4D84B462340984567
:1036D0007BD05346002B06D0FA2352469B0053431F
:1036E0009E19AC23EE50A8220121AB5A1942D1D029
:1036F0008B43AB5201212BE0032003F061FB3D4CD7
:1037000040498046201C05F041F83F49071C201C19
:1037100005F03CF83D498146201C05F037F8012FA3
:10372000B8D80123424613409F4245D04B46002B58
:1037300006D0FA234A469B0053439E19B423EE5009
:10374000A8220421AB5A1942A4D08B43AB520421C6
:10375000281CFFF7F5FC9DE7022003F031FB254F05
:103760002B498146381C05F011F82A498046381C3F
:1037700005F00CF828498246381C05F007F8434646
:10378000012B00D986E701234A461340984526D0ED
:103790005346002B06D0FA2352469B0053439E19F2
:1037A000B023EE50A8220221AB5A194200D171E792
:1037B0008B43AB520221CBE7A823EA5A510700D52D
:1037C00068E704210A43EA52C1E7A823EA5A1442EF
:1037D00000D05FE701210A43EA520121B8E7A8239C
:1037E000EA5A144200D055E702210A43EA52022164
:1037F000AEE7C046F8090010114B00000F4B000067
:10380000104B0000084B0000064B0000074B000067
:103810000B4B0000094B00000A4B0000F0B587B0CD
:1038200000290CDB151C061C09292BDD0A39081C94
:103830000C1C142105F028FC071E052F01DD07B024
:10384000F0BD124A031C126821339446FF330392E1
:103850000F4A9B016344944663441B78012BEED1CD
:103860001421494241430C19211C3A1C301CFDF71C
:1038700061FF00950590391C301C05AA231CFEF73A
:1038800087FDDCE7FFF7F8FED9E7C046C0C60000B9
:1038900000C1FFFF0022A821024B5A5202315A52A6
:1038A0007047C04698070010E12108B50248490258
:1038B000032205F011F908BD581B0010F8B54D465C
:1038C0005F46564644464D4BF0B499464C4B002556
:1038D0009A464C4B4C4C9B464DE04C4905F040F809
:1038E0002B1C42339B004B445F682B1CC4335B0092
:1038F0004B44988880B2EB074CD506F0EDFB011CD9
:1039000006F0D2F8061C381C06F0E6FB011C301C41
:1039100006F0CAF83E4906F0C7F83E4905F0D2FE67
:1039200007F0C2FB07F09EFD43465B004B440F1CB3
:1039300099880123061C0A225B4209B2201C04F06C
:1039400057FF5146201C05F00BF80022324B301C6B
:10395000391C06F023FD05F01BFD0123011C0A2282
:103960005B42201C04F0A0FF0135201C594604F0E6
:10397000F7FF0C2D21D0A4239846A84443465B00B2
:103980004B449B88201C1BB2042BA6DD234904F06A
:10399000E7FFA5E706F0A0FB061C381C06F09CFB21
:1039A000311C071C301C06F07FF8011C381C06F087
:1039B0007BF81B4906F078F8AFE700252B1C443351
:1039C0005B004B449988012309B20A225B42201C08
:1039D00004F00EFF0135201C514604F0C1FF0C2DF0
:1039E000ECD11049201C04F0BBFF201C04F0AAFFFE
:1039F0003CBC90469946A246AB46F8BD4005001037
:103A0000CCC40000D0C40000581B0010C4C4000087
:103A10008F242B2800409C440088C340C8C4000069
:103A20008F56712CD8C400001F230122F0B5016805
:103A3000041C181C151C0840854046464F46281C8F
:103A400003254911C0B42940CA4E89007758002186
:103A50008000C1511F1C9846131C606883B007404A
:103A6000BB401F1C4011284080003358B800474617
:103A7000C150131CA0680740BB401F1C40112840C8
:103A800080003358B8004746C150131CE068074017
:103A9000BB401F1C4011284080003358B8004746E7
:103AA000C150131C20690740BB401F1C4011284017
:103AB00080003358B8004746C150131C6069074066
:103AC000BB401F1C4011284080003358B8004746B7
:103AD000C150131CA0690740BB401F1C4011284067
:103AE00080003358B800C1504346E069271C0340AA
:103AF0009A40131C40112840800032589B00995076
:103B0000022005F091F820239846251CA04480212E
:103B100001CD490101F0E0FD4545F8D10823B56824
:103B20000A202B6205F080F80321012023688C46CF
:103B30005A110A401C310B40814698409200B258FD
:103B4000830098586268431E98410192531162465F
:103B500013409B00F358019A9C464B460A40934001
:103B600062469B009A5802230343002A00D0181C87
:103B7000A26853069B0F9B00F1581F231A401B3B62
:103B800093405A5804230343002A00D0181CE268CB
:103B900053069B0F9B00F1581F231A401B3B934079
:103BA0005A5808230343002A00D0181C22695306E0
:103BB0009B0F9B00F1581F231A401B3B93405A5800
:103BC00010230343002A00D0181C626953069B0F80
:103BD0009B00F1581F231A401B3B93405A58202347
:103BE0000343002A00D0181CA26953069B0F9B00B8
:103BF000F1581F231A401B3B93405A58402303435C
:103C0000002A00D0181CE269814653069B0F9B00D6
:103C1000F1581F231A401B3B93405A5880230343FB
:103C2000002A00D0994600232B62C02101CFC90190
:103C300001F052FD4745F8D101211F22081C2368DD
:103C4000256A1A4090405B069B0F9B00021CF058AF
:103C500000230D4200D0131C0121920013501F229B
:103C6000081C63681A4090405B069B0F9B00F55848
:103C7000236A021C5B100020194200D0101C012195
:103C8000920050511F22081CA3681A4090405B0606
:103C90009B0F9B00F558236A021C9B1000201942C1
:103CA00000D0101C0121920050511F22081CE36813
:103CB0001A4090405B069B0F9B00F558236A021C3C
:103CC000DB100020194200D0101C0121920050513D
:103CD0001F22081C23691A4090405B069B0F9B0023
:103CE000F558236A021C1B110020194200D0101C39
:103CF0000121920050511F22081C63691A40904014
:103D00005B069B0F9B00F558236A021C5B11002089
:103D1000194200D0101C0121920050511F22081C92
:103D2000A3691A4090405B069B0F9B00F558236ADD
:103D3000021C9B110020194200D0101C012192008E
:103D400050511F22081CE3691A4090405B069B0FEC
:103D50009B00F558236A021CDB110020194200D099
:103D6000101C92005051484603B00CBC9046994636
:103D7000F0BDC04694C50000C02138B5041C002524
:103D8000C901074801F0A8FC064B201C9B681D6276
:103D9000FFF74AFEA562E5622562606238BDC04653
:103DA00043826D0094C50000F0B5474680B4071CFF
:103DB000FFF73AFE3E1C00213B1C7C6A283330365C
:103DC00001228C46884608E0011C11401CD0414667
:103DD000197001335200B34212D0211C1140F3D1AB
:103DE000051C15401AD01D78042D14D965461443BE
:103DF00015437C6219700133AC465200B342ECD1DA
:103E0000604604BC9046F0BD1D780E2D03D9944346
:103E10007C621970DDE701351D70DAE71D70D8E7A7
:103E2000036A70B58B4200D196E001251F242A1C3D
:103E3000036801621C40A2405B06141C9B0F484AA9
:103E40009B00D65800230D4200D0231CA400A35190
:103E500001241F21251C436819408D405B069B0FE0
:103E60009B00D658036A291C5B1000251C4200D019
:103E70000D1C012489008D511F21251C83681940C8
:103E80008D405B069B0F9B00D658036A291C9B1034
:103E900000251C4200D00D1C012489008D511F21DA
:103EA000251CC36819408D405B069B0F9B00D658AC
:103EB000036A291CDB1000251C4200D00D1C0124C4
:103EC00089008D511F21251C036919408D405B0617
:103ED0009B0F9B00D658036A291C1B1100251C420E
:103EE00000D00D1C012489008D511F21251C436920
:103EF00019408D405B069B0F9B00D658036A291C16
:103F00005B1100251C4200D00D1C012489008D513D
:103F10001F21251C836919408D405B069B0F9B0068
:103F2000D658036A291C9B1100251C4200D00D1C89
:103F3000012489008D511F21251CC36919408D4022
:103F40005B069B0F9B00291CD558036A0022DB11DE
:103F50001C4202D189004A5170BD0A1CFAE7C046D2
:103F600094C50000084B094A1A60094A5A60094A78
:103F70009A60094ADA60094A1A61094A5A61094A8B
:103F80009A61094ADA617047540800100B41100623
:103F90002A83300C64C279004582010044825900B2
:103FA0000302000065C2810041C27400F8B5104CE4
:103FB0000D19104CA54212D8CB18521A1F2699423F
:103FC0000BDA8827341CBF00BC460C40555C041932
:103FD00064440131E5709942F3D10020F8BDFF2916
:103FE00002DD04F04DF8F9E701204042F6E7C04653
:103FF000E0B4FFFFDF34000070B582B006AC267875
:10400000104C0D19104CA54213D8CB18521A1F256D
:104010008B420BDD88262C1CB600B4460C400419DC
:104020006444E478545401319942F3D1002002B041
:1040300070BDFF2903DD009603F090FFF7E7012034
:104040004042F4E7E0B4FFFFDF340000074B10B557
:10405000CA18074B041C01209A4202D90020FF29EC
:1040600000DC10BD201C03F06BFFFAE7E0B4FFFF9B
:10407000DF34000000238022402170B503604360DC
:104080008360144B041C9858022601439950012167
:104090005868114D0143802059609958000101432F
:1040A000995014329E500D4B0D482B6010230D4932
:1040B0002B6101F011FB0C480C4901F00DFB0C4881
:1040C0000C4901F009FB0C480C4901F005FB6E603E
:1040D000201C70BD0080044000000440C70E00009A
:1040E00002C23A0000602C00094233000060340034
:1040F00008023300001030004B823B0000603800A3
:104100000023102110B5184C43608360E268164B01
:104110001142FBD10422D9680A421FD001218160DB
:1041200099688161D9680A421AD002218160996830
:10413000C161D9680A4215D09968016201214942DA
:104140008160D868024207D005319A68DA68114266
:10415000FBD10120404210BD081CFCE70020FAE71B
:104160000120F8E70220F6E7000004400368F0B5FC
:10417000012B00DDF0BD002AFCD05E1C06609C1CFB
:10418000A5000F6845196F60022EF3D0012AF1D007
:10419000046003339D004E6845196E60022CE9D01F
:1041A000022AE7D0036002348B68A4000019436040
:1041B000E0E7C046102110B5064CE368054A0B4005
:1041C000FBD172B6C16891600169916062B603600B
:1041D00010BDC0460000044008B50248FFF74AFF82
:1041E00008BDC04684080010F0B55F4656464D46EF
:1041F0004446F0B483B0FCF771F94423FF3398428E
:1042000013DC36234F4C0026E35C022B00D18BE0FD
:10421000012B00D181E00023E384301C03B03CBCBF
:1042200090469946A246AB46F0BD3623454C012642
:10423000E35C022BF1D10025FCF750F900239846EE
:10424000512805D0FCF74AF95138031C43439846DE
:10425000278D381C05F082F8636C58433A4B9C4616
:104260006044404562D900263623E35C022BCFD15F
:104270000423A28E1343A386002FCCD0E36A206BC5
:1042800098468342C7D083009A46431C9C46062327
:104290009B46FB43B14600216646BC46019353460C
:1042A0006246E35A1A4204D0019A13405246A3527E
:1042B00014D0081C5B46B342484140423040804520
:1042C00038D083009A4653466246E35A461C1A4247
:1042D000EFD0019A13405246A352EAD10F1C5B461D
:1042E000B3424F417F423740B84527D0021C404679
:1042F000904600E01F1CBB00E3589200A350BB1F78
:104300005A1E93417D1C5A422B1C13403A1C984262
:10431000F0D14046E762B846C1E70223A28E1343BC
:10432000A3860023E38478E7012585E7002D00D1EB
:1043300073E799E700234E46E3846EE74E46E0625A
:1043400069E7C046A8080010E42D010010B501245B
:104350008C40A1B2848B0C438483002B02D0038C4D
:104360000B430384C38B002A03D18B43191CC183E5
:1043700010BD1943FBE7C046808C7047408C7047E6
:10438000F0B556464D465F464446C38BF0B4994659
:104390000023868B028C83B08383C3830384002E27
:1043A0004FD04946838C056BB3430B438384C38C46
:1043B0001A43C36A9246C284AB422ED0AB0001932B
:1043C00006239B4600239C46321C019BC41823886D
:1043D0001A400ED04F46618879400F1C1740BB43EE
:1043E0002380544621408A439643002B30D0002E30
:1043F00027D0634659460135A9425B415B421D40C7
:10440000C36AAB4209D0321CAB000193019BC418B4
:1044100023881A40EDD0DDE7C5624A46438C5340FD
:1044200052461A4316400CD04946C36AB6B29A00A7
:1044300082183140013316805180062B00D90023A9
:10444000C36203B03CBC90469946A246AB46F0BD61
:1044500063465C46691C8C425B415B421940C36AFF
:1044600098468B42D8D02A1C00E0191C8B001B58A0
:10447000920013508B1F5A1E93414C1C5A42231C0E
:1044800013400A1C9845F0D1C162002E9CD1D8E798
:1044900001234285828E0185134383867047C0467F
:1044A0000223828E134383867047C0463623C05C46
:1044B000023843425841C0B27047C046F0B54D463D
:1044C0005F4656464446F0B4051C87B003910592FA
:1044D000FBF7FCFFEB8E022B00D177E10022682373
:1044E000EA54FA22D2009446039B686663442B6622
:1044F0003722AB5C012B00D13BE100220492032B5D
:1045000000D144E1042B00D128E13623EC5C012CDE
:1045100000D115E1002C0FD10622AB8E1A4200D03B
:10452000C8E001261E4207D0FBF7D0FF5C23FF3313
:104530002864984200D989E1EB8E032B00D1BEE0BC
:10454000022B00D1C2E0AB6B9846049B002B00D03D
:10455000A7E04246059B04981A6007B03CBC904611
:104560009946A246AB46F0BDEB6A2A6B934200D057
:10457000ABE26822AB5C002B0AD16B6EC31A2D2B09
:1045800000DDA2E2039B296E5B1ADCD40123AB544D
:10459000FBF79CFF031CBB4A434394466A6C63448D
:1045A000934200D2E0E29B1A9A4200D9DAE29B1AC7
:1045B0009A4200D9D4E29B1A9A4200D9E6E29B1AA9
:1045C0009A4200D9E0E29B1A9A4200D9DAE29B1A99
:1045D0009A4200D9D4E29B1A9A4200D9CEE29B1AA1
:1045E0009A4200D9C8E29B1A9A4200D9C2E29B1AA9
:1045F0009A4200D9BCE200249B1A934264410B34D6
:10460000288D04F0ABFE241A002C9CDD039BAA6CC1
:104610009A1A00D599E200230399E86C091A03D489
:10462000914201DD0A1C01230399286D091A03D464
:10463000914201DD0A1C02230399686D091A03D413
:104640008A4201DA0A1C03230399A86D091A03D4CC
:104650008A4201DA0A1C04230399E86D091A02D47C
:10466000914200DD4BE25A1C00D16CE786481A1CCF
:104670008446039912329200614451510122111C67
:104680009940688C5B00084200D162E201329A4096
:1046900090464346AB63039B01223233EB633723DF
:1046A000EA544346002B00D0C0E000239846013373
:1046B00004934EE7EB8EAC86032B00D040E700223C
:1046C0003333EA54EB8E022B00D03CE70422A98E50
:1046D0000A4000D1B2E02F8D002F00D195E10023D8
:1046E0000222AB63002000260124944611E0221C24
:1046F0009A40A98C92B21143A984698C0A436A84B6
:10470000624682401643AE6301330230062B00D16D
:1047100082E13A1C1A411442F6D06A8D1A411442C1
:10472000E5D1221C9A40D243A98C92B21140A984AF
:10473000698C0A406A84221C82401643AE63E3E718
:104740006B6C002B00D1F7E60622AB8E1A4200D12B
:1047500080E100233032AB54AB86EDE63623EA6BC2
:10476000EC5C039B9B1A00D5D1E600223723EA5468
:10477000CDE60399E86B0B1A00D580E00023AB630C
:104780000333AB540B1C0533EB6301230493039BEE
:10479000EA6B9B1A00D5B8E60020FBF7E3FE37264C
:1047A0000423AB55039B0533EB633623EC5C012CF0
:1047B00000D0AFE62C6CFBF789FE64434043844293
:1047C00000D898E1241A6C64AB5D9BE6EB6A2A6B17
:1047D000934200D082E66822AB5C002B00D087E6D3
:1047E0006B6EC31A2D2B00DD78E6039B296E5B1AD6
:1047F00000D57DE60123AB547AE6019BB0469C468A
:10480000002800D1E6E05B46002B05D001239B4643
:104810006346002B00D090E04346002B00D1EFE030
:10482000039B01223233EB633723EA540120FBF769
:1048300099FEAB6B9846012304938AE60B4225D080
:104840003623EA54AB6BAA8698467EE66B8C0E49FB
:1048500033401A1C534253410222D31A039AAB63CA
:104860008C46131C6344AB643623EE54131C323362
:10487000EB633723EE54363BAC8604935CE60023AF
:10488000049342E61CD2FEFF00987F33EB6A2A6B4A
:10489000934200D113E1FBF719FE031CBC4A4343CA
:1048A00094466A6C6344934200D22CE19B1A934273
:1048B00000D2C7E09B1A934200D2B9E09B1A9A42F9
:1048C00000D91EE19B1A9A4200D924E19B1A9A4210
:1048D00000D91EE19B1A9A4200D934E19B1A9A42F0
:1048E00000D92EE19B1A9A4200D928E19B1A9342E3
:1048F00000D222E19B1A934200D21CE19B1A934200
:1049000000D216E1288D04F029FD0C231B1A9C46C9
:10491000002B00DC17E60023AB632B6B9D4A994606
:10492000002398469B4648339A46AA4453469246EB
:104930000293039B012753449A464B469E006346CD
:10494000AE193088B446029C00210193464617E018
:1049500042466B8C48001A4393B2022282406B8419
:10496000019B1643013BAE630193002B2BD06346A2
:104970001888002868D001310434062900D13CE7AA
:10498000031C0B411F42F6D03B1C8B409846DB4377
:1049900062469BB2184010805246E88C1840E8846A
:1049A00022606246508808410742D1D13A1C688C87
:1049B0000340480082406B84019B1643013BAE6379
:1049C0000193002BD3D1B046664630889C46002820
:1049D00000D018E701239B46D94400224846002313
:1049E0000621814253414A465B421A40EB6A914696
:1049F0002A63934200D009E74346002B00D00FE71B
:104A0000049B002B00D1A4E54FE63623AE6BEF5498
:104A10000023B046AB8698E5039B01223233EB635B
:104A20003723EA54013B0232EA54353B0493EFE763
:104A30000224288D04F092FC231A9C46002B00DDF2
:104A400069E780E50124F4E7019BB0469C462B6BA7
:104A50009946BFE7FBF73AFD031C4D4A4343944692
:104A60006A6C6344934252D39B1A9A424DD89B1A64
:104A70009A425CD89B1A9A4257D89B1A9A4252D8AB
:104A80009B1A9A424DD89B1A9A4248D89B1A9A422E
:104A900043D89B1A9A4261D89B1A9A425CD89B1AB7
:104AA0009A4263D800249B1A934264410B34288DA8
:104AB00004F054FCA04213DD3623EC5C2AE5FBF73E
:104AC00005FDEB8E022B00D14EE500226823EA544F
:104AD000FA22D2009446039B686663442B6632E553
:104AE000039B0222AB64EB642B656B65AB65EB65E6
:104AF0003623EA5420E5284B6B64AB5D02E50523C1
:104B0000B4E5032495E7002493E70124CFE70024CC
:104B1000CDE705248DE704248BE70724C7E70624A7
:104B2000C5E70524C3E70424C1E70324BFE7022443
:104B3000BDE70B247DE70A247BE7092479E70824F5
:104B400077E7072475E7062473E701225242131C16
:104B500062E59A4090469CE50924A8E70824A6E768
:104B600002244DE501244BE5002449E50A249EE793
:104B70000A2445E5092443E5082441E507243FE5E7
:104B800006243DE505243BE5042439E5032437E507
:104B90001CD2FEFF10270000A086010010B5428C39
:104BA000036B0A7012124A70828C8A701212CA70D9
:104BB000C26A934200D175E09A008218548801338A
:104BC0000C7124124C71128806248A711212CA7157
:104BD00000229C42524152421340C26A0831934221
:104BE00000D169E09A008218548801330C702412B5
:104BF0004C70128806248A701212CA7000229C42DD
:104C0000524152421340C26A043193425DD09A002D
:104C10008218548801330C7024124C7012880624B8
:104C20008A701212CA7000229C42524152421340B2
:104C3000C26A0431934251D09A00821854880133D9
:104C40000C7024124C70128806248A701212CA70DA
:104C500000229C42524152421340C26A04319342A4
:104C600045D09A008218548801330C7024124C707D
:104C7000128806248A701212CA7000229C42524185
:104C800052421340C26A04319A4239D09B00C01884
:104C900043880B701B124B7003888B701B12CB70F8
:104CA0001C2010BD00220A714A718A71CA71C26A41
:104CB0000831934200D095E700220A704A708A704A
:104CC000CA70C26A04319342A1D100220A704A70AC
:104CD0008A70CA70C26A04319342ADD100220A7050
:104CE0004A708A70CA70C26A04319342B9D10022F4
:104CF0000A704A708A70CA70C26A04319A42C5D179
:104D000000230B704B708B70CB70C9E7002370B51C
:104D1000C36203634B780A781B0213434384CC7845
:104D20008A78240214433F25261C0122AE4303D176
:104D3000AB435A1E9341DAB284844B790C791B023F
:104D400023431D1C3F24A54300D001224380CB797F
:104D50008C791B0223431D1C3F240831A54300D13D
:104D600084E0012203800123C3624B780C781B028C
:104D700023431D1C3F24A54300D00122C380CB78D0
:104D80008C781B0223431D1C3F240431A54300D013
:104D900073E0C46AA4002352002B5FD00223C362D5
:104DA0004B780C781B0223431D1C3F24A54300D0E5
:104DB00001224381CB788C781B0223431D1C3F24A6
:104DC0000431A5435CD0012203810323C3624B78E5
:104DD0000C781B0223431D1C3F24A54300D0012255
:104DE000C381CB788C781B0223431D1C3F240431E4
:104DF000A5434BD0012283810423C3624B780C78F6
:104E00001B0223431D1C3F24A54300D001224382E3
:104E1000CB788C781B0223431D1C3F240431A5430F
:104E20003AD0012203820523C3624B780C781B021F
:104E300023431D1C3F24A54300D00122C382CB780D
:104E400089781B020B431C1C3F218C432AD1C16A69
:104E500089000B52002B01D00623C362002A03D025
:104E60000023C362438483841C2070BDC46AA400F1
:104E70002352002B00D076E7F0E7838001228DE7F4
:104E8000C46AA4002352002B9FD1E7E7C46AA400A0
:104E90002352002BB0D1E1E7C46AA4002352002BB7
:104EA000C1D1DBE783820122D6E7C046002136204C
:104EB0000022064B195401305A849A84DA621A632C
:104EC0009A83DA8319545A649A867047A8080010A6
:104ED000F0B546464F460B1CC0B4013B85B0884632
:104EE000022B04D905B00CBC90469946F0BD3A4C53
:104EF000201CFFF7D5FA394F394E3A4D201CFFF7E9
:104F0000D5FA002828D039683368CB1A042BF5D994
:104F100002AA201C3160FFF7D1FA281CFFF7F0F835
:104F2000FF229146029B281C1B0A134003A9FE3A4C
:104F30000393FFF71BF94B46029A281C134003A961
:104F400001220393FFF712F9281CFFF733F9201C05
:104F5000FFF7ACFA0028D6D1234A1378991E01290D
:104F60001ED9053B012B14D9204B1B78002B0BD0ED
:104F700030231F4AD35C002B06D01E4A1E4B1268FA
:104F80000192D35C012B12D01C484146FCF7A0F9DA
:104F9000A8E707231370154B1B78002BF4D0E7E725
:104FA00004231370114B1B78002BEDD0E0E7144B5A
:104FB0001B680193019A134BD35C012BE4D1124B74
:104FC000D25A4346022BDFD10223FF339A42DBD170
:104FD000813B9846D8E7C046A8080010701C001016
:104FE0008409001084080010800900108109001055
:104FF0008C090010BCC600000503000098070010D3
:10500000C0C600007103000072030000C02170B52B
:105010000026304B304A89005350304A53500431F7
:105020005350043153500431535004315350043120
:10503000535004315350FBF717FAFBF7A3F8FEF770
:1050400033FCFBF755FAFBF7A9FA254B254A1B68F9
:10505000254C1360254A201C1360254A0221136049
:10506000244B254A1E70254BE36101232362313313
:1050700001F0E2F8224B234D63655823E654224B9E
:1050800025651C68214B2249E018062206F032F9FA
:1050900096210136FF36321C281CC90103F03EF967
:1050A000321C281C002103F039F91A4B1A4A00213E
:1050B0001A608822DF23D2019B00E252FF22174BA5
:1050C000920017481A60FBF7DBFE1648FEF754FE05
:1050D00070BDC0468080808000E100E004E100E017
:1050E000701C0010F40900108C09001084090010D5
:1050F000F0090010800900105DA0000048828100C6
:10510000FC000010F8090010C0C600008A0300006F
:105110002CC5000004010010D2040000080100109A
:105120009807001054080010F8B5594C051C237856
:105130000E1C082B24D8574A9B00D3589F46564E26
:10514000291C301CFEF7BEF8301CFBF74BFC534B00
:10515000421E011C00209A4203D8FA20800003F06E
:1051600003FF4F4B291CD865301CFDF783FBFBF771
:10517000F9FBFA239B005843022345193D60237035
:10518000F8BD4848FFF792F90028F9D100232370B1
:10519000F6E7002243480021FFF77AF906230122AF
:1051A0002370414B1A70EBE7002964D1FFF71CF81C
:1051B0000028E5D108232370E2E73A48FFF776F9A3
:1051C000051EDDD134488121FCF782F82570D7E730
:1051D0003448FFF765F9FA239B009C46334B65443E
:1051E0001D6001232370CBE7FBF778F9D0235B0028
:1051F000984239DD2D4F3B68EB1A002BC0DD002EA5
:105200009DD105232370BBE700293AD0274B1B68AB
:10521000C51A002DB4DD204D281CFDF753F80323DB
:1052200000222370204B281C1A70FBF7A5FB281CBA
:10523000FCF744F901215823194AD154A0E7002969
:1052400009D0FEF7D1FF00289AD10823144A237011
:105250005033D05494E71348FFF722F90423104A3F
:1052600023705433D6548BE7FA239B009C460F4B94
:1052700065441D6084E70B48FFF712F9072323708C
:105280007EE70848FFF70CF90423237078E7C0464F
:1052900080090010F4C4000098070010E703000024
:1052A0008C090010A808001081090010880900105E
:1052B00010B5214B82B01B6888220093DF23009930
:1052C0009B00C95AD201914201D00099CA521B4C8D
:1052D00023789A1E012A08D9053B012B05D9002104
:1052E0001748FEF79DFD02B010BD1648FFF744F8C1
:1052F00030233F21144A0840D35C002B07D1237888
:10530000011C032BECD18023011C1943E8E70F4A51
:105310000F4B12680192D35C012BF0D10D4B009A18
:10532000D35C012BEBD10C4BD25A0223FF339A42B0
:10533000E5D140231843E2E7C0C600008009001011
:1053400054080010A80800108C090010BCC600000A
:10535000050300007103000072030000F0B547462A
:1053600080B4484E011C346882B0201CFFF7DCFE7C
:10537000454D2B78023B012B64D902F037F9002808
:10538000FBDA424B1A68A24204D01C602B78023B25
:10539000012B65D9FBF78CF9002841D13C4A1368F1
:1053A000E31A092B2AD83B4A31681368CB1A042B1D
:1053B0001DD9FF25116038486A46FFF77FF8374C42
:1053C000201CFEF79DFE009B201C1B0A2B4001A900
:1053D00001220193FEF7CAFE009B201C2B4001A96D
:1053E00001220193FEF7C2FE201CFEF7E3FEFFF749
:1053F0005FFF30BF02B004BC9046F0BD2848146087
:10540000FEF7D2FC011ECED02B78032B01D0062B49
:10541000C9D12448FDF704FE1F48FEF7B1FFC2E7DB
:10542000FBF7F4F9FBF750F9FEF748FA2B78023B4B
:10543000012BB3D81B48211CFDF72EFB1648FEF7A5
:105440009FFFABE7174F03E0381C221CFEF7E6F97D
:1054500002F0CCF8011EF7DA0F48FEF791FF90E753
:10546000104B211C9846181CFDF744FD0A4F381CB0
:10547000FEF786FF4046211CFEF758F8381CFEF761
:105480007FFF87E7701C001080090010F0090010F2
:10549000F409001084090010A80800108408001006
:1054A000540800109807001008B50020FFF756FFB9
:1054B00008BDC04608B50120FFF750FF08BDC04633
:1054C00010B5114C82B000216422201C05F050FF61
:1054D000201C00F09BFE0D4B0D49236000230D4A5C
:1054E000009301930C480D4B00F038FFEA21802215
:1054F0000B4C0902201CD200002302F09FFE094B36
:10550000236002B010BDC0468C090010B0C5000079
:105510008C1C001028C201001409001029826900A7
:10552000F8090010E8C4000010B5FF23002901D1DC
:10553000181C10BD041C41183EE05B00D2B2DBB267
:10554000534058B20022002845DB5B00D2B2DBB2E8
:10555000534058B20022002846DB5B00D2B2DBB2D7
:10556000534058B20022002847DB5B00D2B2DBB2C6
:10557000534058B20022002848DB5B00D2B2DBB2B5
:10558000534058B20022002849DB5B00D2B2DBB2A4
:10559000534058B2002200284ADB5B00D2B2DBB293
:1055A00053405AB20020002A4BDB5B00C0B2DBB292
:1055B000013443408C42BBD02278534058B2002281
:1055C0000028BADA07225B00D2B2DBB2534058B2ED
:1055D00000220028B9DA07225B00D2B2DBB25340C6
:1055E00058B200220028B8DA07225B00D2B2DBB240
:1055F000534058B200220028B7DA07225B00D2B22B
:10560000DBB2534058B200220028B6DA07225B0012
:10561000D2B2DBB2534058B200220028B5DA0722DA
:105620005B00D2B2DBB2534058B200220028B4DA99
:1056300007225B00D2B2DBB253405AB20020002AEC
:10564000B3DA0720B1E7C0468E2120201C4B890029
:105650005A5810B582435A5000221A62C832C046C6
:10566000013A002AFBD10121196459645A64596432
:10567000596C134AC907FBD523218E2080249160E1
:1056800080001158A14311500121D8680C4A0842EA
:10569000FAD003201067002051675067516701223C
:1056A000596F1142FBD0064B06499A67064BD967E2
:1056B000064B1A60064B1A60064B1A6010BDC046B6
:1056C000008004405F000100048004409480044096
:1056D000988004409C800440F8B51F244306804A0B
:1056E0009B0F9B00051C9858231C0122F0272B4080
:1056F0009A403F020E050F408914131C360D2140BD
:1057000000D10131C022D201974242D0E022D20121
:10571000974247D08024240202591B041B0C9A4351
:10572000802302519B019F4250D0C0239B019F4286
:1057300000D19BE00CB20F2C5AD00C2C16D1694B27
:105740009D4200D194E0684B9D4265D0EB0501D5A8
:1057500080231E43281C211C02F06EFB002815DB51
:105760000643281C00F0E4F80660F8BD0D2C22D09A
:105770000E2C5BD00B2C6ED0EB05EBD5022CE7D1B9
:10578000281C211C02F058FB0028E9DA03F0F2FA89
:10579000E7E78024240202591B041B0C1343035126
:1057A0000CB2CAE78022120281581B041B0C0B4367
:1057B00083500624E0E74D4B9D4232D04C4B9D4236
:1057C000C4D10121CC234B4AD150C3E74A4B9D425F
:1057D00058D04A4B9D4265D0494B9D426CD0494BB5
:1057E00007249D42C8D10121D023424AD150C3E7AA
:1057F000454B9D426BD0454B9D426AD0444B9D42E8
:1058000069D0444B9D4268D003F0B4FA01235B4257
:10581000D42238498B50AFE70121C823354AD150F3
:1058200096E70021CC23334AD15093E73A4B9D426F
:105830002ED03A4B9D4230D0394B9D4242D0394B0D
:105840009D421AD0384B9D4200D07FE70121C423EE
:10585000284AD1507EE7234B9D4229D0334B9D42AD
:1058600000D073E70122234B9A6173E7022483E798
:105870000021C8231F4AD1506CE70021C4231D4AD0
:10588000D15067E70021C0231A4A0724D15073E79B
:105890000021B023174AD1505CE70121B023154AFB
:1058A000D15057E70121C023124A0724D15063E7A2
:1058B0000022104B9A614DE70021D0230D4A0724A6
:1058C000D15059E70221B0230A4AD15042E70023C0
:1058D0009EE701239CE702239AE7032398E7C0464B
:1058E00094C50000424265002A83300C43826D005B
:1058F000298269000040044002C23A0063823D00F0
:1059000025423C0049C2010026C23300478279008B
:1059100061C2340F64C279000A4A70064B823B00B0
:105920000602700041C274006242350E4482590082
:105930001F2243069B0F10405A00D3189B001818D3
:10594000034B4000C05A034B80009C4660447047A4
:1059500034C500000040044010B5041C02F0BCF83F
:1059600001225823E254034B1B6823660023E3659E
:1059700010BDC046701C0010F0B55F464D46444651
:105980005646F0B4BC4D85B0AB796A789B4614029C
:10599000436BAA781F1C2243934206D005B03CBC3F
:1059A00090469946A246AB46F0BD0E1C0021B34A74
:1059B000041C126881724264F022802092003240FE
:1059C0008000824213D028DDA02189008A420ED0B7
:1059D00080318A4276D1C322B10600D1BBE1111CCD
:1059E000530600D509E200223B1C90462CE00F2113
:1059F000EB792E7A194033026E7A0F1C1E43A023D6
:105A00009B009A4200D15BE180239B009A4200D127
:105A1000C9E000223823E254C0E78038824251D1E5
:105A20006422EE79287A6272233AA272813A324372
:105A3000E27220736173A1730121C22288463C2166
:105A40005F460F403A43111C0C2050272A787F42B2
:105A500002403A4381462C3022543C263B22181205
:105A6000A054A3553D232532E2540133E154211CB7
:105A7000281C3831593A01F061F84346002B00D117
:105A80008CE74A462B781A40131C3B432371636B07
:105A90001A12E27140222372A37A1A400FD0226CAC
:105AA000B3431343A37201224823E2540F22637AC3
:105AB000211D1A400732281C01F040F86EE74823E8
:105AC000E254F3E76E4A964264D02BDD6D4B9E4262
:105AD00005D001339E424DD06B4B9E4248D1652389
