:100000000020001049010000CD0100003D830000E8
:10001000000000000000000000000000AD59FFEFEC
:10002000000000000000000000000000D9010000F6
:100030000000000000000000DF010000A9800000B7
:10004000EB010000EB010000EB010000EB01000000
:10005000EB010000EB010000EB010000EB010000F0
:10006000EB010000EB010000EB010000EB010000E0
:10007000EB010000EB010000EB010000EB010000D0
:10008000EB0100006148000061220000EB0100006C
:10009000EB0100002D050000000000000000000042
:1000A000EB010000EB010000EB010000000000008C
:1000B000EB010000EB010000EB010000EB01000090
:1000C0007C8E00000000001074000000740000101E
:1000D0008403000080B588B000AFF860B9607A6032
:1000E000BB68FB61FB68BB6100237B617A697B684D
:1000F0009A420BD2BA69131DBB61FB69191DF961E4
:1001000012681A607B6904337B61EFE7C046BD4625
:1001100008B080BD80B584B000AF786039607B687E
:10012000FB600023BB60BA683B689A4208D2FB6858
:100130001A1DFA6000221A60BB680433BB60F2E744
:10014000C046BD4604B080BD80B584B000AF1C4B36
:10015000FB60FA681B4B9A4215D2FB681A1DFA60C5
:100160001B68BB60FB681A1DFA601B687B60FB683C
:100170001A1DFA601B683B603A687968BB68180012
:10018000FFF7A8FFE5E7FA680F4B9A4210D2FB6829
:100190001A1DFA601B687B60FB681A1DFA601B68F9
:1001A0003B603A687B6811001800FFF7B3FFEAE78D
:1001B00008F00EFA08F0DCFA07F05EFDFEE7C04634
:1001C000C0000000CC000000D400000080B500AFEB
:1001D000FEE780B500AFFEE780B500AFFEE780B573
:1001E00000AFFEE780B500AFFEE780B500AFFEE7E9
:1001F00080B582B000AF78607B68180000F005F829
:100200007B681800BD4602B080BD80B584B000AFE9
:1002100078600023FB60FB68052B0BDC7968CC233E
:100220005B00FA688A18D31800221A70FB68013341
:10023000FB60F0E7C046BD4604B080BD80B584B029
:1002400000AF78600023FB60FB68052B19DC796840
:10025000CC235B00FA688A18D3181B78012253401C
:10026000DBB2002B09D07968CC235B00FA688A18CE
:10027000D31801221A70FB6805E0FB680133FB60AC
:10028000E2E701235B421800BD4604B080BD80B5A3
:1002900082B000AF786039603B68002B02DB3B68BE
:1002A000052B02DD01235B4214E07968CC235B005F
:1002B0003A688A18D3181B78002B09D07968CC23A8
:1002C0005B003A688A18D31800221A70002301E0F4
:1002D00001235B421800BD4602B080BD80B582B0EC
:1002E00000AF786039603B68002B02DB3B68052B70
:1002F00001DD002306E03A6813001B019B189B00F8
:100300007A68D3181800BD4602B080BD80B582B0AF
:1003100000AF786039607B68012B07D13B68054AE4
:10032000934203D1044B1800FFF762FFC046BD465D
:1003300002B080BDFFFF00007400001080B500AF68
:10034000034B19000120FFF7E1FFBD4680BDC04609
:10035000FFFF000080B582B000AF78607B680022AC
:100360005A617B6800229A617B681800BD4602B022
:1003700080BD80B582B000AF786039607B681800BE
:1003800000F057F80300023B5A425341DBB2002B06
:1003900001D0022310E07B689A697B68920039687B
:1003A000D1507B689A697B681100180000F05CF8F6
:1003B00002007B689A6100231800BD4602B080BD30
:1003C00080B582B000AF786039607B68180000F0BB
:1003D0001FF80300033B5A425341DBB2002B01D00C
:1003E000032311E07B685A697B689200D2583B680E
:1003F0001A607B685A697B681100180000F034F8B5
:1004000002007B685A6100231800BD4602B080BD1F
:1004100080B582B000AF78607B685A697B689B6961
:100420009A4201D1032300E000231800BD4602B028
:1004300080BD80B582B000AF78607B689A697B68C8
:100440001100180000F010F802007B685B69D31AF5
:100450005A425341DBB2002B01D0022300E00023BB
:100460001800BD4602B080BD80B582B000AF786094
:1004700039603B6801333B603B68042B01DD00239E
:1004800000E03B681800BD4602B080BD80B582B078
:1004900000AF786039607B68012B13D13B680B4A51
:1004A00093420FD10A4B1800FFF754FF094B180075
:1004B000FFF750FF084B1800FFF74CFF074B1800E1
:1004C000FFF748FFC046BD4602B080BDFFFF0000F9
:1004D00014020010300200104C02001068020010DC
:1004E00080B500AF034B19000120FFF7CFFFBD46D9
:1004F00080BDC046FFFF000080B582B000AF0200A3
:10050000FB1D1A70FB1D1B781A001F2313400122CC
:100510009A401300044A190080235B00D150C04662
:10052000BD4602B080BDC04600E100E080B500AF2E
:10053000034B180000F0ACF8C046BD4680BDC04675
:100540008402001080B586B000AFF860B960FB1D72
:100550001A7013217B1815221A707B181B781A0049
:100560001F23134001229A401300414A190080239F
:10057000D150C046FB68012252425A61FB680122F9
:1005800052429A61FB6801225242DA61FB68002202
:10059000DA60FB6800229A72FB68FA1D12785A72C0
:1005A000344A354B1100180002F022FB334A344B19
:1005B0001100180002F01CFB324A8023D358314945
:1005C00080225201134380228B502E4A982301210E
:1005D000D1502D4B8322DA602A4B9A6F2B4B1B682C
:1005E0005343284998228A581100180008F034F81B
:1005F00003001B09BA681100180008F02DF8030069
:100600007B61214B7A69120A5A601F4B7A69FF217C
:100610000A401A601C4B0322DA601B4B87229A6047
:10062000194B00221A61184B5A68174B01210A43D3
:100630005A60154B5B69012213405A1E9341DBB28D
:10064000002B03D0104B1B687B61F2E712217B1853
:1006500015221A707B181B781A001F2313400122E1
:100660009A40034B1A60C046C046BD4606B080BDE6
:1006700000E100E000103C0026C2330000604000B2
:100680002702340000800440008000400800001071
:1006900090B589B000AF7860D04B5B680222134000
:1006A00006D0CE4B5B692022134001D0012300E02D
:1006B0000023002B2FD07B68DB68002B0AD17B68DE
:1006C000012252425A61C54B5A68C44B02218A43E7
:1006D0005A6020E01023FB617B68DB680F2B02DC93
:1006E0007B68DB68FB617B68DA68FB69D21A7B6830
:1006F000DA60FB695A1EFA61DA17D31ADB0FDBB234
:10070000002B08D07B681B68591C7A6811601A7826
:10071000B24B1A60EDE71B217B1800221A70AF4B19
:100720009B680E2213400C3B5A425341DBB2002B14
:1007300002D07B1801221A70A84B5B69012213407A
:100740005A1E9341DBB2002B00D181E17B685B7ABA
:10075000002B00D176E07B68DB69002B06DAA04B2A
:100760001800FFF76BFD02007B68DA617B68DB69CC
:10077000002B5ADB7B68DA69994B11001800FFF7F0
:10078000ADFD02007B685A607B6800221A617B68BD
:100790005B6803337B61914B5B690122134005D099
:1007A0007B681B693F2B01DC012300E00023002B49
:1007B0000CD08A4B19687B695A1C7A61CAB21A70CC
:1007C0007B681B695A1C7B681A61E4E77B681B69BC
:1007D000D9B27B685B68581C7A685060CA1CD2B278
:1007E0001A707B685B68591C7A68516000221A7025
:1007F0007B685B6802221A707B68DA69794B1100AA
:100800001800FFF7B6FD03005A1E9341DBB2002B20
:1008100006D07B68DA69724B11001800FFF737FDCC
:100820007B6801225242DA6112E16C4B5B69012262
:1008300013405A1E9341DBB2002B00D108E1674BF5
:100840001B68F2E77B689B7A002B20D01B23FB18E8
:100850001B78002B0FD0614B5B69012213405A1E9D
:100860009341DBB2002B02D05C4B1B68F3E77B6843
:1008700000229A72ECE000233B613B69062B00DD0D
:10088000E6E0564B1B683B6901333B61F5E77B684B
:10089000DB69002B3FDA514B1A680B217B181A7069
:1008A0000A00BB181B78012B03D9BB181B78432BFC
:1008B00003D97B6801229A722DE0494B1800FFF79B
:1008C000BDFC02007B68DA617B68DB69002B03DA20
:1008D0007B6801229A721EE07B68DA69404B110046
:1008E0001800FFF7FBFC02007B685A607B680B2452
:1008F0003A1912781A723B1919783B194A1E1A7064
:100900007B685B68581C7A6850600A1C1A703B1937
:100910001A787B681A617B689B7A01225340DBB2AC
:10092000002B00D194E02D4B5B690122134005D0D0
:100930007B68DB69002B01DB012300E00023002B37
:1009400000D185E0254B1A687B685B68D2B21A70CB
:100950007B685B68591C7A6851601A787B681B7ADF
:10096000D318DAB27B681A727B681B695A1E7B68DF
:100970001A617B681B69002BD5D17B681B7AFF2B22
:100980004ED17B68DA69164B11001800FFF7A6FC00
:1009900002007B685A600123FB607B685B6802335E
:1009A0001B78012B09D17B68DA690F4B1100180005
:1009B000FFF7DFFC0300FB6027E07B685B68023326
:1009C0001B78022B12D17B68DA69064B11001800E4
:1009D000FFF7CFFC0300FB6017E0C046008000403B
:1009E00074000010300200104C0200107B685B683D
:1009F00002331B78032B08D17B68DA69164B110090
:100A00001800FFF7B6FC0300FB60FB68002B1AD050
:100A10007B68DA69114B11001800FFF738FC12E00F
:100A20007B68DA690D4B11001800FFF730FC0C4BA6
:100A30005B69012213405A1E9341DBB2002B02D0A6
:100A40007B6801229A727B6801225242DA616AE76E
:100A5000C046BD4609B090BD680200107400001089
:100A60000080004080B582B000AF78607B685B6931
:100A7000DB43DB0FDBB21800BD4602B080BDFFFFD9
:100A800080B584B000AF786039607B681800FFF7EC
:100A9000E9FF031E01D0022399E03A684E4B110092
:100AA0001800FFF71BFC0300FB600B217B18FA68A2
:100AB00012781A700A00BB181B78012B03D9BB18D7
:100AC0001B78432B01D9012381E00A23FB180B215A
:100AD0007A1812781A707B187A181278023A1A70FB
:100AE0007B685B7A01225340DBB2002B1ED0FB688F
:100AF0000233FB600B22BB181B78BA18591E117009
:100B00005A1E9341DBB2002B0AD0FB685A1CFA60D4
:100B100019780A22BB18BA1812788A181A70E9E7ED
:100B20000A22BB18BA181278D2431A7009217B180E
:100B300015221A707B181B781A001F2313400122FC
:100B40009A401300254A19008023D150C0463A68C4
:100B5000214B11001800FFF7C1FB02007B681A60EF
:100B60007B681B681B781A007B68DA607B685B7A9D
:100B7000002B0AD07B681B68DA1C7B681A607B68D4
:100B8000DB68DA1E7B68DA6006E07B681B6801338D
:100B90000A22BA1812781A707B683A685A61104BA8
:100BA0005A680F4B02210A435A6008217B1815220C
:100BB0001A707B181B781A001F23134001229A40D9
:100BC000064B1A60C0461520FFF796FC002318005C
:100BD000BD4604B080BDC0467400001000E100E0D6
:100BE0000080004080B586B000AF78601723FB1806
:100BF00000221A707B681800FFF734FF03001A0008
:100C000001235340DBB2002B4AD07B689B69002B49
:100C10000ADB7B689A69264B11001800FFF737FB47
:100C20007B68012252429A61224B1800FFF7F0FBC9
:100C30000300033B5A1E9341DBB2002B30D07B688C
:100C400018331A001B4B11001800FFF7B9FB7B6823
:100C50009A69174B11001800FFF740FB03003B6136
:100C60003B6902331B78022B03D11723FB180122A7
:100C70001A707B689A697B6811001800FFF700FF03
:100C80000300FB60FB68002B0AD07B689A69084B65
:100C900011001800FFF7FBFA7B68012252429A61AB
:100CA0001723FB181B781800BD4606B080BDC04650
:100CB000740000101402001080B582B000AF78609C
:100CC0007B685B8C9BB21800BD4602B080BDFFFF05
:100CD00080B582B000AF7860034A7B681A607B6899
:100CE0001800BD4602B080BD848D000080B582B082
:100CF00000AF78607B681800FFF7EAFF7B6824216B
:100D0000180007F085FE7B681800BD4602B080BD64
:100D100080B582B000AF7860054A7B681A607B6856
:100D20001800FFF7D5FF7B681800BD4602B080BDF4
:100D3000C08C000080B582B000AF78607B6818007E
:100D4000FFF7E6FF7B684421180007F061FE7B682F
:100D50001800BD4602B080BD80B582B000AF78609B
:100D6000054A7B681A607B681800FFF7D1FF7B6833
:100D70001800BD4602B080BD688C000080B582B00E
:100D800000AF78607B681800FFF7E6FF7B686021A2
:100D9000180007F03DFE7B681800BD4602B080BD1C
:100DA00080B500AF00F006F8014B1800BD4680BDCD
:100DB000A402001080B58EB000AFC023DB01584AFA
:100DC0001900100001F014FF554BFB600B217B183C
:100DD00000221A70FB681F22134001229A40130060
:100DE0007B607B181B78002B01D07B6800E0002320
:100DF000FA685211032111404A4A89008A587968D9
:100E000089008B50C046C023DB01474A19001000FF
:100E100001F0EEFE444BBB6117217B1800221A70D3
:100E2000BB691F22134001229A4013003B617B18CB
:100E30001B78002B01D03B6900E00023BA695211F6
:100E400003211140374A89008A58396989008B503B
:100E5000C046FA235B00180006F0A4FF304B7B620B
:100E600023217B1801221A707B6A1F221340012262
:100E70009A401300FB617B181B78002B01D0FB69A3
:100E800000E000237A6A521103211140254A8900AB
:100E90008A58F96989008B50C046234B3B632F2148
:100EA0007B1801221A703B6B1F22134001229A40CB
:100EB0001300BB627B181B78002B01D0BB6A00E0DB
:100EC00000233A6B521103211140164A89008A58B7
:100ED000B96A89008B50C0461448012301220221BF
:100EE00002F083FA114B1800FFF7E6FE03007B6364
:100EF0007B6B002B03D07B6B0D4A934205D10D4ACF
:100F00000A4B1100180002F015FAE12359020A4BAE
:100F100000221800FFF716FBC046BD460EB080BD8C
:100F200040825C00D48A000025423C00A4020010EC
:100F3000FFFF0000011100008402001080B500AF27
:100F400000F004F8C046BD4680BDFFFF80B500AF8D
:100F50000A4B1800FFF746FE094B180000F0BEFCD4
:100F6000084B180001F08AFD074B180000F0A4F8A8
:100F700030BFC046C046BD4680BDC046840200109A
:100F80002C0300104C0300102003001080B582B029
:100F900000AF786039607B68012B0DD13B68084A4F
:100FA000934209D1074B180002F0FDFA064A07499F
:100FB000044B180000F062F8C046BD4602B080BD88
:100FC000FFFF0000A402001070000010D10F00000D
:100FD00080B582B000AF7860054A7B681A607B6894
:100FE0001800FFF7B9FE7B681800BD4602B080BD4F
:100FF000608B000080B582B000AF78607B6818001D
:10100000FFF7E6FF7B687C21180007F001FD7B6895
:101010001800BD4602B080BD80B500AF034B19007B
:101020000120FFF7B3FFBD4680BDC046FFFF0000B3
:1010300080B582B000AF78607B68180007F0BCFB19
:1010400003001800BD4602B080BD80B582B000AF7D
:1010500078607B68180007F0AFFB03001800BD46FE
:1010600002B080BD80B582B000AF78607B681800A8
:1010700007F0ACFBC046BD4602B080BD80B584B071
:1010800000AFF860B9607A6000231800BD4604B074
:1010900080BD80B582B000AF78607B6800221A60A6
:1010A0007B6800225A607B6800221A727B681800F5
:1010B000BD4602B080BDFFFF80B588B000AF78604C
:1010C000894B1800FFF7A4F90300033B5A1E934114
:1010D000DBB2002B00D197E00C23FA18824B1100F1
:1010E0001800FFF76DF9FA68804B11001800FFF740
:1010F000F5F80300FB61FB691B78BB61FB690233F8
:101100001B78032B00D079E0BB69052B00D075E07C
:10111000774B1B68C333FF331A007B685A60FB6947
:1011200003331B78022B02D0032B5DD066E0FB69F2
:1011300004331B78042B3ED05FDC032B2AD05CDC0D
:10114000012B12D0022B58D17B681B7A022B43D083
:10115000684B0021180000F02FFA674B180000F0D0
:10116000D3FF7B6802221A7236E07B681B7A012B60
:1011700034D0604B180000F083FA5E4B0021180059
:1011800000F01AFA5C4B180000F0BEFF7B680122E9
:101190001A7223E07B681B7A032B21D0554B012167
:1011A000180000F009FA544B180000F0ADFF7B68FE
:1011B00003221A7214E07B681B7A042B12D04D4B69
:1011C0000021180000F0F8F94B4B180000F088FFE0
:1011D0007B6804221A7205E0C0460EE0C0460CE0AF
:1011E000C0460AE0C04608E0FB6904331A78424B67
:1011F0001100180000F09CFF00E0C046FA683B4B6D
:1012000011001800FFF743F8394B1A687B685B68D8
:10121000D31A002B05DD7B681B7A002B01D001233C
:1012200000E00023002B0FD0324B180000F028FA0A
:10123000304B0021180000F0BFF92F4B180000F0D0
:1012400063FF7B6800221A72294B1A687B681B684F
:10125000D31ADA17D31ADB0FDBB2002B40D0234BA3
:101260001800FEF7EBFF03007B617B69002B31DB8D
:101270007A691E4B11001800FFF730F803003B613C
:101280003B695A1C3A6105221A703B6901333B6184
:101290003B695A1C3A6103221A703B695A1C3A6135
:1012A00001221A703B695A1C3A617A68127A1A70E4
:1012B0007A69124B11001800FFF75BF803005A1E01
:1012C0009341DBB2002B05D07A69084B110018005E
:1012D000FEF7DDFF064B1B68C8331A007B681A60F7
:1012E000C046BD4608B080BD680200107400001002
:1012F000A40300102C0300104C0300101402001073
:1013000080B582B000AF786039607B68012B07D16F
:101310003B68054A934203D1044B1800FFF7B9FE1E
:10132000C046BD4602B080BDFFFF00002003001094
:1013300080B500AF034B19000120FFF7E1FFBD4668
:1013400080BDC046FFFF000080B582B000AF78606E
:101350007B68DB6C5A1E9341DBB21800BD4602B0BD
:1013600080BD80B582B000AF78607B689B685A1EF4
:101370009341DBB21800BD4602B080BD80B582B09B
:1013800000AF78607B6800229A60C046BD4602B01C
:1013900080BD80B582B000AF786012231800BD46D2
:1013A00002B080BD80B582B000AF786039607B68E4
:1013B000012252421A607B6800229A717B680022E7
:1013C000DA717B6800221A727B681E225A717B6870
:1013D00001221A777B683A685A617B685B69C02290
:1013E000D2011100180001F003FC7B6800211800F5
:1013F00000F008F87B6800229A617B681800BD46FF
:1014000002B080BD80B586B000AF78600A00FB1CDA
:101410001A707B685B69FA1C127801214A40D2B2CB
:101420007B6113217B181A707B691F2213400122F4
:101430009A401300FB607B181B78002B01D0FB68DF
:1014400000E000237A69521103211140054A890006
:101450008A58F96889008B50C046C046BD4606B020
:1014600080BDC046D48A000080B582B000AF7860ED
:101470007B681B7F002B14D07B68DB68012B10DCA2
:101480007B68DB68002B04D17B6800211800FFF724
:10149000B9FF7B68DB689A1C7B68DA607B680A228C
:1014A0001A61C046BD4602B080BD80B582B000AFB3
:1014B00078600A00FB1C1A707B681B7FFA1C12788C
:1014C0009A420AD07B68FA1C12781A777B681A7FD6
:1014D0007B6811001800FFF795FF7B681B7F002BCE
:1014E00029D07B68DB68002B2BD07B681B69002B25
:1014F00004DD7B681B695A1E7B681A617B681B6967
:10150000002B1ED17B68DB685A1E7B68DA607B6823
:10151000DB68002B15DD7B680A221A617B68DB68BB
:10152000012213405A1E9341DAB27B681100180061
:10153000FFF768FF05E07B680022DA607B68002225
:101540001A61C046BD4602B080BDFFFF80B582B0C3
:1015500000AF786039603B68FF2B16DC3B684E2B90
:1015600001D1002322E03B684F2B06D1114B18001C
:10157000FFF70FFF0300DBB218E03B68602B02D1DE
:101580007B685B7912E0002310E03A6880239B00BF
:101590009A420ADA074B1B6F1A003B6819001000C9
:1015A00006F094F803001B7800E000231800BD4605
:1015B00002B080BDA402001080B582B000AF786098
:1015C0000A00FB1C1A707B68FA1C12789A71C046DC
:1015D000BD4602B080BDFFFF80B584B000AFF860AB
:1015E000B9603B60FB1D1A703B6800221A70BB6833
:1015F000602B2AD1FB1D1B78C02B19D025DC962B24
:1016000020D022DC902B1FD01FDC122B02D01E2BEF
:1016100007D01AE0FB6812225A71FB680122DA71C6
:1016200013E0FB681E225A71FB680022DA710CE09D
:10163000FB681E225A71FB680022DA713B680122A6
:101640001A7002E0C04600E0C046BB68FF2B10DD08
:10165000BA6880239B009A420BDA084B1B6F1A0072
:10166000BB681900100006F031F80200FB1D1B7862
:101670001370C046BD4604B080BDC046A402001031
:1016800080B584B000AF78600F23FB187868C02263
:101690006021FFF7A1FFC046BD4604B080BD80B504
:1016A00084B000AFF860B960FB1D1A70BB680833E6
:1016B000FA1D12781A70BB680433FA1D12780832CA
:1016C000D2B21A70FB1D1B780E33DAB2BB681A70E7
:1016D000C046BD4604B080BDB0B588B000AF7860EC
:1016E00039603A687A4B11001800FEF7F7FD0300E5
:1016F0003B613B690533FB61FB6902331B781B02CD
:10170000FA69033212789B18FB60FB690A331B7875
:101710001B02FA690B3212789B18BB611723FB1866
:10172000FA69527A1A700B23FB1800221A70FB69AF
:1017300008331B784C2B07D000DDBBE0112B00D108
:10174000A0E0462B3ED0B5E01723FB181B780433EE
:10175000DAB239697B681800FFF7A1FFFB6908332B
:101760004B221A70FB690C33FB6117257B191B7820
:10177000002B13D0BB695A1CBA611A00FC69631CA8
:10178000FB617B6811001800FFF7E0FE0300237087
:101790007B191A787B19013A1A70E6E73A684D4BC3
:1017A00011001800FEF7E5FD03005A1E9341DBB25D
:1017B000002B00D185E03A68454B11001800FEF778
:1017C00066FD7EE0FB690C33FB6117243B191B7837
:1017D000002B16D00B203B181B78002B11D1BB69B6
:1017E0005A1CBA611900FB695A1CFA611A783B1835
:1017F0007868FFF7F1FE3B191A783B19013A1A7025
:10180000E3E70B23FB181B78002B34D039697B6886
:1018100001221800FFF743FF3B690D33FB61FB69B1
:101820005A1CFA61A0221A70FB695A1CFA61002244
:101830001A70FB695A1CFA6100221A70FB695A1C63
:10184000FA6100221A70FB695A1CFA6100221A70B0
:101850003A68204B11001800FEF78BFD03005A1E5A
:101860009341DBB2002B2ED03A68194B11001800BF
:10187000FEF70DFD27E03A68154B11001800FEF742
:1018800006FD20E0FB695A7A7B681A717B683A682A
:101890001A60114B586AFB6909331900FB689BB247
:1018A000013B9BB21A0003F08FFB7B681800FFF727
:1018B000DBFD09E03A68064B11001800FEF7E7FC73
:1018C00002E0C04600E0C046C046BD4608B0B0BD1C
:1018D0007400001014020010A402001080B58EB035
:1018E00000AF78603623FB1800221A707B689B7962
:1018F000002B03D17B68DB79002B11D0D84BDB6E3A
:101900001B791A00042313401FD0D54BDB6E1A79C4
:10191000D34BDB6E7C2149424A40D2B21A7114E0AB
:10192000CF4BDB6E1B791A00042313400DD1CC4B37
:10193000DB6E1A79CA4BDB6E7C2149424A40D2B237
:101940001A713623FB1801221A707B689B79002BD1
:101950000DD07B68DB79002B04D03723FB180022E5
:101960001A7008E03723FB1801221A7003E03723AE
:10197000FB1800221A70BA4B5B6A1800FFF7F1FCE3
:10198000031E00D152E17B681B7A01225340DBB277
:10199000002B00D198E07B689B79002B04D17B68F9
:1019A000DB79002B00D18FE0AE4B1800FEF746FC30
:1019B00003007B627B6A002B00DA81E07A6AA94B24
:1019C00011001800FEF78AFC03003B63A44B5B6A1E
:1019D0009B68DAB2396B7B681800FFF760FE3B6BDF
:1019E00002333B633B6B5A1C3A6301221A703B6B18
:1019F0005A1C3A6313221A703B6B01333B633B6BF7
:101A00005A1C3A6300221A703B6B5A1C3A63082234
:101A10001A703B6B5A1C3A6300221A703B6B0133FD
:101A20003B633B6B5A1C3A6301221A703B6B5A1C96
:101A30003A6301221A703B6B5A1C3A6300221A70F7
:101A40003B6B5A1C3A6300221A707B68DB79002BCF
:101A500001D0492100E0C9213B6B5A1C3A630A1CA2
:101A60001A700023FB627E4B5B6A9B680122111C8B
:101A7000FA6A9A4201DB0023191CCBB2002B0DD06D
:101A8000774B5B6A5A68FB6AD2183B6B591C396307
:101A900012781A70FB6A0133FB62E4E77A6A724BD0
:101AA00011001800FEF765FC03005A1E9341DBB2DB
:101AB000002B05D07A6A6B4B11001800FEF7E7FB8C
:101AC0007B681800FFF7D0FC3723FB181B78002B2E
:101AD00005D13623FB181B78002B00D19CE02B236B
:101AE000FB1800221A707B6800221A725C4B5B6A3A
:101AF0005B6803331B781A02594B5B6A5B680433DB
:101B00001B7813433B62564B5B6A5B6805331B785B
:101B10005BB2002B17DA3B6A002B0AD0504B9A6F4E
:101B20004F4B9B6F1B681B68396A10009847031E58
:101B300001DB012300E00023002B15D02B23FB1831
:101B400001221A7010E0464B1800FFF7B5F80300A9
:101B50001A003B6A9B1A5A425341DBB2002B03D056
:101B60002B23FB1801221A702B23FB181B78002B48
:101B700049D03623FB181B78002B21D03B4B1B6828
:101B8000FB61374B5B6A1800FFF7DEFB031E17D0C3
:101B9000364B1A68FB69D31A64229A429B415B4216
:101BA000DBB2002BEDD03623FB1800221A707B68C5
:101BB00000221A722A4B5B6A1800FFF7DFFBE0E78E
:101BC000274B5B6A1800FFF7CCFB031E2DD0244B7C
:101BD0005B6A1800FFF7B8FB03001A0001235340AB
:101BE000DBB2002B0BD01E4B5B6A59681C4B5B6A47
:101BF0009B68DAB21A4B180004F050FE15E07B68BF
:101C000001221A7211E07B6800221A72144B5B6A7F
:101C10001800FFF7B3FB08E07B6800221A72104B34
:101C20005B6A1800FFF7AAFB00E0C0467B681B68F0
:101C3000002B1DDB0A4B5B6A1800FFF785FB0300D6
:101C40001A0001235340DBB2002B11D07B681B7AB2
:101C500001225340DBB2002B0AD0012309E0C04629
:101C6000A40200107400001014020010A40300105D
:101C70000023002B29D07B681A68454B11001800FF
:101C8000FEF72CFB0300BB61BB690D334E221A70BB
:101C9000BB690E337A6812791A707B681A683D4BFB
:101CA00011001800FEF765FB03005A1E9341DBB2DA
:101CB000002B06D07B681A68354B11001800FEF720
:101CC000E6FA7B68012252421A607B681B68013386
:101CD00008D1314B1800FEF79BFB0300032B01D00A
:101CE000012300E00023002B2DD00823FA182A4BF3
:101CF00011001800FEF764FBBA68254B11001800AC
:101D0000FEF7ECFA03007B617B691B783B617B6922
:101D100004331B780333FB607B6902331B78012B90
:101D20000BD1FB6802333A699A4206D1BA687B68E4
:101D300011001800FFF7D0FC05E0BA68144B110041
:101D40001800FEF7A4FA154B1A687B689B69D31A32
:101D500009229A429B415B42DBB2002B13D00F4B0E
:101D60001A687B689A617B689B79002B03D17B683A
:101D7000DB79002B01D0012300E000237A681900F1
:101D80001000FFF792FBC046BD460EB080BDC046B6
:101D900074000010140200104C020010A403001084
:101DA00080B582B000AF786039607B68012B09D1C3
:101DB0003B68064A934205D1054A064B11001800BC
:101DC000FFF7F0FAC046BD4602B080BDFFFF00003D
:101DD00025423C002C03001080B500AF034B1900D6
:101DE0000120FFF7DDFFBD4680BDC046FFFF0000BC
:101DF00080B582B000AF0200FB1D1A70FB1D1B787E
:101E00001A001F23134001229A40034B1A60C04658
:101E1000BD4602B080BDC04600E100E080B582B0A2
:101E200000AF0200FB1D1A70FB1D1B781A001F2358
:101E3000134001229A401300034A19008023D15015
:101E4000C046BD4602B080BD00E100E080B582B072
:101E500000AF0200FB1D1A70FB1D1B781A001F2328
:101E6000134001229A401300044A190080235B00AA
:101E7000D150C046BD4602B080BDC04600E100E082
:101E800080B584B000AFF860B9607A603B60FB68F1
:101E9000BA681A60FB687A685A60FB683A689A60A8
:101EA000FB68BA69DA60FB681C22BA1812781A74E7
:101EB000FB682022BA1812785A74FB682422BA18D8
:101EC00012789A74FB68BA6ADA63FB68FA6A1A6471
:101ED000FB68012252429A62FB68012252425A6216
:101EE000FB6800225A61FB6800229A61FB680022AD
:101EF0009A63FB6800225A63FB68442200219954CC
:101F0000FB68452200219954FB681800BD4604B0C7
:101F100080BDFFFF90B58FB000AF78607B689B6895
:101F20004E4A1100180000F063FE7B680122524205
:101F30009A627B68012252425A627B6800225A618F
:101F40007B6800229A617B6800229A637B6800228A
:101F50005A637B681B68180005F0ECFF7B68186803
:101F60007B681B7C8122190006F057F87B681B6890
:101F70007B617B691B685A687B691B6801210A4386
:101F80005A60C0467B681B68BB61BB691B79103314
:101F9000DBB25BB21800FFF72BFFC0467B681C6802
:101FA0002F4B1B682F49180006F056FB0300013B1E
:101FB0003C62FB613B6A1B68FA69DA60C0467B6879
:101FC00018687B689B7C2022190005F0D7FF7B688E
:101FD0001B687A68927CFB62BA62234B7B62FB6A65
:101FE0001B6818331A00BB6A9B00D3187A6A1A6000
:101FF000C0467B681B687B631B4B3B637B6B1B682A
:102000003A6B9A60C0467B681B687A68927C3B6139
:10201000FA603B691B68DB6B0121FA6891400A009A
:1020200013405A1E9341DBB25A425341DBB2002B9C
:1020300000D0E8E77B68DB68E022D20111001800DD
:1020400000F0D6FD7B689B68084A1100180000F07C
:10205000CFFDC046BD460FB090BDC0461010000079
:102060000800001040420F00FFFF00003020000079
:1020700080B584B000AF78607B681B68FB60FB684C
:102080001B791033DBB25BB21800FFF7C7FEC04606
:102090007B68012252429A627B68012252425A6254
:1020A0007B6800225A617B6800229A617B6800226B
:1020B0009A637B6800225A637B68DB68074A1100D9
:1020C000180000F095FD7B689B68044A1100180019
:1020D00000F08EFDC046BD4604B080BD101000006B
:1020E00080B582B000AF78607B68442201219954AA
:1020F0007B681800FFF70EFF7B68180000F02CF8D3
:10210000C046BD4602B080BD80B582B000AF7860E9
:102110007B684422002199547B681800FFF7A8FFD0
:102120007B68180000F018F8C046BD4602B080BDBC
:1021300080B582B000AF78600A00FB1C1A707B6823
:10214000FA1C452112785A547B68180000F004F8F4
:10215000C046BD4602B080BD80B588B000AF786093
:102160007B6844229B5C002B60D07B68DB6B7A68C9
:102170004521525C110002220A40511E8A41D2B20E
:102180003B610F217B181A703B691F22134001220B
:102190009A401300BB607B181B78002B01D0BB68F2
:1021A00000E000233A695211032111402A4A8900B4
:1021B0008A58B96889008B50C0467B681B6C7A6866
:1021C0004521525C110001220A40511E8A41D2B2BF
:1021D000FB611B217B181A70FB691F22134001222F
:1021E0009A4013007B617B181B78002B01D07B6920
:1021F00000E00023FA69521103211140164A8900B8
:102200008A58796989008B50C0467B68DB6BC02295
:10221000D2011100180000F0EBFC7B681B6CC0229F
:10222000D2011100180000F0E3FC11E07B68DB6BC9
:102230000A4A1100180000F0DBFC7B681B6C074A9F
:102240001100180000F0D4FC7B684522032199544A
:10225000C046BD4608B080BDD48A00001010000002
:1022600080B500AF034B180000F006F8C046BD462D
:1022700080BDC0464C03001090B5B1B000AF78608F
:10228000BF23FB1800221A70BE23FB1800221A700D
:10229000BD23FB1800221A707B681B687A68127CC9
:1022A000A021781803609F203B181A707B181B68C8
:1022B0001B681B683A181278102191400A001340DD
:1022C0005A1E9341DBB2002B5ED07B6818687B6896
:1022D0001B7C0022190005F0A0FE7B685B69002BC7
:1022E0003FD17B681B687A68127C8C217818036068
:1022F00088203B181A607B181B681B682C331A0057
:102300003B181B689B00D3181B68B0203A18136059
:102310007B681A687B685B7C19003B181B68343348
:1023200098203C18226094243A19116090217A1860
:1023300013603B181B681B6818331A003B191B6895
:102340009B00D3187A1812681A60C0467B68186818
:102350007B685B7C0122190005F010FE7B680A2275
:102360005A617B681B687A68127C84217818036044
:1023700083203B181A703B181B7810229A407B1858
:102380001B681B681A60C0467B681B687A68527CB1
:10239000FB677B217B181A70FB6F1B681B687A1820
:1023A0001278012191400A0013405A1E9341DBB27A
:1023B000002B00D1CEE07B685B69002B0CD1BD23E4
:1023C000FB1801221A707B6818687B685B7C00220E
:1023D000190005F0D3FD7EE07B685B69012B2AD1F3
:1023E0007B6800225A617B689B687B677B6F5B110F
:1023F00003221A40B64B9200D3587A6F1F210A402D
:10240000012191400A009200D3585A1E9341DBB239
:10241000002B03D0BE23FB1801221A707B681868BA
:102420007B685B7C0022190005F0A8FDBF23FB1828
:1024300001221A704FE07B685B690A2B26D17B680A
:102440009B683B673B6F5B1103221A40A04B9200D5
:10245000D3583A6F1F210A40012191400A0092008F
:10246000D3585A1E9341DBB2002B34D07B68002234
:102470005A617B6818687B685B7C0022190005F054
:102480007DFDBF23FB1801221A7024E07B681B7FAF
:102490005B08DBB25AB27B689B68FB66FB6E5B1124
:1024A000032119408A4B8900CB58F96E1F20014047
:1024B0000120884001008900CB58591E8B41DBB2B6
:1024C000002B02D080235B4200E0002313435BB269
:1024D000DAB27B681A777B685B69012B2ADD7B683F
:1024E0001B687A68527CFB65BA65FB6D1B68183304
:1024F0001A00BB6D9B00D3181B68AC203A18136000
:102500007B681A687B685B7C19003B181B68683322
:10251000BA6679663B66BB6E1B6818331A007B6E21
:102520009B00D3183A6E1A60C0467B685B695A1EDE
:102530007B685A617B681B687A68527C7B65532193
:102540007B181A707B181B7801229A407B6D1B68E0
:102550001A60C0467B681B687A68927CFB644B21DA
:102560007B181A70FB6C1B681B687A1812780121A3
:1025700091400A0013405A1E9341DBB2002B00D158
:10258000B3E07B681B687A68927CFB63BA63FB6B81
:102590001B6818331A00BB6B9B00D3181B68B8224A
:1025A000BA1813607B681B687A68927C7B6443214D
:1025B0007B181A707B181B7801229A407B6C1B6871
:1025C0001A60C0467B689B69012B00D182E0B7216D
:1025D0007B1800221A707B689B690B2B10D07B68DC
:1025E0005B7F1A0001231A407B18511E8A411A7022
:1025F0007B685B7F5B08DBB2803BDAB27B685A7733
:10260000B822BB181B686833BA1813607B689B69D3
:102610005A1E7B689A617B689B69012B20D0B72387
:10262000FB181B787A68527F110001220A40511E64
:102630008A41D2B2934213D17B685B7F5B08DBB2E5
:10264000803BDAB27B685A77B822BB181B686833C4
:10265000BA1813607B689B695A1E7B689A61DAE737
:102660007B681B687A68927C7B633A63B823FB18AB
:102670001B68FB627B6B1B6818331A003B6B9B006B
:10268000D318FA6A1A60C0467B689B69012B16D082
:10269000B723FB181B78002B08D07B6818687B6871
:1026A0009B7C1122190005F069FC1EE07B6818680C
:1026B0007B689B7C2122190005F060FC15E07B689B
:1026C00018687B689B7C0122190005F057FC0CE020
:1026D000D48A00007B6800229A617B6818687B6856
:1026E0009B7C0022190005F049FCBF23FB181B78D6
:1026F000002B38D07B681B687A68527CFB61BA611A
:10270000FB691B6818331A00BB699B00D3181B6850
:10271000A8203A1813607B681A687B685B7C1900F4
:102720003B181B688220C00084466344BA62796209
:102730003B62BB6A1B6818331A007B6A9B00D31884
:102740003A6A1A60C0467B6818687B685B7C012225
:10275000190005F013FC7B6818687B681B7C8122DC
:10276000190005F05AFC7B685B6A002B00DA89E0EF
:102770007B689B69002B00D084E07B685B6B002B3F
:1027800035D07B681B68BB60BB681B689B6868337F
:10279000A4217A1813607B681B687A68927C7B613D
:1027A0003A617B181B68FB607B691B6818331A0051
:1027B0003B699B00D318FA681A60C0467B681868AA
:1027C0007B689B7C1122190005F0D8FB7B68DB6AD3
:1027D000591C7A68D1621A787B685A777B685B6B80
:1027E0005A1E7B685A637B680B229A614AE07B68B9
:1027F00018687B689B7C0022190005F00EFC7B6842
:102800005A6A634B11001800FDF768FD02007B68EF
:10281000DA627B68DB6A591C7A68D16205221A7019
:102820007B68DB6A5A1C7B68DA627B68DB6A591C4E
:102830007A68D16203221A707B68DB6A591C7A6855
:10284000D16203221A707B68DB6A591C7A68D162F4
:1028500000221A707B685A6A4E4B11001800FDF76F
:1028600088FD03005A1E9341DBB2002B06D07B6823
:102870005A6A474B11001800FDF709FD7B680122D9
:1028800052425A62BE23FB181B78002B41D07B6852
:102890009B6A002B2CDA3E4B1800FDF7CFFC0200A0
:1028A0007B689A627B689B6A002B21DB7B68002235
:1028B0009A637B689A6A364B11001800FDF70EFD8B
:1028C00002007B681A637B681B6B591C7A68116372
:1028D00003221A707B681B6B591C7A6811630022F3
:1028E0001A707B681B6B591C7A68116302221A707C
:1028F0007B689B6A002B0CDB7B681B6B591C7A681E
:1029000011637A68127F1A707B689B6B5A1C7B6814
:102910009A637B689B6B0F2B08DCBD23FB181B782D
:10292000002B30D07B689B6B002B2CDD7B689A6A78
:10293000174B11001800FDF7D1FC02007B681A63E9
:102940007B689B6BDAB27B681B6B0332D2B21A7066
:102950007B689A6A0F4B11001800FDF70AFD03000F
:102960005A1E9341DBB2002B06D07B689A6A084B53
:1029700011001800FDF78BFC7B68012252429A621D
:102980007B6800229A63C046BD4631B090BDC04608
:10299000740000101402001080B582B000AF78609F
:1029A0007B685B6ADB43DB0FDBB21800BD4602B01D
:1029B00080BDFFFF80B586B000AF786039607B686E
:1029C0001800FFF7E9FF031E01D0022350E03A6828
:1029D000294B11001800FDF781FC03007B611321D6
:1029E0007B187A6912781A700A00BB181B78012BC1
:1029F00003D9BB181B78432B01D9012338E07B682E
:102A00001B68BB60BB681B791033DBB25BB218007C
:102A1000FFF704FAC0463A68174B11001800FDF79B
:102A20005DFC02007B68DA627B68DB6A1B78DA1E79
:102A30007B685A637B68DB6ADA1C7B68DA627B68D6
:102A40003A685A627B681B68FB60FB681B7910332D
:102A5000DBB25BB21800FFF7CBF9C0467B685B685E
:102A6000DBB21033DBB25BB21800FFF7EFF90023E3
:102A70001800BD4606B080BD7400001080B584B05B
:102A800000AF78607B681800FFF786FF03001A002C
:102A900001235340DBB2002B31D01B4B1800FDF754
:102AA000B7FC0300033B5A1E9341DBB2002B26D038
:102AB0000823FA18144B11001800FDF781FC7B68FD
:102AC00044229B5C002B14D0BA687B68110018006C
:102AD000FFF770FF0300FB60FB68002B0FD0BA68A4
:102AE0000A4B11001800FDF7D2FB01235B42BB60CB
:102AF00005E0BA68054B11001800FDF7C8FBC04699
:102B0000BD4604B080BDC046300200107400001005
:102B100080B588B006AF786039607B68012B16D12C
:102B20003B680D4A934212D10C4A0D490D480E4B99
:102B300005930E4B04930323039300230293002376
:102B400001930B4B009313000222FFF799F9C04643
:102B5000BD4602B080BDC046FFFF000049C2010073
:102B6000B80300104C030010080233002A83300C15
:102B70000B41100680B500AF034B19000120FFF791
:102B8000C7FFBD4680BDC046FFFF000080B586B0D0
:102B900000AFF860B960BB1D1A801623FB18002235
:102BA0001A8016217A18BB1D0020125E00201B5EC1
:102BB0009A4215DA7B1800229B5E9B00BA68D318F4
:102BC0001B68FA689A4203D17B1800229B5E0BE0D7
:102BD00016217B181B8801339AB27B181A80E0E714
:102BE00005F072FB01235B421800BD4606B080BDB4
:102BF00080B588B000AF786039607B685B110322D4
:102C00001A40AA4B9200D3587B617B681F22134065
:102C100001229A401223FB181A803B689AB21023B3
:102C2000FB18120B12031A803B681B051B0DFB617E
:102C30003B689B141AB21A203B181F210A401A80C5
:102C40003B1800229B5E002B02D13B1801221A8008
:102C500010217B181A88C023DB019A4205D07B180B
:102C60001A88E023DB019A4218D17A6980231B027B
:102C7000D2581223FB181B881A4311007A6980234B
:102C80001B02D1501023FB181A88E023DB019A4263
:102C90005ED11A23FB1806221A8059E07A69802334
:102CA0001B02D3581222BA181288D2431A401100BC
:102CB0007A6980231B02D1501023FB181A888023C5
:102CC0009B019A4227D11A23FB1807221A807B689E
:102CD000774A934204D1774AC0230021D15037E08C
:102CE0007B68754A934204D1724AC0230121D150B6
:102CF0002EE07B68714A934204D16E4AD0230021B2
:102D0000D15025E07B686E4A934221D1694AD02395
:102D10000121D1501CE01023FB181A88C0239B010D
:102D20009A4204D11A23FB1802221A8010E01A23B7
:102D3000FB1800229B5E0F2B0AD162497B6804229C
:102D40001800FFF723FF03005A4A1900D423D1507B
:102D50001A23FB1800229B5E0C2B12D17B685A4A67
:102D6000934204D1534AC8230021D15069E07B68C3
:102D7000564A934200D064E04E4AC8230121D15004
:102D80005FE01A23FB1800229B5E0D2B11D17B689C
:102D90004F4A934204D1474ACC230021D15050E0FE
:102DA0007B684C4A93424CD1424ACC230121D150FA
:102DB00047E01A23FB1800229B5E0E2B2CD17B6868
:102DC000454A934204D13B4AB0230021D15038E018
:102DD0007B68424A934204D1364AB0230121D15044
:102DE0002FE07B683E4A934204D1324AB02302214D
:102DF000D15026E07B683B4A934204D12D4AC4233C
:102E00000021D1501DE07B68374A934219D1294AED
:102E1000C4230121D15014E01A23FB1800229B5E29
:102E20000B2B0ED17B68284A934203D1214B002201
:102E30009A6106E07B682D4A934202D11D4B012224
:102E40009A617A6880235B00134009D01A23FB182B
:102E500000229B5E022B03D0FB6980221343FB619F
:102E60001A22BB1800215B5E002B13D0BB18002276
:102E70009A5E7B681100180004F02CFE0300FB60D2
:102E8000FB68002B04DBFB68FA691343FB6101E07C
:102E900005F01AFA7B68180000F02AF80300FA69B6
:102EA0001A60C046BD4608B080BDC046D48A000046
:102EB00002C23A000040044063823D0025423C00CB
:102EC00049C20100C48A0000424265002A83300CD6
:102ED00043826D00298269000A4A70064B823B00DA
:102EE0000602700041C274006242350E44825900ED
:102EF00080B582B000AF78607B685B1103221A4016
:102F00007B681F210B401800074913005B009B18CA
:102F10009B001B185B005B5A044A944663449B0069
:102F20001800BD4602B080BDE48A00000010011008
:102F300080B582B000AF0200FB1D1A70BB1D0A1CD9
:102F40001A70FB1D1B781B021AB2BB1D1B781BB22B
:102F500013431BB29BB21800BD4602B080BD80B5C2
:102F600082B000AF78607B682022012199547B6891
:102F70000022DA61C046BD4602B080BD80B584B093
:102F800000AFF860B9607A603B600F4AFB681A6076
:102F90007A683B68D3181800FEF757F803001A0048
:102FA000FB689A60FB68BA68DA60FB687A681A6145
:102FB000BA687B68D3185A1EFB685A61FB68180010
:102FC000BD4604B080BDC046588C000090B585B0A9
:102FD00002AF78603960786880235C0080235A00F3
:102FE000396880235B000093230004F039FB044A16
:102FF0007B681A607B681800BD4603B090BDC04670
:10300000C88B000080B582B000AF78607B685B68D9
:103010001800BD4602B080BD80B582B000AF7860B8
:103020007B685B6801331800BD4602B080BD80B587
:1030300082B000AF78607B685B6802331800BD46E1
:1030400002B080BD80B582B000AF78607B685B68FD
:1030500003331800BD4602B080BD80B582B000AF1A
:1030600078607B685B6804331800BD4602B080BDA1
:1030700080B582B000AF78607B685B68053318006C
:10308000BD4602B080BD80B582B000AF78607B687D
:103090005B6806331800BD4602B080BD80B582B0C3
:1030A00000AF78607B685B6807331800BD4602B0EC
:1030B00080BD80B582B000AF78607B685B68083304
:1030C0001800BD4602B080BD80B582B000AF786008
:1030D0007B685B6809331800BD4602B080BD80B5CF
:1030E00082B000AF78607B685B680A331800BD4629
:1030F00002B080BD80B582B000AF78607B685B684D
:103100000B331800BD4602B080BD80B582B000AF61
:1031100078607B685B680C331800BD4602B080BDE8
:1031200080B582B000AF78607B685B680D331800B3
:10313000BD4602B080BD80B582B000AF78607B68CC
:103140005B680E331800BD4602B080BD80B582B00A
:1031500000AF78607B685B680F331800BD4602B033
:1031600080BD80B582B000AF78607B685B6810334B
:103170001800BD4602B080BD80B582B000AF786057
:103180007B685B6811331800BD4602B080BD80B516
:1031900082B000AF78607B685B6812331800BD4670
:1031A00002B080BD80B582B000AF78607B685B689C
:1031B00013331800BD4602B080BD80B582B000AFA9
:1031C00078607B685B6814331800BD4602B080BD30
:1031D00080B582B000AF78607B685B6815331800FB
:1031E000BD4602B080BD80B582B000AF78607B681C
:1031F0005B6816331800BD4602B080BD80B582B052
:1032000000AF78607B685B6817331800BD4602B07A
:1032100080BD80B582B000AF78607B685B68193391
:103220001800BD4602B080BD80B582B000AF7860A6
:103230007B685B68FF331800BD4602B080BDFFFFAE
:1032400080B582B000AF7860786880235A0003238D
:103250000021FFF793FE044A7B681A607B68180020
:10326000BD4602B080BDC046B88B000080B582B0BC
:1032700000AF78607B689B6862331800BD4602B07F
:1032800080BD80B582B000AF78607B689B68633397
:103290001800BD4602B080BD80B582B000AF786036
:1032A00039607B683A681100180002F0C3FD074AD4
:1032B0007B681A607B68064A143303CA03C312880A
:1032C0001A807B681800BD4602B080BD608D00008A
:1032D000448B000080B582B000AF7860034A7B6801
:1032E0001A607B681800BD4602B080BD448C0000A7
:1032F00080B582B000AF786039607B681800FFF756
:10330000E9FF054A7B681A607B683A685A607B6807
:103310001800BD4602B080BD388E000080B582B076
:1033200000AF7860024B1800BD4602B080BDC046B9
:10333000508B000090B583B000AF78600A00BB1CD2
:103340001A807B681A6F7B681B6F1B6858331B6879
:103350001000984703001C787B681A6F7B681B6F0E
:103360001B6858331B6810009847030001331B7813
:1033700019002000FFF7DCFD03001A00BB1C1B88AE
:103380009B1A5A1E9341DBB2002B23D0BB1C1B8817
:103390001B0A9CB27B681A6F7B681B6F1B685833D3
:1033A0001B68100098470300E2B21A707B681A6F1E
:1033B0007B681B6F1B6858331B681000984703001D
:1033C0000133BA1C1288D2B21A707B681B6F1800C6
:1033D000FFF7C5FD7A68BB1C1B881900100000F0C0
:1033E00025FBC046BD4603B090BDB0B584B000AF6C
:1033F000F860B9607A603B60FB681B680C331C683E
:10340000FB681A6FFB681B6F1B6858331B68100042
:10341000984703001D78FB681A6FFB681B6F1B68D9
:1034200058331B6810009847030001331B781900BC
:103430002800FFF77DFD03001A00FB68110018004B
:10344000A047FB68DB6E2E221A71FB68DA6EFB6800
:10345000DB6E1B681B6810009847030000221A707F
:10346000FB68DB6E01225A71FB681A6FFB681B6FE9
:103470001B6834331B68100098470300FF221A7042
:10348000FB681A6FFB681B6F1B6830331B681000EA
:103490009847030000221A70BB681C12FB681A6F61
:1034A000FB681B6F1B680C331B68100098470300F8
:1034B000E2B21A70FB681A6FFB681B6F1B6810334F
:1034C0001B68100098470300BA68D2B21A707B6874
:1034D0001C12FB681A6FFB681B6F1B6814331B6898
:1034E000100098470300E2B21A70FB681A6FFB687D
:1034F0001B6F1B6818331B681000984703007A681D
:10350000D2B21A70FB681A6FFB681B6F1B681C3302
:103510001B681000984703003A68D2B21A70FB6823
:103520001B6F0022DA61FB681B6848331C683B682C
:103530007A68B968F868A047FB68180000F04EFA8E
:10354000C046BD4604B0B0BD80B582B000AF786063
:103550007B681B7A01225340DBB2002B01D0002391
:103560001DE07B68DB6E1B791A0009231340082BD2
:1035700013D17B68DB6E5B79012B0ED17B681A6FF0
:103580007B681B6F1B6834331B681000984703006F
:103590001B78FF2B01D1012300E00023C046180057
:1035A000BD4602B080BDF0B5C64600B584B002AFDE
:1035B00078601820FDF73CFD03001D002800FFF790
:1035C0003FFE2420FDF734FD03001E007B68190038
:1035D0003000FFF7FBFC2020FDF72AFD0300984692
:1035E0007B6819004046FFF757FE0820FDF720FDD5
:1035F00003001C007B6819002000FFF779FE786843
:10360000009443463200290000F008F87B68180057
:10361000BD4602B080BCB846F0BDFFFF90B587B094
:1036200002AFF860B9607A603B60F8683C687A681D
:10363000B9683B6A0093230000F0A0F90E4AFB68CA
:103640001A60FB6800221A66FB68802252005A66E4
:10365000FB6803229A66FB68BA68DA66FB687A68D8
:103660001A67FB683A685A67FB683A6A9A67FB68A8
:103670001800BD4605B090BD608B000080B584B0D9
:1036800000AFF860B9607A603B60F8683B687A68C0
:10369000B96800F0D5FBC046BD4604B080BD90B50A
:1036A00083B000AF78600C0010001900FB1C221CD6
:1036B0001A70BB1C021C1A707B1C0A1C1A707B68D7
:1036C000B0221A70BB1C1A787B681100180000F039
:1036D0001CF8FB1C1A787B681100180000F045F8F4
:1036E0007B1C1A787B681100180000F06FF8C04648
:1036F000BD4603B090BD80B582B000AF78607B68F6
:103700001B781800BD4602B080BD80B582B000AF06
:1037100078600A00FB1C1A70FB1C1B78002B07D07A
:103720007B681B7820229343DAB27B681A7006E02C
:103730007B681B7820221343DAB27B681A70C0467C
:10374000BD4602B080BD80B582B000AF78607B68B6
:103750001800FFF7D0FF03009B08DBB203221340E1
:10376000DBB21800BD4602B080BD80B582B000AFAC
:1037700078600A00FB1C1A70FB1C1B789B00DAB2F5
:103780007B681B780C218B43DBB21343DAB27B6876
:103790001A70C046BD4602B080BD80B582B000AF91
:1037A00078600A00BB1C1A80BB1C1B881B0A9AB2DB
:1037B0007B680333D2B21A707B680433BA1C128858
:1037C000D2B21A70C046BD4602B080BD80B582B08C
:1037D00000AF78600A00FB1C1A70FB1C1B78012BE1
:1037E00007D17B681B787F221340DAB27B681A709E
:1037F00007E07B681B78802252421343DAB27B6871
:103800001A70C046BD4602B080BDB0B586B002AFEA
:10381000F860B9607A603B60FB681B680C331C6819
:103820003D687A68B968F86801235B4200932B0011
:10383000A047C046BD4604B0B0BD80B582B000AF61
:1038400078607B6820229B5C1800BD4602B080BD7A
:1038500080B582B000AF78607B685B681800BD46B9
:1038600002B080BD80B582B000AF786039607B68FF
:103870003A685A607B6800221A60C046BD4602B0B2
:1038800080BD80B582B000AF78600A00FB1C1A7062
:103890007B6806331A787B6806333C218A43D2B2B0
:1038A0001A707B6806331978FB1C1B789B00DAB210
:1038B0007B6806330A43D2B21A707B6806331A78E3
:1038C0007B68063340210A43D2B21A70C046BD4617
:1038D00002B080BD80B582B000AF78607B685B7C51
:1038E0005A1E9341DBB21800BD4602B080BD80B5C0
:1038F00082B000AF78600A00BB1C1A807B68BA1CDB
:1039000012885A84C046BD4602B080BD80B582B0E0
:1039100000AF78607B681800FFF7DCFF031E02D061
:103920007B685B8A00E000231800BD4602B080BDC2
:1039300080B582B000AF78607B681B7D5BB21800F9
:10394000BD4602B080BD80B582B000AF78607B68B4
:103950002C229B5CDBB2012B05D07B682C229B5C6C
:10396000DBB2002B05D17B68DB6C002B01D101237E
:1039700000E000231800BD4602B080BD80B584B0D1
:1039800000AFF860B9607A603B60FB68BA69B968FB
:10399000180000F071FF0F4AFB681A60FB687A6834
:1039A0005A64FB683A689A64FB680022DA64FB6830
:1039B00000221A65FB68542200219954FB682322D7
:1039C0009A65054B1A68FB68DA65FB681800BD4606
:1039D00004B080BD688C0000A403001080B582B0E4
:1039E00000AF78607B68180000F0A0FF7B6854226D
:1039F000012199540C4B1A687B68DA657B68232295
:103A00009A657B685B6A180001F096F97B68383329
:103A100001211800FFF726FF7B6801221A72C046B9
:103A2000BD4602B080BDC046A403001080B582B080
:103A300000AF78600A00BB1C1A807A68BB1C1B8828
:103A400019001000FFF753FFC046BD4602B080BD0D
:103A500080B58AB000AF78607B681B7A0122534042
:103A6000DBB2002B00D043E17B68180003F0D4FBED
:103A70007B685B6A1800FDF774FC031E1BD07B6833
:103A80005B6A1800FDF760FC03001A000123534035
:103A9000DBB2002B0FD07B685B6A2C229B5CDBB215
:103AA000012B08D17B681B6B1B791A000423134080
:103AB00001D0012300E00023002B0AD078687B6846
:103AC0005B6A59687B685B6A9B68DBB21A0002F02C
:103AD000E5FE7B689B6A002B71D07B689B6A864AF7
:103AE00011001800FFF784F87B6838331800FFF7DF
:103AF000AFFE03007B627B68383318007B689B6AEB
:103B00003B623B6A5B1103221A407C4B9200D35804
:103B10003A6A1F210A40012191400A009200D358BD
:103B20005A1E9341DBB23222190003F0EDFD031E51
:103B300004D17B6A002B01D0012300E00023002B7D
:103B400009D07B681B6B1A797B681B6B7F2149420C
:103B50004A40D2B21A717B689B6AC022D20111001E
:103B60001800FFF745F87B689A6A7B681B6B1B7926
:103B70001900012319407B68DB6ACB1A591E8B415F
:103B8000D9B2FA611B203B180A1C1A70FB691F226C
:103B9000134001229A4013007B613B181B78002BD5
:103BA00001D07B6900E00023FA6952110321114022
:103BB000524A89008A58796989008B50C0467B68CF
:103BC00054229B5C002B0DD07B685B6A1800FDF7CC
:103BD000BBFB03001A0001235340DBB2002B01D0D2
:103BE000012300E00023002B2FD07B68DB6D3B61BD
:103BF000434B1A683B69D11A7B689A6D0023914246
:103C00005B41DBB2002B0AD07B689B6C180002F092
:103C1000B9FA031E03D03A4B1A687B68DA657B68F1
:103C2000DB6DFB60364B1A68FB68D11AFA23DA00A9
:103C3000002391425B41DBB2002B06D07B68DB6D39
:103C4000FA2292009A187B68DA657B685B6C180030
:103C5000FFF7F3FD031E13D07B685B6A1800FFF7C4
:103C600072FE031E0CD07B685B6A9B68002B07D139
:103C70007B681800FFF74AFE031E01D1012300E014
:103C80000023002B35D07B685B6CDB69002B28D0D0
:103C90001B4B1B681A007B685B6CDB69D31ADA1755
:103CA000D31ADB0FDBB2002B23D07B681B6D002BFC
:103CB00008D07B681A6D7B681B6D1B681B6802212E
:103CC000100098477B685B6C180003F013FC7B685E
:103CD000DB6C002B0DD07B68DB6C180003F0ECFF75
:103CE00007E0074B1A687B685B6C3232DA6100E0F0
:103CF000C046BD460AB080BD10100000D48A000046
:103D0000A403001080B584B000AFF860B9607A6099
:103D10003B60BB68602B08D13B68012B05D1FB6879
:103D20001B6B7A6812781A7138E0FB681B6BDB68D2
:103D3000BA68D31ABB60BB68602B04D8BA683B680A
:103D4000D3185F2B0AD8FB681B6B9A68BB68D31823
:103D50003A687968180004F043FD1FE03B685A1E7A
:103D60003A605A1E9341DBB2002B17D0BB68602B20
:103D700005D1FB681B6B7A6812781A7107E0FB6843
:103D80001B6B9A68BB68D3187A6812781A707B68C4
:103D900001337B60BB680133BB60DFE7BD4604B025
:103DA00080BD80B584B000AFF860B9607A603B60D8
:103DB000BB68602B08D13B68012B05D1FB681B6BEE
:103DC0001A797B681A7038E0FB681B6BDB68BA688D
:103DD000D31ABB60BB68602B04D8BA683B68D318A1
:103DE0005F2B0AD8FB681B6B9A68BB68D1183A68CE
:103DF0007B68180004F0F4FC1FE03B685A1E3A6030
:103E00005A1E9341DBB2002B17D0BB68602B05D143
:103E1000FB681B6B1A797B681A7007E0FB681B6BE9
:103E20009A68BB68D3181A787B681A707B6801336C
:103E30007B60BB680133BB60DFE7BD4604B080BD7B
:103E400080B584B000AFF860B9607A603B60C0466E
:103E5000BD4604B080BDB0B584B000AFF8600800C6
:103E600011007B600A243B19021C1A8008257B196B
:103E70000A1C1A80FB68986C7B1919883B191A88F0
:103E8000F0239B001A407B68FFF7BFFC012318005A
:103E9000BD4604B0B0BD90B585B000AFF860080075
:103EA0007A6019000A243B19021C1A800923FB18A6
:103EB0000A1C1A70FB68180000F054FE031E22D082
:103EC0003B191B88C02B13D1FB681B680C331B6884
:103ED0007A6808321278120211B27A6809321278BE
:103EE00012B20A4312B291B2FA68100098470AE07F
:103EF0000A23FB181A8880235B009A4203D1FB68CF
:103F0000180000F0E5FD01231800BD4605B090BD86
:103F100090B587B002AFF860B9607A603B60B9686D
:103F20003B687A68F8680024009400F01EF80300EB
:103F30001800BD4605B090BDF0B589B002AFF8607D
:103F4000B9607A603B60B9681726BC193B687A682B
:103F5000F8680125009500F008F803002370BB19EC
:103F60001B781800BD4607B0F0BDF0B58DB002AFAC
:103F7000F860B9607A603B603A68BB68D318013B6F
:103F8000BB612723FB1800221A703B68002B01D16C
:103F90000023AFE127217B181B78002B00D0A5E17F
:103FA000BA68BB699A4200D9A0E17B1801221A7055
:103FB000FB68DB6C002B00D1A4E0FB68D86CFB68CD
:103FC000DB6C1B680C331B68B968BA699847031E21
:103FD00036D02626BB1900221A70382308229B18D7
:103FE000DB191B78002B12D0FB68D86CFB68DB6CEC
:103FF0001B6804331C68B9683B687A680025009523
:10400000A0470200BB1951424A411A700FE0FB68F9
:10401000D86CFB68DB6C1B681C68B9683B687A6805
:10402000A04702002623FB1851424A411A7026235A
:10403000FB181B78002B01D001235BE1002359E121
:10404000FB68DA6CFB68DB6C1B6808331B68B968BB
:1040500010009847031E55D000233B623A6A3B6824
:104060009A424FDAFB68DA6CFB68DB6C1B6808333A
:104070001B68B9681F257C1910009847030023703E
:104080007B191B78002B29D0382308229B18DB19B9
:104090001B78002B12D0FB68D86CFB68DB6C1B68AC
:1040A00004331C68B9687A68002300930123A04791
:1040B00002007B1951424A411A700FE0FB68D86C2C
:1040C000FB68DB6C1B681C68B9687A680123A04731
:1040D00002001F23FB1851424A411A701F23FB188C
:1040E0001B78002B0DD0BB680133BB607B680133AC
:1040F0007B602723FB1800221A703B6A01333B6266
:10410000ACE7C046BA68BB699A4200D983E0FB6855
:104110005B6CDB68BA689A4236D3FB685B6C5B69A0
:10412000BA699A4230D2382308229B18DB191B78CF
:10413000002B11D0FB685B6C5A68FB685B6CDB681A
:10414000B968CB1AD118BA69BB68D31A5A1C7B68F4
:10415000180004F045FB15E0FB685B6C5A68FB68CF
:104160005B6CDB68B968CB1AD018BA69BB68D31A24
:104170005A1C7B68190004F033FBFB685B6C180069
:10418000FEF7EDFE0123B5E0FB685B6CDB68BA6807
:104190009A4240D3FB685B6C5B69BA689A423AD238
:1041A000FB685B6C5A69BB68D31A7B6138230822B1
:1041B0009B18DB191B78002B0ED0FB685B6C5A68D0
:1041C000FB685B6CDB68B968CB1AD1187A697B68CD
:1041D000180004F005FB12E0FB685B6C5A68FB6892
:1041E0005B6CDB68B968CB1AD3187A6979681800F8
:1041F00004F0F6FAFB685B6C1800FEF7B0FE7B6912
:10420000BA68D318BB607B697A68D3187B602723B0
:10421000FB1800221A70BA68BB699A4260D8FB6822
:104220001B6BDB68BA689A4205D3FB681B6B5B6942
:10423000BA699A4205D9BB68602B1ED1BB69602B55
:104240001BD1382308229B18DB191B78002B09D0BF
:10425000BA69BB68D31A01337A68B968F868FFF79E
:10426000A0FD08E0BA69BB68D31A01337A68B9685F
:10427000F868FFF747FD01233CE0FB681B6BDB6838
:10428000BA689A422CD3FB681B6B5B69BA689A4286
:1042900026D8FB681B6B5A69BB68D31A01333B6194
:1042A000382308229B18DB191B78002B06D03B69AA
:1042B0007A68B968F868FFF774FD05E03B697A68C9
:1042C000B968F868FFF71EFD3B69BA68D318BB6090
:1042D0003B697A68D3187B602723FB1800221A7089
:1042E000BA69BB68D31A01333B6053E63B685A4254
:1042F0005341DBB21800BD460BB0F0BDF0B589B03C
:1043000002AFF8600C00100019000A257B19221C6E
:104310001A800823FB18021C1A80FB1D0A1C1A7045
:104320001623FB1800221A703B6B00221A707B19AF
:104330001B88AD4A934200D134E1AB4A934200DD81
:1043400045E1AA4A934200D111E1A84A934200DD17
:104350003DE1E0229200934200D100E1E022920090
:10436000934200DD33E1C0229200934200D1E0E0AD
:10437000C0229200934200DD29E1A02292009342E4
:104380003CD0A0229200934200DD20E1C0225200E6
:10439000934204D08022920093422FD017E17B6B8E
:1043A00007331A7813243B193F210A401A70172546
:1043B0007B197A6B127A1A70FB685B68053364228A
:1043C0001A70FB6858683B191A78E0235B001900E3
:1043D00004F0BDF8FB685B6808337A1912781A702C
:1043E000FB685B68093300221A70FB685B680A335C
:1043F00000221A703B6B01221A70EEE07B6B0733D0
:104400001A7817257B190F210A401A707B6B083325
:104410001A787B6B09331B781426BC19190010001D
:10442000FEF786FD030023800A23FB181A88A023C9
:104430009B009A4234D1FB681B6840331C68BB194F
:1044400019887B6B0A331A007B191B78F868A04720
:10445000031E21D0FB681B6838331B68FA68100004
:10446000984703001F2B0FD9FB681A6BFB681B6B67
:104470001B681B681000984703001B781A00042370
:10448000134001D0012300E00023002B04D00A23B5
:10449000FB18802292001A801623FB18C2221A7081
:1044A0000A23FB181A8880239B009A4200D093E0CD
:1044B000FB681B6844331C681423FB181988FB68CD
:1044C0005B680A331A0017257B191B78F868A04728
:1044D00003001A0001235340DBB2002B02D07B19EA
:1044E00000221A70FB685B68053317217A1812786E
:1044F0006332D2B21A70FB6858687B181A7890231E
:104500009B00190004F023F814217B181B881B0A58
:104510009AB2FB685B680833D2B21A70FB685B68BA
:1045200009337A181288D2B21A703B6B01221A70C2
:1045300052E07B6B07331B781A003F231A40FB685D
:104540001100180000F056F8031E03D03B6B012247
:104550001A7042E01623FB18C3221A703DE0FB6874
:104560001B6830331B68FA681000984735E0FB1D64
:104570001A787B6B08331C787B6B09331B78796B5B
:10458000F8680093230000F06FF8031E06D0FB6864
:104590001B6830331B68FA68100098473B6B012298
:1045A0001A701AE0FB685B68053362221A70FB68B8
:1045B0005B680F490022180003F0C9FFFB685B68C5
:1045C000083300221A703B6B01221A7005E0162393
:1045D000FB18C3221A7000E0C0461623FB181B7894
:1045E0001800BD4607B0F0BDD103000081030000F4
:1045F000D203000080B582B000AF786039603B68BC
:10460000002B01D000232AE07B685B68053363221E
:104610001A707B685B68D02291000022180003F0BA
:1046200096FF7B681B6838331B687A6810009847D0
:1046300003001B0A9AB27B685B680833D2B21A7017
:104640007B681B6838331B687A6810009847030042
:104650001A007B685B680933D2B21A700123180014
:10466000BD4602B080BDFFFF90B587B000AFF860D7
:10467000B9601900FB1D1A70BB1D0A1C1A70282393
:10468000FB181A78BB1D1B781100180003F087FF78
:1046900003001A0001235340DBB2002B01D000239A
:1046A0009EE0FB685C68BB681800FFF74CF80300ED
:1046B0001900002300222000FEF7F1FFFB685C6870
:1046C000FB681800FFF722F9030019002000FFF72C
:1046D00064F8FB685B68053364221A70FB685B68EA
:1046E00041490022180003F032FFFB685C68FB6858
:1046F0001800FFF71DF90300DBB219002000FFF7D7
:10470000C0F8FB685B68083300221A70FB685B68BE
:10471000093300221A70FB685B680A3301221A70A1
:1047200080235B057B617B69304A1A60FC68FB680B
:104730001800FFF7EBF803001A00FB1D1B785BB2B3
:10474000C221200002F0FEFAFB685B6A1800FFF746
:10475000FAF803001A0001235340DBB2002B00D00B
:10476000F2E7FB68586AFB685968FB685B680533C9
:104770001B789BB20F2213409BB207339BB21A00E7
:1047800000F022FCFB685B6A1800FFF7DCF803000E
:104790001A0001235340DBB2002B00D0F2E7FC6883
:1047A000FB681800FFF7B2F803001A00002381210C
:1047B000200002F0C7FAFB685B6A1800FFF7C3F835
:1047C00003001A0001235340DBB2002B00D0F2E7B4
:1047D000FB681B6830331B68FA6810009847012398
:1047E0001800BD4607B090BDA103000055B01F5E84
:1047F00080B582B000AF78607B681B6D002B08D05D
:104800007B681A6D7B681B6D1B681B68012110009B
:1048100098477B685B6C180002F06CFE7B68DB6C71
:10482000002B04D07B68DB6C180003F045FA7B6832
:10483000180000F0D1F9C046BD4602B080BDFFFFB0
:1048400080B500AFBFF34F8FC046034B034ADA6019
:10485000BFF34F8FC046FEE700ED00E00400FA050D
:1048600080B500AF034B1B68180000F0C1FEC046C6
:10487000BD4680BD9403001090B589B004AFF860C8
:10488000B9607A60FC68FB68180000F07CF90300EE
:10489000DBB21900200001F083FF1E4AFB681A609A
:1048A0007C20FCF7C5FB03001C001B481B4AF96871
:1048B0000023029300230193194B0093030020006F
:1048C00000F0E4F9FB685C62FB68164A9A62FB68D8
:1048D0000122DA62FB68BA681A63FB687A685A6375
:1048E000FB683833180002F003FFFB685A6A0E4B6E
:1048F0001A60FB689B6A180003F05AFDFB685B6A4C
:104900001B6A180003F062FDFB681800BD4605B085
:1049100090BDC046C08C000028C20100B00300104A
:104920002982690040825C009403001080B582B047
:1049300000AF78607B68180001F06EFF7B685B6AEF
:10494000180000F0F9F97B68383301211800FEF7F0
:1049500089FF7B6801221A72C046BD4602B080BD45
:1049600080B588B000AF78607B68180002F054FC16
:104970007B685B6A1800FCF7F4FC031E1BD07B68A5
:104980005B6A1800FCF7E0FC03001A0001235340A7
:10499000DBB2002B0FD07B685B6A2C229B5CDBB206
:1049A000012B08D17B681B6B1B791A000423134071
:1049B00001D0012300E00023002B0AD078687B6837
:1049C0005B6A59687B685B6A9B68DBB21A0001F01E
:1049D00065FF7B689B6A002B71D07B689B6A3A4AB3
:1049E00011001800FEF704F97B6838331800FEF751
:1049F0002FFF0300FB617B68383318007B689B6ADC
:104A0000BB61BB695B1103221A40304B9200D35843
:104A1000BA691F210A40012191400A009200D3582F
:104A20005A1E9341DBB23222190002F06DFE031EC2
:104A300004D1FB69002B01D0012300E00023002BEF
:104A400009D07B681B6B1A797B681B6B7F214942FD
:104A50004A40D2B21A717B689B6AC022D20111000F
:104A60001800FEF7C5F87B689A6A7B681B6B1B7998
:104A70001900012319407B68DB6ACB1A591E8B4150
:104A8000D9B27A6113203B180A1C1A707B691F2265
:104A9000134001229A401300FB603B181B78002B47
:104AA00001D0FB6800E000237A6952110321114014
:104AB000064A89008A58F96889008B50C046C0466A
:104AC000BD4608B080BDC04610100000D48A00006A
:104AD00080B582B000AF78607B6858680023002200
:104AE0000021FEF7DCFD7B685B6800211800FEF703
:104AF00054FE7B685B680533E1221A707B685B6853
:104B0000A02251000022180003F021FDFA231B010E
:104B1000180003F0A9F9FA231B01180003F0A4F907
:104B20000F4B1B682821180003F01CFE0B001A0015
:104B300013009B009B185B001A00FA231B019B1AB1
:104B4000180003F091F97B68586A7B685B6808225B
:104B5000190000F039FAC046BD4602B080BDC0461B
:104B6000A403001080B582B000AF78607B681B6B37
:104B70001B791A00012313405A1E9341DBB218001F
:104B8000BD4602B080BD80B582B000AF786018230A
:104B90001800BD4602B080BD80B582B000AF78601D
:104BA0007B685B6A1800FCF7E9FBC046BD4602B0B3
:104BB00080BD80B584B000AFF860B960BB1D1A80BD
:104BC000FB68586ABB1D1A88BB68190000F0FCF925
:104BD000C046BD4604B080BD80B582B000AF7860ED
:104BE000FFF72EFEC046BD4602B080BD80B582B044
:104BF00000AF0200FB1D1A70FB1D1B781A001F235B
:104C0000134001229A40034B1A60C046BD4602B0D1
:104C100080BDC04600E100E080B582B000AF7860A2
:104C20000A00FB1C1A707B68FA1C12785A75C04681
:104C3000BD4602B080BDC04680B582B000AF78608E
:104C40000A00FB1C1A707B68FA1C12781A75C046A1
:104C5000BD4602B080BDC04680B582B000AF78606E
:104C60000A00BB1C1A80BB1C1B881B0A9AB27B68FB
:104C70000133D2B21A707B680233BA1C1288D2B2E6
:104C80001A70C046BD4602B080BDC04680B584B033
:104C900000AFF860B9607A603B60FB68BA681A6080
:104CA000FB681A68FB681B681B6834331B681000BC
:104CB000984703001800FCF7C8F903001A00FB68C6
:104CC0005A60FB687A689A61FB683A68DA61FB6847
:104CD000BA691A62FB681C22BA18242112785A5445
:104CE000FB682022BA18252112785A54FB681A68EA
:104CF000FB681B681B6834331B681000984703006F
:104D00001800FCF7A2F903001A00FB685A65FB685B
:104D100025229B5C0233DBB203221340D9B2FB682D
:104D200026229954FB682C2200219954FB68180014
:104D3000BD4604B080BDC04690B595B000AF786068
:104D40007B681B681800FBF7B7FF03005A4253410A
:104D5000DBB2002B0AD07B681B6818007B681B68DD
:104D60001B680C331B68724A110098477B6803224A
:104D70005A637B680322DA637B6800229A607B684F
:104D800000229A627B680022DA647B6800221A653E
:104D90007B687422002199547B682C22002199544D
:104DA0007B689B69180003F0C5F87B689B697A688B
:104DB0002521525CBB617A61BB691B685A6F012176
:104DC0007B6999400B001900BB691B680A435A674D
:104DD000C0467B6898697B6824229B5C812219000D
:104DE00003F01BF97B689B69FB61FB691B685A68D0
:104DF000FB691B6801210A435A60C0467B689B69B6
:104E00003B623B6A1B791033DBB25BB21800FFF7E1
:104E1000EDFEC0467B689C69464B1B6846491800FE
:104E200003F01AFC0300013BBC627B62BB6A1B6897
:104E30007A6ADA60C0467B689B69FB62FB6A1B6822
:104E40005A68FB6A1B6802210A435A60FB6A1B68A6
:104E50005A68FB6A1B6802218A435A60C0467B6815
:104E60009B697A682621525CBB637A63334B3B6350
:104E7000BB6B1B6818331A007B6B9B00D3183A6B13
:104E80001A60C0467B6898697B6826229B5C032277
:104E9000190003F073F87B689B697A682521525CDE
:104EA0007B643A64224BFB637B6C1B6818331A00EB
:104EB0003B6C9B00D318FA6B1A60C046204B1A68F3
:104EC0007B689A677B689B69FB64194BBB64FB6CCE
:104ED0001B68BA6C9A60C0467B689B697A6825211A
:104EE000525C3B61FA603B691B68DB6B0121FA682D
:104EF00091400A0013405A1E9341DBB2013B5A42D3
:104F00005341DBB2002B00D0E6E77B681B6AE0224E
:104F1000D20111001800FDF76BFE7B68DB69094ABE
:104F200011001800FDF764FEC046BD4615B090BDE7
:104F3000FFFF00000800001040420F005014000066
:104F4000A40300102020000080B586B000AFF860F8
:104F5000B960BB1D1A80FB681B681800FBF7ACFE2C
:104F600003001A00BB6811001800FFF775FE172335
:104F7000FB18FF221A701423FB1800221A80142039
:104F80003A18BB1D12881B889A4210D23B181B8806
:104F9000BA68D31819781722BB18BA1812784A4081
:104FA0001A703B183A18128801321A80E7E7BB1DC5
:104FB0001B88BA68D3181722BA1812781A70C0461C
:104FC000BD4606B080BDC04680B58AB000AFF8606F
:104FD000B960BB1D1A80BB1D1A88B968FB68180030
:104FE000FFF7B2FFFB681B6D002B00D0FAE7FB68F0
:104FF000DB6C002B03D1FB68BA68DA6409E0FB685C
:105000001B6D002B03D1FB68BA681A6501E003F041
:105010005BF972B6C046C046FB682C229B5CDBB2D3
:10502000013B5A425341DBB2002B37D0FB680022D0
:105030001A63FB6800229A63FB687322002199546B
:10504000FB68702200219954FB682C220621995498
:10505000FB689B69FA682621525CFB61BA610123F7
:105060007B61FB691B6818331A00BB699B00D3186E
:105070007A691A60C046FB689869FB6826229B5CC7
:105080000322190002F07AFFFB689B697B62002310
:105090003B627B6A1B683A6A9A60C04662B6C04649
:1050A000C046C046BD460AB080BDC04680B588B087
:1050B00000AF78607B6898697B6824229B5C8122C2
:1050C000190002F0AAFF7B6898697B6826229B5C26
:1050D0000222190002F052FF7B689B697A68262140
:1050E000525C3B61FA60154BBB603B691B6818332F
:1050F0001A00FB689B00D318BA681A60C0467B6828
:105100009B697A682521525CFB61BA610C4B7B611B
:10511000FB691B6818331A00BB699B00D3187A69B6
:105120001A60C0467B682C22012199547B680022BA
:105130009A62C046BD4608B080BDC046FEFF000072
:10514000FFFF000090B58BB000AF78600A00FB1C39
:105150001A707B6800229A62D04B7B627B682C229B
:10516000062199547B681B6C072B1CDDFB1C1B78EC
:10517000002B18D07B685B6D1B78DBB21A00D32341
:105180001340902B0FD17B681C6C7B681A687B687E
:105190001B681B6834331B681000984703009C424F
:1051A00001DA012300E00023002B00D12BE17B6812
:1051B0005B6D03331B78DBB21A027B685B6D0433D3
:1051C0001B78DBB213437B612323FB1800221A7088
:1051D0007B685B6D05331B78DBB25BB2DBB2DB094E
:1051E000DBB2002B19D07B69002B0CD07B681B68CD
:1051F0005A6B7B681B685B6B1B681B6879691000C6
:105200009847031E01DB012300E00023002B16D08A
:105210002323FB1801221A7011E07B681B68180019
:10522000FBF74AFD03001A007B699B1A5A4253415F
:10523000DBB2002B03D02323FB1801221A707B68FA
:105240001B681B6B1B791A00042313401AD12323FC
:10525000FB1801221A707B681B681B6B1B791A00F4
:10526000022313400ED07B685B6D1B78DBB21A0003
:10527000022313405A1E9341DBB2002B02D07B68FD
:10528000CC229A622323FB181B78002B00D14AE121
:105290002223FB1800221A707B689A6F804B1B68D0
:1052A00006339A4209D87B685B6D1B78DBB21A0023
:1052B0002023134001D1012300E00023002B37D02D
:1052C0007B685B6D1B78DAB27B685B681B78534048
:1052D000DBB21A0020239A4313005A425341DBB237
:1052E000002B25D00123FB617B681B6CFA699A4275
:1052F0000EDA7B685A6DFB69D3181B78DAB27B68CB
:105300005968FB69CB181B789A4201D1012300E050
:105310000023002B03D0FB690133FB61E4E77B68CA
:105320001B6CFA699A4203DB2223FB1801221A70D4
:105330002223FB181B7801225340DBB2002B00D143
:10534000F1E07B689B685A1E9341DBB2002B0DD0C5
:105350007B68C0229A627B686C229B5A9BB2802237
:10536000134399B27B686C2299523CE00023BB61E5
:105370007B681B6CBA699A420EDC7B685A6DBB690C
:10538000D2187B685968BB69CB181278D2B21A70F0
:10539000BB690133BB61EBE77B681A6C7B689A6081
:1053A0007B686C229B5A9BB21A007B68DA607B6830
:1053B0006C22002199527B6801211800FFF73CFC08
:1053C000374B1A687B689A677B685B6D1B78DBB22A
:1053D0001A00402313405A425341DBB2002B02D043
:1053E0007B68CC229A627B689B6A5A1E9341DBB22F
:1053F000002B00D197E07B682C2205219954B6231D
:10540000DB007B628FE07B681B6C012B00D075E0BA
:105410007B681B6E002B00D170E07B685B6CFF2209
:105420001A407B685A647B6870229B5C002B00D119
:1054300079E07B685B6CCC2B0BD07B681A6B7B684C
:105440005B6B9A4205DA7B689A6B7B68DB6B9A42EE
:1054500001DB012300E00023002B23D07B681A6BC3
:105460007B685B6B9A4205DA7B689A6B7B68DB6BC7
:105470009A4201DB012300E00023002B09D07B6866
:105480006E229B5A9BB28022134399B27B686E2294
:1054900099527B68180000F073F844E0E8130000AC
:1054A000A40300107B685B6CC02B14D1334B7B6270
:1054B0007B686E229B5A9BB21022134399B27B6881
:1054C0006E2299527B687122012199547B68732264
:1054D0000121995427E07B686E229B5A9BB20422DB
:1054E000134399B27B686E2299527B687122002126
:1054F00099547B6873220121995414E07B687422CB
:105500009B5C002B04D07B687422002199540AE034
:105510007B686C229B5A9BB280225200134399B243
:105520007B686C2299527B6898697B6826229B5C19
:105530000322190002F022FD7B6898697B6824220F
:105540009B5C8122190002F068FD7B689A697B6888
:1055500026215B5C19007B6A3A61F960BB603B699C
:105560001B6818331A00FB689B00D318BA681A60CE
:10557000C046C046BD460BB090BDC046883C00004A
:1055800080B582B000AF78607B686E229B5A9BB278
:105590001A007B681A617B686E22002199527B6831
:1055A00001211800FFF738FB7B68DB6C002B03D070
:1055B0007B68DB6C00221A707B681A6D7B68DA648A
:1055C0007B6800221A657B6800221A637B680022D0
:1055D0009A637B6800229A647B6870220021995448
:1055E0007B68732200219954C046BD4602B080BD3D
:1055F00070B5242345464E46D646984660B504000D
:105600002C25B14E83B0625DD3B20E2A00D9BCE224
:105610009B00F3589F4642461023A25CA06993402A
:10562000026812681A4200D16EE302236355EAE76A
:1056300024201023205CA26983401268116819425B
:1056400000D1A2E200239360A3691B68FF221A60C5
:1056500003B070BCB246A946A04670BD24221025F6
:10566000A25CA16995400B6818680542EED004E081
:1056700024231025E25CA169954000237420236453
:105680002354083823520020A36201336366FE339B
:10569000A3668C3BE054086803681D4200D18CE28D
:1056A0001F260425E3691E40B5405B06874E9B0F0D
:1056B0009B009B59EB58002B05D06C200125235AE9
:1056C0002B4323520868030092002C339A188568F4
:1056D0001368AB4202D37E4A944665440222EB1A19
:1056E000012542600A6802335560A26926201268CB
:1056F0009360A269215C1268890013008F2218331D
:105700005B18D2001A60215C0322A06902F036FC0B
:1057100024238122E15CA06902F07FFC00232C217C
:105720000420A269A56525666364E3656054136877
:105730008CE724221023A25CA169934008680568C5
:105740001D42ADD1A36E002B00D036E2616E4B1E20
:105750009941C9B22000FFF7F5FCA3691B6875E702
:105760002623E35C0122984610004546A840A16923
:105770008C4609680B680340581E83416846DBB2BB
:10578000C370C3780330002B00D032E224231F25DE
:10579000E35C2C319B00C9180B684C490193E36909
:1057A0001D40AA405B069B0F9B005B589200D3589C
:1057B000002B04D06C220821A35A0B43A352E36DA3
:1057C000019A19004431914200DB28E26822914697
:1057D00099444A460199E2654432914200DC3FE235
:1057E0008025A26DD0336D0011E0216E99464E42A6
:1057F00071411E002166616C443611436164019958
:105800005200E365A26568338E4200DB29E2AA42BA
:10581000EBDD019B5200A2650378002B00D1F1E182
:10582000236C002B00D02DE2626C910705D06C2018
:105830008021255A890029432152616D581CCB18BB
:105840002621D2B220641A70A36E626CA069534004
:10585000A366635C84469846236E002B04D16C21BA
:105860001020625A02436252626E414613406366E0
:105870002C220323A3546346880026211E686E321F
:105880001836361852003260615C0122A06902F0BD
:1058900075FB24238122E15CA06902F0BEFBA369B1
:1058A0001B68D3E642461023A25CA06993400268BD
:1058B00012681100194089461A4200D161E20023A2
:1058C000A362023363559EE6F88C0000D48A000080
:1058D000FFFF000043468122E15CA06902F09DFBCE
:1058E000A06941460368615C1A6810238B401A4224
:1058F00000D09AE6226B636B9A4203DAA26BE36BE9
:105900009A4207DB6E228021A35A20000B43A35248
:10591000FFF736FEE36C002B00D136E10F22732136
:105920005879615C02400832A26400290ED020221E
:10593000197811420AD0197891431970A16CE36C5F
:1059400001395B1819784A401A70E36C1A7892068C
:1059500000D442E21B785B0700D43EE2D0235B0018
:10596000019325222620A369A25C1B68019992005D
:1059700018339B181960A369215C1B68019A890080
:1059800018335B1823321A60215C0322A06902F0ED
:10599000F5FA24238122E15CA06902F03EFB00239A
:1059A0006E202C22072123642352A154A3691B6873
:1059B0004CE643461021E35CA069994089464A467B
:1059C0009A4603681968114200D1C9E15246920013
:1059D00091462C22252194464A46615C9C448900CC
:1059E000624418335B1811688C46196807396145A1
:1059F00000D902E111681A68103A8A4200D850E1D1
:105A0000A26A002A00D14CE10222D04919606255F5
:105A1000F9E5A069A36A002B00D1D5E0A56A656409
:105A2000EB0703D580235B005D406564AB0703D5BE
:105A300080235B005D4065646B0703D580235B00BA
:105A40005D4065642B0703D580235B005D40656482
:105A5000EB0603D580235B005D406564AB0603D590
:105A600080235B005D4065646B0603D580235B008B
:105A70005D4065642B0603D580235B005D40656453
:105A800001222C230121A2650832E254073A68233F
:105A9000019329420DD08026760007E0019B4A0041
:105AA0006833A2650193154275D01100B142F5DD4E
:105AB0004A00019BA265682B02DD2C230A21E154D8
:105AC00080239B009A420ADD226CA36C9A4200DA82
:105AD00083E02C230C22E254019B453301932C23B9
