:100000000020001049010000D1010000D9010000CA
:100010000000000000000000000000000DDBFFEF0A
:10002000000000000000000000000000E1010000EE
:100030000000000000000000E9010000015C000079
:10004000F9010000F9010000F9010000F9010000C8
:10005000F9010000F9010000F9010000F9010000B8
:10006000F9010000F9010000F9010000F9010000A8
:10007000F9010000F9010000F9010000F901000098
:10008000F9010000313A000035200000F9010000BC
:10009000F90100004505000000000000000000001C
:1000A000F9010000F9010000F90100000000000062
:1000B000F9010000F9010000F9010000F901000058
:1000C000FC620000000000100400000004000010AA
:1000D000D005000080B588B000AFF860B9607A60E4
:1000E000BB68FB61FB68BB6100237B610AE0FB69C5
:1000F0001A1DFA61BA69111DB96112681A607B692B
:1001000004337B617A697B689A42F0D3BD4608B0BC
:1001100080BDC04680B584B000AF786039607B6830
:10012000FB600023BB6007E0FB681A1DFA60002239
:100130001A60BB680433BB60BA683B689A42F3D369
:10014000BD4604B080BDC04680B584B000AF1D4B35
:10015000FB6016E0FB681A1DFA601B68BB60FB6859
:100160001A1DFA601B687B60FB681A1DFA601B6829
:100170003B60B9687A683B68081C111C1A1CFFF7C1
:10018000A9FFFA68104B9A42E4D30FE0FB681A1DEE
:10019000FA601B687B60FB681A1DFA601B683B6095
:1001A0007A683B68101C191CFFF7B4FFFA68074B0C
:1001B0009A42EBD305F052FE05F02AFF05F0C0FB92
:1001C000FEE7C046C0000000CC000000D4000000E4
:1001D00080B500AFFEE7C04680B500AFFEE7C04681
:1001E00080B500AFFEE7C04680B500AFFEE7C04671
:1001F00080B500AFFEE7C04680B500AFFEE7C04661
:1002000080B582B000AF78607B68181C00F006F8FB
:100210007B68181CBD4602B080BDC04680B584B066
:1002200000AF78600023FB600AE07968CC235B00B4
:10023000FA688A18D31800221A70FB680133FB6031
:10024000FB68052BF1DDBD4604B080BD80B584B0F0
:1002500000AF78600023FB6018E07968CC235B0076
:10026000FA688A18D3181B7801225340DBB2002B9E
:1002700009D07968CC235B00FA688A18D318012268
:100280001A70FB6807E0FB680133FB60FB68052B15
:10029000E3DD01235B42181CBD4604B080BDC046AF
:1002A00080B582B000AF786039603B68002B02DB1C
:1002B0003B68052B02DD01235B4214E07968CC2307
:1002C0005B003A688A18D3181B78002B09D079682C
:1002D000CC235B003A688A18D31800221A700023D6
:1002E00001E001235B42181CBD4602B080BDC04640
:1002F00080B582B000AF786039603B68002B02DBCC
:100300003B68052B01DD002306E03A68131C1B0146
:100310009B189B007A68D318181CBD4602B080BD9C
:1003200080B582B000AF786039607B68012B07D15F
:100330003B68054A934203D1044B181CFFF760FF4A
:10034000BD4602B080BDC046FFFF000004000010A3
:1003500080B500AF034B0120191CFFF7E1FFBD463C
:1003600080BDC046FFFF000080B582B000AF78605E
:100370007B6800225A617B6800229A617B68181CA6
:10038000BD4602B080BDC04680B582B000AF786087
:1003900039607B68181C00F059F8031C023B5A4274
:1003A0005341DBB2002B01D0022310E07B689A6935
:1003B0007B6892003968D1507B689B697A68101C11
:1003C000191C00F05FF8021C7B689A610023181C5E
:1003D000BD4602B080BDC04680B582B000AF786037
:1003E00039607B68181C00F01FF8031C033B5A425D
:1003F0005341DBB2002B01D0032311E07B685A6923
:100400007B689200D2583B681A607B685B697A68A7
:10041000101C191C00F036F8021C7B685A6100237E
:10042000181CBD4602B080BD80B582B000AF7860B8
:100430007B685A697B689B699A4201D1032300E07B
:100440000023181CBD4602B080BDC04680B582B0F6
:1004500000AF78607B689B697A68101C191C00F0FB
:1004600011F8021C7B685B69D31A5A425341DBB214
:10047000002B01D0022300E00023181CBD4602B06F
:1004800080BDC04680B582B000AF786039603B68FF
:1004900001333B603B68042B01DD002300E03B6837
:1004A000181CBD4602B080BD80B582B000AF786038
:1004B00039607B68012B13D13B680B4A93420FD103
:1004C0000A4B181CFFF750FF094B181CFFF74CFF95
:1004D000084B181CFFF748FF074B181CFFF744FF99
:1004E000BD4602B080BDC046FFFF0000A401001061
:1004F000C0010010DC010010F801001080B500AF51
:10050000034B0120191CFFF7CFFFBD4680BDC0463D
:10051000FFFF000080B582B000AF021CFB1D1A7007
:10052000074AFB1D1B78191C1F230B400121994012
:100530000B1C191C80235B00D150BD4602B080BD4E
:1005400000E100E080B500AF024B181C00F0ACF8F1
:10055000BD4680BD1402001080B586B000AFF860C3
:10056000B960FB1D1A701323FB1815221A70464A36
:100570001323FB181B78191C1F230B4001219940E2
:100580000B1C191C8023D150FB68012252425A6176
:10059000FB68012252429A61FB6801225242DA61F1
:1005A000FB680022DA60FB6800229A72FB68FA1D81
:1005B00012785A72354A364B101C191C02F020FA78
:1005C000344A354B101C191C02F01AFA3349334ACD
:1005D0008023D35880225201134380228B502F4A0C
:1005E00098230121D1502E4B8322DA602B4B9A6F36
:1005F0002C4B1B685343191C284A9823D358081CBA
:10060000191C05F073FC031C1A09BB68101C191C8B
:1006100005F06CFC031C7B61214B7A69120A5A605D
:100620001F4B7A69FF210A401A601D4B0322DA60D2
:100630001B4B87229A601A4B00221A61184B184AEA
:10064000526801210A435A6002E0154B1B687B6126
:10065000134B5B69012213405A1E9341DBB2002BFE
:10066000F3D11223FB1815221A70074B1222BA1865
:100670001278111C1F220A40012191400A1C1A60A5
:10068000BD4606B080BDC04600E100E026C2330092
:1006900000103C002702340000604000008004404D
:1006A000008000400000001080B588B000AF786086
:1006B000CB4B5B680222134006D0C94B5B692022FA
:1006C000134001D0012300E00023002B2FD07B68D2
:1006D000DB68002B0AD17B68012252425A61C04B71
:1006E000BF4A526802218A435A6020E01023FB610E
:1006F0007B68DB680F2B02DC7B68DB68FB617B6857
:10070000DA68FB69D21A7B68DA6007E0B4497B6873
:100710001B68581C7A6810601B780B60FB695A1EB6
:10072000FA61DA17D31ADB0FDBB2002BEED11B23F1
:10073000FB1800221A70AA4B9B680E2213400C3B38
:100740005A425341DBB2002B03D01B23FB1801227A
:100750001A70A34B5B69012213405A1E9341DBB20E
:10076000002B00D184E17B685B7A002B00D176E01E
:100770007B68DB69002B06DA9A4B181CFFF766FDD5
:10078000021C7B68DA617B68DB69002B5ADB7B68C3
:10079000DB69944A101C191CFFF7AAFD021C7B6838
:1007A0005A607B6800221A617B685B6803337B6157
:1007B0000BE07B695A1C7A61894A1268D2B21A70BE
:1007C0007B681B695A1C7B681A61854B5B69012237
:1007D000134005D07B681B693F2B01DC012300E03F
:1007E0000023002BE5D17B685B68591C7A68516057
:1007F0007A681269D2B20332D2B21A707B685B682F
:10080000591C7A68516000221A707B685B6802226A
:100810001A707B68DB69744A101C191CFFF7B4FD61
:10082000031C5A1E9341DBB2002B06D07B68DB69A8
:100830006C4A101C191CFFF733FD7B6801225242E1
:10084000DA610BE001E0664B1B68654B5B690122D6
:1008500013405A1E9341DBB2002BF4D108E17B68B0
:100860009B7A002B20D01B23FB181B78002B0FD06A
:1008700001E05B4B1B685A4B5B69012213405A1E17
:100880009341DBB2002BF4D17B6800229A720AE01C
:1008900000233B6104E0524B1B683B6901333B6121
:1008A0003B69062BF7DDE3E07B68DB69002B43DA6D
:1008B0004B4B1A680B23FB181A700B23FB181B7881
:1008C000012B04D90B23FB181B78432B03D97B681E
:1008D00001229A7230E0434B181CFFF7B7FC021C50
:1008E0007B68DA617B68DB69002B03DA7B680122B5
:1008F0009A7221E07B68DB693A4A101C191CFFF7E9
:10090000F7FC021C7B685A607B680B22BA181278CD
:100910001A727B685B68591C7A6851600B22BA189E
:1009200012780B217918501E08701A700B23FB18CF
:100930001A787B681A61FFE77B689B7A0122534033
:10094000DBB2002B00D193E083E07B685A68244B34
:100950001B68DBB213707B685B68591C7A68516056
:100960001B787A68127AD318DAB27B681A727B68BD
:100970001B695A1E7B681A617B681B69002B68D152
:100980007B681B7AFF2B4DD17B68DB69154A101CF5
:10099000191CFFF7ADFC021C7B685A600123FB6049
:1009A0007B685B6802331B78012B09D17B68DB69AC
:1009B0000E4A101C191CFFF7E7FC031CFB6026E025
:1009C0007B685B6802331B78022B11D17B68DB6983
:1009D000054A101C191CFFF7D7FC031CFB6016E02E
:1009E0000080004004000010C0010010DC01001075
:1009F0007B685B6802331B78032B08D17B68DB695B
:100A00001D4A101C191CFFF7BFFC031CFB60FB6890
:100A1000002B06D07B68DB69184A101C191CFFF7F5
:100A20003FFC12E07B68DB69144A101C191CFFF7BD
:100A300037FC134B5B69012213405A1E9341DBB212
:100A4000002B02D07B6801229A727B6801225242FD
:100A5000DA610B4B5B690122134005D07B68DB69CF
:100A6000002B01DB012300E00023002B00D06CE70A
:100A7000BD4608B080BDC046F8010010040000105B
:100A80000080004080B582B000AF78607B685B6911
:100A9000DB43DB0FDBB2181CBD4602B080BDC04695
:100AA00080B584B000AF786039607B68181CFFF7B0
:100AB000E9FF031E01D00223A0E0524A3B68101C4C
:100AC000191CFFF715FC031CFB600B23FB18FA68CD
:100AD00012781A700B23FB181B78012B04D90B23F7
:100AE000FB181B78432B01D9012387E00A23FB184D
:100AF0000B22BA1812781A700B23FB180B22BA18A3
:100B00001278023A1A707B685B7A01225340DBB29A
:100B1000002B21D0FB680233FB600AE0FB685A1C03
:100B2000FA6019780A23FB180A22BA1812788A1870
:100B30001A700B23FB181B780B22BA18591E117060
:100B40005A1E9341DBB2002BE8D10A23FB180A227C
:100B5000BA181278D2431A700923FB1815221A709A
:100B6000294A0923FB181B78191C1F230B4001215C
:100B700099400B1C191C8023D150224A3B68101C41
:100B8000191CFFF7B5FB021C7B681A607B681B68A9
:100B90001B781A1C7B68DA607B685B7A002B0AD0B2
:100BA0007B681B68DA1C7B681A607B68DB68DA1E6E
:100BB0007B68DA6006E07B681B6801330A22BA189A
:100BC00012781A707B683A685A61104B0F4A526863
:100BD00002210A435A600823FB1815221A700A4B97
:100BE0000822BA181278111C1F220A4001219140D4
:100BF0000A1C1A601520FFF78DFC0023181CBD4647
:100C000004B080BD0400001000E100E0008000405E
:100C100080B586B000AF78601723FB1800221A70E9
:100C20007B68181CFFF72EFF031C1A1C012353407E
:100C3000DBB2002B49D07B689B69002B0ADB7B6809
:100C40009B69254A101C191CFFF72AFB7B680122AF
:100C500052429A61214B181CFFF7E6FB031C033B31
:100C60005A1E9341DBB2002B2FD07B6818331B4AEE
:100C7000101C191CFFF7B0FB7B689B69164A101CFF
:100C8000191CFFF735FB031C3B613B6902331B78E2
:100C9000022B03D11723FB1801221A707B689B6972
:100CA0007A68101C191CFFF7FBFE031CFB60FB6835
:100CB000002B0AD07B689B69074A101C191CFFF7A0
:100CC000EFFA7B68012252429A611723FB181B78C6
:100CD000181CBD4606B080BD04000010A401001021
:100CE00080B584B000AFF860B9607A603B60F868A6
:100CF000B9687A683B6802F0C5FEBD4604B080BDA5
:100D000080B582B000AF7860024BDB6A181CBD462C
:100D100002B080BD9802001080B582B000AF78604C
:100D20007B68181C02F08EFE7B68034A1A607B68A1
:100D3000181CBD4602B080BD5062000080B582B074
:100D400000AF124B181C022101220123FFF7C8FF3C
:100D50000E4B181CFFF7D4FF031C7B607B68002B35
:100D600003D07B680A4A934205D1084B094A181CF4
:100D7000111C02F015FF084AE1235B02101C191C2C
:100D80000022FFF7E9FBBD4602B080BD340200102F
:100D9000FFFF0000011100001402001080B500AF39
:100DA00000F002F8BD4680BD80B500AF094B181CAD
:100DB000FFF72EFF084B181C00F080FC074B181C97
:100DC00001F062FD064B181C00F060F830BFBD4614
:100DD00080BDC04614020010100300103003001044
:100DE00004030010B0B584B002AF786039607B684E
:100DF000012B1DD13B68104A934219D10F4B1A1C8D
:100E00006423101C00211A1C05F064F90B4B181CFC
:100E1000FFF782FF0A490B4A0B4D0C4C002300934D
:100E200000230193081C111C2A1C231C02F0B4FF90
:100E3000BD4602B0B0BDC046FFFF00003402001046
:100E400098020010A005001028C201002982690044
:100E500080B500AF034B0120191CFFF7C3FFBD464F
:100E600080BDC046FFFF000080B582B000AF786053
:100E70007B6800221A607B6800225A607B6800222F
:100E80001A727B68181CBD4602B080BD80B588B060
:100E900000AF7860854B181CFFF7C6FA031C033BB4
:100EA0005A1E9341DBB2002B00D190E07F4A0C2305
:100EB000FB18101C191CFFF78FFAFB687C4A101CEA
:100EC000191CFFF715FA031CFB61FB691B78BB615A
:100ED000FB6902331B78032B00D072E0BB69052B42
:100EE00000D06EE0734B1B68C333FF331A1C7B6862
:100EF0005A60FB6903331B78022B02D0032B57D0B7
:100F00005FE0FB6904331B78022B08D002DC012B65
:100F100016D056E0032B28D0042B37D051E07B6845
:100F20001B7A022B0BD0644B181C002100F030FA06
:100F3000624B181C00F0D2FF7B6802221A7236E066
:100F40007B681B7A012B0FD05B4B181C00F080FADA
:100F5000594B181C002100F01BFA584B181C00F0CC
:100F6000BDFF7B6801221A7221E07B681B7A032B8C
:100F70000BD0514B181C012100F00AFA4F4B181CE2
:100F800000F0ACFF7B6803221A7210E07B681B7ACA
:100F9000042B0BD0484B181C002100F0F9F9474BEB
:100FA000181C00F087FF7B6804221A72C04608E014
:100FB000FB6904331B78414A101C191C00F0A2FF86
:100FC000C046FB683A4A101C191CFFF769F9394BF7
:100FD0001A687B685B68D31A002B05DD7B681B7A77
:100FE000002B01D0012300E00023002B0FD0324B57
:100FF000181C00F02DFA304B181C002100F0C8F925
:101000002E4B181C00F06AFF7B6800221A72294BD5
:101010001A687B681B68D31ADA17D31ADB0FDBB2A6
:10102000002B40D0224B181CFFF710F9031C7B61EA
:101030007B69002B31DB1E4A7B69101C191CFFF7F2
:1010400057F9031C3B613B695A1C3A6105221A702F
:101050003B6901333B613B695A1C3A6103221A70B8
:101060003B695A1C3A6101221A703B695A1C3A6169
:101070007A68127A1A70124A7B69101C191CFFF7E1
:1010800083F9031C5A1E9341DBB2002B05D0084A9A
:101090007B69101C191CFFF703F9064B1B68C8334A
:1010A0001A1C7B681A60BD4608B080BDF8010010AC
:1010B000040000109405001010030010300300100D
:1010C000A401001080B582B000AF786039607B6801
:1010D000012B07D13B68054A934203D1044B181CEE
:1010E000FFF7C2FEBD4602B080BDC046FFFF000054
:1010F0000403001080B500AF034B0120191CFFF75B
:10110000E1FFBD4680BDC046FFFF000080B582B054
:1011100000AF7860024BDB6A181CBD4602B080BD90
:101120009802001080B582B000AF78607B68DB6CFD
:101130005A1E9341DBB2181CBD4602B080BDC046AA
:1011400080B582B000AF78607B689B695A1E93417E
:10115000DBB2181CBD4602B080BDC04680B582B06F
:1011600000AF78607B6800229A61BD4602B080BD06
:1011700080B582B000AF786039603B68013BFF3BCF
:101180007A68D318181CBD4602B080BD80B582B005
:1011900000AF786039607B68012252421A607B6838
:1011A00000229A717B680022DA717B6800221A7231
:1011B0007B681E225A717B6801221A777B683A6825
:1011C0005A617B685A69C023DB01101C191C01F0AD
:1011D00017FC7B68181C002100F008F87B680022CF
:1011E0009A617B68181CBD4602B080BD80B586B090
:1011F00000AF78600A1CFB1C1A707B685B69FA1CE4
:10120000127801214A40D2B27B611323FB181A7075
:101210007B691F22134001229A40131CFB607B69EB
:101220005B1103221A40084B9200D2581323FB187B
:101230001B78002B01D0FB6800E00023F9688900CF
:101240008B50BD4606B080BDD461000080B582B031
:1012500000AF78607B681B7F002B14D07B68DB6855
:10126000012B10DC7B68DB68002B04D17B68181C29
:101270000021FFF7BBFF7B68DB689A1C7B68DA60A4
:101280007B680A221A61BD4602B080BD80B582B07B
:1012900000AF78600A1CFB1C1A707B681B7FFA1C6D
:1012A00012789A420AD07B68FA1C12781A777B6807
:1012B0001B7F7A68101C191CFFF798FF7B681B7F47
:1012C000002B29D07B68DB68002B2BD07B681B6947
:1012D000002B04DD7B681B695A1E7B681A617B68E2
:1012E0001B69002B1ED17B68DB685A1E7B68DA60A5
:1012F0007B68DB68002B15DD7B680A221A617B683E
:10130000DB68012213405A1E9341DBB27A68101C3D
:10131000191CFFF76BFF05E07B680022DA607B6831
:1013200000221A61BD4602B080BDC04680B582B0C1
:1013300000AF786039603B68FF2B11DC3B684E2BB7
:1013400001D100231BE03B684F2B01D1122316E093
:101350003B68602B02D17B685B7910E000230EE0D4
:101360003B68094A934209DC084B1A683B68101C29
:10137000191CFFF7FDFE031C1B7800E00023181C5E
:10138000BD4602B080BDC046FF010000B062000053
:1013900080B582B000AF78600A1CFB1C1A707B68B5
:1013A000FA1C12789A71BD4602B080BD80B584B037
:1013B00000AFF860B9603B60FB1D1A703B6800220B
:1013C0001A70BB68602B29D1FB1D1B78902B22D093
:1013D00004DC122B07D01E2B0CD01FE0962B1CD048
:1013E000C02B0ED01AE0FB6812225A71FB68012252
:1013F000DA7113E0FB681E225A71FB680022DA7171
:101400000CE0FB681E225A71FB680022DA713B680F
:1014100001221A7002E0C04600E0C046BB68FF2B04
:101420000EDDBB68084A93420ADC084B1A68BB68A9
:10143000101C191CFFF79CFE021CFB1D1B7813706F
:10144000BD4604B080BDC046FF010000B062000090
:1014500080B584B000AF78607A680F23FB18101C49
:101460006021C022FFF7A2FFBD4604B080BDC04688
:1014700080B584B000AFF860B960FB1D1A70BB681E
:101480000833FA1D12781A70BB680433FA1D1278FB
:101490000832D2B21A70FB1D1B780E33DAB2BB6869
:1014A0001A70BD4604B080BD90B589B000AF7860B9
:1014B00039607F4A3B68101C191CFEF719FF031C9A
:1014C0003B613B690533FB61FB6902331B781B02FF
:1014D000FA69033212789B18FB60FB690A331B78A8
:1014E0001B02FA690B3212789B18BB611723FB1899
:1014F000FA69527A1A700B23FB1800221A70FB69E2
:1015000008331B78462B46D04C2B03D0112B00D12F
:10151000ABE0C3E01723FB181B780433DBB2796818
:101520003A69081C111C1A1CFFF7A2FFFB6908335B
:101530004B221A70FB690C33FB6114E0FC69631CDD
:10154000FB61BB695A1CBA611A1C7B68181C111C10
:10155000FFF7ECFE031C23701723FB181A781723E0
:10156000FB18013A1A701723FB181B78002BE5D1E2
:10157000504A3B68101C191CFEF706FF031C5A1E3C
:101580009341DBB2002B05D0494A3B68101C191C63
:10159000FEF786FE88E0FB690C33FB6115E0BB6952
:1015A0005A1CBA611C1CFB695A1CFA611A787968CA
:1015B0000B23FB18081C211CFFF7F8FE1723FB1850
:1015C0001A781723FB18013A1A701723FB181B7897
:1015D000002B07D00B23FB181B7801225340DBB2F2
:1015E000002BDCD10B23FB181B78002B35D07A683D
:1015F0003B69101C191C0122FFF73AFF3B690D33B0
:10160000FB61FB695A1CFA61A0221A70FB695A1C23
:10161000FA6100221A70FB695A1CFA6100221A70E2
:10162000FB695A1CFA6100221A70FB695A1CFA61A4
:1016300000221A701F4A3B68101C191CFEF7A4FEFA
:10164000031C5A1E9341DBB2002B0DD0184A3B6895
:10165000101C191CFEF724FE06E0154A3B68101CFE
:10166000191CFEF71DFE1FE01EE0FB695A7A7B681D
:101670001A717B683A681A60FB6909331A1CFB68A7
:101680009BB2013B9BB20C49081C111C1A1C03F0B5
:10169000AFFA7B68181CFFF7D9FD05E0044A3B68E8
:1016A000101C191CFEF7FCFDBD4609B090BDC046DC
:1016B00004000010A40100109802001080B58EB044
:1016C00000AF78603623FB1800221A707B689B7984
:1016D000002B03D17B68DB79002B1DD0D74B1A6818
:1016E00080235B00D35CDBB21A1C042313405A1E18
:1016F0009341DBB2002B0ED0D04B1A68CF4B196848
:1017000080235B00CB5CDBB27C2149424B40D9B2E9
:1017100080235B00D15420E0C84B1A6880235B0013
:10172000D35CDBB21A1C042313405A425341DBB290
:10173000002B12D0C14B1A68C04B196880235B0084
:10174000CB5CDBB27C2149424B40D9B280235B00A9
:10175000D1543623FB1801221A707B689B79002B29
:101760000DD07B68DB79002B04D03723FB180022D7
:101770001A7008E03723FB1801221A7003E03723A0
:10178000FB1800221A70AE4B181CFFF7D9FC031E81
:1017900000D13AE17B681B7A01225340DBB2002B77
:1017A00000D195E07B689B79002B04D17B68DB79C5
:1017B000002B00D18CE0A34B181CFEF747FD031C47
:1017C0007B627B6A002B00DA7EE09E4A7B6A101CFB
:1017D000191CFEF78DFD031C3B63994B9B69DBB223
:1017E00079683A6B081C111C1A1CFFF741FE3B6B11
:1017F00002333B633B6B5A1C3A6301221A703B6B0A
:101800005A1C3A6313221A703B6B01333B633B6BE8
:101810005A1C3A6300221A703B6B5A1C3A63082226
:101820001A703B6B5A1C3A6300221A703B6B0133EF
:101830003B633B6B5A1C3A6301221A703B6B5A1C88
:101840003A6301221A703B6B5A1C3A6300221A70E9
:101850003B6B5A1C3A6300221A703B6B5A1C3A636A
:101860007A68D279002A01D0492200E0C9221A7090
:101870000023FB620AE03B6B5A1C3A637049FA6A28
:101880008A1812781A70FB6A0133FB626C4B9A69F2
:101890000123191CFB6A9A4201DC0023191CCBB2FC
:1018A000002BE8D1684A7B6A101C191CFEF76CFDFE
:1018B000031C5A1E9341DBB2002B05D0614A7B6AA0
:1018C000101C191CFEF7ECFC7B68181CFFF7BEFC13
:1018D0003723FB181B78002B05D13623FB181B7808
:1018E000002B00D189E02B23FB1800221A707B68A3
:1018F00000221A72524BDB781B02514A12791343B1
:101900003B624F4B5B79DBB25BB2002B12DA3B6A76
:10191000002B05D03B6A181C01F016FA031E01DBF0
:10192000012300E00023002B14D02B23FB180122FD
:101930001A700FE0424B181CFFF7E8FB021C3B6AD1
:10194000D31A5A425341DBB2002B03D02B23FB188E
:1019500001221A702B23FB181B78002B44D036234E
:10196000FB181B78002B1FD0384B1B68FB6115E060
:10197000364B1A68FB69D31A64229A429B415B4238
:10198000DBB2002B0AD03623FB1800221A707B68CA
:1019900000221A722A4B181CFFF7E0FB284B181C78
:1019A000FFF7C0FB031EE3D1254B181CFFF7C8FB54
:1019B000031E18D0224B181CFFF7B4FB031C1A1C83
:1019C00001235340DBB2002B09D0214B1B681B685D
:1019D00004331A681E4B1B68181C904703E07B6891
:1019E00001221A7208E007E07B6800221A72144B89
:1019F000181CFFF7B3FB08E007E07B6800221A72AF
:101A00000F4B181CFFF7AAFBFFE77B681B68002B36
:101A100020DB0B4B181CFFF785FB031C1A1C012352
:101A20005340DBB2002B15D07B681B7A0122534058
:101A3000DBB2002B0ED001230DE0C046AC620000EB
:101A40009802001004000010A4010010940500107A
:101A5000C06100000023002B29D07B681B68444A2A
:101A6000101C191CFEF744FC031CBB61BB690D3341
:101A70004E221A70BB690E337A6812791A707B682D
:101A80001B683C4A101C191CFEF77EFC031C5A1EE6
:101A90009341DBB2002B06D07B681B68344A101CD4
:101AA000191CFEF7FDFB7B68012252421A607B681D
:101AB0001B68013308D1304B181CFEF7B5FC031E20
:101AC000032B01D0012300E00023002B2DD02A4A54
:101AD0000823FB18101C191CFEF77EFCBB68244A67
:101AE000101C191CFEF704FC031C7B617B691B782E
:101AF0003B617B6904331B780333FB607B690233F2
:101B00001B78012B0BD1FB689A1C3B699A4206D1CA
:101B1000BB687A68101C191CFFF7C6FC05E0BB689F
:101B2000134A101C191CFEF7BBFB144B1A687B6888
:101B30009B69D31A09229A429B415B42DBB2002B7C
:101B400013D00E4B1A687B689A617B689B79002BD7
:101B500003D17B68DB79002B01D0012300E0002357
:101B60007A68101C191CFFF791FBBD460EB080BDB2
:101B700004000010A4010010DC0100109405001006
:101B800080B582B000AF786039607B68012B09D1E5
:101B90003B68064A934205D1054B064A181C111CA6
:101BA000FFF7F4FABD4602B080BDC046FFFF00005B
:101BB0001003001025423C0080B500AF034B01200C
:101BC000191CFFF7DDFFBD4680BDC046FFFF0000CA
:101BD00080B582B000AF021CFB1D1A70064BFA1DC7
:101BE0001278111C1F220A40012191400A1C1A6020
:101BF000BD4602B080BDC04600E100E080B582B0C5
:101C000000AF021CFB1D1A70074AFB1D1B78191C34
:101C10001F230B40012199400B1C191C8023D1501C
:101C2000BD4602B080BDC04600E100E080B582B094
:101C300000AF021CFB1D1A70074AFB1D1B78191C04
:101C40001F230B40012199400B1C191C80235B00B2
:101C5000D150BD4602B080BD00E100E080B584B047
:101C600000AFF860B9607A603B60FB68BA681A60E0
:101C7000FB687A685A60FB683A689A60FB68BA69E0
:101C8000DA60FB681C22BA1812781A74FB682022EA
:101C9000BA1812785A74FB682422BA1812789A7407
:101CA000FB68BA6ADA63FB68FA6A1A64FB680122A5
:101CB00052429A62FB68012252425A62FB68002239
:101CC0005A61FB6800229A61FB6800229A63FB68F4
:101CD00000225A63FB68442200219954FB68452284
:101CE00000219954FB68181CBD4604B080BDC04655
:101CF00090B58FB000AF78607B689B684C4A181C29
:101D0000111C00F07DFE7B68012252429A627B68C2
:101D1000012252425A627B6800225A617B6800228B
:101D20009A617B6800229A637B6800225A637B6811
:101D30001B68181C03F0B0FE7B681A687B681B7C6C
:101D4000101C191C812203F013FF7B681B687B6346
:101D50007B6B1B687A6B1268526801210A435A60D8
:101D60007B681B683B633B6B1B791033DBB2DBB2D8
:101D70005BB2181CFFF72CFF7B681C682D4B1B689F
:101D8000181C2D4904F0B2F8031C013BFC62BB6235
:101D9000FB6A1B68BA6ADA607B681A687B689B7C9E
:101DA000101C191C202203F099FE7B681B687A68BE
:101DB000927C7B623A62214BFB617B6A1B68183321
:101DC0001A1C3B6A9B00D318FA691A607B681B686F
:101DD000BB611A4B7B61BB691B687A699A60C0461C
:101DE0007B681B687A68927C3B61FA603B691B6880
:101DF000DB6B0121FA6891400A1C13405A1E934183
:101E0000DBB201225340DBB2002BE9D17B68DA68F8
:101E1000E023DB01101C191C00F0F2FD7B689B68BD
:101E2000074A181C111C00F0EBFDBD460FB090BD19
:101E3000101000000000001040420F00FFFF0000E3
:101E40003020000080B584B000AF78607B681B68EC
:101E5000FB60FB681B791033DBB2DBB25BB2181C92
:101E6000FFF7CCFE7B68012252429A627B68012216
:101E700052425A627B6800225A617B6800229A6152
:101E80007B6800229A637B6800225A637B68DB6868
:101E9000074A181C111C00F0B3FD7B689B68044ABC
:101EA000181C111C00F0ACFDBD4604B080BDC0463E
:101EB0001010000080B582B000AF78607B684422CB
:101EC000012199547B68181CFFF712FF7B68181CCE
:101ED00000F02CF8BD4602B080BDC04680B582B08F
:101EE00000AF78607B684422002199547B68181CFD
:101EF000FFF7A8FF7B68181C00F018F8BD4602B079
:101F000080BDC04680B582B000AF78600A1CFB1C63
:101F10001A707B68FA1C452112785A547B68181C89
:101F200000F004F8BD4602B080BDC04680B588B060
:101F300000AF78607B6844229B5C002B60D07B689C
:101F4000DB6B7A684521525C111C02220A40511E4B
:101F50008A41D2B2FB611B23FB181A70FB691F2256
:101F6000134001229A40131C7B61FB695B11032221
:101F70001A402E4B9200D2581B23FB181B78002BC3
:101F800001D07B6900E00023796989008B507B6870
:101F90001B6C7A684521525C111C01220A40511EBB
:101FA0008A41D2B23B610F23FB181A703B691F2292
:101FB000134001229A40131CBB603B695B11032252
:101FC0001A401A4B9200D2580F23FB181B78002B93
:101FD00001D0BB6800E00023B96889008B507B68A2
:101FE000DA6BC023DB01101C191C00F009FD7B68B3
:101FF0001A6CC023DB01101C191C00F001FD11E05C
:102000007B68DB6B0A4A181C111C00F0F9FC7B682A
:102010001B6C074A181C111C00F0F2FC7B6845225F
:1020200003219954BD4608B080BDC046D46100006C
:102030001010000080B500AF024B181C00F004F82F
:10204000BD4680BD3003001080B5B0B000AF7860F1
:10205000BF23FB1800221A70BE23FB1800221A703F
:10206000BD23FB1800221A707B681B687A68127CFB
:10207000A02179180B609F23FB181A70A023FB186E
:102080001B681B681B689F22BA18127810219140A8
:102090000A1C13405A1E9341DBB2002B67D07B68A9
:1020A0001A687B681B7C101C191C002203F060FD61
:1020B0007B685B69002B45D17B681B687A68127C62
:1020C000982179180B609423FB181A609823FB1849
:1020D0001B681B682C331A1C9423FB181B689B007D
:1020E000D3181B68B022BA1813607B681A687B6823
:1020F0005B7C191CB023FB181B6834339020381804
:1021000002608C22BA1811608822BA1813609023DA
:10211000FB181B681B6818331A1C8C23FB181B68E0
:102120009B00D3188822BA1812681A607B681A6854
:102130007B685B7C101C191C012203F0CFFC7B68C0
:102140000A225A617B681B687A68127C842179189C
:102150000B608323FB181A708423FB181B681B6811
:102160008322BA181278102191400A1C1A607B68E9
:102170001B687A68527CFB677B23FB181A70FB6F25
:102180001B681B687B22BA181278012191400A1C37
:1021900013405A1E9341DBB2002B00D1D1E07B6883
:1021A0005B69002B0DD1BD23FB1801221A707B68DF
:1021B0001A687B685B7C101C191C002203F08EFCE3
:1021C0007FE07B685B69012B2BD17B6800225A6121
:1021D0007B689B687B677B6F5B1103221A40C24B55
:1021E0009200D3587A6F1F210A40012191400A1CA6
:1021F0009200D3585A1E9341DBB2002B03D0BE236A
:10220000FB1801221A707B681A687B685B7C101CC3
:10221000191C002203F062FCBF23FB1801221A7074
:102220004FE07B685B690A2B27D17B689B683B6723
:102230003B6F5B1103221A40AB4B9200D3583A6FAD
:102240001F210A40012191400A1C9200D3585A1EB6
:102250009341DBB2002B34D07B6800225A617B684B
:102260001A687B685B7C101C191C002203F036FC8A
:10227000BF23FB1801221A7023E07B681B7F5B10D1
:10228000D8B27B689B68FB66FB6E5B1103221A4029
:10229000954B9200D358FA6E1F210A4001219140BC
:1022A0000A1C9200D3585A1E9341DBB2002B01D076
:1022B000802300E00023021C1343DBB2DAB27B6808
:1022C0001A777B685B69012B2ADD7B681B687A685B
:1022D000527CBB667A66BB6E1B6818331A1C7B6E19
:1022E0009B00D3181B68AC22BA1813607B681A686D
:1022F0007B685B7C191CAC23FB181B6868333A664F
:10230000F965BB653B6E1B6818331A1CFB6D9B009F
:10231000D318BA6D1A607B685B695A1E7B685A6174
:102320007B681B687A68527C7B655323FB181A70A4
:102330007B6D1B685322BA181278012191400A1C48
:102340001A607B681B687A68927CFB644B23FB18DD
:102350001A70FB6C1B681B684B22BA18127801219B
:1023600091400A1C13405A1E9341DBB2002B00D14E
:10237000BCE07B681B687A68927C7B643A647B6C07
:102380001B6818331A1C3B6C9B00D3181B68B822BF
:10239000BA1813607B681B687A68927CFB633B23E6
:1023A000FB181A70FB6B1B683B22BA1812780121CC
:1023B00091400A1C1A607B689B69012B00D185E063
:1023C000B723FB1800221A707B689B690B2B11D076
:1023D0007B685B7F1A1C01231A40B723FB18511E30
:1023E0008A411A707B685B7F5B10DBB2803BDAB29C
:1023F0007B685A77B823FB181B686833B822BA1871
:1024000013607B689B695A1E7B689A6113E07B6846
:102410005B7F5B10DBB2803BDAB27B685A77B82314
:10242000FB181B686833B822BA1813607B689B6975
:102430005A1E7B689A617B689B69012B0CD0B7237D
:10244000FB181B787A68527F111C01220A40511E2A
:102450008A41D2B29342DAD07B681B687A68927C58
:102460007B633A63B823FB181B68FB627B6B1B68BA
:1024700018331A1C3B6B9B00D318FA6A1A607B68EE
:102480009B69012B18D0B723FB181B78002B09D0B0
:102490007B681A687B689B7C101C191C112203F056
:1024A0001DFB23E07B681A687B689B7C101C191C51
:1024B000212203F013FB19E07B681A687B689B7C80
:1024C000101C191C012203F009FB0FE07B6800229D
:1024D0009A617B681A687B689B7C101C191C00221F
:1024E00003F0FCFA02E0C046D4610000BF23FB18F1
:1024F0001B78002B3AD07B681B687A68527CBB62E1
:102500007A62BB6A1B6818331A1C7B6A9B00D3185B
:102510001B68A822BA1813607B681A687B685B7C0A
:10252000191CA823FB181B688220C0008446634442
:102530003A62F961BB613B6A1B6818331A1CFB697C
:102540009B00D318BA691A607B681A687B685B7C49
:10255000101C191C012203F0C1FA7B681A687B6801
:102560001B7C101C191C812203F002FB7B685B6A38
:10257000002B00DA8BE07B689B69002B00D086E0A3
:102580007B685B6B002B36D07B681B687B617B694B
:102590001B689B686833A422BA1813607B681B68A9
:1025A0007A68927C3B61FA60A423FB181B68BB60CD
:1025B0003B691B6818331A1CFB689B00D318BA6868
:1025C0001A607B681A687B689B7C101C191C11229E
:1025D00003F084FA7B68DB6A591C7A68D1621A7846
:1025E0007B685A777B685B6B5A1E7B685A637B6893
:1025F0000B229A614BE07B681A687B689B7C101CFD
:10260000191C002203F0B4FA7B685B6A624A101C52
:10261000191CFDF76DFE021C7B68DA627B68DB6AC1
:10262000591C7A68D16205221A707B68DB6A5A1CD1
:102630007B68DA627B68DB6A591C7A68D1620322A4
:102640001A707B68DB6A591C7A68D16203221A709F
:102650007B68DB6A591C7A68D16200221A707B6839
:102660005B6A4E4A101C191CFDF78EFE031C5A1E95
:102670009341DBB2002B06D07B685B6A464A101C94
:10268000191CFDF70DFE7B68012252425A62BE23DF
:10269000FB181B78002B41D07B689B6A002B2CDA3F
:1026A0003D4B181CFDF7D2FD021C7B689A627B68CB
:1026B0009B6A002B21DB7B6800229A637B689B6A04
:1026C000354A101C191CFDF713FE021C7B681A63A7
:1026D0007B681B6B591C7A68116303221A707B6834
:1026E0001B6B591C7A68116300221A707B681B6B84
:1026F000591C7A68116302221A707B689B6A002B4E
:102700000CDB7B681B6B591C7A6811637A68127F3B
:102710001A707B689B6B5A1C7B689A637B689B6B07
:102720000F2B08DCBD23FB181B78002B30D07B68F7
:102730009B6B002B2CDD7B689B6A174A101C191CB5
:10274000FDF7D6FD021C7B681A637B681A6B7B68F9
:102750009B6BDBB20333DBB213707B689B6A0F4A5F
:10276000101C191CFDF710FE031C5A1E9341DBB20E
:10277000002B06D07B689B6A074A101C191CFDF7CA
:102780008FFD7B68012252429A627B6800229A6325
:10279000BD4630B080BDC04604000010A40100104A
:1027A00080B582B000AF78607B685B6ADB43DB0F8B
:1027B000DBB2181CBD4602B080BDC04680B586B0F5
:1027C00000AF786039607B68181CFFF7E9FF031ED3
:1027D00001D0022352E02B4A3B68101C191CFDF764
:1027E00087FD031C7B611323FB187A6912781A702A
:1027F0001323FB181B78012B04D91323FB181B7818
:10280000432B01D9012339E07B681B68FB60FB681F
:102810001B791033DBB2DBB25BB2181CFFF7EEF9A9
:10282000184A3B68101C191CFDF762FD021C7B68EE
:10283000DA627B68DB6A1B78DA1E7B685A637B6826
:10284000DB6ADA1C7B68DA627B683A685A627B680A
:102850001B68BB60BB681B791033DBB2DBB25BB2B9
:10286000181CFFF7B5F97B685B68DBB21033DBB28D
:10287000DBB25BB2181CFFF7D9F90023181CBD4668
:1028800006B080BD0400001080B584B000AF786051
:102890007B68181CFFF784FF031C1A1C012353409C
:1028A000DBB2002B31D01A4B181CFDF7BDFD031C09
:1028B000033B5A1E9341DBB2002B26D0144A082357
:1028C000FB18101C191CFDF787FD7B6844229B5CDC
:1028D000002B14D0BB687A68101C191CFFF76EFF20
:1028E000031CFB60FB68002B08D0BB68094A101C66
:1028F000191CFDF7D5FC01235B42BB6005E0BB68FA
:10290000044A101C191CFDF7CBFCBD4604B080BD69
:10291000C00100100400001090B589B006AF7860C7
:1029200039607B68012B18D13B680D4A934214D162
:102930000C490D4A0D4C0E4B0093002301930023CC
:102940000293032303930B4B04930B4B0593081C37
:10295000111C0222231CFFF781F9BD4603B090BD74
:10296000FFFF000030030010A805001049C201005D
:102970000B4110062A83300C0802330080B500AFEB
:10298000034B0120191CFFF7C7FFBD4680BDC046A1
:10299000FFFF000080B586B000AFF860B960BB1DD6
:1029A0001A801623FB1800221A8016E01623FB1843
:1029B00000229B5E9B00BA68D3181A68FB689A4293
:1029C00003D11623FB181B8813E01623FB181B8862
:1029D00001339AB21623FB181A801623FA18BB1D6E
:1029E0000021525E00215B5E9A42DFDB03F0FAF9C0
:1029F000024B1BB2181CBD4606B080BDFFFF000095
:102A000090B589B000AF786039607B685B110322B4
:102A10001A40AC4B9200D3587B617B681F22134055
:102A200001229A401223FB181A803B689AB21023A5
:102A3000FB18120B12031A803B681B051B0DFB6170
:102A40003B689B149AB21A23FB18111C1F220A40E0
:102A50001A801A23FB1800229B5E002B03D11A2335
:102A6000FB1801221A801023FB181A88C023DB01EF
:102A70009A4206D01023FB181A88E023DB019A4201
:102A800018D17A6980231B02D2581223FB181B88A5
:102A90001A43111C7A6980231B02D1501023FB18A2
:102AA0001A88E023DB019A4203D11A23FB1806227D
:102AB0001A805AE07A6980231B02D3581222BA186E
:102AC0001288D2431A40111C7A6980231B02D1500C
:102AD0001023FB181A8880239B019A4227D11A23BE
:102AE000FB1807221A807B68774A934204D1774A01
:102AF000C0230021D15038E07B68754A934204D14D
:102B0000724AC0230121D1502FE07B68714A934261
:102B100004D16E4AD0230021D15026E07B686E4A52
:102B2000934222D1694AD0230121D1501DE01023C4
:102B3000FB181A88C0239B019A4204D11A23FB1860
:102B400002221A8011E01A23FB1800229B5E0F2B31
:102B50000BD15E4C7A68614B101C191C0422FFF7E4
:102B600019FF031C1A1CD423E2501A23FB1800225D
:102B70009B5E0C2B12D17B68594A934204D1534A75
:102B8000C8230021D15069E07B68564A934200D0A7
:102B900064E04E4AC8230121D1505FE01A23FB189C
:102BA00000229B5E0D2B11D17B684F4A934204D1CA
:102BB000464ACC230021D15050E07B684B4A9342D7
:102BC0004CD1424ACC230121D15047E01A23FB18B3
:102BD00000229B5E0E2B2CD17B68454A934204D188
:102BE0003A4AB0230021D15038E07B68414A9342F1
:102BF00004D1364AB0230121D1502FE07B683E4AF0
:102C0000934204D1314AB0230221D15026E07B689F
:102C10003A4A934204D12D4AC4230021D1501DE0E9
:102C20007B68374A934219D1284AC4230121D150E5
:102C300014E01A23FB1800229B5E0B2B0ED17B683D
:102C4000274A934203D1214B00229A6106E07B6818
:102C50002C4A934202D11D4B01229A617A6880234B
:102C60005B00134009D01A23FB1800229B5E022B45
:102C700003D0FB6980221343FB611A23FB18002257
:102C80009B5E002B14D07A681A23FB1800215B5E30
:102C9000101C191C02F054FD031CFB60FB68002B88
:102CA00004DBFB68FA691343FB6101E003F09AF867
:102CB0007B68181C00F028F8031CFA691A60BD46EE
:102CC00009B090BDD461000002C23A000040044047
:102CD00063823D0025423C0049C20100C4610000FE
:102CE000424265002A83300C43826D0029826900CC
:102CF0000A4A70064B823B000602700041C2740013
:102D00006242350E4482590080B582B000AF7860CF
:102D10007B685B1103221A407B681F210B40181C43
:102D20000749131C5B009B189B001B185B005B5A38
:102D30009B00044A94466344181CBD4602B080BD03
:102D4000E46100000040044080B588B000AF7860C6
:102D500000F036F8031CFB610023BB61FB69002B0C
:102D600002D0FB691B78BB617B681B123B617B68EF
:102D7000FF221340FB60FB690333FB6101237B618E
:102D800014E0FB691B781A1E3B699A4208D1FB6963
:102D900001331B781A1EFB689A4201D17B690BE054
:102DA0007B6901337B61FB690233FB617A69BB6933
:102DB0009A42E6DD01235B42181CBD4608B080BD87
:102DC00080B500AF024B1B681633181CBD4680BD92
:102DD000B062000080B500AF044B1B685B7C1A1C1E
:102DE000034BD318181CBD4680BDC046B06200001E
:102DF0008404001080B500AFBFF34F8F024B034A2D
:102E0000DA60BFF34F8FFEE700ED00E00400FA0543
:102E100080B582B000AF78607B6834229B5CDBB207
:102E2000002B05D17B68DB6C002B01D1012300E076
:102E30000023181CBD4602B080BDC04680B582B0DC
:102E400000AF786039607B683A681A63BD4602B0AB
:102E500080BDC04680B582B000AF7860044B0122CF
:102E60001A70044B00221A60BD4602B080BDC046F5
:102E7000840500108805001080B582B000AF78602E
:102E8000044B1B785A1E9341DBB2181CBD4602B09E
:102E900080BDC0468405001080B500AF024B1B68A2
:102EA000181CBD4680BDC0468C05001080B582B0A0
:102EB00000AF7860074B1A6880235B00D35CDBB2FD
:102EC0001A1C012313405A1E9341DBB2181CBD4645
:102ED00002B080BDAC62000080B582B000AF786007
:102EE0001223181CBD4602B080BDC04680B582B01A
:102EF00000AF786002F0C2F97B6858220121995432
:102F0000044B1A687B681A667B680022DA65BD4646
:102F100002B080BD9405001080B582B000AF78602B
:102F20007B685B6D002B08D07B685B6D1B681A6843
:102F30007B685B6D181C032190477B68181C00F0B0
:102F40001DFE02F0C1F97B681B6D002B04D07B686D
:102F50001B6D181C02F012FDBD4602B080BDC046BC
:102F600080B586B000AF78607B6830229B5C012220
:102F70005340DBB2002B00D0A9E07B68181C00F0A6
:102F80002FFE7B6858229B5C002B0CD0514B181CE9
:102F9000FEF7C8F8031C1A1C01235340DBB2002BB8
:102FA00001D0012300E00023002B2BD07B681B6E97
:102FB0007B61494B1A687B69D11A7B68DA6D002303
:102FC00091425B41DBB2002B07D001F0EBFF031E07
:102FD00003D0414B1A687B681A667B681B6E3B61A5
:102FE0003D4B1A683B69D31A3C4A9A429B415B426B
:102FF000DBB2002B06D07B681B6EFA2292009A1877
:103000007B681A667B685B6B002B0BD07B685B6C04
:10301000FB60314B1A68FB68D31A314A934201D9DD
:10302000012300E00023002B08D07B68181C8121BD
:10303000002200F05BF87B6800225A63294B1B6872
:10304000181CFFF719FF031E0FD0224B181CFFF7A7
:10305000DFFE031E09D01F4B9B69002B05D17B6847
:103060005B6B002B01D1012300E00023002B2ED04D
:103070001D4B1B68002B24D0174B1B681A1C1A4BC6
:103080001B68D31ADA17D31ADB0FDBB2002B1ED062
:103090007B685B6D002B08D07B685B6D1B681A68D2
:1030A0007B685B6D181C0221904702F00DF97B686C
:1030B0001B6D002B0BD07B681B6D181C02F05EFC97
:1030C00005E0054B1B6832331A1C074B1A60BD46DE
:1030D00006B080BD9802001094050010CF070000D4
:1030E00070170000B06200008805001080B584B041
:1030F00000AFF860B9607A60BB684022134005D029
:103100007B683C221340BA681343BB60184B1B78A2
:10311000DBB21A1C0C231340DBB21A1C50235B4297
:103120001343DBB2D9B2FB6838229954FB685B6B5E
:103130001B12D9B2FB683B229954FB685B6BD9B276
:10314000FB683C229954FB683D2260219954BB687E
:10315000D9B2FB683E229954FB683833044A101CEC
:10316000191C072201F044FDBD4604B080BDC046D5
:103170009802001090B585B000AF7860594BDB78AD
:103180001B029AB2574B1B799BB213439AB20E2380
:10319000FB181A80534B9A790D23FB183C218A4364
:1031A0001A70504B9B791A1C032313401B029AB2CE
:1031B0004C4BDB799BB213439AB20A23FB181A805B
:1031C0000E23FB181B88002B45D17B68181CFFF7CA
:1031D0006DFE031E00D17EE00A23FB181B88C02B66
:1031E0000BD179683F4B1B7A1B023E4A527A13433C
:1031F000081C191C00F0D4FC6DE00A23FB181A8887
:1032000080235B009A4266D1364B1B78DBB21A1CD6
:103210000C231340DBB21A1C50235B421343DBB276
:10322000DAB27B681A717B680022DA717B6800224F
:103230001A727B68E1225A727B6801229A727B685B
:103240004022DA727B680433264A101C191C0822BB
:1032500001F0CEFC3FE0234B5B79DBB25BB2002B8D
:1032600025DB0E23FB181C881E4B181CFDF74EFF98
:10327000031CE31A5A425341DBB2002B2BD00D231F
:10328000FB181B785BB2002B08DA164B9B791A1CD3
:103290007B68181C111C00F01FFB1CE00A23FB18A4
:1032A0001B887A68101C191C00F0D6F813E00D2357
:1032B000FB181B78002B0ED10E23FB1819880A234C
:1032C000FB181A88F0239B001A40064B081C111C9F
:1032D0001A1C01F023FF034B181CFDF73FFFBD46EE
:1032E00005B090BD9802001080B584B000AF786042
:1032F00039603B68002B19D17B68181CFFF7ECFD87
:10330000031CFB607B6863225A727B6843229A72BB
:103310007B684022DA72FB681B12DAB27B681A7390
:10332000FB68DAB27B685A73012300E00023181CA3
:10333000BD4604B080BDC04680B584B000AFF86023
:10334000B9607A60FFF7A8FD031C1A1CFB689B1A82
:10335000FB60FB68602B04D8FA687B68D3185F2B8E
:103360000AD8FA68164BD118BA687B68081C111C79
:103370001A1C02F071FE20E017E0FB68602B07D1F9
:10338000104B1A68BB68197880235B00D15406E0A3
:10339000BB6819780A4AFB68D3180A1C1A70BB6804
:1033A0000133BB60FB680133FB607B685A1E7A60A7
:1033B0005A1E9341DBB2002BDFD1BD4604B080BD65
:1033C00080030010AC62000080B584B000AFF860EC
:1033D000B9607A60FFF760FD031C1A1CFB689B1A3A
:1033E000FB60FB68602B04D8FA687B68D3185F2BFE
:1033F0000AD8FA68164BD218B9687B68081C111CE9
:103400001A1C02F029FE20E017E0FB68602B08D1AF
:10341000104B1A6880235B00D35CDAB2BB681A7069
:1034200005E00B4AFB68D3181A78BB681A70BB68B2
:103430000133BB60FB680133FB607B685A1E7A6016
:103440005A1E9341DBB2002BDFD1BD4604B080BDD4
:1034500080030010AC620000B0B58EB002AF78609F
:103460003960D04B5B781B02CE4A92781343BB6223
:10347000CC4B9B791A1C3C2313407B622F23FB18F7
:1034800000221A702E23FB1800221A707B685A6BD8
:10349000BB6A9A4200D01AE2C34B1A687B685A642E
:1034A0007B6800229A723A68F0239B0013403B62CB
:1034B0003B6A8022920093423AD08022920093424B
:1034C00004DCC022520093420AD02EE1A0229200D6
:1034D00093422DD0C0229200934200D111E124E109
:1034E000B04BDB791A1C3F231340FB61AD4B1B7AB9
:1034F000BB617B6864225A727B6841229A72FB69C5
:10350000DBB21A1C40235B421343DBB2DAB27B68A6
:10351000DA72BB69DAB27B681A737B6800225A736D
:103520007B6800229A732E23FB1801221A7062E135
:103530009C4BDB791A1C0F231340BB61994B1B7A00
:103540001B02984A527A13437B613A6AA0239B007C
:103550009A4257D17B681B6D002B0ED07B681B6D88
:103560001B6808331A687B68196D7B69081C191C75
:103570009047031E01D0012300E00023002B09D057
:103580007B681B6D1B681C687B68186D7969874AAE
:10359000BB69A0477B69FF2B15DD7B69844A934299
:1035A00011DC7B695A1EFF3A824BD118BB697F4AF6
:1035B000081C111C1A1C02F04FFD7F4B1B68181CC5
:1035C000FFF748FC1AE0FFF767FC021E7B699A428E
:1035D00009DCFFF761FC031C5A1CFF327B699A422D
:1035E00001DD012300E00023002B07D07969BB69CE
:1035F0006E4A081C111C1A1CFFF79EFE2F23FB1895
:10360000C2221A703A6A80239B009A4200D077E067
:103610007B69FF2B12DD7B69654A93420EDC7B6878
:103620000E33191C7B695A1EFF3A624BD218BB69D4
:10363000081C111C1A1C02F00FFD1CE0FFF72CFCEB
:10364000021E7B699A4209DCFFF726FC031C5A1C08
:10365000FF327B699A4201DD012300E00023002B49
:1036600009D079697B680E331A1CBB69081C111CD0
:103670001A1CFFF7A9FE7B681B6D002B0ED07B6820
:103680001B6D1B6808331A687B68196D7B69081C01
:10369000191C9047031E01D0012300E00023002BDA
:1036A0000FD07B681B6D1B6804331C687B68186D2A
:1036B0007B680E331A1C7969BD69002300932B1CAB
:1036C000A047BB69DBB26333DAB27B685A727B68AE
:1036D00042229A72BB69DBB21A1C40231343DBB24D
:1036E000DAB27B68DA727B691B12DAB27B681A7312
:1036F0007B69DAB27B685A732E23FB1801221A7099
:1037000079E03B683F2213407A68101C191CFFF7D0
:10371000EBFD031E04D02E23FB1801221A706AE071
:103720002F23FB18C3221A7065E03B68E022920049
:1037300093425ADB214A934203DD214A934243D00C
:1037400053E03B680122134011D0164B1B7A3B61BA
:10375000144B5B7AFB603B69002B08D1FB68FF2BA5
:1037600005D180235B05BB60BB68164A1A607B6885
:103770005B6D002B08D07B685B6D1B681A687B68EB
:103780005B6D181C0121904701F09EFD7B681B6D4D
:10379000002B04D07B681B6D181C02F0EFF8FFF7BC
:1037A00029FB27E09802001094050010A2020010E7
:1037B000FF01000084040010B062000081030000DB
:1037C000D103000055B01F5E7B6862225A727B688D
:1037D00043229A727B68D222DA727B6800221A73C3
:1037E0002E23FB1801221A7004E02F23FB18C3229A
:1037F0001A70C046C0462E23FB181B78002B03D03E
:103800002F23FB18C2221A702F23FB181B78002BC2
:103810000AD02F23FB181A7879687B6A081C111CC0
:103820001A1CFFF763FC03E07B68382200219954DF
:103830002E23FB181B78002B49D0264B1B78DBB2BC
:103840001A1C0C231340DBB21A1C50235B42134397
:10385000DBB2DAB27B681A717B685B6B1B12DAB27F
:103860007B68DA717B685B6BDAB27B681A727B68A3
:103870009B7A1A1C4023134016D07B689B7A3C220B
:103880009343DAB27B689A727B689B7ADAB27B6880
:103890001B6CDBB21343DBB2DAB27B689A727B68D3
:1038A00048220121995403E07B6848220021995461
:1038B0007B68191D7B685B7A9BB20F2213409BB219
:1038C00007339BB2034A101C1A1C01F091F9BD4644
:1038D0000CB0B0BD9802001080B584B000AF786025
:1038E0003960414B5B781B023F4A92781343FB607F
:1038F0003B684022134044D03B68C32213403B60E6
:103900003B68C22B27D1384B9B791A1C3C231340B0
:10391000BB607B6848229B5C002B1BD07B685A6B8A
:10392000FB689A4216D17B68DA6CBB689A4211D068
:103930007B681B6C1A1D7B681A647B681B6C3C22BD
:103940001A407B681A647B684822002199547B687E
:10395000BA68DA6410E03B68C32B0DD17B685A6B00
:10396000FB689A4208D17B68181C81210022FFF76E
:10397000BDFB7B6800225A637B6848220121995471
:103980002EE03B68802B1BD17B685B6B002B27D123
:10399000164B1A687B685A647B68FA685A637B68BE
:1039A00000221A647B684822002199547B68012216
:1039B0005242DA640C4B181C0021FFF73FFA0FE06B
:1039C0003B68812B0CD17B685A6BFB689A4207D10C
:1039D0007B6800225A63044B181C0021FFF72EFA63
:1039E000BD4604B080BDC04698020010940500108A
:1039F00080B582B000AF78607B685B68181CBD46FC
:103A000002B080BD80B582B000AF786039607B685D
:103A10003A685A607B6800221A60BD4602B080BDD9
:103A200080B582B000AF7860BD4602B080BDC046B0
:103A300080B500AF024B181C00F002FCBD4680BDF3
:103A40009802001080B582B000AF78607B680B4AA6
:103A50001A607B682433181C01F0B4FC7B68084AA8
:103A6000DA617B6801221A627B6830220021995456
:103A70007B68181CBD4602B080BDC046686200006D
:103A800040825C0080B584B000AFF860B9607A60B5
:103A90003B60FB681B680C331B68FA68101C984776
:103AA000FB6800221A71FB68382200219954FB68D8
:103AB00000221A64FB68482200219954FB68012205
:103AC0005242DA64FB6800225A63244B1A6880234E
:103AD0005B002E21D154214B1B6862220021995496
:103AE0001E4B1A680223FF330121D1541C4B1B6863
:103AF000FF225A731A4B1B6800221A73184B1B685B
:103B0000BA681212D2B2DA70154B1B68BA68D2B218
:103B10001A71134B1B687A681212D2B25A71104B89
:103B20001B687A68D2B29A710D4B1B683A68D2B2A0
:103B3000DA710C4B00221A60FB6830220121995483
:103B4000094B181C00F058F9FB682433181C01219C
:103B5000FFF758FFBD4604B080BDC046AC62000010
:103B6000B0620000880500109802001080B582B095
:103B700000AF7860BD4602B080BDC04680B582B05F
:103B800000AF78607B68302200219954034B181CE9
:103B9000FFF746FFBD4602B080BDC0469802001048
:103BA00080B582B000AF786039600B4B1B683A6813
:103BB0001212D2B2DA75084B1B683A68D2B21A7682
:103BC000054B1B68181CFFF745F9044B3A68DA628D
:103BD000BD4602B080BDC046B06200009802001031
:103BE00080B588B000AF78607B6830229B5C012292
:103BF0005340DBB2002B00D0A5E0544B181CFDF75E
:103C00009FFA031E16D0514B181CFDF78BFA031CAC
:103C10001A1C01235340DBB2002B0BD04C4B1A680B
:103C200080235B00D35CDBB21A1C0423134001D059
:103C3000012300E00023002B06D07B681B680433BF
:103C40001B687A68101C98477B68DB69002B00D1E1
:103C500079E07B68DB693F4A181C111CFEF7D0FE37
:103C60007B682433181CFFF7C3FE031CFB617B68D1
:103C70002433181C7B68DB69BB61BB695B110322C1
:103C80001A40354B9200D358BA691F210A400121CE
:103C900091400A1C9200D3585A1E9341DBB2191C62
:103CA000322201F09BFB031E04D1FB69002B01D0E3
:103CB000012300E00023002B0ED0254B1A68244B73
:103CC000196880235B00CB5CDBB27F2149424B400B
:103CD000D9B280235B00D1547B68DA69C023DB0151
:103CE000101C191CFEF78CFE7B68DA69184B1968EA
:103CF00080235B00CB5CDBB2191C012319407B687D
:103D00001B6ACB1A591E8B41D9B27A611323FB1857
:103D10000A1C1A707B691F22134001229A40131C4F
:103D2000FB607B695B1103221A400B4B9200D25857
:103D30001323FB181B78002B01D0FB6800E0002345
:103D4000F96889008B50BD4608B080BD980200100C
:103D5000AC62000010100000D461000080B582B099
:103D600000AF7860BD4602B080BDC04680B582B06D
:103D700000AF021CFB1D1A70064BFA1D1278111CB5
:103D80001F220A40012191400A1C1A60BD4602B060
:103D900080BDC04600E100E080B584B000AFF860AF
:103DA000B9607A603B60FB68BA68DA61FB687A6880
:103DB0001A62FB683A685A62FB681822BA1828210E
:103DC00012785A54FB681C22BA18292112785A54C6
:103DD000FB6829229B5C0233DBB203221340D9B279
:103DE000FB682A229954FB68342200219954FB680D
:103DF000181CBD4604B080BD90B593B000AF78608C
:103E0000634B1B68DB7D1A02614B1B681B7E1A43E8
:103E10007B68DA627B6800229A617B683422002129
:103E200099547B6800221A637B680022DA647B68FD
:103E300000221A657B680422DA637B68682200210D
:103E400099547B68DB69181C01F026FE7B68DB69EE
:103E50007A682921525C7B643A647B6C1B687A6CBB
:103E60001268526F0120396C8840011C0A435A675E
:103E70007B68D9697B6828229B5C081C191C8122FD
:103E800001F076FE7B68DB69FB63FB6B1B68FA6BFA
:103E90001268526801210A435A607B68DB69BB6380
:103EA000BB6B1B791033DBB2DBB25BB2181CFFF7C4
:103EB0005DFF7B68DC69374B1B68181C364902F0D4
:103EC00015F8031C013B7C633B637B6B1B683A6BFF
:103ED000DA607B68DB697A682A21525CFB62BA622D
:103EE0002E4B7B62FB6A1B6818331A1CBB6A9B0053
:103EF000D3187A6A1A607B68D9697B682A229B5C2E
:103F0000081C191C022201F0E9FD7B68DB697A6854
:103F10002921525C3B62FA61214BBB613B6A1B6801
:103F200018331A1CFB699B00D318BA691A607B68A6
:103F3000DB697B611A4B3B617B691B683A699A605C
:103F4000C0467B68DB697A682921525CFB60BA60F5
:103F5000FB681B68DB6B0121BA6891400A1C1340A7
:103F60005A1E9341DBB2002BEBD17B685A6AE023E7
:103F7000DB01101C191CFEF743FD7B681B6A094A14
:103F8000181C111CFEF73CFDBD4613B090BDC04689
:103F9000B06200000000001040420F00FEFF000071
:103FA000FFFF00002020000080B588B000AF7860DF
:103FB0007B68D9697B6828229B5C081C191C8122BC
:103FC00001F0D6FD7B68D9697B682A229B5C081CBE
:103FD000191C022201F082FD7B68DB697A682A21C4
:103FE000525CFB61BA61134B7B61FB691B68183340
:103FF0001A1CBB699B00D3187A691A607B68DB695D
:104000007A682921525C3B61FA600B4BBB603B69CB
:104010001B6818331A1CFB689B00D318BA681A6017
:104020007B683422002199547B6800221A63BD46C4
:1040300008B080BDFEFF0000FFFF000080B588B023
:1040400000AF78600A1CFB1C1A707B6800221A63A0
:104050007B6868229B5C002B00D095E07B681B6C22
:10406000072B65DDFB1C1B78002B61D07B68DB78A0
:104070001B027A6812791343BB611F23FB180022CD
:104080001A707B685B79DBB25BB2002B12DABB691A
:10409000002B05D0BB69181CFEF756FE031E01DB82
:1040A000012300E00023002B11D01F23FB18012265
:1040B0001A700CE07B68DA6ABB69D31A5A42534122
:1040C000DBB2002B03D01F23FB1801221A704C4BCC
:1040D0001A6880235B00D35CDBB21A1C04231340F4
:1040E0005A425341DBB2002B15D07B681A6C7B68B7
:1040F0009A61434B1A6880235B00D35CDBB21A1CC5
:10410000022313405A1E9341DBB2002B0FD07B6871
:10411000CC221A630BE01F23FB181B78002B06D060
:104120007B681A6C7B689A617B68CC221A632BE0EF
:104130007B681B6C012B21D17B685B6CFF221A40D2
:104140007B685A647B685B6CCC2B05D07B689A6B70
:104150007B68DB6B9A4209DD7B68DB6C002B05D04A
:104160007B689B6B002B01DD012300E00023002B0B
:104170000AD07B68181C00F04BF805E07B68002231
:104180009A617B680C221A637B68DA697B682A2152
:104190005B5C191C7B681B6B002B01D0194B00E08A
:1041A000194B7A613961FB607B691B6818331A1CF3
:1041B0003B699B00D318FA681A607B68D9697B68F1
:1041C0002A229B5C081C191C032201F087FC7B68D7
:1041D000D9697B6828229B5C081C191C812201F08C
:1041E000C7FC7B686822002199547B683422032134
:1041F0009954064BE9221A60BD4608B080BDC046FE
:10420000AC62000031040000E813000078030010E5
:1042100080B582B000AF78607B68DB6C00221A70DA
:104220007B681A6D7B68DA647B6800221A657B689C
:1042300000229A637B6800229A64BD4602B080BD6A
:1042400080B5BEB000AF78607B6834229B5CDBB287
:10425000092B01D900F078FC9A00D24BD3181B68C7
:104260009F467B68DB697A682821525CEC217918CB
:104270000B60EB23FB181A70EC23FB181B681B6800
:104280001B68EB22BA181278102191400A1C1340C7
:104290005A1E9341DBB201225340DBB2002B01D006
:1042A00000F057FC7B6800221A647B6868220021BA
:1042B00099547B68FF225A667B6800221A637B68E8
:1042C00001221A667B68DB697A682821525CE42146
:1042D00079180B60E323FB181A70E423FB181B68A2
:1042E0001B681B68E322BA181278102191400A1C3F
:1042F00013405A1E9341DBB201225340DBB2002B24
:1043000011D07B681B6E002B05D07B685B6E002B89
:1043100001D1012300E000237A68101C191CFFF76B
:104320008DFE00F016FC7B68DB697A682A21525CFE
:10433000DC2179180B60D823FB181A609A4BD42221
:10434000BA181360DC23FB181B681B6818331A1C8F
:10435000D823FB181B689B00D318D422BA18126804
:104360001A607B68DB69D022BA181360D023FB186F
:104370001B681B6802225A60D023FB181B681B684D
:1043800001225A607B68D9697B682A229B5C081CE1
:10439000191C032201F0A2FB7B68342201219954ED
:1043A0007B6800225A647B6800229A657B68012240
:1043B0005A657B680122DA6500F0CBFB7B68DB691C
:1043C0007A682A21525CCC2179180B60CB23FB1828
:1043D0001A70CC23FB181B681B681B68CB22BA1809
:1043E0001278012191400A1C13405A1E9341DAB2FF
:1043F000F323FB181A70F323FB181B78002B04D04F
:10440000694BF422BA18136019E07B68DB697A689B
:104410002821525CC42179180B60C023FB181A6054
:10442000C423FB181B681B682C331A1CC023FB1801
:104430001B689B00D3181B68F422BA1813607B68B2
:104440009B6D45331A1CF423FB181B689A4234DC1D
:104450007B689B6D68331A1C7B689A6519E07B68E2
:104460005A6C7B685B6D1A437B685A647B68DB6DB2
:104470005A425341DBB21A1C7B68DA657B689B6D3C
:1044800068331A1C7B689A657B685B6D5A007B6891
:104490005A657B689B6D45331A1CF423FB181B6817
:1044A0009A4205DC7B685A6D80235B009A42D6DD18
:1044B0007B685B6D5A007B685A65F323FB181B7899
:1044C000002B3ED07B681A6E7B68DB6D1A407B68E0
:1044D0001A667B681B6C172B10DC7B681B6C591CE5
:1044E0007A6811647A68526CD1B27A68D1547B6868
:1044F0005A6E7B685B6C5A407B685A667B683422D4
:10450000022199547B68DB697A682A21525CBC21BC
:1045100079180B60B823FB181A60D0235B00B42213
:10452000BA181360BC23FB181B681B6818331A1CCD
:10453000B823FB181B689B00D318B422BA18126862
:104540001A6006E37B68DB697A682821525CB02137
:1045500079180B60AF23FB181A70B023FB181B6887
:104560001B681B68AF22BA181278102191400A1CF0
:1045700013405A1E9341DBB2002B04D07B683422D7
:104580000021995460E67B681B6B5A1E9341DBB295
:10459000002B0BD06823F422BA1813607B6800222A
:1045A0009A645FE078620000420400007B689A6BC6
:1045B0007B68DB6B01219A4201DC0023191CCBB222
:1045C000002B03D07B68181CFFF722FE7B68DB6C96
:1045D000002B42D07B68DB6C1B78DBB29B10032284
:1045E0001340013368225343F422BA1813607B68E6
:1045F000DB6C05331B78DBB21A1C0F231340083326
:104600001A1C7B689A647B689B6B013B5A4253413E
:10461000DBB2002B26D07B68DA6C7B68DB6C1B7806
:10462000DBB220218B43DBB213707B68DA6C7B68D2
:104630009B6C013BD2187B68D96C7B689B6C013BFF
:10464000CB181B78DBB220214B40DBB213707B68A8
:104650009B6B5A1C7B689A6304E07B68181CFFF70D
:10466000A3FC76E27B68DA697B6829215B5C191C14
:10467000F423FB181B68A82038180260A422BA187B
:104680001160A022BA181360A823FB181B681B68CE
:1046900018331A1CA423FB181B689B00D318A022F4
:1046A000BA1812681A607B68DB697A682A21525C42
:1046B000111CF422BA18126823329C2038180360A7
:1046C0009823FB1819609423FB181A609C23FB188D
:1046D0001B681B6818331A1C9823FB181B689B0067
:1046E000D3189422BA1812681A607B68D9697B685B
:1046F0002A229B5C081C191C032201F0EFF97B683D
:10470000D9697B6828229B5C081C191C812201F056
:104710002FFA7B6800221A647B68342204219954A2
:1047200017E27B68DB697A682821525C902179184E
:104730000B608F23FB181A709023FB181B681B68F3
:104740001B688F22BA181278102191400A1C13405E
:104750005A1E9341DBB2002B43D07B68DB69882271
:10476000BA1813608823FB181B681B689A687B685B
:10477000DB6979682920095C84203818036080236C
:10478000FB1819608423FB181B681B681833191C5D
:104790008023FB181B689B00CB181B680A3B9A42BE
:1047A0009B415B42DBB2002B16D07B68DB697A68E9
:1047B0002921525CFB67BA67E14B7B67FB6F1B6883
:1047C00018331A1CBB6F9B00D3187A6F1A607B6872
:1047D00034220221995437E57B683422052199540B
:1047E000B7E17B68DB697A682A21525C3B676F23FB
:1047F000FB181A703B6F1B681B687B681B6B5A1E8B
:104800009341DBB2002B04D07B681A6B7B685A643F
:104810000DE07B68D96C7B681A6C501C7B6818644F
:10482000131CCB181B78DBB21A1C7B685A647B689C
:1048300001225A6511E07B685A6C7B685B6D1340FE
:1048400006D07B685B6C802252005A407B685A64B9
:104850007B685B6D5A007B685A657B685B6DFF2BDC
:10486000E9DD7B6801225A656823F422BA181360D7
:104870000BE07B685B6D5A007B685A65F423FB187C
:104880001B686833F422BA1813607B685A6C7B6823
:104890005B6D134005D07B685A6D80235B009A42A4
:1048A000E7DD7B685B6D5A007B685A65F423FB1873
:1048B0001B68682B04DC7B6834220621995403E0D2
:1048C0007B683422072199547B685A6D80239B00B2
:1048D0009A421FDDF423FB181B683933FF33F4229F
:1048E000BA1813607B681A6C7B689B6C9A4205DA75
:1048F0007B681B6B002B01D1012300E00023002B00
:1049000004D07B6834220521995403E07B6834226B
:10491000092199547B6834229B5CDBB2073B5A42E5
:104920005341DBB2002B0AD07B68D9697B6828220F
:104930009B5C081C191C812201F01AF909E07B68B4
:10494000D9697B6828229B5C081C191C802201F015
:104950000FF97B6834229B5CDBB2093B5A4253411E
:10496000DBB2002B12D07B68DB697A682921525CAC
:10497000BB667A66724B3B66BB6E1B6818331A1CAB
:104980007B6E9B00D3183A6E1A6015E07B68DB697A
:104990007A682921525C111CF422BA181268233A51
:1049A000FB65B9657A65FB6D1B6818331A1CBB6D16
:1049B0009B00D3187A6D1A607B68DA697B682A21BC
:1049C0005B5C191CF423FB181B683A65F964BB6433
:1049D0003B6D1B6818331A1CFB6C9B00D318BA6C18
:1049E0001A60B6E07B68DB697A682821525C7B64D8
:1049F0003A647B6C1B682C331A1C3B6C9B00D318ED
:104A00001A687B68DB6979682920095CFB63B963F4
:104A1000FB6B1B681833191CBB6B9B00CB181B6806
:104A2000453B9A429B415B42DBB2002B1AD07B682C
:104A3000DB697A682921525C7B633A63404BFB62F5
:104A40007B6B1B6818331A1C3B6B9B00D318FA6AEC
:104A50001A607B683422012199547B686822012105
:104A6000995476E07B6834220621995471E07B6882
:104A7000DB697A682A21525CBB627A62314B3B6205
:104A8000BB6A1B6818331A1C7B6A9B00D3183A6AEE
:104A90001A607B68D9697B6828229B5C081C191CFA
:104AA000812201F065F87B681B6B5A1E9341DBB2D3
:104AB000002B03D07B6800221A6304E07B689B6BA9
:104AC0005A1C7B689A637B6834220821995440E021
:104AD0007B68DB697A682821525CFB611B23FB1829
:104AE0001A70FB691B681B681B22BA181278102108
:104AF00091400A1C13405A1E9341DBB2002B14D084
:104B00007B68DB697A682821525C7B613A617B694A
:104B10001B682C331A1C3B699B00D3181A6893231B
:104B2000DB009A4201D8012300E00023002B00D0D3
:104B30000FE07B68342203219954FFF785FBC046C0
:104B4000FFFF0000501400007B68181CFFF72CFAD0
:104B5000C0467B68DB69FB60FB681B68FF221A604C
:104B6000BD463EB080BDC04680B586B000AFF8609F
:104B7000B960BB1D1A801723FB18FF221A70BB688F
:104B80005A1CFB68DB6A1B12DBB21370BB689A1CF1
:104B9000FB68DB6ADBB213701423FB1800221A8057
:104BA00013E01423FB181B88BA68D318197817234D
:104BB000FB181722BA1812784A401A701423FB18EF
:104BC0001422BA18128801321A801423FA18BB1D55
:104BD00012881B889A42E4D3BB1D1B88BA68D3187D
:104BE0001722BA1812781A70BD4606B080BDC046AA
:104BF00080B58AB000AFF860B960BB1D1A80F96853
:104C0000BA68BB1D1B88081C111C1A1CFFF7ACFFDF
:104C1000FB681B6D002BFBD1FB68DB6C002B03D109
:104C2000FB68BA68DA6409E0FB681B6D002B03D1EE
:104C3000FB68BA681A6501E001F0D4F872B6FB6847
:104C400034229B5CDBB25A425341DBB2002B2BD0A7
:104C5000FB6800229A63FB68342203219954FB68A5
:104C6000DB69FA682A21525C7B623A620123FB61AC
:104C70007B6A1B6818331A1C3B6A9B00D318FA69BD
:104C80001A60FB68D969FB682A229B5C081C191C06
:104C9000032200F023FFFB68DB69BB6100237B611B
:104CA000BB691B687A699A6062B6BD460AB080BD6E
:104CB00080B582B000AF78607B68181C00F006F801
:104CC000031C9B78181CBD4602B080BD80B582B025
:104CD00000AF786000F086FA011C7A68131C5B0054
:104CE0009B1801330133CB18181CBD4602B080BDA0
:104CF00080B584B000AF78607B68181CFFF7D8FFE0
:104D0000031CFB60FB68052B01DC002303E0FB6850
:104D1000063B034AD35C181CBD4604B080BDC046A8
:104D2000A062000080B584B000AF7860396000F008
:104D300069FA031CFB60FB68002B00D118E07B685C
:104D40000122134002D03B681B013B607B685B1073
:104D50001A1CFB689B187A685210111CFA685218CA
:104D60001278D1B23A68D2B20A43D2B2D2B21A7031
:104D7000BD4604B080BDC04680B584B000AF786049
:104D80007B68181CFFF7A2FF031CFB60FB685B78C5
:104D90001A1C2023134005D0FB681B781A1C064BF5
:104DA000D31804E0FB681B781A1C044BD318181C9A
:104DB000BD4604B080BDC0468404001080030010CE
:104DC00080B500AF00F00EFA031C1B78181CBD461E
:104DD00080BDC04680B586B000AF7860FDF7FAFFB1
:104DE000031C7B617B691B785B001A1C7B699B1829
:104DF0003B617B6901337B611AE07B6901331B787E
:104E00001A1E7B689A4210D1FDF7DAFF021C7B69FB
:104E10001B785B000133D318FB60FB681B781B0217
:104E2000FA6801321278134307E07B6902337B6131
:104E30007A693B699A42E0D30023181CBD4606B04C
:104E400080BDC04680B582B000AF78603960134B3A
:104E50001B68BC221A71114B1B683A681212D2B23D
:104E6000DA710E4B1B683A68D2B21A720B4B1B6890
:104E7000E1225A72094B1B6800229A72074B1B6889
:104E80000022DA72054B1B680433054A101C191CFA
:104E90000822FFF7ADFEBD4602B080BDC061000034
:104EA0009802001080B586B000AFF860B960FB1DB5
:104EB0001A70FB68181CFFF75FFF031C7B61FB681F
:104EC000181CFFF715FF031C3B61344B1B68BC2209
:104ED0001A71324B1B68BA681212D2B2DA712F4BB8
:104EE0001B68BA68D2B21A722C4B1B683A69D2B2EC
:104EF0000132D2B2D2B2111C0F220A40D2B2111C1E
:104F0000202252420A43D2B2D2B25A72234B1B68B9
:104F100000229A72214B1B68FA1D1278002A01D0D8
:104F2000402200E08022DA723B69002B0BD01B4B41
:104F30001B680C33191C7A693B69081C111C1A1C6C
:104F400000F032FF10E0154B1A68144B1B68DB7A37
:104F5000D9B27B691B78DBB2181C3F230340DBB25C
:104F60000B43DBB2DBB2D3720C4B1B680433BA6861
:104F7000101C80211A1C00F0D1F8084B1B681A1D68
:104F80003B699BB208339BB20549081C111C1A1CD3
:104F9000FFF72EFEBD4606B080BDC046C0610000D2
:104FA0009802001080B588B000AF0020FFF78EFE99
:104FB000031C7B6100F026F9031C3B613B69002B5D
:104FC00001D1002373E0FFF7FBFE031CFB603A4BAB
:104FD0001B68BB6163E0BB695B101A1C3B699B18D3
:104FE0001B78FB61BB690122134002D0FB691B11D6
:104FF000FB61FB6903221340032B4DD1BB690122E6
:10500000134001D0302300E00323BB60BB695B1079
:105010001A1C3B699B18BA695210111C3A69521844
:105020001278B968C9B2C943C9B20A40D2B21A707B
:10503000BA69131C5B009B187A69D3185B787B6094
:10504000BB69181CFFF7C6FE031C3B603B68002BC6
:1050500003D07B680422134000D11DE0FB690422C9
:10506000134006D0BA693B68101C191CFFF7EAFE12
:105070000CE07B684022134007D0BA693B68101CE3
:10508000191C0022FFF70EFF00E005E0BB695A1C67
:10509000094B1A6001230AE0BB690133BB61BA699D
:1050A000FB689A4297DB044B00221A600023181C0D
:1050B000BD4608B080BDC0467C03001080B584B0FA
:1050C00000AF786039607B68181CFFF755FE031C41
:1050D000FB607B68181CFFF70BFE031CBB60BB6802
:1050E000002B0ADD3B6808331A1CF968BB68081CF2
:1050F000111C1A1C00F058FE07E03B6807331B78B0
:105100003F221340DAB2FB681A707B68181C082132
:10511000FFF708FEBD4604B080BDC04680B58CB028
:1051200000AFF860B9607A600020FFF7CFFD031C84
:10513000BB62FDF74FFE031C7B627B6A1B785B0042
:1051400001333B62FB68181CFDF7FEFD031CFB618D
:10515000FB69002B00DA41E00123FB623AE0FB6AC5
:105160007A6AD3181B781A1EFB699A422FD1FB6A00
:1051700001337A6AD3181B78BB61BA69131C5B00D0
:105180009B18BA6AD3185B787B61BB68802B02D00E
:10519000BB68402B0CD17B6914221340142B05D122
:1051A000BA697B68101C191CFFF788FFC0460EE027
:1051B000BB68002B0BD17B690C2213400C2B06D152
:1051C000BA69FB68101C191C0122FFF76BFEFB6A11
:1051D0000233FB62FA6A3B6A9A42C0DBBD460CB0FE
:1051E00080BDC04680B500AF044B1B689B7C1A1C79
:1051F000034BD318181CBD4680BDC046B0620000EA
:105200008404001080B500AF054B1B689B7C013304
:10521000044AD35C1A1C044BD318181CBD4680BD2D
:10522000B0620000840400108003001080B582B0DA
:1052300000AF00F04BFA031C0F4A944663443B60F6
:1052400000F044FA031C013BFF3B7B600AE07B68F3
:10525000FF331B78FF2B01D07B6808E07B68013BA4
:10526000FF3B7B607A683B689A42F0D20023181CAF
:10527000BD4602B080BDC04600F0FFFF80B582B0E1
:1052800000AFFFF7D3FF031C7B607B68002B09D0C6
:105290000B497A6880235B00081C111C1A1C00F063
:1052A000DBFE07E0064A80235B00101C00211A1C6D
:1052B00000F010FF034B00221A70BD4602B080BD03
:1052C000840400108405001090B585B000AF394B00
:1052D0001B78DBB25A425341DBB2002B00D066E0B0
:1052E000C046354B181CFDF793FD031C1A1C012307
:1052F0005340DBB2002BF4D172B6FFF797FF031CCB
:10530000FB6000F0E3F9031C013BFF3B1A1CFB6848
:10531000D31A5A425341DBB2002B1FD000F0D6F90A
:10532000031C264A94466344181C00F0BDF9031C74
:10533000BB60FC1DBB68181C00F0B2F8031C237096
:10534000FB1D1B78002B01D000F04CFD00F0BEF9D6
:10535000031C1A4A94466344FB600EE0FB68002B72
:1053600004D0FB680133FF33FB6006E000F0AEF9C8
:10537000031C124A94466344FB60114BFF22002138
:105380009954BC1DF9680E4A80235B00081C111C4F
:105390001A1C00F021F9031C2370BB1D1B78002B85
:1053A00001D000F01FFD62B6024B00221A70BD460C
:1053B00005B090BD840500109802001000F0FFFFBA
:1053C0008404001080B582B000AF78607B68002252
:1053D0001A607B68181CBD4602B080BD80B586B0DF
:1053E00000AFF860B9607A60124B1B687B61FB68A4
:1053F0009A68BB689A4206D0FB687A691A60FB68B3
:10540000BA689A6010E0FB681B68002B0CD0FB6840
:105410001A687B68D3187A69D31A05D4FB6800220E
:105420001A60FB68BA685A60FB685B68181CBD4666
:1054300006B080BD9405001080B582B000AF7860E2
:10544000396072B679683A68034B081C111C98479A
:1054500062B6BD4602B080BDF11FFF1F80B58CB0A3
:1054600000AF78600823FB1832221A607A6808239C
:10547000FB185A607A680823FB189A600823FA1808
:105480000823FB181433101C191CFFF7D5FF082341
:10549000FB185B69DBB2181CBD460CB080BDC04672
:1054A00080B58CB000AF78607B68181CFFF7D6FF22
:1054B000031C1A1C0823FB185A610823FB185B699C
:1054C000002B3AD10823FB1834221A607A6808238B
:1054D000FB185A607A680823FB189A601B4B1B68FC
:1054E000181CFA23990000F001FD031C1A1C082364
:1054F000FB18DA600823FA180823FB181433101C71
:10550000191CFFF799FF0823FB185B69002B14D1C6
:105510000823FB1835221A607A680823FB185A60A2
:105520007A680823FB189A600823FA180823FB18E6
:105530001433101C191CFFF77FFF0823FB185B694D
:10554000DBB2181CBD460CB080BDC0460000001088
:1055500080B58EB000AF78607B68002B00DA0F3327
:105560001B117B637B6B181CFFF778FF031C1A1C55
:105570000C23FB185A610C23FB185B69002B20D10C
:105580000C23FB183B221A607A680C23FB185A6024
:105590007A680C23FB189A600E4B1B68181CFA23C0
:1055A000990000F0A3FC031C1A1C0C23FB18DA6002
:1055B0000C23FA180C23FB181433101C191CFFF7CA
:1055C0003BFF0C23FB185B69DBB2181CBD460EB019
:1055D00080BDC0460000001080B590B000AFF860FC
:1055E000B9607A60FB68181C00F05EF8031CFB636E
:1055F000FB6B181CFFF732FF031C1A1C1423FB184B
:105600005A611423FB185B69002B42D11423FB1849
:1056100033221A60FA681423FB185A60BA681423FC
:10562000FB189A601423FB187A68DA601D4B1B681C
:10563000181CFA23990000F059FC031C1A1C1423AF
:10564000FB181A611423FA181423FB181433101CC6
:10565000191CFFF7F1FE1423FB185B69002B18D10E
:105660001423FB1838221A60FA681423FB185A60B6
:10567000BA681423FB189A601423FB187A68DA605E
:105680001423FA181423FB181433101C191CFFF7E9
:10569000D3FE1423FB185B69DBB2181CBD4610B0A7
:1056A00080BDC0460000001080B582B000AF7860B9
:1056B0007B68002B02DA044A944663441B13181CCF
:1056C000BD4602B080BDC046FF0F000080B58EB061
:1056D00000AF1A4B1B68002B02D0184B1B6828E048
:1056E0003B1D35221A6002233B6302237B63802328
:1056F000FB6215E07A6B3B1D5A607A6B3B1D9A602A
:105700003A1D3B1D1433101C191CFFF795FE3B1D61
:105710005B69072B00D106E07A6B3B6BD3187B6388
:105720007B6B7F2BE6DD7B6B1A03044B1A60034B0C
:105730001B68181CBD460EB080BDC0469005001009
:1057400080B584B000AF78600A1CBB1C1A807B68EF
:105750005B127B600023FB6010E07B681F221A4015
:10576000BB1C00215B5E9A4202D1FB689BB209E040
:105770007B685B117B60FB680133FB60FB68032B7C
:10578000EBDD034B1BB2181CBD4604B080BDC04608
:10579000FFFF0000B0B582B000AF021C3960FB1DF6
:1057A0001A70FB1D1B787F2B2FD92D4CFB1D1B78EE
:1057B0001A1C0F231340083B9908294AFB1D1B782C
:1057C000181C0F230340083B9B0806339B00D3188B
:1057D0005B68FA1D1278101C03220240D200101CD4
:1057E000FF228240D2431A403B689B01FF200340C6
:1057F000F81D0078051C03202840C00083401A4390
:105800008B1D9B00E3185A6026E0164CFB1D1B788D
:105810005BB29B081349FA1D127852B29208C0324B
:1058200092005258F91D0978081C03210140C90053
:10583000081CFF218140C94311403A689201FF20B2
:105840000240F81D0078051C03202840C00082405B
:105850000A43C0339B001A51BD4602B0B0BDC046DA
:1058600000ED00E000E100E080B582B000AF7860BC
:105870007B68013B0C4A934201D9012310E00B4B9A
:105880007A68013A5A6001235B42181C0321FFF732
:1058900081FF064B00229A60044B07221A60002306
:1058A000181CBD4602B080BDFFFFFF0010E000E005
:1058B00080B582B000AF78607B6830229B5C0122AB
:1058C0005340DBB2002B01D000231BE00F4B1A68C2
:1058D00080235B00D35CDBB21A1C09231340082B26
:1058E0000ED10A4B1A680223FF33D35CDBB2012BC3
:1058F00006D1074B1B685B7BFF2B01D1012300E026
:105900000023C046181CBD4602B080BDAC6200003A
:10591000B062000080B500AF074B1B68181CFA236B
:10592000990000F0E3FA031C181CFFF79DFF034BDE
:1059300000221A60BD4680BD0000001094050010D2
:1059400080B500AFFFF7E6FFFBF7F8F90A4B1B68DD
:105950001B6808331A68084B1B68181C9047064BD5
:105960001B68181CFFF7A4FF031E02D0FBF71CFAEC
:1059700001E0FBF713FAE9E7C061000080B584B0ED
:1059800000AF78600023FB607B68344A9B5C002B8F
:1059900029D07B689B68181CFFF7DAFD031C5A1E90
:1059A0009341DBB2002B01D000F01CFA7B685B68EE
:1059B000191C7B6814331A1C80235B00081C111C03
:1059C0001A1CFFF709FE031C5A1E9341DBB2002B81
:1059D00001D000F007FA7B68204A00219954FB6847
:1059E00001221343FB607B681D4A9B5C002B2FD078
:1059F0007A6885239B00D358181CFFF7A9FD031C68
:105A00005A1E9341DBB2002B01D000F0EBF97A680B
:105A100085239B00D3581B02191C7B681533FF3369
:105A20001A1C80235B00081C111C1A1CFFF7D4FDF4
:105A3000031C5A1E9341DBB2002B01D000F0D2F9B7
:105A40007B68074A00219954FB6802221343FB60DC
:105A5000FB68181CBD4604B080BDC0462202000091
:105A60002102000080B582B000AF78600A1CFB1CE8
:105A70001A707B68FA1C12781A71FB1C1A78054B95
:105A80009200D2587B681A607B68181CBD4602B031
:105A900080BDC046B462000080B582B000AF7860BF
:105AA0000D490D4A8023D3587A68127907320120B4
:105AB0009040021C134380228B507B681B6800229D
:105AC000DA637B681B6800225A617B681B680022CE
:105AD0009A62BD4602B080BD0080044080B58AB0A5
