:100000000020001049010000CD0100006D610000DA
:100010000000000000000000000000007D7BFFEFFA
:10002000000000000000000000000000D9010000F6
:100030000000000000000000DF010000015F000080
:10004000EB010000EB010000EB010000EB01000000
:10005000EB010000EB010000EB010000EB010000F0
:10006000EB010000EB010000EB010000EB010000E0
:10007000EB010000EB010000EB010000EB010000D0
:10008000EB010000253C000049210000EB010000CD
:10009000EB0100002D050000000000000000000042
:1000A000EB010000EB010000EB010000000000008C
:1000B000EB010000EB010000EB010000EB01000090
:1000C000B8660000000000100800000008000010E2
:1000D000D005000080B588B000AFF860B9607A60E4
:1000E000BB68FB61FB68BB6100237B617A697B684D
:1000F0009A420BD2BA69131DBB61FB69191DF961E4
:1001000012681A607B6904337B61EFE7C046BD4625
:1001100008B080BD80B584B000AF786039607B687E
:10012000FB600023BB60BA683B689A4208D2FB6858
:100130001A1DFA6000221A60BB680433BB60F2E744
:10014000C046BD4604B080BD80B584B000AF1C4B36
:10015000FB60FA681B4B9A4215D2FB681A1DFA60C5
:100160001B68BB60FB681A1DFA601B687B60FB683C
:100170001A1DFA601B683B603A687968BB68180012
:10018000FFF7A8FFE5E7FA680F4B9A4210D2FB6829
:100190001A1DFA601B687B60FB681A1DFA601B68F9
:1001A0003B603A687B6811001800FFF7B3FFEAE78D
:1001B00006F02AF806F0F8F805F094FCFEE7C046D1
:1001C000C0000000CC000000D400000080B500AFEB
:1001D000FEE780B500AFFEE780B500AFFEE780B573
:1001E00000AFFEE780B500AFFEE780B500AFFEE7E9
:1001F00080B582B000AF78607B68180000F005F829
:100200007B681800BD4602B080BD80B584B000AFE9
:1002100078600023FB60FB68052B0BDC7968CC233E
:100220005B00FA688A18D31800221A70FB68013341
:10023000FB60F0E7C046BD4604B080BD80B584B029
:1002400000AF78600023FB60FB68052B19DC796840
:10025000CC235B00FA688A18D3181B78012253401C
:10026000DBB2002B09D07968CC235B00FA688A18CE
:10027000D31801221A70FB6805E0FB680133FB60AC
:10028000E2E701235B421800BD4604B080BD80B5A3
:1002900082B000AF786039603B68002B02DB3B68BE
:1002A000052B02DD01235B4214E07968CC235B005F
:1002B0003A688A18D3181B78002B09D07968CC23A8
:1002C0005B003A688A18D31800221A70002301E0F4
:1002D00001235B421800BD4602B080BD80B582B0EC
:1002E00000AF786039603B68002B02DB3B68052B70
:1002F00001DD002306E03A6813001B019B189B00F8
:100300007A68D3181800BD4602B080BD80B582B0AF
:1003100000AF786039607B68012B07D13B68054AE4
:10032000934203D1044B1800FFF762FFC046BD465D
:1003300002B080BDFFFF00000800001080B500AFD4
:10034000034B19000120FFF7E1FFBD4680BDC04609
:10035000FFFF000080B582B000AF78607B680022AC
:100360005A617B6800229A617B681800BD4602B022
:1003700080BD80B582B000AF786039607B681800BE
:1003800000F057F80300023B5A425341DBB2002B06
:1003900001D0022310E07B689A697B68920039687B
:1003A000D1507B689A697B681100180000F05CF8F6
:1003B00002007B689A6100231800BD4602B080BD30
:1003C00080B582B000AF786039607B68180000F0BB
:1003D0001FF80300033B5A425341DBB2002B01D00C
:1003E000032311E07B685A697B689200D2583B680E
:1003F0001A607B685A697B681100180000F034F8B5
:1004000002007B685A6100231800BD4602B080BD1F
:1004100080B582B000AF78607B685A697B689B6961
:100420009A4201D1032300E000231800BD4602B028
:1004300080BD80B582B000AF78607B689A697B68C8
:100440001100180000F010F802007B685B69D31AF5
:100450005A425341DBB2002B01D0022300E00023BB
:100460001800BD4602B080BD80B582B000AF786094
:1004700039603B6801333B603B68042B01DD00239E
:1004800000E03B681800BD4602B080BD80B582B078
:1004900000AF786039607B68012B13D13B680B4A51
:1004A00093420FD10A4B1800FFF754FF094B180075
:1004B000FFF750FF084B1800FFF74CFF074B1800E1
:1004C000FFF748FFC046BD4602B080BDFFFF0000F9
:1004D000A8010010C4010010E0010010FC01001090
:1004E00080B500AF034B19000120FFF7CFFFBD46D9
:1004F00080BDC046FFFF000080B582B000AF0200A3
:10050000FB1D1A70FB1D1B781A001F2313400122CC
:100510009A401300044A190080235B00D150C04662
:10052000BD4602B080BDC04600E100E080B500AF2E
:10053000034B180000F0ACF8C046BD4680BDC04675
:100540001802001080B586B000AFF860B960FB1DDE
:100550001A7013217B1815221A707B181B781A0049
:100560001F23134001229A401300414A190080239F
:10057000D150C046FB68012252425A61FB680122F9
:1005800052429A61FB6801225242DA61FB68002202
:10059000DA60FB6800229A72FB68FA1D12785A72C0
:1005A000344A354B1100180002F096FA334A344BA6
:1005B0001100180002F090FA324A8023D3583149D2
:1005C00080225201134380228B502E4A982301210E
:1005D000D1502D4B8322DA602A4B9A6F2B4B1B682C
:1005E0005343284998228A581100180005F050FEFC
:1005F00003001B09BA681100180005F049FE03004A
:100600007B61214B7A69120A5A601F4B7A69FF217C
:100610000A401A601C4B0322DA601B4B87229A6047
:10062000194B00221A61184B5A68174B01210A43D3
:100630005A60154B5B69012213405A1E9341DBB28D
:10064000002B03D0104B1B687B61F2E712217B1853
:1006500015221A707B181B781A001F2313400122E1
:100660009A40034B1A60C046C046BD4606B080BDE6
:1006700000E100E000103C0026C2330000604000B2
:100680002702340000800440008000400400001075
:1006900090B589B000AF7860D04B5B680222134000
:1006A00006D0CE4B5B692022134001D0012300E02D
:1006B0000023002B2FD07B68DB68002B0AD17B68DE
:1006C000012252425A61C54B5A68C44B02218A43E7
:1006D0005A6020E01023FB617B68DB680F2B02DC93
:1006E0007B68DB68FB617B68DA68FB69D21A7B6830
:1006F000DA60FB695A1EFA61DA17D31ADB0FDBB234
:10070000002B08D07B681B68591C7A6811601A7826
:10071000B24B1A60EDE71B217B1800221A70AF4B19
:100720009B680E2213400C3B5A425341DBB2002B14
:1007300002D07B1801221A70A84B5B69012213407A
:100740005A1E9341DBB2002B00D181E17B685B7ABA
:10075000002B00D176E07B68DB69002B06DAA04B2A
:100760001800FFF76BFD02007B68DA617B68DB69CC
:10077000002B5ADB7B68DA69994B11001800FFF7F0
:10078000ADFD02007B685A607B6800221A617B68BD
:100790005B6803337B61914B5B690122134005D099
:1007A0007B681B693F2B01DC012300E00023002B49
:1007B0000CD08A4B19687B695A1C7A61CAB21A70CC
:1007C0007B681B695A1C7B681A61E4E77B681B69BC
:1007D000D9B27B685B68581C7A685060CA1CD2B278
:1007E0001A707B685B68591C7A68516000221A7025
:1007F0007B685B6802221A707B68DA69794B1100AA
:100800001800FFF7B6FD03005A1E9341DBB2002B20
:1008100006D07B68DA69724B11001800FFF737FDCC
:100820007B6801225242DA6112E16C4B5B69012262
:1008300013405A1E9341DBB2002B00D108E1674BF5
:100840001B68F2E77B689B7A002B20D01B23FB18E8
:100850001B78002B0FD0614B5B69012213405A1E9D
:100860009341DBB2002B02D05C4B1B68F3E77B6843
:1008700000229A72ECE000233B613B69062B00DD0D
:10088000E6E0564B1B683B6901333B61F5E77B684B
:10089000DB69002B3FDA514B1A680B217B181A7069
:1008A0000A00BB181B78012B03D9BB181B78432BFC
:1008B00003D97B6801229A722DE0494B1800FFF79B
:1008C000BDFC02007B68DA617B68DB69002B03DA20
:1008D0007B6801229A721EE07B68DA69404B110046
:1008E0001800FFF7FBFC02007B685A607B680B2452
:1008F0003A1912781A723B1919783B194A1E1A7064
:100900007B685B68581C7A6850600A1C1A703B1937
:100910001A787B681A617B689B7A01225340DBB2AC
:10092000002B00D194E02D4B5B690122134005D0D0
:100930007B68DB69002B01DB012300E00023002B37
:1009400000D185E0254B1A687B685B68D2B21A70CB
:100950007B685B68591C7A6851601A787B681B7ADF
:10096000D318DAB27B681A727B681B695A1E7B68DF
:100970001A617B681B69002BD5D17B681B7AFF2B22
:100980004ED17B68DA69164B11001800FFF7A6FC00
:1009900002007B685A600123FB607B685B6802335E
:1009A0001B78012B09D17B68DA690F4B1100180005
:1009B000FFF7DFFC0300FB6027E07B685B68023326
:1009C0001B78022B12D17B68DA69064B11001800E4
:1009D000FFF7CFFC0300FB6017E0C046008000403B
:1009E00008000010C4010010E00100107B685B6883
:1009F00002331B78032B08D17B68DA69164B110090
:100A00001800FFF7B6FC0300FB60FB68002B1AD050
:100A10007B68DA69114B11001800FFF738FC12E00F
:100A20007B68DA690D4B11001800FFF730FC0C4BA6
:100A30005B69012213405A1E9341DBB2002B02D0A6
:100A40007B6801229A727B6801225242DA616AE76E
:100A5000C046BD4609B090BDFC0100100800001062
:100A60000080004080B582B000AF78607B685B6931
:100A7000DB43DB0FDBB21800BD4602B080BDFFFFD9
:100A800080B584B000AF786039607B681800FFF7EC
:100A9000E9FF031E01D0022399E03A684E4B110092
:100AA0001800FFF71BFC0300FB600B217B18FA68A2
:100AB00012781A700A00BB181B78012B03D9BB18D7
:100AC0001B78432B01D9012381E00A23FB180B215A
:100AD0007A1812781A707B187A181278023A1A70FB
:100AE0007B685B7A01225340DBB2002B1ED0FB688F
:100AF0000233FB600B22BB181B78BA18591E117009
:100B00005A1E9341DBB2002B0AD0FB685A1CFA60D4
:100B100019780A22BB18BA1812788A181A70E9E7ED
:100B20000A22BB18BA181278D2431A7009217B180E
:100B300015221A707B181B781A001F2313400122FC
:100B40009A401300254A19008023D150C0463A68C4
:100B5000214B11001800FFF7C1FB02007B681A60EF
:100B60007B681B681B781A007B68DA607B685B7A9D
:100B7000002B0AD07B681B68DA1C7B681A607B68D4
:100B8000DB68DA1E7B68DA6006E07B681B6801338D
:100B90000A22BA1812781A707B683A685A61104BA8
:100BA0005A680F4B02210A435A6008217B1815220C
:100BB0001A707B181B781A001F23134001229A40D9
:100BC000064B1A60C0461520FFF796FC002318005C
:100BD000BD4604B080BDC0460800001000E100E042
:100BE0000080004080B586B000AF78601723FB1806
:100BF00000221A707B681800FFF734FF03001A0008
:100C000001235340DBB2002B4AD07B689B69002B49
:100C10000ADB7B689A69264B11001800FFF737FB47
:100C20007B68012252429A61224B1800FFF7F0FBC9
:100C30000300033B5A1E9341DBB2002B30D07B688C
:100C400018331A001B4B11001800FFF7B9FB7B6823
:100C50009A69174B11001800FFF740FB03003B6136
:100C60003B6902331B78022B03D11723FB180122A7
:100C70001A707B689A697B6811001800FFF700FF03
:100C80000300FB60FB68002B0AD07B689A69084B65
:100C900011001800FFF7FBFA7B68012252429A61AB
:100CA0001723FB181B781800BD4606B080BDC04650
:100CB00008000010A801001080B584B000AFF860F3
:100CC000B9607A603B603B687A68B968F86802F09E
:100CD000D9FFC046BD4604B080BDFFFF80B582B0DD
:100CE00000AF7860024BDB6A1800BD4602B080BDE1
:100CF0009C02001080B582B000AF78607B6818005D
:100D000002F09CFF034A7B681A607B681800BD46AE
:100D100002B080BD0C66000080B58EB000AFC0236D
:100D2000DB01584A1900100001F0D6FE554BFB605C
:100D30000B217B1800221A70FB681F22134001222E
:100D40009A4013007B607B181B78002B01D07B68D6
:100D500000E00023FA685211032111404A4A890039
:100D60008A58796889008B50C046C023DB01474A06
:100D70001900100001F0B0FE444BBB6117217B1835
:100D800000221A70BB691F22134001229A401300EF
:100D90003B617B181B78002B01D03B6900E00023EE
:100DA000BA69521103211140374A89008A583969BA
:100DB00089008B50C046FA235B00180004F01EFF28
:100DC000304B7B6223217B1801221A707B6A1F2221
:100DD000134001229A401300FB617B181B78002B03
:100DE00001D0FB6900E000237A6A5211032111400F
:100DF000254A89008A58F96989008B50C046234BDF
:100E00003B632F217B1801221A703B6B1F2213407A
:100E100001229A401300BB627B181B78002B01D083
:100E2000BB6A00E000233A6B521103211140164ABD
:100E300089008A58B96A89008B50C046144801233A
:100E400001220221FFF738FF114B1800FFF746FF80
:100E500003007B637B6B002B03D07B6B0D4A9342BB
:100E600005D10B4B0C4A1100180002F099FFE12349
:100E700059020A4B00221800FFF764FBC046BD462A
:100E80000EB080BD40825C009465000025423C00AD
:100E900038020010FFFF00000111000018020010CE
:100EA00080B500AF00F004F8C046BD4680BDFFFF2E
:100EB00080B500AF0A4B1800FFF794FE094B1800ED
:100EC00000F082FC084B180001F04CFD074B1800A5
:100ED00000F05EF830BFC046C046BD4680BDC0468B
:100EE000180200101403001034030010080300104F
:100EF00090B585B002AF786039607B68012B19D15D
:100F00003B680E4A934215D10D4B180064231A001A
:100F1000002105F0BDFA0A4B1800FFF7EBFE094C63
:100F2000094A0A490A480023019300230093230039
:100F300003F034F8C046BD4603B090BDFFFF00008B
:100F4000380200102982690028C20100A40500109F
:100F50009C02001080B500AF034B19000120FFF781
:100F6000C7FFBD4680BDC046FFFF000080B582B010
:100F700000AF78607B6800221A607B6800225A60AC
:100F80007B6800221A727B681800BD4602B080BDE3
:100F900080B588B000AF7860894B1800FFF738FA49
:100FA0000300033B5A1E9341DBB2002B00D197E0B4
:100FB0000C23FA18824B11001800FFF701FAFA68A7
:100FC000804B11001800FFF789F90300FB61FB69F2
:100FD0001B78BB61FB6902331B78032B00D079E0DF
:100FE000BB69052B00D075E0774B1B68C333FF331B
:100FF0001A007B685A60FB6903331B78022B02D00E
:10100000032B5DD066E0FB6904331B78042B3ED0D4
:101010005FDC032B2AD05CDC012B12D0022B58D1D1
:101020007B681B7A022B43D0684B0021180000F02C
:101030003BFA674B180000F0DBFF7B6802221A7254
:1010400036E07B681B7A012B34D0604B180000F02F
:101050008DFA5E4B0021180000F026FA5C4B180058
:1010600000F0C6FF7B6801221A7223E07B681B7ABE
:10107000032B21D0554B0121180000F015FA544BD9
:10108000180000F0B5FF7B6803221A7214E07B6839
:101090001B7A042B12D04D4B0021180000F004FAEB
:1010A0004B4B180000F090FF7B6804221A7205E099
:1010B000C0460EE0C0460CE0C0460AE0C04608E06C
:1010C000FB6904331A78424B1100180000F0A4FFAA
:1010D00000E0C046FA683B4B11001800FFF7D7F854
:1010E000394B1A687B685B68D31A002B05DD7B6877
:1010F0001B7A002B01D0012300E00023002B0FD02E
:10110000324B180000F032FA304B0021180000F08A
:10111000CBF92F4B180000F06BFF7B6800221A728E
:10112000294B1A687B681B68D31ADA17D31ADB0FAE
:10113000DBB2002B40D0234B1800FFF77FF80300F1
:101140007B617B69002B31DB7A691E4B1100180033
:10115000FFF7C4F803003B613B695A1C3A61052262
:101160001A703B6901333B613B695A1C3A610322A7
:101170001A703B695A1C3A6101221A703B695A1C69
:101180003A617A68127A1A707A69124B1100180063
:10119000FFF7EFF803005A1E9341DBB2002B05D096
:1011A0007A69084B11001800FFF771F8064B1B68AD
:1011B000C8331A007B681A60C046BD4608B080BDBF
:1011C000FC01001008000010980500101403001026
:1011D00034030010A801001080B582B000AF786021
:1011E00039607B68012B07D13B68054A934203D1E4
:1011F000044B1800FFF7BAFEC046BD4602B080BDE2
:10120000FFFF00000803001080B500AF034B19007A
:101210000120FFF7E1FFBD4680BDC046FFFF000093
:1012200080B582B000AF7860024BDB6A1800BD4623
:1012300002B080BD9C02001080B582B000AF786023
:101240007B68DB6C5A1E9341DBB21800BD4602B0CE
:1012500080BD80B582B000AF78607B689B695A1E04
:101260009341DBB21800BD4602B080BD80B582B0AC
:1012700000AF78607B6800229A61C046BD4602B02C
:1012800080BD80B582B000AF786039603B68013BBB
:10129000FF3B7A68D3181800BD4602B080BD80B508
:1012A00082B000AF786039607B68012252421A60D8
:1012B0007B6800229A717B680022DA717B680022C9
:1012C0001A727B681E225A717B6801221A777B682A
:1012D0003A685A617B685B69C022D201110018002C
:1012E00001F0FAFB7B680021180000F009F87B6828
:1012F00000229A617B681800BD4602B080BDFFFFE6
:1013000080B586B000AF78600A00FB1C1A707B685D
:101310005B69FA1C127801214A40D2B27B61132129
:101320007B181A707B691F22134001229A40130018
:10133000FB607B181B78002B01D0FB6800E00023CA
:101340007A69521103211140054A89008A58F968C7
:1013500089008B50C046C046BD4606B080BDC04621
:101360009465000080B582B000AF78607B681B7F19
:10137000002B14D07B68DB68012B10DC7B68DB68FA
:10138000002B04D17B6800211800FFF7B9FF7B68B0
:10139000DB689A1C7B68DA607B680A221A61C046A7
:1013A000BD4602B080BD80B582B000AF78600A0053
:1013B000FB1C1A707B681B7FFA1C12789A420AD0B9
:1013C0007B68FA1C12781A777B681A7F7B68110099
:1013D0001800FFF795FF7B681B7F002B29D07B68E7
:1013E000DB68002B2BD07B681B69002B04DD7B683E
:1013F0001B695A1E7B681A617B681B69002B1ED112
:101400007B68DB685A1E7B68DA607B68DB68002BD0
:1014100015DD7B680A221A617B68DB6801221340B4
:101420005A1E9341DAB27B6811001800FFF768FF7B
:1014300005E07B680022DA607B6800221A61C04602
:10144000BD4602B080BDFFFF80B582B000AF7860BE
:1014500039603B68FF2B11DC3B684E2B01D1002328
:101460001CE03B684F2B01D1122317E03B68602B37
:1014700002D17B685B7911E000230FE03A6880239A
:101480009B009A4209DA074B1B683A681100180062
:10149000FFF7F7FE03001B7800E000231800BD46AD
:1014A00002B080BD6C66000080B582B000AF78608D
:1014B0000A00FB1C1A707B68FA1C12789A71C046ED
:1014C000BD4602B080BDFFFF80B584B000AFF860BC
:1014D000B9603B60FB1D1A703B6800221A70BB6844
:1014E000602B2AD1FB1D1B78C02B19D025DC962B35
:1014F00020D022DC902B1FD01FDC122B02D01E2B01
:1015000007D01AE0FB6812225A71FB680122DA71D7
:1015100013E0FB681E225A71FB680022DA710CE0AE
:10152000FB681E225A71FB680022DA713B680122B7
:101530001A7002E0C04600E0C046BB68FF2B0FDD1A
:10154000BA6880239B009A420ADA074B1B68BA6884
:1015500011001800FFF795FE0200FB1D1B781370A9
:10156000C046BD4604B080BD6C66000080B584B046
:1015700000AF78600F23FB187868C0226021FFF766
:10158000A3FFC046BD4604B080BD80B584B000AFA7
:10159000F860B960FB1D1A70BB680833FA1D127839
:1015A0001A70BB680433FA1D12780832D2B21A706E
:1015B000FB1D1B780E33DAB2BB681A70C046BD46FD
:1015C00004B080BDB0B588B000AF786039603A68CB
:1015D0007A4B11001800FEF781FE03003B613B6966
:1015E0000533FB61FB6902331B781B02FA69033286
:1015F00012789B18FB60FB690A331B781B02FA699F
:101600000B3212789B18BB611723FB18FA69527AC8
:101610001A700B23FB1800221A70FB6908331B7821
:101620004C2B07D000DDBAE0112B00D1A0E0462BF7
:101630003ED0B4E01723FB181B780433DAB23969C3
:101640007B681800FFF7A1FFFB6908334B221A7073
:10165000FB690C33FB6117257B191B78002B13D01A
:10166000BB695A1CBA611A00FC69631CFB617B6888
:1016700011001800FFF7E8FE030023707B191A78A9
:101680007B19013A1A70E6E73A684D4B11001800D1
:10169000FEF76FFE03005A1E9341DBB2002B00D110
:1016A00084E03A68454B11001800FEF7F0FD7DE03C
:1016B000FB690C33FB6117243B191B78002B16D0F8
:1016C0000B203B181B78002B11D1BB695A1CBA6147
:1016D0001900FB695A1CFA611A783B187868FFF701
:1016E000F3FE3B191A783B19013A1A70E3E70B2312
:1016F000FB181B78002B34D039697B680122180055
:10170000FFF743FF3B690D33FB61FB695A1CFA612C
:10171000A0221A70FB695A1CFA6100221A70FB6938
:101720005A1CFA6100221A70FB695A1CFA610022E5
:101730001A70FB695A1CFA6100221A703A68204B31
:1017400011001800FEF715FE03005A1E9341DBB28C
:10175000002B2DD03A68194B11001800FEF797FDA9
:1017600026E03A68154B11001800FEF790FD1FE0C7
:10177000FB695A7A7B681A717B683A681A60FB6960
:1017800009331900FB689BB2013B9AB20D4B18005C
:1017900003F022FB7B681800FFF7E4FD09E03A68DC
:1017A000064B11001800FEF772FD02E0C04600E093
:1017B000C046C046BD4608B0B0BDC04608000010D7
:1017C000A80100109C02001080B58EB000AF7860B8
:1017D0003623FB1800221A707B689B79002B03D1FB
:1017E0007B68DB79002B1DD0D54B1A6880235B000A
:1017F000D35CDBB21A00042313405A1E9341DBB2C0
:10180000002B30D0CE4B1A6880235B00D35CD9B25A
:10181000CB4B1A687C235B424B40D9B280235B00E0
:10182000D15420E0C64B1A6880235B00D35CDBB246
:101830001A00042313405A425341DBB2002B12D04A
:10184000BF4B1A6880235B00D35CD9B2BC4B1A68CB
:101850007C235B424B40D9B280235B00D1543623BA
:10186000FB1801221A707B689B79002B0DD07B68D6
:10187000DB79002B04D03723FB1800221A7008E014
:101880003723FB1801221A7003E03723FB180022CC
:101890001A70AC4B1800FFF7DCFC031E00D137E1D7
:1018A0007B681B7A01225340DBB2002B00D194E00D
:1018B0007B689B79002B04D17B68DB79002B00D1FE
:1018C0008BE0A14B1800FEF7B9FC03007B627B6A3A
:1018D000002B00DA7DE07A6A9B4B11001800FEF7BE
:1018E000FDFC03003B63974B9B69DAB2396B7B6865
:1018F0001800FFF74AFE3B6B02333B633B6B5A1CFD
:101900003A6301221A703B6B5A1C3A6313221A7015
:101910003B6B01333B633B6B5A1C3A6300221A70EA
:101920003B6B5A1C3A6308221A703B6B5A1C3A6391
:1019300000221A703B6B01333B633B6B5A1C3A63CA
:1019400001221A703B6B5A1C3A6301221A703B6BDE
:101950005A1C3A6300221A703B6B5A1C3A630022ED
:101960001A707B68DB79002B01D0492100E0C92186
:101970003B6B5A1C3A630A1C1A700023FB62714BC2
:101980009B690122111CFA6A9A4201DB0023191C8F
:10199000CBB2002B0BD03B6B5A1C3A636949FA6AF5
:1019A0008A1812781A70FB6A0133FB62E7E77A6AD9
:1019B000664B11001800FEF7DCFC03005A1E934131
:1019C000DBB2002B05D07A6A5F4B11001800FEF7DE
:1019D0005EFC7B681800FFF7C5FC3723FB181B78FB
:1019E000002B05D13623FB181B78002B00D186E095
:1019F0002B23FB1800221A707B6800221A72514BAD
:101A0000DB781B024F4A127913433B624D4B5B79E3
:101A10005BB2002B12DA3B6A002B05D03B6A180040
:101A200001F0FAF9031E01DB012300E00023002B83
:101A300014D02B23FB1801221A700FE0414B180021
:101A4000FFF7EEFB02003B6A9B1A5A425341DBB29E
:101A5000002B03D02B23FB1801221A702B23FB1819
:101A60001B78002B43D03623FB181B78002B1FD08C
:101A7000374B1B68FB61334B1800FFF7DDFB031E80
:101A800016D0334B1A68FB69D31A64229A429B41E1
:101A90005B42DBB2002BEED03623FB1800221A701B
:101AA0007B6800221A72274B1800FFF7DFFBE2E782
:101AB000244B1800FFF7CDFB031E28D0214B180044
:101AC000FFF7BAFB03001A0001235340DBB2002BDF
:101AD00009D0204B1A681F4B1B681B6804331B6816
:101AE0001000984713E07B6801221A720FE07B68B0
:101AF00000221A72134B1800FFF7B8FB07E07B684F
:101B000000221A720F4B1800FFF7B0FB00E0C0462E
:101B10007B681B68002B1FDB0A4B1800FFF78CFB50
:101B200003001A0001235340DBB2002B14D07B6862
:101B30001B7A01225340DBB2002B0DD001230CE0B5
:101B4000686600009C02001008000010A801001048
:101B500098050010806500000023002B29D07B68C9
:101B60001A68454B11001800FEF7B8FB0300BB6173
:101B7000BB690D334E221A70BB690E337A68127935
:101B80001A707B681A683D4B11001800FEF7F1FBD4
:101B900003005A1E9341DBB2002B06D07B681A6803
:101BA000354B11001800FEF772FB7B680122524290
:101BB0001A607B681B68013308D1314B1800FEF7AF
:101BC00027FC0300032B01D0012300E00023002B9E
:101BD0002DD00823FA182A4B11001800FEF7F0FB4D
:101BE000BA68254B11001800FEF778FB03007B61F3
:101BF0007B691B783B617B6904331B780333FB6093
:101C00007B6902331B78012B0BD1FB6802333A69E5
:101C10009A4206D1BA687B6811001800FFF7D2FC1F
:101C200005E0BA68144B11001800FEF730FB154BA5
:101C30001A687B689B69D31A09229A429B415B42CE
:101C4000DBB2002B13D00F4B1A687B689A617B685C
:101C50009B79002B03D17B68DB79002B01D001231A
:101C600000E000237A6819001000FFF79CFBC046D3
:101C7000BD460EB080BDC04608000010A80100108F
:101C8000E00100109805001080B582B000AF7860C8
:101C900039607B68012B09D13B68064A934205D124
:101CA000054A064B11001800FFF7F9FAC046BD4679
:101CB00002B080BDFFFF000025423C00140300106D
:101CC00080B500AF034B19000120FFF7DDFFBD46D3
:101CD00080BDC046FFFF000080B582B000AF0200AB
:101CE000FB1D1A70FB1D1B781A001F2313400122D5
:101CF0009A40034B1A60C046BD4602B080BDC04644
:101D000000E100E080B582B000AF0200FB1D1A7058
:101D1000FB1D1B781A001F23134001229A40130059
:101D2000034A19008023D150C046BD4602B080BD91
:101D300000E100E080B582B000AF0200FB1D1A7028
:101D4000FB1D1B781A001F23134001229A40130029
:101D5000044A190080235B00D150C046BD4602B042
:101D600080BDC04600E100E080B584B000AFF860FF
:101D7000B9607A603B60FB68BA681A60FB687A6891
:101D80005A60FB683A689A60FB68BA69DA60FB6877
:101D90001C22BA1812781A74FB682022BA1812781A
:101DA0005A74FB682422BA1812789A74FB68BA6ACB
:101DB000DA63FB68FA6A1A64FB68012252429A628B
:101DC000FB68012252425A62FB6800225A61FB689A
:101DD00000229A61FB6800229A63FB6800225A6322
:101DE000FB68442200219954FB6845220021995444
:101DF000FB681800BD4604B080BDFFFF90B58FB0F2
:101E000000AF78607B689B684E4A1100180000F0B4
:101E100063FE7B68012252429A627B680122524231
:101E20005A627B6800225A617B6800229A617B6853
:101E300000229A637B6800225A637B681B68180043
:101E400003F0A4FF7B6818687B681B7C8122190063
:101E500004F00FF87B681B687B617B691B685A681C
:101E60007B691B6801210A435A60C0467B681B6876
:101E7000BB61BB691B791033DBB25BB21800FFF7A3
:101E80002BFFC0467B681C682F4B1B682F4918002E
:101E900004F0FEF90300013B3C62FB613B6A1B68F6
:101EA000FA69DA60C0467B6818687B689B7C2022F0
:101EB000190003F08FFF7B681B687A68927CFB62D5
:101EC000BA62234B7B62FB6A1B6818331A00BB6A39
:101ED0009B00D3187A6A1A60C0467B681B687B63D4
:101EE0001B4B3B637B6B1B683A6B9A60C0467B68FD
:101EF0001B687A68927C3B61FA603B691B68DB6B0C
:101F00000121FA6891400A0013405A1E9341DBB246
:101F10005A425341DBB2002B00D0E8E77B68DB6814
:101F2000E022D2011100180000F0D6FD7B689B680A
:101F3000084A1100180000F0CFFDC046BD460FB0A2
:101F400090BDC046101000000400001040420F0079
:101F5000FFFF00003020000080B584B000AF786043
:101F60007B681B68FB60FB681B791033DBB25BB2DC
:101F70001800FFF7C7FEC0467B68012252429A62F2
:101F80007B68012252425A627B6800225A617B6858
:101F900000229A617B6800229A637B6800225A6360
:101FA0007B68DB68074A1100180000F095FD7B682C
:101FB0009B68044A1100180000F08EFDC046BD4623
:101FC00004B080BD1010000080B582B000AF786012
:101FD0007B684422012199547B681800FFF70EFFAB
:101FE0007B68180000F02CF8C046BD4602B080BDEA
:101FF00080B582B000AF78607B684422002199549C
:102000007B681800FFF7A8FF7B68180000F018F83D
:10201000C046BD4602B080BD80B582B000AF7860DA
:102020000A00FB1C1A707B68FA1C452112785A546E
:102030007B68180000F004F8C046BD4602B080BDC1
:1020400080B588B000AF78607B6844229B5C002B31
:1020500060D07B68DB6B7A684521525C11000222FC
:102060000A40511E8A41D2B23B610F217B181A707F
:102070003B691F22134001229A401300BB607B186A
:102080001B78002B01D0BB6800E000233A69521195
:10209000032111402A4A89008A58B96889008B5067
:1020A000C0467B681B6C7A684521525C1100012296
:1020B0000A40511E8A41D2B2FB611B217B181A7063
:1020C000FB691F22134001229A4013007B617B1899
:1020D0001B78002B01D07B6900E00023FA695211C4
:1020E00003211140164A89008A58796989008B506A
:1020F000C0467B68DB6BC022D2011100180000F0E3
:10210000EBFC7B681B6CC022D2011100180000F0B0
:10211000E3FC11E07B68DB6B0A4A1100180000F059
:10212000DBFC7B681B6C074A1100180000F0D4FC34
:102130007B68452203219954C046BD4608B080BD46
:10214000946500001010000080B500AF034B18002C
:1021500000F006F8C046BD4680BDC04634030010FE
:1021600090B5B1B000AF7860BF23FB1800221A70A1
:10217000BE23FB1800221A70BD23FB1800221A7020
:102180007B681B687A68127CA021781803609F2006
:102190003B181A707B181B681B681B683A1812786A
:1021A000102191400A0013405A1E9341DBB2002BCC
:1021B0005ED07B6818687B681B7C0022190003F0E6
:1021C00058FE7B685B69002B3FD17B681B687A688F
:1021D000127C8C217818036088203B181A607B18C9
:1021E0001B681B682C331A003B181B689B00D31814
:1021F0001B68B0203A1813607B681A687B685B7CA8
:1022000019003B181B68343398203C182260942432
:102210003A19116090217A1813603B181B681B68EB
:1022200018331A003B191B689B00D3187A181268E0
:102230001A60C0467B6818687B685B7C01221900C5
:1022400003F0C8FD7B680A225A617B681B687A68C4
:10225000127C84217818036083203B181A703B1885
:102260001B7810229A407B181B681B681A60C046B6
:102270007B681B687A68527CFB677B217B181A702D
:10228000FB6F1B681B687A181278012191400A00C5
:1022900013405A1E9341DBB2002B00D1CEE07B6885
:1022A0005B69002B0CD1BD23FB1801221A707B68DF
:1022B00018687B685B7C0022190003F08BFD7EE0D0
:1022C0007B685B69012B2AD17B6800225A617B689D
:1022D0009B687B677B6F5B1103221A40B64B9200B1
:1022E000D3587A6F1F210A40012191400A009200C1
:1022F000D3585A1E9341DBB2002B03D0BE23FB18E8
:1023000001221A707B6818687B685B7C00221900C8
:1023100003F060FDBF23FB1801221A704FE07B68B9
:102320005B690A2B26D17B689B683B673B6F5B111F
:1023300003221A40A04B9200D3583A6F1F210A4043
:10234000012191400A009200D3585A1E9341DBB2FA
:10235000002B34D07B6800225A617B6818687B6848
:102360005B7C0022190003F035FDBF23FB1801221E
:102370001A7024E07B681B7F5B08DBB25AB27B6873
:102380009B68FB66FB6E5B11032119408A4B890039
:10239000CB58F96E1F2001400120884001008900C0
:1023A000CB58591E8B41DBB2002B02D080235B42FD
:1023B00000E0002313435BB2DAB27B681A777B68D4
:1023C0005B69012B2ADD7B681B687A68527CFB65A0
:1023D000BA65FB6D1B6818331A00BB6D9B00D318E0
:1023E0001B68AC203A1813607B681A687B685B7CBA
:1023F00019003B181B686833BA6679663B66BB6E8A
:102400001B6818331A007B6E9B00D3183A6E1A6053
:10241000C0467B685B695A1E7B685A617B681B6893
:102420007A68527C7B6553217B181A707B181B7865
:1024300001229A407B6D1B681A60C0467B681B684E
:102440007A68927CFB644B217B181A70FB6C1B68CA
:102450001B687A181278012191400A0013405A1E15
:102460009341DBB2002B00D1B3E07B681B687A6834
:10247000927CFB63BA63FB6B1B6818331A00BB6B5F
:102480009B00D3181B68B822BA1813607B681B68BE
:102490007A68927C7B6443217B181A707B181B78C6
:1024A00001229A407B6C1B681A60C0467B689B695E
:1024B000012B00D182E0B7217B1800221A707B68C3
:1024C0009B690B2B10D07B685B7F1A0001231A409D
:1024D0007B18511E8A411A707B685B7F5B08DBB2F8
:1024E000803BDAB27B685A77B822BB181B68683326
:1024F000BA1813607B689B695A1E7B689A617B6877
:102500009B69012B20D0B723FB181B787A68527F78
:10251000110001220A40511E8A41D2B2934213D1C6
:102520007B685B7F5B08DBB2803BDAB27B685A7703
:10253000B822BB181B686833BA1813607B689B69A4
:102540005A1E7B689A61DAE77B681B687A68927C1E
:102550007B633A63B823FB181B68FB627B6B1B68C9
:1025600018331A003B6B9B00D318FA6A1A60C046F6
:102570007B689B69012B16D0B723FB181B78002BB7
:1025800008D07B6818687B689B7C1122190003F0D7
:1025900021FC1EE07B6818687B689B7C2122190067
:1025A00003F018FC15E07B6818687B689B7C0122AF
:1025B000190003F00FFC0CE0946500007B6800221A
:1025C0009A617B6818687B689B7C0022190003F085
:1025D00001FCBF23FB181B78002B38D07B681B68DD
:1025E0007A68527CFB61BA61FB691B6818331A0078
:1025F000BB699B00D3181B68A8203A1813607B683E
:102600001A687B685B7C19003B181B688220C0003D
:1026100084466344BA6279623B62BB6A1B681833C2
:102620001A007B6A9B00D3183A6A1A60C0467B681E
:1026300018687B685B7C0122190003F0CBFB7B6888
:1026400018687B681B7C8122190003F012FC7B68F0
:102650005B6A002B00DA89E07B689B69002B00D065
:1026600084E07B685B6B002B35D07B681B68BB60AC
:10267000BB681B689B686833A4217A1813607B6869
:102680001B687A68927C7B613A617B181B68FB60EF
:102690007B691B6818331A003B699B00D318FA68E2
:1026A0001A60C0467B6818687B689B7C1122190001
:1026B00003F090FB7B68DB6A591C7A68D1621A7858
:1026C0007B685A777B685B6B5A1E7B685A637B68B2
:1026D0000B229A614AE07B6818687B689B7C002229
:1026E000190003F0C6FB7B685A6A634B110018009F
:1026F000FDF7F4FD02007B68DA627B68DB6A591C37
:102700007A68D16205221A707B68DB6A5A1C7B6882
:10271000DA627B68DB6A591C7A68D16203221A701C
:102720007B68DB6A591C7A68D16203221A707B6865
:10273000DB6A591C7A68D16200221A707B685A6A77
:102740004E4B11001800FDF714FE03005A1E934172
:10275000DBB2002B06D07B685A6A474B1100180089
:10276000FDF795FD7B68012252425A62BE23FB1899
:102770001B78002B41D07B689B6A002B2CDA3E4BE8
:102780001800FDF75BFD02007B689A627B689B6A1C
:10279000002B21DB7B6800229A637B689A6A364BA8
:1027A00011001800FDF79AFD02007B681A637B6830
:1027B0001B6B591C7A68116303221A707B681B6BB0
:1027C000591C7A68116300221A707B681B6B591CB4
:1027D0007A68116302221A707B689B6A002B0CDBFB
:1027E0007B681B6B591C7A6811637A68127F1A70B8
:1027F0007B689B6B5A1C7B689A637B689B6B0F2B77
:1028000008DCBD23FB181B78002B30D07B689B6B4A
:10281000002B2CDD7B689A6A174B11001800FDF71E
:102820005DFD02007B681A637B689B6BDAB27B6894
:102830001B6B0332D2B21A707B689A6A0F4B11007D
:102840001800FDF796FD03005A1E9341DBB2002BE2
:1028500006D07B689A6A084B11001800FDF717FD37
:102860007B68012252429A627B6800229A63C046CA
:10287000BD4631B090BDC04608000010A801001050
:1028800080B582B000AF78607B685B6ADB43DB0FAA
:10289000DBB21800BD4602B080BDFFFF80B586B038
:1028A00000AF786039607B681800FFF7E9FF031E0E
:1028B00001D0022350E03A68294B11001800FDF7BF
:1028C0000DFD03007B6113217B187A6912781A7061
:1028D0000A00BB181B78012B03D9BB181B78432BAC
:1028E00001D9012338E07B681B68BB60BB681B799A
:1028F0001033DBB25BB21800FFF704FAC0463A6847
:10290000174B11001800FDF7E9FC02007B68DA6242
:102910007B68DB6A1B78DA1E7B685A637B68DB6A3C
:10292000DA1C7B68DA627B683A685A627B681B68EB
:10293000FB60FB681B791033DBB25BB21800FFF75A
:10294000CBF9C0467B685B68DBB21033DBB25BB2AD
:102950001800FFF7EFF900231800BD4606B080BD50
:102960000800001080B584B000AF78607B68180064
:10297000FFF786FF03001A0001235340DBB2002B50
:1029800031D01B4B1800FDF743FD0300033B5A1EDB
:102990009341DBB2002B26D00823FA18144B110008
:1029A0001800FDF70DFD7B6844229B5C002B14D0C2
:1029B000BA687B6811001800FFF770FF0300FB6026
:1029C000FB68002B0FD0BA680A4B11001800FDF706
:1029D0005EFC01235B42BB6005E0BA68054B110059
:1029E0001800FDF754FCC046BD4604B080BDC0468B
:1029F000C40100100800001080B588B006AF7860F0
:102A000039607B68012B16D13B680D4A934212D185
:102A10000C4A0D490D480E4B05930E4B04930323AE
:102A2000039300230293002301930B4B00931300A5
:102A30000222FFF799F9C046BD4602B080BDC046EC
:102A4000FFFF000049C20100AC0500103403001074
:102A5000080233002A83300C0B41100680B500AF0A
:102A6000034B19000120FFF7C7FFBD4680BDC046DC
:102A7000FFFF000080B586B000AFF860B960BB1DF5
:102A80001A801623FB1800221A8016217A18BB1D03
:102A90000020125E00201B5E9A4215DA7B1800228D
:102AA0009B5E9B00BA68D3181B68FA689A4203D1F0
:102AB0007B1800229B5E0BE016217B181B880133DC
:102AC0009AB27B181A80E0E703F010FB01235B4207
:102AD0001800BD4606B080BD80B588B000AF7860F4
:102AE00039607B685B1103221A40AA4B9200D358CD
:102AF0007B617B681F22134001229A401223FB183E
:102B00001A803B689AB21023FB18120B12031A802A
:102B10003B681B051B0DFB613B689B141AB21A2016
:102B20003B181F210A401A803B1800229B5E002B95
:102B300002D13B1801221A8010217B181A88C02369
:102B4000DB019A4205D07B181A88E023DB019A4208
:102B500018D17A6980231B02D2581223FB181B88D4
:102B60001A4311007A6980231B02D1501023FB18ED
:102B70001A88E023DB019A425ED11A23FB18062251
:102B80001A8059E07A6980231B02D3581222BA189E
:102B90001288D2431A4011007A6980231B02D15057
:102BA0001023FB181A8880239B019A4227D11A23ED
:102BB000FB1807221A807B68774A934204D1774A30
:102BC000C0230021D15037E07B68754A934204D17D
:102BD000724AC0230121D1502EE07B68714A934292
:102BE00004D16E4AD0230021D15025E07B686E4A83
:102BF000934221D1694AD0230121D1501CE01023F6
:102C0000FB181A88C0239B019A4204D11A23FB188F
:102C100002221A8010E01A23FB1800229B5E0F2B61
:102C20000AD162497B6804221800FFF723FF0300E2
:102C30005A4A1900D423D1501A23FB1800229B5E54
:102C40000C2B12D17B685A4A934204D1534AC823B1
:102C50000021D15069E07B68564A934200D064E07D
:102C60004E4AC8230121D1505FE01A23FB180022ED
:102C70009B5E0D2B11D17B684F4A934204D1474A8A
:102C8000CC230021D15050E07B684C4A93424CD178
:102C9000424ACC230121D15047E01A23FB180022DD
:102CA0009B5E0E2B2CD17B68454A934204D13B4A54
:102CB000B0230021D15038E07B68424A934204D1CE
:102CC000364AB0230121D1502FE07B683E4A93421F
:102CD00004D1324AB0230221D15026E07B683B4A1E
:102CE000934204D12D4AC4230021D1501DE07B68BA
:102CF000374A934219D1294AC4230121D15014E003
:102D00001A23FB1800229B5E0B2B0ED17B68284AEE
:102D1000934203D1214B00229A6106E07B682D4A41
:102D2000934202D11D4B01229A617A6880235B0095
:102D3000134009D01A23FB1800229B5E022B03D0FC
:102D4000FB6980221343FB611A22BB1800215B5EE2
:102D5000002B13D0BB1800229A5E7B68110018006C
:102D600002F0BCFD0300FB60FB68002B04DBFB688A
:102D7000FA691343FB6101E003F0B8F97B681800BE
:102D800000F02AF80300FA691A60C046BD4608B090
:102D900080BDC0469465000002C23A000040044075
:102DA00063823D0025423C0049C201008465000069
:102DB000424265002A83300C43826D0029826900FB
:102DC0000A4A70064B823B000602700041C2740042
:102DD0006242350E4482590080B582B000AF7860FF
:102DE0007B685B1103221A407B681F210B4018008F
:102DF000074913005B009B189B001B185B005B5A84
:102E0000044A944663449B001800BD4602B080BD4E
:102E1000A46500000010011080B588B000AF786094
:102E200000F036F80300FB610023BB61FB69002B57
:102E300002D0FB691B78BB617B681B123B617B681E
:102E4000FF221340FB60FB690333FB6101237B61BD
:102E50007A69BB699A4215DCFB691B781A003B69E9
:102E6000934208D1FB6901331B781A00FB68934237
:102E700001D17B6908E07B6901337B61FB69023327
:102E8000FB61E5E701235B421800BD4608B080BD49
:102E900080B500AF024B1B6816331800BD4680BDDD
:102EA0006C66000080B500AF044B1B685B7C1A00A9
:102EB000034BD3181800BD4680BDC0466C660000A9
:102EC0008804001080B500AFBFF34F8FC046034B9E
:102ED000034ADA60BFF34F8FC046FEE700ED00E023
:102EE0000400FA0580B582B000AF78607B683422B8
:102EF0009B5CDBB2002B05D17B68DB6C002B01D126
:102F0000012300E000231800BD4602B080BD80B55B
:102F100082B000AF786039607B683A681A63C04657
:102F2000BD4602B080BDFFFF80B582B000AF7860C3
:102F3000044B01221A70044B00221A60C046BD46A1
:102F400002B080BD880500108C05001080B582B0ED
:102F500000AF7860044B1B785A1E9341DBB2180017
:102F6000BD4602B080BDC0468805001080B500AFE8
:102F7000024B1B681800BD4680BDC046900500107E
:102F800080B582B000AF7860084B1A6880235B0080
:102F9000D35CDBB21A0001231340013B5A42534178
:102FA000DBB21800BD4602B080BDC04668660000B6
:102FB00080B582B000AF786012231800BD4602B021
:102FC00080BDFFFF80B582B000AF786002F03CFAB0
:102FD0007B68582201219954054B1A687B681A6650
:102FE0007B680022DA65C046BD4602B080BDC0469F
:102FF0009805001080B582B000AF78607B685B6D8B
:10300000002B08D07B685A6D7B685B6D1B681B6862
:103010000321100098477B68180000F0AFFE02F013
:1030200037FA7B681B6D002B04D07B681B6D180082
:1030300002F076FDC046BD4602B080BD80B586B0C8
:1030400000AF78607B6830229B5C01225340DBB28A
:10305000002B00D0ABE07B68180000F0C1FE7B685D
:1030600058229B5C002B0CD0534B1800FEF7E4F861
:1030700003001A0001235340DBB2002B01D00123CF
:1030800000E00023002B2CD07B681B6E7B614B4B38
:103090001A687B69D11A7B68DA6D002391425B4123
:1030A000DBB2002B07D002F069F8031E03D0434BBC
:1030B0001A687B681A667B681B6E3B613F4B1A6817
:1030C0003B69D11AFA23DA00002391425B41DBB25B
:1030D000002B06D07B681B6EFA2292009A187B6840
:1030E0001A667B685B6B002B0BD07B685B6CFB60AC
:1030F000324B1A68FB68D31A314A934201D9012333
:1031000000E00023002B08D07B68002281211800FA
:1031100000F05CF87B6800225A632A4B1B68180099
:10312000FFF714FF031E0FD0234B1800FFF7DAFE42
:10313000031E09D0204B9B69002B05D17B685B6B7C
:10314000002B01D1012300E00023002B30D01E4BC7
:103150001B68002B24D0194B1B681A001A4B1B68E4
:10316000D31ADA17D31ADB0FDBB2002B20D07B681F
:103170005B6D002B08D07B685A6D7B685B6D1B68AC
:103180001B6802211000984702F082F97B681B6DD2
:10319000002B0DD07B681B6D180002F0C1FC07E00E
:1031A000064B1B6832331A00074B1A6000E0C0461A
:1031B000BD4606B080BDC0469C02001098050010B8
:1031C000701700006C6600008C05001080B584B09C
:1031D00000AFF860B9607A60BB684022134005D048
:1031E0007B683C221340BA681343BB60164B1B78C4
:1031F0000C221340DBB2502252421343D9B2FB6877
:1032000038229954FB685B6B1B12D9B2FB683B22D6
:103210009954FB685B6BD9B2FB683C229954FB68FC
:103220003D2260219954BB68D9B2FB683E22995473
:10323000FB6838331900044B0722180001F0CCFD5D
:10324000C046BD4604B080BD9C02001090B585B05C
:1032500000AF7860554BDB781B021AB2534B1B79D9
:103260001BB213431AB20E203B181A804F4B9A79A7
:103270000D23FB183C218A431A704C4B9B791B028F
:103280001AB2C0239B0013401AB2484BDB791BB221
:1032900013431AB20A243B191A803B181B88002BCF
:1032A0003ED17B681800FFF76BFE031E00D174E06F
:1032B0003B191B88C02B0AD178683C4B1B7A1B0238
:1032C0003A4A527A1343190000F06AFD65E00A2376
:1032D000FB181A8880235B009A425ED1334B1B781F
:1032E0000C221340DBB2502252421343DAB27B6805
:1032F0001A717B680022DA717B6800221A727B687F
:10330000E1225A727B6801229A727B684022DA724B
:103310007B68191D254B0822180001F05DFD3CE07B
:10332000224B5B795BB2002B25DB0E23FB181C883C
:103330001E4B1800FDF774FF0300E31A5A42534175
:10334000DBB2002B29D00D23FB181B785BB2002BBE
:1033500008DA164B9B791A007B681100180000F000
:10336000B3FB1AE00A23FB181A887B6811001800C7
:1033700000F0D6F811E00D23FB181B78002B0CD1C0
:103380000E23FB1818880A23FB181A88F0239B00C9
:103390001340064A190001F0A9FF044B1800FDF77D
:1033A00065FFC046BD4605B090BDC0469C020010FA
:1033B00080B584B000AF786039603B68002B19D1CC
:1033C0007B681800FFF7F4FD0300FB607B68632255
:1033D0005A727B6843229A727B684022DA72FB68D9
:1033E0001B12DAB27B681A73FB68DAB27B685A7315
:1033F000012300E000231800BD4604B080BDFFFF9C
:1034000080B584B000AFF860B9607A60FFF7AEFDB8
:1034100003001A00FB689B1AFB60FB68602B04D852
:10342000FA687B68D3185F2B08D8FA68164BD31854
:103430007A68B968180002F0D9FF20E07B685A1E4C
:103440007A605A1E9341DBB2002B18D0FB68602BC8
:1034500007D10E4B1A68BB68197880235B00D154E2
:1034600006E0BB681978084AFB68D3180A1C1A7072
:10347000BB680133BB60FB680133FB60DEE7C0461D
:10348000BD4604B080BDC0468403001068660000DD
:1034900080B584B000AFF860B9607A60FFF766FD70
:1034A00003001A00FB689B1AFB60FB68602B04D8C2
:1034B000FA687B68D3185F2B08D8FA68164BD118C6
:1034C0007A68BB68180002F091FF20E07B685A1E02
:1034D0007A605A1E9341DBB2002B18D0FB68602B38
:1034E00008D10E4B1A6880235B00D35CDAB2BB684C
:1034F0001A7005E0084AFB68D3181A78BB681A707E
:10350000BB680133BB60FB680133FB60DEE7C0468C
:10351000BD4604B080BDC04684030010686600004C
:10352000B0B590B002AF78603960CC4B5B781B02CD
:10353000CA4A927813433B63C84B9B791A003C23D9
:103540001340FB623723FB1800221A703623FB1846
:1035500000221A707B685B6B3A6B9A4200D0A7E23C
:10356000BF4B1A687B685A647B6800229A723A687B
:10357000F0239B001340BB62BA6AC0239B009A42AF
:1035800000D1C4E1BA6AC0239B009A4200DDD2E1B7
:10359000BA6AA0239B009A4237D0BA6AA0239B0044
:1035A0009A4200DDC7E1BA6AC0235B009A4205D0A7
:1035B000BA6A80239B009A4227D0BCE1A74BDB79F3
:1035C0001A003F2313407B61A44B1B7A7B627B680C
:1035D00064225A727B6841229A727B695BB24022F4
:1035E000524213435BB2DAB27B68DA727B6ADAB2B8
:1035F0007B681A737B6800225A737B6800229A7377
:103600003623FB1801221A70EDE1944BDB791A0086
:103610000F2313407B62914B1B7A1B028F4A527A15
:1036200013433B62BA6AA0239B009A4200D098E001
:103630007B681B6D002B0DD07B681A6D7B681B6D42
:103640001B6808331B68396A10009847031E01D0B5
:10365000012300E00023002B09D07B68186D7B68F4
:103660001B6D1B681C687F4A7B6A396AA0473B6AEE
:10367000FF2B58DD3A6A80239B009A4253DA3A6A5C
:103680007B6AD21880239B009A420FDC3B6A5A1E49
:10369000FF3A754BD31873497A6A180002F0A6FEF8
:1036A000724B1B681800FFF73FFC55E03B6A802215
:1036B0009200D31AFB613B6A5A1EFF3A6A4BD31839
:1036C0006849FA69180002F091FE684B1B681800FF
:1036D000FFF72AFC7B681B6D002B0ED07B681A6DF0
:1036E0007B681B6D1B6808331B68802189001000F4
:1036F0009847031E01D0012300E00023002B2BD0AC
:103700007B68186D7B681B6D1B681C68FB690A333E
:103710001A00524BD5187A6AFB69D31A802291009D
:103720002A00A04718E0FFF721FC02003B6A934201
:1037300008DBFFF71BFC0300FF333A6A9A4201DC07
:10374000012300E00023002B07D03B6A45497A6A39
:103750001800FFF755FE00E0C0463723FB18C222D1
:103760001A70BA6A80239B009A4200D03AE13B6A01
:10377000FF2B64DD3A6A80239B009A425FDA3A6A43
:103780007B6AD21880239B009A420DDC7B6804334D
:103790000A3318003B6A5A1EFF3A334BD3187A6A31
:1037A000190002F023FE6EE03B6A80229200D31AD9
:1037B000BB617B6804330A3318003B6A5A1EFF3A28
:1037C000294BD318BA69190002F010FE7B681B6DF3
:1037D000002B0ED07B681A6D7B681B6D1B6808334D
:1037E0001B688021890010009847031E01D0012327
:1037F00000E00023002B15D07B68186D7B681B6DE3
:103800001B6804331C687B681A1DBB690A33D51812
:103810007A6ABB69D31A80229100002200922A00A2
:10382000A04730E07B681A1DBB690A33D0187A6A5A
:10383000BB69D31A1A00002102F02AFE23E0FFF729
:1038400095FB02003B6A934212DBFFF78FFB0300FC
:10385000FF333A6A9A420BDC01230AE09C02001013
:1038600098050010A6020010880400106C66000085
:103870000023002B07D0386A7B6804330A337A6A46
:103880001900FFF705FE7B681B6D002B0DD07B68D0
:103890001A6D7B681B6D1B6808331B68396A100042
:1038A0009847031E01D0012300E00023002B0FD016
:1038B0007B68186D7B681B6D1B6804331C687B6814
:1038C00004330A331A007B6A396A00250095A04741
:1038D0007B6ADBB26333DAB27B685A727B6842225E
:1038E0009A727B6A5BB2402213435BB2DAB27B68A6
:1038F000DA723B6A1B12DAB27B681A733B6ADAB27D
:103900007B685A733623FB1801221A706AE03B6801
:103910003F221A407B6811001800FFF749FD031E83
:1039200004D03623FB1801221A705CE03723FB1801
:10393000C3221A7057E03B685F4A934205DC3A683D
:10394000E0239B009A4205DA46E03B685B4A9342DB
:1039500031D041E03B680122134011D0584B1B7A13
:103960003B61574B5B7AFB603B69002B08D1FB68DE
:10397000FF2B05D180235B05BB60BB68514A1A60F1
:103980007B685B6D002B08D07B685A6D7B685B6D34
:103990001B681B6801211000984701F079FD7B68C6
:1039A0001B6D002B04D07B681B6D180002F0B8F86B
:1039B000FFF788FA15E07B6862225A727B6843221F
:1039C0009A727B68D222DA727B6800221A733623DD
:1039D000FB1801221A7004E03723FB18C3221A7067
:1039E000C04600E0C0463623FB181B78002B03D0EE
:1039F0003723FB18C2221A703722BB181B78002B02
:103A000007D0BB181978FA6A7B681800FFF7DEFB4D
:103A100003E07B683822002199543623FB181B7879
:103A2000002B46D0264B1B780C221340DBB25022D1
:103A300052421343DAB27B681A717B685B6B1B12CC
:103A4000DAB27B68DA717B685B6BDAB27B681A7218
:103A50007B689B7A1A004023134016D07B689B7AC0
:103A60003C229343DAB27B689A727B689B7A5AB2A3
:103A70007B681B6C5BB213435BB2DAB27B689A72F1
:103A80007B6848220121995403E07B684822002189
:103A900099547B68191D7B685B7A9BB20F22134097
:103AA0009BB207339AB2064B180001F095F900E07B
:103AB000C046BD460EB0B0BD81030000D10300007A
:103AC0009C02001055B01F5E80B584B000AF7860D6
:103AD0003960414B5B781B023F4A92781343FB608D
:103AE0003B684022134044D03B68C32213403B60F4
:103AF0003B68C22B27D1384B9B791A003C231340DB
:103B0000BB607B6848229B5C002B2DD07B685B6B85
:103B1000FA689A4228D17B68DB6CBA689A4223D053
:103B20007B681B6C1A1D7B681A647B681B6C3C22CB
:103B30001A407B681A647B684822002199547B688C
:103B4000BA68DA6410E03B68C32B0DD17B685B6B0D
:103B5000FA689A4208D17B68002281211800FFF799
:103B600035FB7B6800225A637B6848220121995407
:103B70002EE03B68802B1BD17B685B6B002B27D131
:103B8000164B1A687B685A647B68FA685A637B68CC
:103B900000221A647B684822002199547B68012224
:103BA0005242DA640C4B00211800FFF7B0F90FE025
:103BB0003B68812B0CD17B685B6BFA689A4207D11A
:103BC0007B6800225A63044B00211800FFF79FF91D
:103BD000C046BD4604B080BD9C0200109805001090
:103BE00080B582B000AF78607B685B681800BD4626
:103BF00002B080BD80B582B000AF786039607B686C
:103C00003A685A607B6800221A60C046BD4602B01E
:103C100080BD80B582B000AF7860C046BD4602B0BE
:103C200080BDFFFF80B500AF034B180000F018FC0B
:103C3000C046BD4680BDC0469C02001080B582B023
:103C400000AF78600D4A7B681A607B6824331800E7
:103C500001F0A0FC7B680A4ADA617B68DB69180026
:103C600002F0C4FA7B6801221A627B6830220021CC
:103C700099547B681800BD4602B080BD24660000E0
:103C800040825C0080B584B000AFF860B9607A60B3
:103C90003B60FB681B680C331B68FA681000984790
:103CA000FB6800221A71FB68382200219954FB68D6
:103CB00000221A64FB68482200219954FB68012203
:103CC0005242DA64FB6800225A63244B1A6880234C
:103CD0005B002E21D154214B1B6862220021995494
:103CE0001E4B1A680223FF330121D1541C4B1B6861
:103CF000FF225A731A4B1B6800221A73BB681A12F0
:103D0000174B1B68D2B2DA70154B1B68BA68D2B277
:103D10001A717B681A12124B1B68D2B25A71104B7F
:103D20001B687A68D2B29A710D4B1B683A68D2B29E
:103D3000DA710C4B00221A60FB6830220121995481
:103D4000094B180000F05AF9FB68243301211800D0
:103D5000FFF750FFC046BD4604B080BD6866000056
:103D60006C6600008C0500109C02001080B582B0CB
:103D700000AF7860C046BD4602B080BD80B582B05D
:103D800000AF78607B68302200219954034B180003
:103D9000FFF73FFFC046BD4602B080BD9C02001049
:103DA00080B582B000AF786039603B681A120A4B68
:103DB0001B68D2B2DA75084B1B683A68D2B21A7621
:103DC000054B1B681800FFF7AFF8044B3A68DA623E
:103DD000C046BD4602B080BD6C6600009C0200106B
:103DE00080B588B000AF78607B6830229B5C012290
:103DF0005340DBB2002B00D0A5E0554B1800FDF777
:103E000028FA031E16D0524B1800FDF715FA0300CE
:103E10001A0001235340DBB2002B0BD04D4B1A6824
:103E200080235B00D35CDBB21A000423134001D073
:103E3000012300E00023002B06D07B681B680433BD
:103E40001B687A68100098477B68DB69002B00D1FB
:103E50007AE07B68DB69404A11001800FEF73CFEFF
:103E60007B6824331800FFF7BBFE0300FB617B680F
:103E7000243318007B68DB69BB61BB695B110322DB
:103E80001A40364B9200D358BA691F210A400121CB
:103E900091400A009200D3585A1E9341DBB232225D
:103EA000190001F083FB031E04D1FB69002B01D034
:103EB000012300E00023002B0ED0264B1A6880233C
:103EC0005B00D35CD9B2234B1A687F235B424B4023
:103ED000D9B280235B00D1547B68DB69C022D20158
:103EE00011001800FEF7F8FD7B68DA69194B1968B4
:103EF00080235B00CB5CDBB21900012319407B6897
:103F00001B6ACB1A591E8B41D9B27A6113203B1818
:103F10000A1C1A707B691F22134001229A40130069
:103F2000FB603B181B78002B01D0FB6800E00023EE
:103F30007A69521103211140084A89008A58F968A8
:103F400089008B5000E0C046BD4608B080BDC04629
:103F50009C020010686600001010000094650000CC
:103F600080B582B000AF7860C046BD4602B080BD6B
:103F700080B582B000AF0200FB1D1A70FB1D1B78DC
:103F80001A001F23134001229A40034B1A60C046B7
:103F9000BD4602B080BDC04600E100E080B584B0FF
:103FA00000AFF860B9607A603B60FB68BA68DA61BC
:103FB000FB687A681A62FB683A685A62FA681823E2
:103FC000FB1828211B785354FB681C22BA1829219E
:103FD00012785A54FB6829229B5C0233DBB203221D
:103FE0001340D9B2FB682A229954FB68342200217D
:103FF0009954FB681800BD4604B080BD90B593B0DD
:1040000000AF7860684B1B68DB7D1A02664B1B684B
:104010001B7E1A437B68DA627B6800229A617B68A8
:104020003422002199547B6800221A637B680022A5
:10403000DA647B6800221A657B680422DA637B6895
:104040006822002199547B68DB69180001F09EFE0C
:104050007B68DB697A682921525C7B613A617B6904
:104060001B685A6F01213B6999400B0019007B695D
:104070001B680A435A67C0467B68D8697B68282258
:104080009B5C8122190001F0F4FE7B68DB69BB6157
:10409000BB691B685A68BB691B6801210A435A60E7
:1040A000C0467B68DB69FB61FB691B791033DBB2BF
:1040B0005BB21800FFF75CFFC0467B68DC693B4BD6
:1040C0001B683B49180002F0E3F80300013B7C62E7
:1040D0003B627B6A1B683A6ADA60C0467B68DB69D0
:1040E0007A682A21525C3B63FA62324BBB623B6BBB
:1040F0001B6818331A00FB6A9B00D318BA6A1A604F
:10410000C0467B68D8697B682A229B5C0222190022
:1041100001F060FE7B68DB697A682921525CFB63F1
:10412000BA63254B7B63FB6B1B6818331A00BB6BB0
:104130009B00D3187A6B1A60C0467B68DB697B648E
:104140001D4B3B647B6C1B683A6C9A60C0467B6875
:10415000DB697A682921525CFB60BA60FB681B68E6
:10416000DB6B0121BA6891400A0013405A1E93414B
:10417000DBB2013B5A425341DBB2002B00D0E6E7F1
:104180007B685B6AE022D20111001800FEF7A4FCF4
:104190007B681B6A094A11001800FEF79DFCC046A7
:1041A000BD4613B090BDC0466C6600000400001010
:1041B00040420F00FEFF0000FFFF00002020000033
:1041C00080B588B000AF78607B68D8697B682822AA
:1041D0009B5C8122190001F04CFE7B68D8697B68EA
:1041E0002A229B5C0222190001F0F4FD7B68DB6946
:1041F0007A682A21525C3B61FA60154BBB603B69CF
:104200001B6818331A00FB689B00D318BA681A6041
:10421000C0467B68DB697A682921525CFB61BA6120
:104220000C4B7B61FB691B6818331A00BB699B0050
:10423000D3187A691A60C0467B68342200219954E9
:104240007B6800221A63C046BD4608B080BDC046E8
:10425000FEFF0000FFFF000080B588B000AF78606F
:104260000A00FB1C1A707B6800221A637B686822B4
:104270009B5C002B00D096E07B681B6C072B64DDF9
:10428000FB1C1B78002B60D07B68DB781B027A68F4
:1042900012791343BB611F23FB1800221A707B683D
:1042A0005B795BB2002B12DABB69002B05D0BB69CE
:1042B0001800FEF7B1FD031E01DB012300E000231F
:1042C000002B11D01F23FB1801221A700CE07B6811
:1042D000DB6ABA69D31A5A425341DBB2002B03D0CE
:1042E0001F23FB1801221A704C4B1A6880235B00B5
:1042F000D35CDBB21A00042313405A425341DBB2B1
:10430000002B15D07B681A6C7B689A61434B1A6846
:1043100080235B00D35CDBB21A00022313405A1ED9
:104320009341DBB2002B3DD07B68CC221A6339E08D
:104330001F23FB181B78002B34D07B681A6C7B681A
:104340009A617B68CC221A632CE07B681B6C012B82
:1043500021D17B685B6CFF221A407B685A647B68C2
:104360005B6CCC2B05D07B689A6B7B68DB6B9A42CD
:1043700009DD7B68DB6C002B05D07B689B6B002B19
:1043800001DD012300E00023002B0CD07B68180026
:1043900000F04CF807E07B6800229A617B680C22F1
:1043A0001A6300E0C0467B68DA697B682A215B5C9F
:1043B00019007B681B6B002B01D0194B00E0194BD7
:1043C0007A613961FB607B691B6818331A003B69AD
:1043D0009B00D318FA681A60C0467B68D8697B686E
:1043E0002A229B5C0322190001F0F4FC7B68D86947
:1043F0007B6828229B5C8122190001F03AFD7B68D2
:104400006822002199547B68342203219954064B79
:10441000DF221A60C046BD4608B080BD6866000055
:1044200031040000E81300007C03001080B582B066
:1044300000AF78607B68DB6C00221A707B681A6DB5
:104440007B68DA647B6800221A657B6800229A63C5
:104450007B6800229A64C046BD4602B080BDFFFF63
:10446000B0B5BEB000AF78607B6834229B5CDBB235
:10447000092B01D900F055FC9A00C94BD3181B68D1
:104480009F467B68DB697A682821525CEC217818AA
:104490000360EB203B181A707B181B681B681B68B5
:1044A0003A181278102191400A0013405A1E934185
:1044B000DBB201225340DBB2002B01D000F03AFC0A
:1044C0007B6800221A647B686822002199547B680B
:1044D000FF225A667B6800221A637B6801221A66F3
:1044E0007B68DB697A682821525CE42178180360D4
:1044F000E3203B181A707B181B681B681B683A186E
:104500001278102191400A0013405A1E9341DBB2E9
:1045100001225340DBB2002B11D07B681B6E002BB5
:1045200005D07B685B6E002B01D1012300E00023E6
:104530007A6819001000FFF78FFE00F000FC7B681E
:10454000DB697A682A21525CD82178180360D4206C
:104550003B181A60934BD0243A1913607B181B68E0
:104560001B6818331A003B181B689B00D3183A19B4
:1045700012681A60C0467B68DB69DC217A18136018
:104580007B181B681B6802225A607B181B681B681B
:1045900001225A60C0467B68D8697B682A229B5CEE
:1045A0000322190001F016FC7B6834220121995482
:1045B0007B6800225A647B6800229A657B6801222E
:1045C0005A657B680122DA6500F0B9FB7B68DB691C
:1045D0007A682A21525CCC2178180360CB203B18E2
:1045E0001A707B181B681B681B683A181278012127
:1045F00091400A0013405A1E9341DAB2F3217B180E
:104600001A707B181B78002B04D0664BF422BA1862
:10461000136017E07B68DB697A682821525CC4214B
:1046200078180360C0203B181A607B181B681B6851
:104630002C331A003B181B689B00D3181B68F4220C
:10464000BA1813607B689B6D4433F422BA18126861
:104650009A4233DD7B689B6D68331A007B689A65EC
:104660007B689B6D4433F422BA1812689A4220DDAD
:104670007B685A6D80235B009A421ADC7B685A6C17
:104680007B685B6D1A437B685A647B68DB6D5A42BA
:104690005341DBB21A007B68DA657B689B6D683337
:1046A0001A007B689A657B685B6D5A007B685A6567
:1046B000D6E77B685B6D5A007B685A65F323FB186D
:1046C0001B78002B00D137E37B681A6E7B68DB6DAB
:1046D0001A407B681A667B681B6C172B10DC7B68A2
:1046E000586C7B681B6C591C7A681164C1B27A687B
:1046F000D1547B685A6E7B685B6C5A407B685A6603
:104700007B683422022199547B68DB697A682A210C
:10471000525CBC2178180360B8203B181A60D02383
:104720005B00B4243A1913607B181B681B681833AC
:104730001A003B181B689B00D3183A1912681A60BC
:10474000C046F9E27B68DB697A682821525CB021B7
:1047500078180360AF203B181A707B181B681B6821
:104760001B683A181278102191400A0013405A1E13
:104770009341DBB2002B04D07B6834220021995492
:1047800072E67B681B6B5A1E9341DBB2002B0BD089
:104790006823F422BA1813607B6800229A6461E0EF
:1047A00034660000420400007B689A6B7B68DB6B18
:1047B00001219A4201DC0023191CCBB2002B03D04B
:1047C0007B681800FFF732FE7B68DB6C002B44D05F
:1047D0007B68DB6C1B78DBB29B08DBB21A0003231F
:1047E0001340013368225343F422BA1813607B68E4
:1047F000DB6C05331B78DBB21A000F231340083340
:104800001A007B689A647B689B6B013B5A42534158
:10481000DBB2002B26D07B68DB6C1B78DAB27B68BE
:10482000DB6C20218A43D2B21A707B68DA6C7B6819
:104830009B6C013BD3181B78DAB27B68D96C7B6820
:104840009B6C013BCB1820214A40D2B21A707B6886
:104850009B6B5A1C7B689A6304E07B681800FFF727
:10486000AFFC6CE27B68DA697B6829215B5C19002C
:10487000F4203B181B689C243D192A6098257A195E
:10488000116094217A1813603B191B681B68183358
:104890001A007B191B689B00D3187A1812681A60DB
:1048A000C0467B68DB697A682A21525C11003A189D
:1048B00012682332A8203C182360A4243B191960F5
:1048C000A0217B181A603B181B681B6818331A005C
:1048D0003B191B689B00D3187A1812681A60C046EF
:1048E0007B68D8697B682A229B5C0322190001F04F
:1048F00071FA7B68D8697B6828229B5C8122190049
:1049000001F0B7FA7B6800221A647B683422042124
:10491000995414E27B68DB697A682821525C902103
:10492000781803608F203B181A707B181B681B686F
:104930001B683A181278102191400A0013405A1E41
:104940009341DBB2002B41D07B68DB698022B91830
:104950000B60BB181B681B689A687B68DB69796809
:104960002920095C88203C18236084243B191960A5
:104970003B181B681B68183319003B191B689B0008
:10498000CB181B680A3B9A429B415B42DBB2002B6F
:1049900017D07B68DB697A682921525CFB67BA67AC
:1049A000E24B7B67FB6F1B6818331A00BB6F9B00E1
:1049B000D3187A6F1A60C0467B683422022199545A
:1049C00052E57B68342205219954B8E17B68DB69A4
:1049D0007A682A21525C3B676F23FB181A703B6F81
:1049E0001B681B687B681B6B5A1E9341DBB2002B54
:1049F00004D07B681A6B7B685A640DE07B68D96CC5
:104A00007B681A6C501C7B6818641300CB181B78E9
:104A1000DBB21A007B685A647B6801225A657B68A6
:104A20005B6DFF2B12DC7B685A6C7B685B6D1340FF
:104A300006D07B685B6C802252005A407B685A64C7
:104A40007B685B6D5A007B685A65E8E77B680122EA
:104A50005A656823F422BA1813607B685A6C7B6825
:104A60005B6D134011D07B685A6D80235B009A42C6
:104A70000BDC7B685B6D5A007B685A65F422BB18BF
:104A80001B686833BA181360E7E77B685B6D5A00F0
:104A90007B685A65F423FB181B68682B04DC7B6871
:104AA00034220621995403E07B683422072199546B
:104AB0007B685A6D80239B009A421EDDF422BB184E
:104AC0001B683933FF33BA1813607B681A6C7B6834
:104AD0009B6C9A4205DA7B681B6B002B01D101238A
:104AE00000E00023002B04D07B6834220521995478
:104AF00003E07B683422092199547B6834229B5C53
:104B0000DBB2073B5A425341DBB2002B09D07B6832
:104B1000D8697B6828229B5C8122190001F0A9F9E1
:104B200008E07B68D8697B6828229B5C802219009A
:104B300001F09FF97B6834229B5CDBB2093B5A424F
:104B40005341DBB2002B12D07B68DB697A682921E4
:104B5000525CBB667A66754B3B66BB6E1B6818334E
:104B60001A007B6E9B00D3183A6E1A6016E07B68C1
:104B7000DB697A682921525C1100F422BA181268A4
:104B8000233AFB65B9657A65FB6D1B6818331A001B
:104B9000BB6D9B00D3187A6D1A60C0467B68DA69DA
:104BA0007B682A215B5C1900F423FB181B683A65BB
:104BB000F964BB643B6D1B6818331A00FB6C9B00E7
:104BC000D318BA6C1A60C046B9E07B68DB697A68B2
:104BD0002821525CFB63BA63FB6B1B682C331A0001
:104BE000BB6B9B00D3181A687B68DB697968292046
:104BF000095C7B6439647B6C1B68183319003B6C5F
:104C00009B00CB181B68453B9A429B415B42DBB241
:104C1000002B1BD07B68DB697A682921525C7B639F
:104C20003A63424BFB627B6B1B6818331A003B6B89
:104C30009B00D318FA6A1A60C0467B6834220121AF
:104C400099547B6868220121995478E07B6834226A
:104C50000621995473E07B68DB697A682A21525CEB
:104C6000BB627A62324B3B62BB6A1B6818331A0024
:104C70007B6A9B00D3183A6A1A60C0467B68D86981
:104C80007B6828229B5C8122190001F0F2F87B6886
:104C90001B6B5A1E9341DBB2002B03D07B680022B2
:104CA0001A6304E07B689B6B5A1C7B689A637B6881
:104CB00034220821995442E07B68DB697A68282114
:104CC000525CFB611B217B181A70FB691B681B6817
:104CD0007A181278102191400A0013405A1E93410D
:104CE000DBB2002B14D07B68DB697A682821525C28
:104CF0007B613A617B691B682C331A003B699B001E
:104D0000D3181A689323DB009A4201D8012300E0EC
:104D10000023002B12D17B68342203219954FFF722
:104D2000A3FB7B681800FFF74BFA08E0FFFF0000C9
:104D300050140000C04602E0C04600E0C0467B6858
:104D4000DB69FB60FB681B68FF221A60C046C04637
:104D5000BD463EB0B0BDC04680B586B000AFF8607D
:104D6000B960BB1D1A801723FB18FF221A70FB685D
:104D7000DB6A1A12BB680133D2B21A70FB68DA6AB6
:104D8000BB680233D2B21A701423FB1800221A80B7
:104D900014203A18BB1D12881B889A4210D23B1867
:104DA0001B88BA68D31819781722BB18BA1812785A
:104DB0004A401A703B183A18128801321A80E7E705
:104DC000BB1D1B88BA68D3181722BA1812781A703C
:104DD000C046BD4606B080BD80B58AB000AFF86061
:104DE000B960BB1D1A80BB1D1A88B968FB68180022
:104DF000FFF7B2FFFB681B6D002B00D0FAE7FB68E2
:104E0000DB6C002B03D1FB68BA68DA6409E0FB684D
:104E10001B6D002B03D1FB68BA681A6501E001F035
:104E200065F972B6C046C046FB6834229B5CDBB2B3
:104E30005A425341DBB2002B2CD0FB6800229A630C
:104E4000FB68342203219954FB68DB69FA682A2144
:104E5000525CFB61BA6101237B61FB691B681833FB
:104E60001A00BB699B00D3187A691A60C046FB68B8
:104E7000D869FB682A229B5C0322190000F0AAFF74
:104E8000FB68DB697B6200233B627B6A1B683A6AD2
:104E90009A60C04662B6C046C046C046BD460AB02B
:104EA00080BD80B582B000AF78607B68180000F0EC
:104EB00006F803009B781800BD4602B080BD80B59F
:104EC00082B000AF786000F073FA01007A681300D6
:104ED0005B009B180233CB181800BD4602B080BDA2
:104EE00080B584B000AF78607B681800FFF7D9FF09
:104EF0000300FB60FB68052B01DC002303E0FB687B
:104F0000063B034AD35C1800BD4604B080BDC046D2
:104F10005C66000080B584B000AF7860396000F056
:104F200057FA0300FB60FB68002B19D07B68012255
:104F3000134002D03B681B013B607B685B101A008A
:104F4000FB689B181B785AB23B685BB213435AB29A
:104F50007B685B101900FB685B18D2B21A7000E026
:104F6000C046BD4604B080BD80B584B000AF786057
:104F70007B681800FFF7A3FF0300FB60FB685B780A
:104F80001A002023134005D0FB681B781A00064B3B
:104F9000D31804E0FB681B781A00044BD3181800E0
:104FA000BD4604B080BDC0468804001084030010D4
:104FB00080B500AF00F0FCF903001B781800BD4677
:104FC00080BD80B586B000AF7860FDF76BFF030051
:104FD0007B617B691B785B001A007B699B183B61D6
:104FE0007B6901337B617A693B699A421BD27B6999
:104FF00001331B781A007B68934210D1FDF748FFFC
:1050000002007B691B785B000133D318FB60FB68EF
:105010001B781B02FA6801321278134304E07B69A3
:1050200002337B61DFE700231800BD4606B080BD78
:1050300080B582B000AF78603960134B1B68BC222A
:105040001A713B681A12104B1B68D2B2DA710E4B00
:105050001B683A68D2B21A720B4B1B68E1225A7273
:10506000094B1B6800229A72074B1B680022DA72F8
:10507000054B1B68191D054B08221800FFF7ACFEF5
:10508000C046BD4602B080BD806500009C02001095
:1050900080B586B000AFF860B960FB1D1A70FB6880
:1050A0001800FFF761FF03007B61FB681800FFF742
:1050B00017FF03003B612F4B1B68BC221A71BB68B2
:1050C0001A122C4B1B68D2B2DA712A4B1B68BA68D1
:1050D000D2B21A723B69DBB20133DBB25BB20F2290
:1050E00013405BB22022524213435AB2214B1B6839
:1050F000D2B25A721F4B1B6800229A72FB1D1B789A
:10510000002B01D0402200E080221A4B1B68DA728B
:105110003B69002B09D0174B1B68043308333A69ED
:105120007969180000F0C4FF0CE0124B1B68D97AB3
:105130007B691B783F221340DAB20E4B1B680A438F
:10514000D2B2DA720B4B1B681A1DBB6880211800A3
:1051500000F0CCF8074B1B68191D3B699BB2083364
:105160009AB2054B1800FFF737FEC046BD4606B0A1
:1051700080BDC046806500009C02001080B588B0EC
:1051800000AF0020FFF79BFE03007B6100F020F9D9
:1051900003003B613B69002B01D1002372E0FFF764
:1051A00007FF0300FB60394B1B68BB61BA69FB68F2
:1051B0009A4263DABB695B101A003B699B181B7843
:1051C000FB61BB690122134002D0FB691B11FB612B
:1051D000FB6903221340032B4CD1BB699B000422C3
:1051E000134003229A401300BB60BB695B101A0096
:1051F0003B699B181A78BB68DBB2DB43D9B2BB6949
:105200005B1018003B691B180A40D2B21A70BA69C9
:1052100013005B009B187A69D3185B787B60BB69CD
:105220001800FFF7CEFE03003B603B68002B1ED04A
:105230007B68042213401AD0FB690422134006D075
:105240003A68BB6911001800FFF7F2FE09E07B68BD
:10525000402213400DD03968BB6900221800FFF7C7
:1052600017FFBB695A1C094B1A6001230AE0C046AC
:1052700000E0C046BB690133BB6197E7034B0022E6
:105280001A6000231800BD4608B080BD80030010DE
:1052900080B584B000AF786039607B681800FFF794
:1052A00063FE0300FB607B681800FFF719FE030034
:1052B000BB60BB68002B08DD3B6808331900BA6887
:1052C000FB68180000F0F4FE07E03B6807331B782A
:1052D0003F221340DAB2FB681A707B68082118007D
:1052E000FFF718FEC046BD4604B080BD80B58CB047
:1052F00000AFF860B9607A600020FFF7E0FD0300BE
:10530000BB62FDF7CFFD03007B627B6A1B785B000D
:1053100001333B62FB681800FDF77EFD0300FB6173
:10532000FB69002B3FDB0123FB62FA6A3B6A9A426E
:105330003ADAFB6A7A6AD3181B781A00FB6993423F
:105340002DD1FB6A01337A6AD3181B78BB61BA6925
:1053500013005B009B18BA6AD3185B787B61BB684B
:10536000802B02D0BB68402B0BD17B6914221340E9
:10537000142B14D17A68BB6911001800FFF788FF5D
:105380000DE0BB68002B0AD17B690C2213400C2B6B
:1053900005D1F968BB6901221800FFF779FEFB6AA5
:1053A0000233FB62C1E7C046BD460CB080BDFFFFC3
:1053B00080B500AF044B1B689B7C1A00034BD318CD
:1053C0001800BD4680BDC0466C6600008804001011
:1053D00080B500AF054B1B689B7C0133044AD35C4E
:1053E0001A00044BD3181800BD4680BD6C6600003F
:1053F000880400108403001080B582B000AF00F074
:1054000033FA03000F4A944663443B6000F02CFAE1
:105410000300013BFF3B7B607A683B689A420BD3F9
:105420007B68FF331B78FF2B01D07B6805E07B682E
:10543000013BFF3B7B60EFE700231800BD4602B055
:1054400080BDC04600F0FFFF80B582B000AFFFF71F
:10545000D3FF03007B607B68002B07D080235A00BA
:105460007968094B180000F0C1FF06E080235A005C
:10547000054B0021180001F00BF8044B00221A70B4
:10548000C046BD4602B080BD8804001088050010EB
:1054900090B585B000AF3B4B1B78DBB25A4253410D
:1054A000DBB2002B69D1384B1800FDF71BFD030060
:1054B0001A0001235340DBB2002B00D0F3E772B691
:1054C000C046C046FFF798FF0300FB6000F0CCF930
:1054D0000300013BFF3B1A00FB689B1A5A425341F1
:1054E000DBB2002B1FD000F0BFF90300274A94461F
:1054F0006344180000F0A6F90300BB60FC1DBB6804
:10550000180000F0B7F803002370FB1D1B78002B78
:1055100001D000F0EBFD00F0A7F903001B4A944610
:105520006344FB600EE0FB68002B04D0FB68013392
:10553000FF33FB6006E000F097F90300134A94463E
:105540006344FB60124BFF2200219954BC1D802351
:105550005A000F49FB68180000F018F90300237087
:10556000BB1D1B78002B01D000F0C0FD62B6C04609
:10557000C046044B00221A7000E0C046BD4605B08C
:1055800090BDC046880500109C02001000F0FFFF8F
:105590008804001080B582B000AF78607B6800227C
:1055A0001A607B681800BD4602B080BD80B586B029
:1055B00000AFF860B9607A60124B1B687B61FB68D2
:1055C0009B68BA689A4206D0FB687A691A60FB68E1
:1055D000BA689A6010E0FB681B68002B0CD0FB686F
:1055E0001A687B68D3187A69D31A05D4FB6800223D
:1055F0001A60FB68BA685A60FB685B681800BD46B1
:1056000006B080BD9805001090B583B000AF7860FB
:10561000396072B6C046C0463A687B68054C1100D6
:105620001800A04762B6C046C046C046BD4603B09B
:1056300090BDC046F11FFF1F90B58DB000AF7860E0
:1056400008217B1832221A607A687B185A607A68BF
:105650007B189A607B1814331A000C007B18110019
:105660001800FFF7D1FF3B195B69DBB21800BD469C
:105670000DB090BD90B58DB000AF78607B6818001C
:10568000FFF7DAFF03001A0008243B195A613B199F
:105690005B69002B31D13B1934221A607A683B19BF
:1056A0005A607A683B199A60184B1B68FA2291007D
:1056B000180000F0EDFD03001A003B19DA603B19F9
:1056C00014331A003B1911001800FFF79DFF210049
:1056D0007B185B69002B10D17B1835221A607A6821
:1056E0007B185A607A687B189A607B1814331A000A
:1056F0007B1811001800FFF787FF0823FB185B6970
:10570000DBB21800BD460DB090BDC04604000010CD
:1057100090B58FB000AF78607B68002B00DA0F3354
:105720001B117B637B6B1800FFF786FF03001A00D9
:105730000C243B195A613B195B69002B1BD13B19A7
:105740003B221A607A683B195A607A683B199A6062
:105750000D4B1B68FA229100180000F099FD030020
:105760001A003B19DA603B1914331A003B19110077
:105770001800FFF749FF0C23FB185B69DBB2180028
:10578000BD460FB090BDC0460400001090B591B06A
:1057900000AFF860B9607A60FB68180000F052F85A
:1057A0000300FB63FB6B1800FFF746FF03001A00C2
:1057B00014243B195A613B195B69002B37D13B1903
:1057C00033221A60FA683B195A60BA683B199A602A
:1057D0003B197A68DA601A4B1B68FA2291001800AC
:1057E00000F056FD03001A003B191A613B191433EF
:1057F0001A003B1911001800FFF706FF21007B1863
:105800005B69002B13D17B1838221A60FA687B1869
:105810005A60BA687B189A607B187A68DA607B18DD
:1058200014331A007B1811001800FFF7EDFE142343
:10583000FB185B69DBB21800BD4611B090BDC046D5
:105840000400001080B582B000AF78607B68002B48
:1058500002DA044A944663441B131800BD4602B0A2
:1058600080BDC046FF0F000080B58EB000AF1A4B60
:105870001B68002B02D0184B1B6828E03B1D35220B
:105880001A6002233B6302237B638023FB627B6BF2
:105890007F2B16DC7A6B3B1D5A607A6B3B1D9A603E
:1058A0003B1D14331A003B1D11001800FFF7ACFE1E
:1058B0003B1D5B69072B03D07B6B02337B63E6E701
:1058C000C0467B6B1A03044B1A60034B1B6818001D
:1058D000BD460EB080BDC0469405001080B584B0B2
:1058E00000AF78600A00BB1C1A807B685B127B608B
:1058F0000023FB60FB68032B11DC7B681F221A402E
:10590000BB1C00215B5E9A4202D1FB681BB208E01F
:105910007B685B117B60FB680133FB60EAE7012376
:105920005B421800BD4604B080BDFFFF90B583B058
:1059300000AF02003960FB1D1A70FB1D1B787F2B26
:1059400032D92F4AFB1D1B7819000F230B40083B4F
:105950009B0806339B00D31804331B68FA1D12788A
:10596000110003220A40D200FF2191400A00D243D5
:105970001A4011003B689B01FF221A40FB1D1B7857
:10598000180003230340DB009A401D48FB1D1B78D1
:105990001C000F232340083B9B080A4306339B004F
:1059A000C31804331A6027E0164AFB1D1B785BB24C
:1059B0009B08C0339B009B58FA1D127811000322EC
:1059C0000A40D200FF2191400A00D2431A40110040
:1059D0003B689B01FF221A40FB1D1B781800032324
:1059E0000340DB009A400748FB1D1B785BB29B0815
:1059F0000A43C0339B001A50C046BD4603B090BD59
:105A000000ED00E000E100E080B582B000AF78601A
:105A10007B685A1E80235B049A4201D3012310E065
:105A20000A4B7A68013A5A6001235B42032118004D
:105A3000FFF77CFF054B00229A60044B07221A6097
:105A400000231800BD4602B080BDC04610E000E053
:105A500080B582B000AF78607B6830229B5C012209
:105A60005340DBB2002B01D000231BE00F4B1A6820
:105A700080235B00D35CDBB21A0009231340082BA0
:105A80000ED10A4B1A680223FF33D35CDBB2012B21
:105A900006D1074B1B685B7BFF2B01D1012300E084
:105AA0000023C0461800BD4602B080BD68660000F5
:105AB0006C66000080B500AF084B1B68FA229100AD
:105AC000180000F0E5FB03001800FFF79DFF044BF2
:105AD00000221A60C046BD4680BDC04604000010CA
